{
  "_format": "hh-sol-artifact-1",
  "contractName": "ArbitrationDAO",
  "sourceName": "contracts/ArbitrationDAO.sol",
  "abi": [
    {
      "inputs": [
        {
          "internalType": "address",
          "name": "_feedToken",
          "type": "address"
        }
      ],
      "stateMutability": "nonpayable",
      "type": "constructor"
    },
    {
      "inputs": [
        {
          "internalType": "address",
          "name": "owner",
          "type": "address"
        }
      ],
      "name": "OwnableInvalidOwner",
      "type": "error"
    },
    {
      "inputs": [
        {
          "internalType": "address",
          "name": "account",
          "type": "address"
        }
      ],
      "name": "OwnableUnauthorizedAccount",
      "type": "error"
    },
    {
      "inputs": [],
      "name": "ReentrancyGuardReentrantCall",
      "type": "error"
    },
    {
      "anonymous": false,
      "inputs": [
        {
          "indexed": true,
          "internalType": "uint256",
          "name": "caseId",
          "type": "uint256"
        },
        {
          "indexed": true,
          "internalType": "address",
          "name": "appellant",
          "type": "address"
        }
      ],
      "name": "CaseAppealed",
      "type": "event"
    },
    {
      "anonymous": false,
      "inputs": [
        {
          "indexed": true,
          "internalType": "uint256",
          "name": "caseId",
          "type": "uint256"
        },
        {
          "indexed": true,
          "internalType": "address",
          "name": "plaintiff",
          "type": "address"
        },
        {
          "indexed": false,
          "internalType": "address",
          "name": "defendant",
          "type": "address"
        },
        {
          "indexed": false,
          "internalType": "string",
          "name": "orderId",
          "type": "string"
        }
      ],
      "name": "CaseCreated",
      "type": "event"
    },
    {
      "anonymous": false,
      "inputs": [
        {
          "indexed": true,
          "internalType": "uint256",
          "name": "caseId",
          "type": "uint256"
        },
        {
          "indexed": false,
          "internalType": "enum ArbitrationDAO.VoteType",
          "name": "outcome",
          "type": "uint8"
        },
        {
          "indexed": false,
          "internalType": "uint256",
          "name": "supportStake",
          "type": "uint256"
        },
        {
          "indexed": false,
          "internalType": "uint256",
          "name": "opposeStake",
          "type": "uint256"
        }
      ],
      "name": "CaseResolved",
      "type": "event"
    },
    {
      "anonymous": false,
      "inputs": [
        {
          "indexed": false,
          "internalType": "string",
          "name": "param",
          "type": "string"
        },
        {
          "indexed": false,
          "internalType": "uint256",
          "name": "value",
          "type": "uint256"
        }
      ],
      "name": "ConfigUpdated",
      "type": "event"
    },
    {
      "anonymous": false,
      "inputs": [
        {
          "indexed": true,
          "internalType": "address",
          "name": "previousOwner",
          "type": "address"
        },
        {
          "indexed": true,
          "internalType": "address",
          "name": "newOwner",
          "type": "address"
        }
      ],
      "name": "OwnershipTransferred",
      "type": "event"
    },
    {
      "anonymous": false,
      "inputs": [
        {
          "indexed": true,
          "internalType": "uint256",
          "name": "caseId",
          "type": "uint256"
        },
        {
          "indexed": true,
          "internalType": "address",
          "name": "voter",
          "type": "address"
        },
        {
          "indexed": false,
          "internalType": "uint256",
          "name": "reward",
          "type": "uint256"
        }
      ],
      "name": "RewardClaimed",
      "type": "event"
    },
    {
      "anonymous": false,
      "inputs": [
        {
          "indexed": true,
          "internalType": "uint256",
          "name": "caseId",
          "type": "uint256"
        },
        {
          "indexed": true,
          "internalType": "address",
          "name": "voter",
          "type": "address"
        },
        {
          "indexed": false,
          "internalType": "enum ArbitrationDAO.VoteType",
          "name": "voteType",
          "type": "uint8"
        },
        {
          "indexed": false,
          "internalType": "uint256",
          "name": "stake",
          "type": "uint256"
        }
      ],
      "name": "Voted",
      "type": "event"
    },
    {
      "inputs": [
        {
          "internalType": "uint256",
          "name": "_caseId",
          "type": "uint256"
        }
      ],
      "name": "appeal",
      "outputs": [],
      "stateMutability": "nonpayable",
      "type": "function"
    },
    {
      "inputs": [],
      "name": "appealPeriod",
      "outputs": [
        {
          "internalType": "uint256",
          "name": "",
          "type": "uint256"
        }
      ],
      "stateMutability": "view",
      "type": "function"
    },
    {
      "inputs": [
        {
          "internalType": "uint256",
          "name": "_caseId",
          "type": "uint256"
        }
      ],
      "name": "cancelCase",
      "outputs": [],
      "stateMutability": "nonpayable",
      "type": "function"
    },
    {
      "inputs": [],
      "name": "caseCount",
      "outputs": [
        {
          "internalType": "uint256",
          "name": "",
          "type": "uint256"
        }
      ],
      "stateMutability": "view",
      "type": "function"
    },
    {
      "inputs": [],
      "name": "caseDeposit",
      "outputs": [
        {
          "internalType": "uint256",
          "name": "",
          "type": "uint256"
        }
      ],
      "stateMutability": "view",
      "type": "function"
    },
    {
      "inputs": [
        {
          "internalType": "uint256",
          "name": "",
          "type": "uint256"
        },
        {
          "internalType": "uint256",
          "name": "",
          "type": "uint256"
        }
      ],
      "name": "caseVoters",
      "outputs": [
        {
          "internalType": "address",
          "name": "",
          "type": "address"
        }
      ],
      "stateMutability": "view",
      "type": "function"
    },
    {
      "inputs": [
        {
          "internalType": "uint256",
          "name": "",
          "type": "uint256"
        }
      ],
      "name": "cases",
      "outputs": [
        {
          "internalType": "address",
          "name": "plaintiff",
          "type": "address"
        },
        {
          "internalType": "address",
          "name": "defendant",
          "type": "address"
        },
        {
          "internalType": "string",
          "name": "orderId",
          "type": "string"
        },
        {
          "internalType": "string",
          "name": "evidence",
          "type": "string"
        },
        {
          "internalType": "uint256",
          "name": "deposit",
          "type": "uint256"
        },
        {
          "internalType": "uint256",
          "name": "createdAt",
          "type": "uint256"
        },
        {
          "internalType": "uint256",
          "name": "votingDeadline",
          "type": "uint256"
        },
        {
          "internalType": "uint256",
          "name": "supportStake",
          "type": "uint256"
        },
        {
          "internalType": "uint256",
          "name": "opposeStake",
          "type": "uint256"
        },
        {
          "internalType": "uint256",
          "name": "abstainStake",
          "type": "uint256"
        },
        {
          "internalType": "uint256",
          "name": "voterCount",
          "type": "uint256"
        },
        {
          "internalType": "enum ArbitrationDAO.CaseStatus",
          "name": "status",
          "type": "uint8"
        },
        {
          "internalType": "bool",
          "name": "appealed",
          "type": "bool"
        },
        {
          "internalType": "enum ArbitrationDAO.VoteType",
          "name": "outcome",
          "type": "uint8"
        }
      ],
      "stateMutability": "view",
      "type": "function"
    },
    {
      "inputs": [
        {
          "internalType": "uint256",
          "name": "_caseId",
          "type": "uint256"
        }
      ],
      "name": "claimReward",
      "outputs": [],
      "stateMutability": "nonpayable",
      "type": "function"
    },
    {
      "inputs": [
        {
          "internalType": "address",
          "name": "_defendant",
          "type": "address"
        },
        {
          "internalType": "string",
          "name": "_orderId",
          "type": "string"
        },
        {
          "internalType": "string",
          "name": "_evidence",
          "type": "string"
        }
      ],
      "name": "createCase",
      "outputs": [
        {
          "internalType": "uint256",
          "name": "",
          "type": "uint256"
        }
      ],
      "stateMutability": "nonpayable",
      "type": "function"
    },
    {
      "inputs": [],
      "name": "daoVotingPeriod",
      "outputs": [
        {
          "internalType": "uint256",
          "name": "",
          "type": "uint256"
        }
      ],
      "stateMutability": "view",
      "type": "function"
    },
    {
      "inputs": [],
      "name": "feedToken",
      "outputs": [
        {
          "internalType": "contract IERC20",
          "name": "",
          "type": "address"
        }
      ],
      "stateMutability": "view",
      "type": "function"
    },
    {
      "inputs": [
        {
          "internalType": "uint256",
          "name": "_caseId",
          "type": "uint256"
        }
      ],
      "name": "getCaseStats",
      "outputs": [
        {
          "internalType": "uint256",
          "name": "supportStake",
          "type": "uint256"
        },
        {
          "internalType": "uint256",
          "name": "opposeStake",
          "type": "uint256"
        },
        {
          "internalType": "uint256",
          "name": "abstainStake",
          "type": "uint256"
        },
        {
          "internalType": "uint256",
          "name": "voterCount",
          "type": "uint256"
        },
        {
          "internalType": "enum ArbitrationDAO.CaseStatus",
          "name": "status",
          "type": "uint8"
        },
        {
          "internalType": "enum ArbitrationDAO.VoteType",
          "name": "outcome",
          "type": "uint8"
        }
      ],
      "stateMutability": "view",
      "type": "function"
    },
    {
      "inputs": [
        {
          "internalType": "uint256",
          "name": "_caseId",
          "type": "uint256"
        }
      ],
      "name": "getCaseVoters",
      "outputs": [
        {
          "internalType": "address[]",
          "name": "",
          "type": "address[]"
        }
      ],
      "stateMutability": "view",
      "type": "function"
    },
    {
      "inputs": [],
      "name": "minVoteStake",
      "outputs": [
        {
          "internalType": "uint256",
          "name": "",
          "type": "uint256"
        }
      ],
      "stateMutability": "view",
      "type": "function"
    },
    {
      "inputs": [],
      "name": "owner",
      "outputs": [
        {
          "internalType": "address",
          "name": "",
          "type": "address"
        }
      ],
      "stateMutability": "view",
      "type": "function"
    },
    {
      "inputs": [],
      "name": "quorumPercent",
      "outputs": [
        {
          "internalType": "uint256",
          "name": "",
          "type": "uint256"
        }
      ],
      "stateMutability": "view",
      "type": "function"
    },
    {
      "inputs": [],
      "name": "renounceOwnership",
      "outputs": [],
      "stateMutability": "nonpayable",
      "type": "function"
    },
    {
      "inputs": [
        {
          "internalType": "uint256",
          "name": "_caseId",
          "type": "uint256"
        }
      ],
      "name": "resolveCase",
      "outputs": [],
      "stateMutability": "nonpayable",
      "type": "function"
    },
    {
      "inputs": [
        {
          "internalType": "uint256",
          "name": "_amount",
          "type": "uint256"
        }
      ],
      "name": "setCaseDeposit",
      "outputs": [],
      "stateMutability": "nonpayable",
      "type": "function"
    },
    {
      "inputs": [
        {
          "internalType": "uint256",
          "name": "_amount",
          "type": "uint256"
        }
      ],
      "name": "setMinVoteStake",
      "outputs": [],
      "stateMutability": "nonpayable",
      "type": "function"
    },
    {
      "inputs": [
        {
          "internalType": "uint256",
          "name": "_period",
          "type": "uint256"
        }
      ],
      "name": "setVotingPeriod",
      "outputs": [],
      "stateMutability": "nonpayable",
      "type": "function"
    },
    {
      "inputs": [
        {
          "internalType": "address",
          "name": "newOwner",
          "type": "address"
        }
      ],
      "name": "transferOwnership",
      "outputs": [],
      "stateMutability": "nonpayable",
      "type": "function"
    },
    {
      "inputs": [
        {
          "internalType": "uint256",
          "name": "_caseId",
          "type": "uint256"
        },
        {
          "internalType": "enum ArbitrationDAO.VoteType",
          "name": "_voteType",
          "type": "uint8"
        },
        {
          "internalType": "uint256",
          "name": "_stake",
          "type": "uint256"
        }
      ],
      "name": "vote",
      "outputs": [],
      "stateMutability": "nonpayable",
      "type": "function"
    },
    {
      "inputs": [
        {
          "internalType": "uint256",
          "name": "",
          "type": "uint256"
        },
        {
          "internalType": "address",
          "name": "",
          "type": "address"
        }
      ],
      "name": "votes",
      "outputs": [
        {
          "internalType": "address",
          "name": "voter",
          "type": "address"
        },
        {
          "internalType": "enum ArbitrationDAO.VoteType",
          "name": "voteType",
          "type": "uint8"
        },
        {
          "internalType": "uint256",
          "name": "stake",
          "type": "uint256"
        },
        {
          "internalType": "uint256",
          "name": "votedAt",
          "type": "uint256"
        },
        {
          "internalType": "bool",
          "name": "claimed",
          "type": "bool"
        }
      ],
      "stateMutability": "view",
      "type": "function"
    },
    {
      "inputs": [],
      "name": "votingPeriod",
      "outputs": [
        {
          "internalType": "uint256",
          "name": "",
          "type": "uint256"
        }
      ],
      "stateMutability": "view",
      "type": "function"
    }
  ],
  "bytecode": "0x60803461010d57601f61215538819003918201601f19168301916001600160401b038311848410176101125780849260209460405283398101031261010d57516001600160a01b0381169081900361010d5733156100f75760008054336001600160a01b0319821681178355604051939290916001600160a01b0316907f8be0079c531659141344cd1fd0a4f28419497f9722a3daafe3b4186f6b6457e09080a36001805568056bc75e2d63100000600355678ac7230489e800006004556203f4806005556202a300600655620697806007556033600855600280546001600160a01b03191691909117905561202c90816101298239f35b631e4fbdf760e01b600052600060045260246000fd5b600080fd5b634e487b7160e01b600052604160045260246000fdfe608080604052600436101561001357600080fd5b60003560e01c90816302a251a314611d32575080630dacc64c146116da5780633d3bd4881461143d578063596104861461137f5780636c270ea214611311578063715018a6146112b85780637e69b7b01461100c5780637e9c0f2314610fee5780638da5cb5b14610fc55780639e4f272d14610fa7578063a6c5809714610f89578063a9fa6f7014610d83578063ae169a5014610a3a578063c27308a814610a11578063d23254b41461097f578063d702f5211461092d578063da2d7e951461090f578063e520251a14610469578063ea0217cf146103fa578063efeb10df14610381578063f09790dd1461026b578063f2fde38b146101e2578063f44f00eb146101c4578063f81cbd26146101a65763f95b47a91461013257600080fd5b346101a15760203660031901126101a1577f12c9dccd129ff783f1c8228eacdfa8e334ddecb7ec5c9a79ec662a4aed3d012a6080600435610171611fcd565b806004556040519060408252600c60408301526b6d696e566f74655374616b6560a01b60608301526020820152a1005b600080fd5b346101a15760003660031901126101a1576020600854604051908152f35b346101a15760003660031901126101a1576020600454604051908152f35b346101a15760203660031901126101a1576101fb611d4d565b610203611fcd565b6001600160a01b0316801561025557600080546001600160a01b03198116831782556001600160a01b0316907f8be0079c531659141344cd1fd0a4f28419497f9722a3daafe3b4186f6b6457e09080a3005b631e4fbdf760e01b600052600060045260246000fd5b346101a15760203660031901126101a1576004356000908152600a60205260409020805460018201546001600160a01b03908116929116906102af60028201611e35565b6102bb60038301611e35565b9160048101549260058201546006830154600784015490600885015492600986015494600a87015496600b0154976040519b8c9b8c5260208c015260408b016101c090526101c08b0161030d91611ed9565b8a810360608c015261031e91611ed9565b9760808a015260a089015260c088015260e0870152610100860152610120850152610140840152610160830160ff82169061035891611dcc565b8060081c60ff1615156101808401526101a083019060101c60ff169061037d91611d91565b0390f35b346101a15760203660031901126101a157600435600052600a60205260c060406000206103f86007820154916008810154906009810154600b600a830154920154926040519586526020860152604085015260608401526103e86080840160ff8316611dcc565b60ff60a084019160101c16611d91565bf35b346101a15760203660031901126101a1577f12c9dccd129ff783f1c8228eacdfa8e334ddecb7ec5c9a79ec662a4aed3d012a6080600435610439611fcd565b806005556040519060408252600c60408301526b1d9bdd1a5b99d4195c9a5bd960a21b60608301526020820152a1005b346101a15760603660031901126101a15760243560043560038210156101a157604435610494611fab565b81600052600a602052604060002060ff600b8201541660058110156108f95780159081156108ee575b50156108b6576006810154421161087b576004548210610840576000838152600b6020908152604080832033845290915290206001015461080b5780546001600160a01b0316331415806107f4575b156107b9576002546040516323b872dd60e01b81523360048201523060248201526044810184905290602090829060649082906000906001600160a01b03165af19081156107ad5760009161077e575b50156107415760405160a0810181811067ffffffffffffffff82111761072b57604090815233808352602080840188815284840187815242606087019081526000608088018181528b8252600b865287822096825295909452948320955186546001600160a01b0319166001600160a01b039190911617865590519194929391600381101561071757835460ff60a01b191660a09190911b60ff60a01b161783555160018301555160028201559051600391909101805491151560ff1660ff1992909216919091179055838152600c6020526040812080549068010000000000000000821015610703579061065691600182018155611d9e565b81546001600160a01b0360039290921b91821b19163390911b179055600a8201805461068190611f32565b905550836106d857600701610697828254611f57565b90555b6106a76040518094611d91565b60208301527f2635c84c3a8027a303ca6d6e90b1c4a9604754040372414d244aadfa6471751860403393a360018055005b600184036106f5576008016106ee828254611f57565b905561069a565b6009016106ee828254611f57565b634e487b7160e01b83526041600452602483fd5b634e487b7160e01b86526021600452602486fd5b634e487b7160e01b600052604160045260246000fd5b60405162461bcd60e51b815260206004820152601560248201527414dd185ad9481d1c985b9cd9995c8819985a5b1959605a1b6044820152606490fd5b6107a0915060203d6020116107a6575b6107988183611e13565b810190611f1a565b8561055c565b503d61078e565b6040513d6000823e3d90fd5b60405162461bcd60e51b8152602060048201526013602482015272506172746965732063616e6e6f7420766f746560681b6044820152606490fd5b5060018101546001600160a01b031633141561050c565b60405162461bcd60e51b815260206004820152600d60248201526c105b1c9958591e481d9bdd1959609a1b6044820152606490fd5b60405162461bcd60e51b81526020600482015260136024820152725374616b652062656c6f77206d696e696d756d60681b6044820152606490fd5b60405162461bcd60e51b8152602060048201526013602482015272159bdd1a5b99c81c195c9a5bd908195b991959606a1b6044820152606490fd5b60405162461bcd60e51b815260206004820152601060248201526f43617365206e6f7420766f7461626c6560801b6044820152606490fd5b6002915014856104bd565b634e487b7160e01b600052602160045260246000fd5b346101a15760003660031901126101a1576020600954604051908152f35b346101a15760403660031901126101a157602435600435600052600c602052604060002080548210156101a15760209161096691611d9e565b905460405160039290921b1c6001600160a01b03168152f35b346101a15760403660031901126101a1576024356001600160a01b03811681036101a157604060a091600435600052600b60205281600020600091600180861b031682526020522080549060018101549060ff6003600283015492015416916109fe60405194600180881b038116865260ff6020870191881c16611d91565b6040840152606083015215156080820152f35b346101a15760003660031901126101a1576002546040516001600160a01b039091168152602090f35b346101a15760203660031901126101a157600435610a56611fab565b80600052600a6020526040600020600b81019182549260ff841660058110156108f95760018114908115610d78575b5015610d3f576000828152600b6020908152604080832033845290915290206001810154949091908515610d0a57600383019081549360ff8516610cd35760ff80915460a01c169160101c169060038210156108f95760038110156108f95703610c8e57600160ff938419161790555460101c1660038110156108f95715928315610c83576008830154925b60009415610c7a57600701545b81938115801580610c71575b610c17575b505060025460405163a9059cbb60e01b8152336004820152602481018690529250602091508290604490829088906001600160a01b03165af1908115610c0c578491610bed575b5015610baf576040519182527f24b5efa61dd1cfc659205a97fb8ed868f3cb8c81922bab2b96423e5de1de2cb760203393a36001805580f35b60405162461bcd60e51b815260206004820152601660248201527514995dd85c99081d1c985b9cd9995c8819985a5b195960521b6044820152606490fd5b610c06915060203d6020116107a6576107988183611e13565b84610b76565b6040513d86823e3d90fd5b90919280949550820291808304851490151715610c5d57610c495790610c3f92910490611f57565b9083808080610b2f565b634e487b7160e01b85526012600452602485fd5b634e487b7160e01b86526011600452602486fd5b50811515610b2a565b60080154610b1e565b600783015492610b11565b60405162461bcd60e51b815260206004820152601b60248201527f4f6e6c792077696e6e696e6720736964652063616e20636c61696d00000000006044820152606490fd5b60405162461bcd60e51b815260206004820152600f60248201526e105b1c9958591e4818db185a5b5959608a1b6044820152606490fd5b60405162461bcd60e51b815260206004820152600d60248201526c139bc81d9bdd1948199bdd5b99609a1b6044820152606490fd5b60405162461bcd60e51b815260206004820152601160248201527010d85cd9481b9bdd081c995cdbdb1d9959607a1b6044820152606490fd5b600391501485610a85565b346101a15760203660031901126101a157600435610d9f611fcd565b80600052600a6020526040600020600b810160ff81541660058110156108f957610f4457805460ff1916600490811790915560025482549282015460405163a9059cbb60e01b81526001600160a01b03948516938101939093526024830152909160209183916044918391600091165af180156107ad57610f27575b5060005b81600052600c602052604060002054811015610f255781600052600c602052610e4c816040600020611d9e565b90546000848152600b6020908152604080832060039590951b9390931c6001600160a01b031680835293905220600181015492919083151580610f16575b610e9b575b50506001915001610e1f565b600301805460ff1916600117905560025460405163a9059cbb60e01b81526001600160a01b0392831660048201526024810194909452602091849116816000816044810103925af19182156107ad57600192610ef8575b80610e8f565b610f0f9060203d81116107a6576107988183611e13565b5083610ef2565b5060ff60038201541615610e8a565b005b610f3f9060203d6020116107a6576107988183611e13565b610e1b565b60405162461bcd60e51b815260206004820152601a60248201527f43616e206f6e6c792063616e63656c206f70656e2063617365730000000000006044820152606490fd5b346101a15760003660031901126101a1576020600754604051908152f35b346101a15760003660031901126101a1576020600654604051908152f35b346101a15760003660031901126101a1576000546040516001600160a01b039091168152602090f35b346101a15760003660031901126101a1576020600354604051908152f35b346101a15760203660031901126101a157600435611028611fab565b80600052600a6020526040600020600b810190815460ff811660058110156108f9576001036112735760081c60ff166112365780546001600160a01b031633148015611220575b156111db576006810191611087835460065490611f57565b421161119e576002546003546040516323b872dd60e01b8152336004820152306024820152604481019190915290602090829060649082906000906001600160a01b03165af19081156107ad5760009161117f575b501561114257805461ffff19166101021790556003546004919091018054909161110591611f57565b905561111360075442611f57565b905533907f1dc882128c457bab21e9ce8ebba2c90cbfcf2bdf26ca5f8f0bd0f3c86dd28cd1600080a360018055005b60405162461bcd60e51b8152602060048201526015602482015274105c1c19585b0819195c1bdcda5d0819985a5b1959605a1b6044820152606490fd5b611198915060203d6020116107a6576107988183611e13565b856110dc565b60405162461bcd60e51b8152602060048201526015602482015274105c1c19585b081dda5b991bddc8195e1c1a5c9959605a1b6044820152606490fd5b60405162461bcd60e51b815260206004820152601760248201527f4f6e6c7920706172746965732063616e2061707065616c0000000000000000006044820152606490fd5b5060018101546001600160a01b0316331461106f565b60405162461bcd60e51b8152602060048201526015602482015274416c72656164792061707065616c6564206f6e636560581b6044820152606490fd5b60405162461bcd60e51b815260206004820152601e60248201527f43616e206f6e6c792061707065616c207265736f6c76656420636173657300006044820152606490fd5b346101a15760003660031901126101a1576112d1611fcd565b600080546001600160a01b0319811682556001600160a01b03167f8be0079c531659141344cd1fd0a4f28419497f9722a3daafe3b4186f6b6457e08280a3005b346101a15760203660031901126101a1577f12c9dccd129ff783f1c8228eacdfa8e334ddecb7ec5c9a79ec662a4aed3d012a6080600435611350611fcd565b806003556040519060408252600b60408301526a18d85cd951195c1bdcda5d60aa1b60608301526020820152a1005b346101a15760203660031901126101a157600435600052600c60205260406000206040518060208354918281520190819360005260206000209060005b81811061141e57505050816113d2910382611e13565b6040519182916020830190602084525180915260408301919060005b8181106113fc575050500390f35b82516001600160a01b03168452859450602093840193909201916001016113ee565b82546001600160a01b03168452602090930192600192830192016113bc565b346101a15760203660031901126101a15760043580600052600a6020526040600020600b81019060ff82541660058110156108f95780159081156116cf575b50156116945760068101544211156116595760078101908154906008810191825480821160001461162b575050835462ff0000191684555b60ff84541660058110156108f95760020361161b57835460ff191660031784555b60ff845460101c1660038110156108f9576116075780546001600160a01b0316905b6001600160a01b0382161515806115fa575b61155b575b857f3d4a3c6ae22177065cdcfc7a7c111657dbc754b90c0a3532ed7e404a0908b7736060868660ff8a5460101c16915490549061154e6040518094611d91565b60208301526040820152a2005b60025460049182015460405163a9059cbb60e01b81526001600160a01b039485169381019390935260248301529093929160209185916044918391600091165af180156107ad577f3d4a3c6ae22177065cdcfc7a7c111657dbc754b90c0a3532ed7e404a0908b7739460609460ff926115db575b5094508192935061150e565b6115f39060203d6020116107a6576107988183611e13565b50876115cf565b5060048101541515611509565b60018101546001600160a01b0316906114f7565b835460ff191660011784556114d5565b111561164557835462ff00001916620100001784556114b4565b835462ff00001916620200001784556114b4565b60405162461bcd60e51b8152602060048201526013602482015272566f74696e67207374696c6c2061637469766560681b6044820152606490fd5b60405162461bcd60e51b815260206004820152601360248201527243617365206e6f74207265736f6c7661626c6560681b6044820152606490fd5b60029150148461147c565b346101a15760603660031901126101a1576116f3611d4d565b60243567ffffffffffffffff81116101a157611713903690600401611d63565b60449291923567ffffffffffffffff81116101a157611736903690600401611d63565b929093611741611fab565b6001600160a01b03821615611cf9576001600160a01b0382163314611cbe578215611c85576002546003546040516323b872dd60e01b8152336004820152306024820152604481019190915290602090829060649082906000906001600160a01b03165af19081156107ad57600091611c66575b5015611c21576117c6600954611f32565b93846009556003546117da60055442611f57565b91604051976101c089019189831067ffffffffffffffff84111761072b576040929092523389526001600160a01b03861660208a015261182b9161181f368988611f64565b60408b01523691611f64565b606088015260808701524260a087015260c0860152600060e086018190526101008601819052610120860181905261014086018190526101608601819052610180860181905260026101a08701818152868352600a6020908152604093849020895181546001600160a01b03199081166001600160a01b03928316178355928b01516001830180549094169116179091559288015180519193928301919067ffffffffffffffff821161072b5781906118e48454611dd9565b601f8111611bce575b50602090601f8311600114611b6957600092611b5e575b50508160011b916000199060031b1c19161790555b60038101606088015180519067ffffffffffffffff821161072b5761193e8354611dd9565b601f8111611b16575b50602090601f8311600114611aab57600b9493929160009183611aa0575b50508160011b916000199060031b1c19161790555b6080880151600482015560a0880151600582015560c0880151600682015560e0880151600782015561010088015160088201556101208801516009820155610140880151600a82015501906101608701519660058810156108f9576101809060009860ff801986541691161784550151151561ff0083549160081b169061ff001916178255516003811015611a8c5795847f1aa4f8957a5ff73c30972e34e0fe388512486ebdabfa06b308fbfa3bd5d266389387959360209962ff000082549160101b169062ff000019161790556040519360018060a01b031684526040898501528160408501526060840137606085830101526060813395601f80199101168101030190a360018055604051908152f35b634e487b7160e01b87526021600452602487fd5b015190508b80611965565b90601f1983169184600052816000209260005b818110611afe5750916001939185600b9897969410611ae5575b505050811b01905561197a565b015160001960f88460031b161c191690558b8080611ad8565b92936020600181928786015181550195019301611abe565b836000526020600020601f840160051c81019160208510611b54575b601f0160051c01905b818110611b485750611947565b60008155600101611b3b565b9091508190611b32565b015190508a80611904565b60008581528281209350601f198516905b818110611bb65750908460019594939210611b9d575b505050811b019055611919565b015160001960f88460031b161c191690558a8080611b90565b92936020600181928786015181550195019301611b7a565b909150836000526020600020601f840160051c81019160208510611c17575b90601f859493920160051c01905b818110611c0857506118ed565b60008155849350600101611bfb565b9091508190611bed565b60405162461bcd60e51b815260206004820152601760248201527f4465706f736974207472616e73666572206661696c65640000000000000000006044820152606490fd5b611c7f915060203d6020116107a6576107988183611e13565b866117b5565b60405162461bcd60e51b815260206004820152601160248201527013dc99195c881251081c995c5d5a5c9959607a1b6044820152606490fd5b60405162461bcd60e51b815260206004820152601360248201527221b0b73737ba1039bab2903cb7bab939b2b63360691b6044820152606490fd5b60405162461bcd60e51b8152602060048201526011602482015270125b9d985b1a5908191959995b99185b9d607a1b6044820152606490fd5b346101a15760003660031901126101a1576020906005548152f35b600435906001600160a01b03821682036101a157565b9181601f840112156101a15782359167ffffffffffffffff83116101a157602083818601950101116101a157565b9060038210156108f95752565b8054821015611db65760005260206000200190600090565b634e487b7160e01b600052603260045260246000fd5b9060058210156108f95752565b90600182811c92168015611e09575b6020831014611df357565b634e487b7160e01b600052602260045260246000fd5b91607f1691611de8565b90601f8019910116810190811067ffffffffffffffff82111761072b57604052565b9060405191826000825492611e4984611dd9565b8084529360018116908115611eb75750600114611e70575b50611e6e92500383611e13565b565b90506000929192526020600020906000915b818310611e9b575050906020611e6e9282010138611e61565b6020919350806001915483858901015201910190918492611e82565b905060209250611e6e94915060ff191682840152151560051b82010138611e61565b919082519283825260005b848110611f05575050826000602080949584010152601f8019910116010190565b80602080928401015182828601015201611ee4565b908160209103126101a1575180151581036101a15790565b6000198114611f415760010190565b634e487b7160e01b600052601160045260246000fd5b91908201809211611f4157565b92919267ffffffffffffffff821161072b5760405191611f8e601f8201601f191660200184611e13565b8294818452818301116101a1578281602093846000960137010152565b600260015414611fbc576002600155565b633ee5aeb560e01b60005260046000fd5b6000546001600160a01b03163303611fe157565b63118cdaa760e01b6000523360045260246000fdfea2646970667358221220a10977ddb41d57717d27bcc9a66786c42886bde45dab2a60397b4ee95516d72164736f6c634300081c0033",
  "linkReferences": {},
  "deployedLinkReferences": {}
}