{
  "_format": "hh-sol-artifact-1",
  "contractName": "FeedEngine",
  "sourceName": "contracts/FeedEngine.sol",
  "abi": [
    {
      "inputs": [],
      "stateMutability": "nonpayable",
      "type": "constructor"
    },
    {
      "inputs": [
        {
          "internalType": "address",
          "name": "target",
          "type": "address"
        }
      ],
      "name": "AddressEmptyCode",
      "type": "error"
    },
    {
      "inputs": [
        {
          "internalType": "address",
          "name": "implementation",
          "type": "address"
        }
      ],
      "name": "ERC1967InvalidImplementation",
      "type": "error"
    },
    {
      "inputs": [],
      "name": "ERC1967NonPayable",
      "type": "error"
    },
    {
      "inputs": [],
      "name": "FailedCall",
      "type": "error"
    },
    {
      "inputs": [],
      "name": "InvalidInitialization",
      "type": "error"
    },
    {
      "inputs": [],
      "name": "NotInitializing",
      "type": "error"
    },
    {
      "inputs": [
        {
          "internalType": "address",
          "name": "owner",
          "type": "address"
        }
      ],
      "name": "OwnableInvalidOwner",
      "type": "error"
    },
    {
      "inputs": [
        {
          "internalType": "address",
          "name": "account",
          "type": "address"
        }
      ],
      "name": "OwnableUnauthorizedAccount",
      "type": "error"
    },
    {
      "inputs": [],
      "name": "ReentrancyGuardReentrantCall",
      "type": "error"
    },
    {
      "inputs": [],
      "name": "UUPSUnauthorizedCallContext",
      "type": "error"
    },
    {
      "inputs": [
        {
          "internalType": "bytes32",
          "name": "slot",
          "type": "bytes32"
        }
      ],
      "name": "UUPSUnsupportedProxiableUUID",
      "type": "error"
    },
    {
      "anonymous": false,
      "inputs": [
        {
          "indexed": true,
          "internalType": "bytes32",
          "name": "orderId",
          "type": "bytes32"
        },
        {
          "indexed": true,
          "internalType": "address",
          "name": "requester",
          "type": "address"
        },
        {
          "indexed": false,
          "internalType": "uint256",
          "name": "requiredFeeders",
          "type": "uint256"
        },
        {
          "indexed": false,
          "internalType": "uint256",
          "name": "rewardAmount",
          "type": "uint256"
        }
      ],
      "name": "FeedRequested",
      "type": "event"
    },
    {
      "anonymous": false,
      "inputs": [
        {
          "indexed": true,
          "internalType": "address",
          "name": "feeder",
          "type": "address"
        },
        {
          "indexed": false,
          "internalType": "enum FeedEngine.FeederRank",
          "name": "oldRank",
          "type": "uint8"
        },
        {
          "indexed": false,
          "internalType": "enum FeedEngine.FeederRank",
          "name": "newRank",
          "type": "uint8"
        }
      ],
      "name": "FeederRankUpdated",
      "type": "event"
    },
    {
      "anonymous": false,
      "inputs": [
        {
          "indexed": true,
          "internalType": "address",
          "name": "feeder",
          "type": "address"
        },
        {
          "indexed": false,
          "internalType": "uint256",
          "name": "licenseTokenId",
          "type": "uint256"
        }
      ],
      "name": "FeederRegistered",
      "type": "event"
    },
    {
      "anonymous": false,
      "inputs": [
        {
          "indexed": false,
          "internalType": "uint64",
          "name": "version",
          "type": "uint64"
        }
      ],
      "name": "Initialized",
      "type": "event"
    },
    {
      "anonymous": false,
      "inputs": [
        {
          "indexed": true,
          "internalType": "bytes32",
          "name": "orderId",
          "type": "bytes32"
        },
        {
          "indexed": true,
          "internalType": "address",
          "name": "feeder",
          "type": "address"
        }
      ],
      "name": "OrderGrabbed",
      "type": "event"
    },
    {
      "anonymous": false,
      "inputs": [
        {
          "indexed": true,
          "internalType": "bytes32",
          "name": "orderId",
          "type": "bytes32"
        },
        {
          "indexed": false,
          "internalType": "uint256",
          "name": "consensusPrice",
          "type": "uint256"
        },
        {
          "indexed": false,
          "internalType": "uint256",
          "name": "reward",
          "type": "uint256"
        }
      ],
      "name": "OrderSettled",
      "type": "event"
    },
    {
      "anonymous": false,
      "inputs": [
        {
          "indexed": true,
          "internalType": "address",
          "name": "previousOwner",
          "type": "address"
        },
        {
          "indexed": true,
          "internalType": "address",
          "name": "newOwner",
          "type": "address"
        }
      ],
      "name": "OwnershipTransferred",
      "type": "event"
    },
    {
      "anonymous": false,
      "inputs": [
        {
          "indexed": true,
          "internalType": "address",
          "name": "protocol",
          "type": "address"
        },
        {
          "indexed": false,
          "internalType": "bool",
          "name": "authorized",
          "type": "bool"
        }
      ],
      "name": "ProtocolAuthorized",
      "type": "event"
    },
    {
      "anonymous": false,
      "inputs": [
        {
          "indexed": true,
          "internalType": "address",
          "name": "feeder",
          "type": "address"
        },
        {
          "indexed": false,
          "internalType": "uint256",
          "name": "amount",
          "type": "uint256"
        }
      ],
      "name": "Staked",
      "type": "event"
    },
    {
      "anonymous": false,
      "inputs": [
        {
          "indexed": true,
          "internalType": "address",
          "name": "feeder",
          "type": "address"
        },
        {
          "indexed": false,
          "internalType": "uint256",
          "name": "amount",
          "type": "uint256"
        }
      ],
      "name": "UnstakeRequested",
      "type": "event"
    },
    {
      "anonymous": false,
      "inputs": [
        {
          "indexed": true,
          "internalType": "address",
          "name": "implementation",
          "type": "address"
        }
      ],
      "name": "Upgraded",
      "type": "event"
    },
    {
      "anonymous": false,
      "inputs": [
        {
          "indexed": true,
          "internalType": "address",
          "name": "feeder",
          "type": "address"
        },
        {
          "indexed": false,
          "internalType": "uint256",
          "name": "amount",
          "type": "uint256"
        }
      ],
      "name": "Withdrawn",
      "type": "event"
    },
    {
      "anonymous": false,
      "inputs": [
        {
          "indexed": true,
          "internalType": "address",
          "name": "feeder",
          "type": "address"
        },
        {
          "indexed": false,
          "internalType": "uint256",
          "name": "amount",
          "type": "uint256"
        },
        {
          "indexed": false,
          "internalType": "string",
          "name": "reason",
          "type": "string"
        }
      ],
      "name": "XPAwarded",
      "type": "event"
    },
    {
      "inputs": [],
      "name": "UPGRADE_INTERFACE_VERSION",
      "outputs": [
        {
          "internalType": "string",
          "name": "",
          "type": "string"
        }
      ],
      "stateMutability": "view",
      "type": "function"
    },
    {
      "inputs": [
        {
          "internalType": "address",
          "name": "",
          "type": "address"
        }
      ],
      "name": "authorizedProtocols",
      "outputs": [
        {
          "internalType": "bool",
          "name": "",
          "type": "bool"
        }
      ],
      "stateMutability": "view",
      "type": "function"
    },
    {
      "inputs": [
        {
          "internalType": "address",
          "name": "feederAddr",
          "type": "address"
        },
        {
          "internalType": "uint256",
          "name": "amount",
          "type": "uint256"
        },
        {
          "internalType": "string",
          "name": "reason",
          "type": "string"
        }
      ],
      "name": "awardXP",
      "outputs": [],
      "stateMutability": "nonpayable",
      "type": "function"
    },
    {
      "inputs": [],
      "name": "consensus",
      "outputs": [
        {
          "internalType": "contract FeedConsensus",
          "name": "",
          "type": "address"
        }
      ],
      "stateMutability": "view",
      "type": "function"
    },
    {
      "inputs": [
        {
          "internalType": "bytes32",
          "name": "",
          "type": "bytes32"
        }
      ],
      "name": "engineOrders",
      "outputs": [
        {
          "internalType": "bytes32",
          "name": "orderId",
          "type": "bytes32"
        },
        {
          "internalType": "uint256",
          "name": "rewardAmount",
          "type": "uint256"
        },
        {
          "internalType": "bool",
          "name": "settled",
          "type": "bool"
        }
      ],
      "stateMutability": "view",
      "type": "function"
    },
    {
      "inputs": [
        {
          "internalType": "bytes32",
          "name": "",
          "type": "bytes32"
        }
      ],
      "name": "feedRequests",
      "outputs": [
        {
          "internalType": "address",
          "name": "requester",
          "type": "address"
        },
        {
          "internalType": "uint256",
          "name": "requiredFeeders",
          "type": "uint256"
        },
        {
          "internalType": "uint256",
          "name": "rewardAmount",
          "type": "uint256"
        },
        {
          "internalType": "uint256",
          "name": "timestamp",
          "type": "uint256"
        },
        {
          "internalType": "bool",
          "name": "exists",
          "type": "bool"
        }
      ],
      "stateMutability": "view",
      "type": "function"
    },
    {
      "inputs": [],
      "name": "feedToken",
      "outputs": [
        {
          "internalType": "contract IERC20",
          "name": "",
          "type": "address"
        }
      ],
      "stateMutability": "view",
      "type": "function"
    },
    {
      "inputs": [],
      "name": "feederLicense",
      "outputs": [
        {
          "internalType": "contract FeederLicense",
          "name": "",
          "type": "address"
        }
      ],
      "stateMutability": "view",
      "type": "function"
    },
    {
      "inputs": [
        {
          "internalType": "address",
          "name": "",
          "type": "address"
        }
      ],
      "name": "feeders",
      "outputs": [
        {
          "internalType": "bool",
          "name": "registered",
          "type": "bool"
        },
        {
          "internalType": "enum FeedEngine.FeederRank",
          "name": "rank",
          "type": "uint8"
        },
        {
          "internalType": "uint256",
          "name": "xp",
          "type": "uint256"
        },
        {
          "internalType": "uint256",
          "name": "totalFeeds",
          "type": "uint256"
        },
        {
          "internalType": "uint256",
          "name": "stakedAmount",
          "type": "uint256"
        },
        {
          "internalType": "uint256",
          "name": "unstakeRequestTime",
          "type": "uint256"
        },
        {
          "internalType": "uint256",
          "name": "dailyGrabCount",
          "type": "uint256"
        },
        {
          "internalType": "uint256",
          "name": "lastGrabDate",
          "type": "uint256"
        }
      ],
      "stateMutability": "view",
      "type": "function"
    },
    {
      "inputs": [
        {
          "internalType": "bytes32",
          "name": "orderId",
          "type": "bytes32"
        }
      ],
      "name": "getConsensusPrice",
      "outputs": [
        {
          "internalType": "uint256",
          "name": "price",
          "type": "uint256"
        },
        {
          "internalType": "uint256",
          "name": "timestamp",
          "type": "uint256"
        },
        {
          "internalType": "bool",
          "name": "finalized",
          "type": "bool"
        }
      ],
      "stateMutability": "view",
      "type": "function"
    },
    {
      "inputs": [
        {
          "internalType": "address",
          "name": "feederAddr",
          "type": "address"
        }
      ],
      "name": "getFeederInfo",
      "outputs": [
        {
          "internalType": "bool",
          "name": "registered",
          "type": "bool"
        },
        {
          "internalType": "enum FeedEngine.FeederRank",
          "name": "rank",
          "type": "uint8"
        },
        {
          "internalType": "uint256",
          "name": "xp",
          "type": "uint256"
        },
        {
          "internalType": "uint256",
          "name": "totalFeeds",
          "type": "uint256"
        },
        {
          "internalType": "uint256",
          "name": "stakedAmount",
          "type": "uint256"
        },
        {
          "internalType": "uint256",
          "name": "pendingRewards",
          "type": "uint256"
        }
      ],
      "stateMutability": "view",
      "type": "function"
    },
    {
      "inputs": [
        {
          "internalType": "bytes32",
          "name": "orderId",
          "type": "bytes32"
        }
      ],
      "name": "getOrderFeeders",
      "outputs": [
        {
          "internalType": "address[]",
          "name": "",
          "type": "address[]"
        }
      ],
      "stateMutability": "view",
      "type": "function"
    },
    {
      "inputs": [
        {
          "internalType": "bytes32",
          "name": "orderId",
          "type": "bytes32"
        }
      ],
      "name": "grabOrder",
      "outputs": [],
      "stateMutability": "nonpayable",
      "type": "function"
    },
    {
      "inputs": [
        {
          "internalType": "address",
          "name": "owner_",
          "type": "address"
        },
        {
          "internalType": "address",
          "name": "feedToken_",
          "type": "address"
        },
        {
          "internalType": "address",
          "name": "consensus_",
          "type": "address"
        },
        {
          "internalType": "address",
          "name": "rewardPenalty_",
          "type": "address"
        },
        {
          "internalType": "address",
          "name": "feederLicense_",
          "type": "address"
        }
      ],
      "name": "initialize",
      "outputs": [],
      "stateMutability": "nonpayable",
      "type": "function"
    },
    {
      "inputs": [
        {
          "internalType": "address",
          "name": "protocol",
          "type": "address"
        }
      ],
      "name": "isProtocolAuthorized",
      "outputs": [
        {
          "internalType": "bool",
          "name": "",
          "type": "bool"
        }
      ],
      "stateMutability": "view",
      "type": "function"
    },
    {
      "inputs": [
        {
          "internalType": "enum FeedEngine.FeederRank",
          "name": "",
          "type": "uint8"
        }
      ],
      "name": "maxDailyGrabByRank",
      "outputs": [
        {
          "internalType": "uint256",
          "name": "",
          "type": "uint256"
        }
      ],
      "stateMutability": "view",
      "type": "function"
    },
    {
      "inputs": [
        {
          "internalType": "enum FeedEngine.FeederRank",
          "name": "",
          "type": "uint8"
        }
      ],
      "name": "minStakeByRank",
      "outputs": [
        {
          "internalType": "uint256",
          "name": "",
          "type": "uint256"
        }
      ],
      "stateMutability": "view",
      "type": "function"
    },
    {
      "inputs": [],
      "name": "owner",
      "outputs": [
        {
          "internalType": "address",
          "name": "",
          "type": "address"
        }
      ],
      "stateMutability": "view",
      "type": "function"
    },
    {
      "inputs": [],
      "name": "proxiableUUID",
      "outputs": [
        {
          "internalType": "bytes32",
          "name": "",
          "type": "bytes32"
        }
      ],
      "stateMutability": "view",
      "type": "function"
    },
    {
      "inputs": [
        {
          "internalType": "uint256",
          "name": "stakeAmount",
          "type": "uint256"
        }
      ],
      "name": "registerFeeder",
      "outputs": [],
      "stateMutability": "nonpayable",
      "type": "function"
    },
    {
      "inputs": [],
      "name": "renounceOwnership",
      "outputs": [],
      "stateMutability": "nonpayable",
      "type": "function"
    },
    {
      "inputs": [
        {
          "internalType": "bytes32",
          "name": "orderId",
          "type": "bytes32"
        },
        {
          "internalType": "uint256",
          "name": "requiredFeeders",
          "type": "uint256"
        },
        {
          "internalType": "uint256",
          "name": "rewardAmount",
          "type": "uint256"
        }
      ],
      "name": "requestFeed",
      "outputs": [],
      "stateMutability": "nonpayable",
      "type": "function"
    },
    {
      "inputs": [],
      "name": "requestUnstake",
      "outputs": [],
      "stateMutability": "nonpayable",
      "type": "function"
    },
    {
      "inputs": [],
      "name": "rewardPenalty",
      "outputs": [
        {
          "internalType": "contract RewardPenalty",
          "name": "",
          "type": "address"
        }
      ],
      "stateMutability": "view",
      "type": "function"
    },
    {
      "inputs": [
        {
          "internalType": "address",
          "name": "protocol",
          "type": "address"
        },
        {
          "internalType": "bool",
          "name": "authorized",
          "type": "bool"
        }
      ],
      "name": "setAuthorizedProtocol",
      "outputs": [],
      "stateMutability": "nonpayable",
      "type": "function"
    },
    {
      "inputs": [
        {
          "internalType": "bytes32",
          "name": "orderId",
          "type": "bytes32"
        },
        {
          "internalType": "uint256",
          "name": "rewardAmount",
          "type": "uint256"
        }
      ],
      "name": "settleOrder",
      "outputs": [],
      "stateMutability": "nonpayable",
      "type": "function"
    },
    {
      "inputs": [
        {
          "internalType": "uint256",
          "name": "amount",
          "type": "uint256"
        }
      ],
      "name": "stake",
      "outputs": [],
      "stateMutability": "nonpayable",
      "type": "function"
    },
    {
      "inputs": [],
      "name": "totalFeeders",
      "outputs": [
        {
          "internalType": "uint256",
          "name": "",
          "type": "uint256"
        }
      ],
      "stateMutability": "view",
      "type": "function"
    },
    {
      "inputs": [
        {
          "internalType": "address",
          "name": "newOwner",
          "type": "address"
        }
      ],
      "name": "transferOwnership",
      "outputs": [],
      "stateMutability": "nonpayable",
      "type": "function"
    },
    {
      "inputs": [],
      "name": "unstakeCooldown",
      "outputs": [
        {
          "internalType": "uint256",
          "name": "",
          "type": "uint256"
        }
      ],
      "stateMutability": "view",
      "type": "function"
    },
    {
      "inputs": [
        {
          "internalType": "enum FeedEngine.FeederRank",
          "name": "rank",
          "type": "uint8"
        },
        {
          "internalType": "uint256",
          "name": "amount",
          "type": "uint256"
        }
      ],
      "name": "updateMinStake",
      "outputs": [],
      "stateMutability": "nonpayable",
      "type": "function"
    },
    {
      "inputs": [
        {
          "internalType": "address",
          "name": "consensus_",
          "type": "address"
        },
        {
          "internalType": "address",
          "name": "rewardPenalty_",
          "type": "address"
        },
        {
          "internalType": "address",
          "name": "feederLicense_",
          "type": "address"
        }
      ],
      "name": "updateSubContracts",
      "outputs": [],
      "stateMutability": "nonpayable",
      "type": "function"
    },
    {
      "inputs": [
        {
          "internalType": "uint256",
          "name": "cooldown",
          "type": "uint256"
        }
      ],
      "name": "updateUnstakeCooldown",
      "outputs": [],
      "stateMutability": "nonpayable",
      "type": "function"
    },
    {
      "inputs": [
        {
          "internalType": "address",
          "name": "newImplementation",
          "type": "address"
        },
        {
          "internalType": "bytes",
          "name": "data",
          "type": "bytes"
        }
      ],
      "name": "upgradeToAndCall",
      "outputs": [],
      "stateMutability": "payable",
      "type": "function"
    },
    {
      "inputs": [],
      "name": "withdraw",
      "outputs": [],
      "stateMutability": "nonpayable",
      "type": "function"
    },
    {
      "inputs": [
        {
          "internalType": "enum FeedEngine.FeederRank",
          "name": "",
          "type": "uint8"
        }
      ],
      "name": "xpThresholds",
      "outputs": [
        {
          "internalType": "uint256",
          "name": "",
          "type": "uint256"
        }
      ],
      "stateMutability": "view",
      "type": "function"
    }
  ],
  "bytecode": "0x60a080604052346100ea57306080527ff0c57e16840df040f15088dc2f81fe391c3923bec73e23a9662efc9c229c6a005460ff8160401c166100d9576002600160401b03196001600160401b03821601610073575b60405161266f90816100f08239608051818181611277015261131d0152f35b6001600160401b0319166001600160401b039081177ff0c57e16840df040f15088dc2f81fe391c3923bec73e23a9662efc9c229c6a005581527fc7f505b2f371ae2175ee4913f4499e1f2633a7b5936321eed1cdaeb6115181d290602090a13880610054565b63f92ee8a960e01b60005260046000fd5b600080fdfe6080604052600436101561001257600080fd5b6000803560e01c806304993e6a14611f775780630aa3166114611ee257806313b9963514611e9b5780631459457a14611af35780632d230d2a14611a465780632e822dbf14611a1c5780633ccfd60b1461187c57806340c340ec146111fc57806340e1990814611819578063436a0fab146117e6578063472ac4b7146114f55780634f1ef286146112cc57806352d1902d14611264578063569bb6e91461123b5780635f76a98d146111fc57806365334ac014611139578063715018a6146110cf5780637eefd5ae146110b157806388e5ee8114610e6e5780638da5cb5b14610e385780638ef3f76114610e0f5780639f648f5514610db1578063a694fc3a14610c83578063ad3cb1cc14610c36578063b334c28b14610b7a578063c27308a814610b53578063c639af3e14610b19578063ce93f86714610a53578063d21db9a5146109cf578063d3686dcf146109b1578063d5adc966146108bd578063de000f4b146105cc578063e0f8b2ef146105a3578063eb7bb5a71461027d578063f2fde38b146102505763fc63958e146101a957600080fd5b3461024d578060031936011261024d573381526004602052604081206101d260ff825416612127565b600481019081546102145760039142905501546040519081527f828764c21e74c28710e19919735825aba966621c95cbd913f8ed65a2d298f48c60203392a280f35b60405162461bcd60e51b8152602060048201526011602482015270105b1c9958591e481c995c5d595cdd1959607a1b6044820152606490fd5b80fd5b503461024d57602036600319011261024d5761027a61026d61200c565b610275612271565b6121fb565b80f35b503461024d57602036600319011261024d576004359061029b6122a7565b338152600460205260ff604082205416610569576000805260086020527f5eff886ea0ce6ca488a3d6e336d6c0f75f46d19b42c06ce5ee98e42c96d256c754821061052f5780546040516323b872dd60e01b815233600482015230602482015260448101849052906020908290606490829086906001600160a01b03165af180156104cf57610502575b50604051610100810181811067ffffffffffffffff8211176104ee576040526001815260208101828152604082019383855260608301908482526080840190815260a084019085825260c085019286845260e086019487865233885260046020526103a36040892097511515889060ff801983541691151516179055565b519760078910156104da576103bc8798996006986121dc565b516001880155516002870155516003860155516004850155516005840155519101556103e9600c546121cd565b600c55600354604051636a4b888360e01b815233600482015260606024820152601060648201526f1a5c199cce8bcbd45b511959985d5b1d60821b60848201526044810183905290602090829060a490829086906001600160a01b03165af19081156104cf578291610498575b506040519081527f5e8c4c772a7a8b93ca7071579387eaf0b19513b729d2c2903c22f28cf60e46bc60203392a260016000805160206125fa8339815191525580f35b90506020813d6020116104c7575b816104b36020938361205b565b810103126104c2575138610456565b600080fd5b3d91506104a6565b6040513d84823e3d90fd5b634e487b7160e01b88526021600452602488fd5b634e487b7160e01b83526041600452602483fd5b6105239060203d602011610528575b61051b818361205b565b810190612187565b610325565b503d610511565b60405162461bcd60e51b8152602060048201526012602482015271496e73756666696369656e74207374616b6560701b6044820152606490fd5b60405162461bcd60e51b8152602060048201526012602482015271105b1c9958591e481c9959da5cdd195c995960721b6044820152606490fd5b503461024d578060031936011261024d576002546040516001600160a01b039091168152602090f35b503461024d57606036600319011261024d576024356004356044356105ef6122a7565b338452600760205260ff604085205416801561089c575b1561085757818452600660205260ff60046040862001541661081957600383106107e05780156107ad5783546040516323b872dd60e01b815233600482015230602482015260448101839052906020908290606490829089906001600160a01b03165af180156107a257610785575b5060405160a0810181811067ffffffffffffffff821117610771579061070c91604052338152600460208201868152604083018581526060840190428252608085019260018452888b52600660205260408b209560018060a01b039051166001600160601b0360a01b87541617865551600186015551600285015551600384015551151591019060ff801983541691151516179055565b8184526005602052816040852055818452600560205280600260408620015560405192835260208301527f4a2e25c6248f385ba4235761cc1548ebe077dc5489f7ad4c9c33ac62830492d760403393a360016000805160206125fa8339815191525580f35b634e487b7160e01b86526041600452602486fd5b61079d9060203d6020116105285761051b818361205b565b610675565b6040513d87823e3d90fd5b60405162461bcd60e51b815260206004820152600b60248201526a16995c9bc81c995dd85c9960aa1b6044820152606490fd5b60405162461bcd60e51b81526020600482015260116024820152704d696e696d756d2033206665656465727360781b6044820152606490fd5b60405162461bcd60e51b81526020600482015260166024820152755265717565737420616c72656164792065786973747360501b6044820152606490fd5b60405162461bcd60e51b815260206004820152601760248201527f4e6f7420617574686f72697a65642070726f746f636f6c0000000000000000006044820152606490fd5b506000805160206125ba833981519152546001600160a01b03163314610606565b503461024d57602036600319011261024d576001600160a01b036108df61200c565b1690818152600460205260408120908154916001810154906003600282015491015491602060018060a01b0360025416966024604051809981936318ebd13160e11b835260048301525afa9384156109a55793610970575b60c0955061095a6040519560ff81161515875260ff602088019160081c1661204e565b60408501526060840152608083015260a0820152f35b92506020853d60201161099d575b8161098b6020938361205b565b810103126104c25760c0945192610937565b3d915061097e565b604051903d90823e3d90fd5b503461024d578060031936011261024d576020600c54604051908152f35b503461024d57606036600319011261024d576109e961200c565b6044359067ffffffffffffffff8211610a4f5736602383011215610a4f57816004013567ffffffffffffffff8111610a4b573660248285010111610a4b5761027a92610a4191610a37612271565b60243692016120af565b906024359061237d565b8380fd5b8280fd5b503461024d57602036600319011261024d576024600435602060018060a01b03600154166040519384809263ce93f86760e01b82528560048301525afa918215610b0e578392610ad7575b5060ff60036040858460609752600660205282828220015494815260056020522001541690604051928352602083015215156040820152f35b9291506020833d602011610b06575b81610af36020938361205b565b810103126104c2579151909160ff610a9e565b3d9150610ae6565b6040513d85823e3d90fd5b503461024d57604036600319011261024d576004356007811015610b4f57610b3f612271565b610b4b60243591611fc1565b5580f35b5080fd5b503461024d578060031936011261024d57546040516001600160a01b039091168152602090f35b503461024d57602036600319011261024d576004358152600560205260016040822001604051908160208254918281520190819285526020852090855b818110610c175750505082610bcd91038361205b565b604051928392602084019060208552518091526040840192915b818110610bf5575050500390f35b82516001600160a01b0316845285945060209384019390920191600101610be7565b82546001600160a01b0316845260209093019260019283019201610bb7565b503461024d578060031936011261024d5750610c7f604051610c5960408261205b565b60058152640352e302e360dc1b60208201526040519182916020835260208301906120e6565b0390f35b503461024d57602036600319011261024d57600435610ca06122a7565b3382526004602052610cb860ff604084205416612127565b8015610d7e5781546040516323b872dd60e01b815233600482015230602482015260448101839052906020908290606490829087906001600160a01b03165af18015610b0e57610d61575b50338252600460205260036040832001610d1e828254612164565b90556040519081527f9e71bc8eea02a63969f509818f2dafb9254532904319f9dbda79b67bd34a5f3d60203392a260016000805160206125fa8339815191525580f35b610d799060203d6020116105285761051b818361205b565b610d03565b60405162461bcd60e51b815260206004820152600b60248201526a16995c9bc8185b5bdd5b9d60aa1b6044820152606490fd5b503461024d57602036600319011261024d57600435610dce612271565b620151808110610dde57600a5580f35b60405162461bcd60e51b8152602060048201526009602482015268151bdbc81cda1bdc9d60ba1b6044820152606490fd5b503461024d578060031936011261024d576001546040516001600160a01b039091168152602090f35b503461024d578060031936011261024d576000805160206125ba833981519152546040516001600160a01b039091168152602090f35b503461024d57602036600319011261024d57600435338252600460205260408220805490610e9e60ff8316612127565b60ff60038201549260081c1691610eb483611fc1565b541161106c57600254604051630ddb3db760e41b815233600482015290602090829060249082906001600160a01b03165afa9081156107a257859161104d575b5015611011576005906201518042046006820181815403611004575b50500190610f1f825491611ff3565b541115610fbf5781835260056020526001604084200180549068010000000000000000821015610fab5790610f599160018201815561219f565b81546001600160a01b0360039290921b91821b19163390911b1790558054610f80906121cd565b905533907f6f0e71390fec0559c3c025c4586a7a5d52bd03a8515f3ec54a03bff1b247ec538380a380f35b634e487b7160e01b85526041600452602485fd5b60405162461bcd60e51b815260206004820152601860248201527f4461696c792067726162206c696d6974207265616368656400000000000000006044820152606490fd5b8684840155553880610f10565b60405162461bcd60e51b815260206004820152601460248201527342616e6e65642066726f6d206772616262696e6760601b6044820152606490fd5b611066915060203d6020116105285761051b818361205b565b38610ef4565b60405162461bcd60e51b815260206004820152601b60248201527f496e73756666696369656e74207374616b6520666f722072616e6b00000000006044820152606490fd5b503461024d578060031936011261024d576020600a54604051908152f35b503461024d578060031936011261024d576110e8612271565b6000805160206125ba83398151915280546001600160a01b0319811690915581906001600160a01b03167f8be0079c531659141344cd1fd0a4f28419497f9722a3daafe3b4186f6b6457e08280a380f35b503461024d57604036600319011261024d5761115361200c565b6024359081151590818303610a4b5761116a612271565b6001600160a01b03169182156111c8577f68a5f73b4ad49573fdcbd5e548404a298dea33f94c1475d4f7825a23232637f3916111be60209285875260078452604087209060ff801983541691151516179055565b604051908152a280f35b60405162461bcd60e51b815260206004820152600c60248201526b5a65726f206164647265737360a01b6044820152606490fd5b503461024d57602036600319011261024d5760209060ff906040906001600160a01b0361122761200c565b168152600784522054166040519015158152f35b503461024d578060031936011261024d576003546040516001600160a01b039091168152602090f35b503461024d578060031936011261024d577f00000000000000000000000000000000000000000000000000000000000000006001600160a01b031630036112bd5760206040516000805160206125da8339815191528152f35b63703e46dd60e11b8152600490fd5b50604036600319011261024d576112e161200c565b9060243567ffffffffffffffff8111610b4f5736602382011215610b4f576113139036906024816004013591016120af565b6001600160a01b037f0000000000000000000000000000000000000000000000000000000000000000163081149081156114d2575b506114c357611355612271565b6040516352d1902d60e01b8152926001600160a01b0381169190602085600481865afa8095859661148b575b5061139a57634c9c8ce360e01b84526004839052602484fd5b9091846000805160206125da83398151915281036114795750813b15611467576000805160206125da83398151915280546001600160a01b031916821790557fbc7cd75a20ee27fd9adebab32041f755214dbc6bffa90cc0225b39da2e5c2d3b8480a2815183901561144d578083602061144195519101845af43d15611445573d9161142583612093565b92611433604051948561205b565b83523d85602085013e612558565b5080f35b606091612558565b505050346114585780f35b63b398979f60e01b8152600490fd5b634c9c8ce360e01b8452600452602483fd5b632a87526960e21b8552600452602484fd5b9095506020813d6020116114bb575b816114a76020938361205b565b810103126114b757519438611381565b8480fd5b3d915061149a565b63703e46dd60e11b8252600482fd5b6000805160206125da833981519152546001600160a01b03161415905038611348565b503461024d57604036600319011261024d57602435600435611515612271565b61151d6122a7565b80835260056020526040832090600382019160ff8354166117af57600181019283541561177457805460ff1916600190811790915560029091018490555460405163ce93f86760e01b8152600481018390529085906001600160a01b0316602083602481845afa9283156104cf578293611740575b50803b15610b4f578190602460405180948193631242176360e21b83528860048401525af1801561173557611721575b508361166e575b845b835481101561162757806116216115e46001938761219f565b9054848060a01b039160031b1c166040906116018251928361205b565b600e82526d1999595917d8dbdb5c1b195d195960921b60208301526122e3565b016115cb565b85837f6f4014c94efe6688744a22acb21d0a62cd2a70b6bd4a75da3b1a20512419d6056040858982519182526020820152a260016000805160206125fa8339815191525580f35b6002546001600160a01b0316803b1561171d57604051632a63773960e21b8152600481018490526060602482015284546064820181905285885260208820889391608484019190855b8181106116fb575050508391838381848195508c604483015203925af180156104cf576116e6575b50506115c9565b816116f09161205b565b6114b75784386116df565b82546001600160a01b031684528b9650602090930192600192830192016116b7565b8580fd5b8561172e9196929661205b565b93386115c2565b6040513d88823e3d90fd5b9092506020813d60201161176c575b8161175c6020938361205b565b81010312610b4f57519138611592565b3d915061174f565b60405162461bcd60e51b8152602060048201526013602482015272139bc819995959195c9cc8185cdcda59db9959606a1b6044820152606490fd5b60405162461bcd60e51b815260206004820152600f60248201526e105b1c9958591e481cd95d1d1b1959608a1b6044820152606490fd5b503461024d57602036600319011261024d5760043590600782101561024d57602061181083611ff3565b54604051908152f35b503461024d57602036600319011261024d57604060a0916004358152600660205220600180831b0381541690600181015490600281015460ff60046003840154930154169260405194855260208501526040840152606083015215156080820152f35b503461024d578060031936011261024d576118956122a7565b3381526004602052604081206118ae60ff825416612127565b6004810190815480156119e257600a546118c791612164565b42106119aa57600301805491821561197657838092555581602060018060a01b0382541660446040518094819363a9059cbb60e01b83523360048401528760248401525af18015610b0e57611959575b506040519081527f7084f5476618d8e60b11ef0d7d3f06914655adb8793e28ff7f018d4c76d505d560203392a260016000805160206125fa8339815191525580f35b6119719060203d6020116105285761051b818361205b565b611917565b60405162461bcd60e51b815260206004820152600c60248201526b5a65726f2062616c616e636560a01b6044820152606490fd5b60405162461bcd60e51b815260206004820152601060248201526f10dbdbdb191bdddb881b9bdd081b595d60821b6044820152606490fd5b60405162461bcd60e51b8152602060048201526012602482015271139bc81d5b9cdd185ad9481c995c5d595cdd60721b6044820152606490fd5b503461024d57602036600319011261024d5760043590600782101561024d57602061181083611fda565b503461024d57606036600319011261024d57611a6061200c565b611a68612022565b611a70612038565b91611a79612271565b6001600160a01b031680611ada575b506001600160a01b031680611ac1575b506001600160a01b031680611aab575080f35b6001600160601b0360a01b600354161760035580f35b6001600160601b0360a01b600254161760025538611a98565b6001600160601b0360a01b600154161760015538611a88565b503461024d5760a036600319011261024d57611b0d61200c565b611b15612022565b611b1d612038565b6064356001600160a01b03811691908290036114b7576084356001600160a01b038116939084900361171d5760008051602061261a833981519152549460ff8660401c16159567ffffffffffffffff811680159081611e93575b6001149081611e89575b159081611e80575b50611e715767ffffffffffffffff19811660011760008051602061261a83398151915255611bc9919087611e44575b50611bc161240b565b61027561240b565b611bd161240b565b611bd961240b565b611be161240b565b60016000805160206125fa8339815191525560018060a01b03166001600160601b0360a01b86541617855560018060a01b03166001600160601b0360a01b60015416176001556001600160601b0360a01b60025416176002556001600160601b0360a01b600354161760035562093a80600a55818052600860205268056bc75e2d631000006040832055600182526008602052680ad78ebc5ac62000006040832055600282526008602052681b1ae4d6e2ef5000006040832055600382526008602052683635c9adc5dea00000604083205560048252600860205268878678326eac900000604083205560058252600860205269010f0cf064dd59200000604083205560068252600860205269054b40b1f852bda0000060408320558180526009602052600a6040832055600182526009602052600f604083205560028252600960205260146040832055600382526009602052601e60408320556004825260096020526032604083205560058252600960205260646040832055600682526009602052604082206000199055818052600b60205281604081205560018252600b6020526103e8604083205560028252600b602052610bb8604083205560038252600b602052611f40604083205560048252600b602052614e20604083205560058252600b60205261c350604083205560068252600b602052620186a06040832055611dea5780f35b68ff00000000000000001960008051602061261a833981519152541660008051602061261a833981519152557fc7f505b2f371ae2175ee4913f4499e1f2633a7b5936321eed1cdaeb6115181d2602060405160018152a180f35b68ffffffffffffffffff1916680100000000000000011760008051602061261a8339815191525538611bb8565b63f92ee8a960e01b8852600488fd5b90501538611b89565b303b159150611b81565b889150611b77565b503461024d57602036600319011261024d576040606091600435815260056020522080549060ff600360028301549201541690604051928352602083015215156040820152f35b503461024d57602036600319011261024d57610100906040906001600160a01b03611f0b61200c565b168152600460205220805490600181015490600281015460038201546004830154916006600585015494015494611f576040519760ff81161515895260ff60208a019160081c1661204e565b60408701526060860152608085015260a084015260c083015260e0820152f35b503461024d57602036600319011261024d5760043590600782101561024d57602061181083611fc1565b60071115611fab57565b634e487b7160e01b600052602160045260246000fd5b6007811015611fab576000526008602052604060002090565b6007811015611fab57600052600b602052604060002090565b6007811015611fab576000526009602052604060002090565b600435906001600160a01b03821682036104c257565b602435906001600160a01b03821682036104c257565b604435906001600160a01b03821682036104c257565b906007821015611fab5752565b90601f8019910116810190811067ffffffffffffffff82111761207d57604052565b634e487b7160e01b600052604160045260246000fd5b67ffffffffffffffff811161207d57601f01601f191660200190565b9291926120bb82612093565b916120c9604051938461205b565b8294818452818301116104c2578281602093846000960137010152565b919082519283825260005b848110612112575050826000602080949584010152601f8019910116010190565b806020809284010151828286010152016120f1565b1561212e57565b60405162461bcd60e51b815260206004820152600e60248201526d139bdd081c9959da5cdd195c995960921b6044820152606490fd5b9190820180921161217157565b634e487b7160e01b600052601160045260246000fd5b908160209103126104c2575180151581036104c25790565b80548210156121b75760005260206000200190600090565b634e487b7160e01b600052603260045260246000fd5b60001981146121715760010190565b906007811015611fab5761ff0082549160081b169061ff001916179055565b6001600160a01b0316801561225b576000805160206125ba83398151915280546001600160a01b0319811683179091556001600160a01b03167f8be0079c531659141344cd1fd0a4f28419497f9722a3daafe3b4186f6b6457e0600080a3565b631e4fbdf760e01b600052600060045260246000fd5b6000805160206125ba833981519152546001600160a01b0316330361229257565b63118cdaa760e01b6000523360045260246000fd5b60026000805160206125fa83398151915254146122d25760026000805160206125fa83398151915255565b633ee5aeb560e01b60005260046000fd5b6001600160a01b0381166000818152600460205260409020805460ff1615612377576001810193845490603282018092116121715760027fa13e62b23f693fff23dadfb64a02b469698038185aee33e381d571ecbaed843c9361236d9361237598550161235081546121cd565b9055604051918291603283526040602084015260408301906120e6565b0390a2612478565b565b50505050565b909160018060a01b0382169081600052600460205260406000209060ff82541615612404576123759460028360017fa13e62b23f693fff23dadfb64a02b469698038185aee33e381d571ecbaed843c95016123d9848254612164565b9055016123e681546121cd565b905561236d60405192839283526040602084015260408301906120e6565b5050505050565b60ff60008051602061261a8339815191525460401c161561242857565b631afcd79f60e31b60005260046000fd5b60ff60019116019060ff821161217157565b60ff166007811015611fab5790565b91602061237592949361247181604081019761204e565b019061204e565b6001600160a01b0381166000908152600460205260409020805490919060081c60ff166124a481611fa1565b600681106124b157505050565b6124ba81611fa1565b6124cb6124c682612439565b61244b565b60018401546124d982611fda565b54111580612541575b6124ec5750505050565b61236d8161251e7fbaf1d8eff6bfe4c2b1cc56e312bf32080bd1f619fb4798bea7b55c74fb159dc893612538976121dc565b6040516001600160a01b038616949092839290918361245a565b38808080612377565b50600384015461255082611fc1565b5411156124e2565b9061257e575080511561256d57602081519101fd5b63d6bda27560e01b60005260046000fd5b815115806125b0575b61258f575090565b639996b31560e01b60009081526001600160a01b0391909116600452602490fd5b50803b1561258756fe9016d09d72d40fdae2fd8ceac6b6234c7706214fd39c1cd1e609a0528c199300360894a13ba1a3210667c828492db98dca3e2076cc3735a920a3ca505d382bbc9b779b17422d0df92223018b32b4d1fa46e071723d6817e2486d003becc55f00f0c57e16840df040f15088dc2f81fe391c3923bec73e23a9662efc9c229c6a00a264697066735822122013ab1f0a96abc4be77b957900a5d4b21332543d0095aadc293f3ae4664afd37864736f6c634300081c0033",
  "linkReferences": {},
  "deployedLinkReferences": {}
}