{
  "_format": "hh-sol-artifact-1",
  "contractName": "FeedEngine",
  "sourceName": "contracts/FeedEngine.sol",
  "abi": [
    {
      "inputs": [],
      "stateMutability": "nonpayable",
      "type": "constructor"
    },
    {
      "inputs": [
        {
          "internalType": "address",
          "name": "target",
          "type": "address"
        }
      ],
      "name": "AddressEmptyCode",
      "type": "error"
    },
    {
      "inputs": [
        {
          "internalType": "address",
          "name": "implementation",
          "type": "address"
        }
      ],
      "name": "ERC1967InvalidImplementation",
      "type": "error"
    },
    {
      "inputs": [],
      "name": "ERC1967NonPayable",
      "type": "error"
    },
    {
      "inputs": [],
      "name": "FailedCall",
      "type": "error"
    },
    {
      "inputs": [],
      "name": "InvalidInitialization",
      "type": "error"
    },
    {
      "inputs": [],
      "name": "NotInitializing",
      "type": "error"
    },
    {
      "inputs": [
        {
          "internalType": "address",
          "name": "owner",
          "type": "address"
        }
      ],
      "name": "OwnableInvalidOwner",
      "type": "error"
    },
    {
      "inputs": [
        {
          "internalType": "address",
          "name": "account",
          "type": "address"
        }
      ],
      "name": "OwnableUnauthorizedAccount",
      "type": "error"
    },
    {
      "inputs": [],
      "name": "ReentrancyGuardReentrantCall",
      "type": "error"
    },
    {
      "inputs": [],
      "name": "UUPSUnauthorizedCallContext",
      "type": "error"
    },
    {
      "inputs": [
        {
          "internalType": "bytes32",
          "name": "slot",
          "type": "bytes32"
        }
      ],
      "name": "UUPSUnsupportedProxiableUUID",
      "type": "error"
    },
    {
      "anonymous": false,
      "inputs": [
        {
          "indexed": true,
          "internalType": "address",
          "name": "feeder",
          "type": "address"
        },
        {
          "indexed": false,
          "internalType": "enum FeedEngine.FeederRank",
          "name": "oldRank",
          "type": "uint8"
        },
        {
          "indexed": false,
          "internalType": "enum FeedEngine.FeederRank",
          "name": "newRank",
          "type": "uint8"
        }
      ],
      "name": "FeederRankUpdated",
      "type": "event"
    },
    {
      "anonymous": false,
      "inputs": [
        {
          "indexed": true,
          "internalType": "address",
          "name": "feeder",
          "type": "address"
        },
        {
          "indexed": false,
          "internalType": "uint256",
          "name": "licenseTokenId",
          "type": "uint256"
        }
      ],
      "name": "FeederRegistered",
      "type": "event"
    },
    {
      "anonymous": false,
      "inputs": [
        {
          "indexed": false,
          "internalType": "uint64",
          "name": "version",
          "type": "uint64"
        }
      ],
      "name": "Initialized",
      "type": "event"
    },
    {
      "anonymous": false,
      "inputs": [
        {
          "indexed": true,
          "internalType": "bytes32",
          "name": "orderId",
          "type": "bytes32"
        },
        {
          "indexed": true,
          "internalType": "address",
          "name": "feeder",
          "type": "address"
        }
      ],
      "name": "OrderGrabbed",
      "type": "event"
    },
    {
      "anonymous": false,
      "inputs": [
        {
          "indexed": true,
          "internalType": "bytes32",
          "name": "orderId",
          "type": "bytes32"
        },
        {
          "indexed": false,
          "internalType": "uint256",
          "name": "consensusPrice",
          "type": "uint256"
        },
        {
          "indexed": false,
          "internalType": "uint256",
          "name": "reward",
          "type": "uint256"
        }
      ],
      "name": "OrderSettled",
      "type": "event"
    },
    {
      "anonymous": false,
      "inputs": [
        {
          "indexed": true,
          "internalType": "address",
          "name": "previousOwner",
          "type": "address"
        },
        {
          "indexed": true,
          "internalType": "address",
          "name": "newOwner",
          "type": "address"
        }
      ],
      "name": "OwnershipTransferred",
      "type": "event"
    },
    {
      "anonymous": false,
      "inputs": [
        {
          "indexed": true,
          "internalType": "address",
          "name": "feeder",
          "type": "address"
        },
        {
          "indexed": false,
          "internalType": "uint256",
          "name": "amount",
          "type": "uint256"
        }
      ],
      "name": "Staked",
      "type": "event"
    },
    {
      "anonymous": false,
      "inputs": [
        {
          "indexed": true,
          "internalType": "address",
          "name": "feeder",
          "type": "address"
        },
        {
          "indexed": false,
          "internalType": "uint256",
          "name": "amount",
          "type": "uint256"
        }
      ],
      "name": "UnstakeRequested",
      "type": "event"
    },
    {
      "anonymous": false,
      "inputs": [
        {
          "indexed": true,
          "internalType": "address",
          "name": "implementation",
          "type": "address"
        }
      ],
      "name": "Upgraded",
      "type": "event"
    },
    {
      "anonymous": false,
      "inputs": [
        {
          "indexed": true,
          "internalType": "address",
          "name": "feeder",
          "type": "address"
        },
        {
          "indexed": false,
          "internalType": "uint256",
          "name": "amount",
          "type": "uint256"
        }
      ],
      "name": "Withdrawn",
      "type": "event"
    },
    {
      "anonymous": false,
      "inputs": [
        {
          "indexed": true,
          "internalType": "address",
          "name": "feeder",
          "type": "address"
        },
        {
          "indexed": false,
          "internalType": "uint256",
          "name": "amount",
          "type": "uint256"
        },
        {
          "indexed": false,
          "internalType": "string",
          "name": "reason",
          "type": "string"
        }
      ],
      "name": "XPAwarded",
      "type": "event"
    },
    {
      "inputs": [],
      "name": "UPGRADE_INTERFACE_VERSION",
      "outputs": [
        {
          "internalType": "string",
          "name": "",
          "type": "string"
        }
      ],
      "stateMutability": "view",
      "type": "function"
    },
    {
      "inputs": [
        {
          "internalType": "address",
          "name": "feederAddr",
          "type": "address"
        },
        {
          "internalType": "uint256",
          "name": "amount",
          "type": "uint256"
        },
        {
          "internalType": "string",
          "name": "reason",
          "type": "string"
        }
      ],
      "name": "awardXP",
      "outputs": [],
      "stateMutability": "nonpayable",
      "type": "function"
    },
    {
      "inputs": [],
      "name": "consensus",
      "outputs": [
        {
          "internalType": "contract FeedConsensus",
          "name": "",
          "type": "address"
        }
      ],
      "stateMutability": "view",
      "type": "function"
    },
    {
      "inputs": [
        {
          "internalType": "bytes32",
          "name": "",
          "type": "bytes32"
        }
      ],
      "name": "engineOrders",
      "outputs": [
        {
          "internalType": "bytes32",
          "name": "orderId",
          "type": "bytes32"
        },
        {
          "internalType": "uint256",
          "name": "rewardAmount",
          "type": "uint256"
        },
        {
          "internalType": "bool",
          "name": "settled",
          "type": "bool"
        }
      ],
      "stateMutability": "view",
      "type": "function"
    },
    {
      "inputs": [],
      "name": "feedToken",
      "outputs": [
        {
          "internalType": "contract IERC20",
          "name": "",
          "type": "address"
        }
      ],
      "stateMutability": "view",
      "type": "function"
    },
    {
      "inputs": [],
      "name": "feederLicense",
      "outputs": [
        {
          "internalType": "contract FeederLicense",
          "name": "",
          "type": "address"
        }
      ],
      "stateMutability": "view",
      "type": "function"
    },
    {
      "inputs": [
        {
          "internalType": "address",
          "name": "",
          "type": "address"
        }
      ],
      "name": "feeders",
      "outputs": [
        {
          "internalType": "bool",
          "name": "registered",
          "type": "bool"
        },
        {
          "internalType": "enum FeedEngine.FeederRank",
          "name": "rank",
          "type": "uint8"
        },
        {
          "internalType": "uint256",
          "name": "xp",
          "type": "uint256"
        },
        {
          "internalType": "uint256",
          "name": "totalFeeds",
          "type": "uint256"
        },
        {
          "internalType": "uint256",
          "name": "stakedAmount",
          "type": "uint256"
        },
        {
          "internalType": "uint256",
          "name": "unstakeRequestTime",
          "type": "uint256"
        },
        {
          "internalType": "uint256",
          "name": "dailyGrabCount",
          "type": "uint256"
        },
        {
          "internalType": "uint256",
          "name": "lastGrabDate",
          "type": "uint256"
        }
      ],
      "stateMutability": "view",
      "type": "function"
    },
    {
      "inputs": [
        {
          "internalType": "address",
          "name": "feederAddr",
          "type": "address"
        }
      ],
      "name": "getFeederInfo",
      "outputs": [
        {
          "internalType": "bool",
          "name": "registered",
          "type": "bool"
        },
        {
          "internalType": "enum FeedEngine.FeederRank",
          "name": "rank",
          "type": "uint8"
        },
        {
          "internalType": "uint256",
          "name": "xp",
          "type": "uint256"
        },
        {
          "internalType": "uint256",
          "name": "totalFeeds",
          "type": "uint256"
        },
        {
          "internalType": "uint256",
          "name": "stakedAmount",
          "type": "uint256"
        },
        {
          "internalType": "uint256",
          "name": "pendingRewards",
          "type": "uint256"
        }
      ],
      "stateMutability": "view",
      "type": "function"
    },
    {
      "inputs": [
        {
          "internalType": "bytes32",
          "name": "orderId",
          "type": "bytes32"
        }
      ],
      "name": "getOrderFeeders",
      "outputs": [
        {
          "internalType": "address[]",
          "name": "",
          "type": "address[]"
        }
      ],
      "stateMutability": "view",
      "type": "function"
    },
    {
      "inputs": [
        {
          "internalType": "bytes32",
          "name": "orderId",
          "type": "bytes32"
        }
      ],
      "name": "grabOrder",
      "outputs": [],
      "stateMutability": "nonpayable",
      "type": "function"
    },
    {
      "inputs": [
        {
          "internalType": "address",
          "name": "owner_",
          "type": "address"
        },
        {
          "internalType": "address",
          "name": "feedToken_",
          "type": "address"
        },
        {
          "internalType": "address",
          "name": "consensus_",
          "type": "address"
        },
        {
          "internalType": "address",
          "name": "rewardPenalty_",
          "type": "address"
        },
        {
          "internalType": "address",
          "name": "feederLicense_",
          "type": "address"
        }
      ],
      "name": "initialize",
      "outputs": [],
      "stateMutability": "nonpayable",
      "type": "function"
    },
    {
      "inputs": [
        {
          "internalType": "enum FeedEngine.FeederRank",
          "name": "",
          "type": "uint8"
        }
      ],
      "name": "maxDailyGrabByRank",
      "outputs": [
        {
          "internalType": "uint256",
          "name": "",
          "type": "uint256"
        }
      ],
      "stateMutability": "view",
      "type": "function"
    },
    {
      "inputs": [
        {
          "internalType": "enum FeedEngine.FeederRank",
          "name": "",
          "type": "uint8"
        }
      ],
      "name": "minStakeByRank",
      "outputs": [
        {
          "internalType": "uint256",
          "name": "",
          "type": "uint256"
        }
      ],
      "stateMutability": "view",
      "type": "function"
    },
    {
      "inputs": [],
      "name": "owner",
      "outputs": [
        {
          "internalType": "address",
          "name": "",
          "type": "address"
        }
      ],
      "stateMutability": "view",
      "type": "function"
    },
    {
      "inputs": [],
      "name": "proxiableUUID",
      "outputs": [
        {
          "internalType": "bytes32",
          "name": "",
          "type": "bytes32"
        }
      ],
      "stateMutability": "view",
      "type": "function"
    },
    {
      "inputs": [
        {
          "internalType": "uint256",
          "name": "stakeAmount",
          "type": "uint256"
        }
      ],
      "name": "registerFeeder",
      "outputs": [],
      "stateMutability": "nonpayable",
      "type": "function"
    },
    {
      "inputs": [],
      "name": "renounceOwnership",
      "outputs": [],
      "stateMutability": "nonpayable",
      "type": "function"
    },
    {
      "inputs": [],
      "name": "requestUnstake",
      "outputs": [],
      "stateMutability": "nonpayable",
      "type": "function"
    },
    {
      "inputs": [],
      "name": "rewardPenalty",
      "outputs": [
        {
          "internalType": "contract RewardPenalty",
          "name": "",
          "type": "address"
        }
      ],
      "stateMutability": "view",
      "type": "function"
    },
    {
      "inputs": [
        {
          "internalType": "bytes32",
          "name": "orderId",
          "type": "bytes32"
        },
        {
          "internalType": "uint256",
          "name": "rewardAmount",
          "type": "uint256"
        }
      ],
      "name": "settleOrder",
      "outputs": [],
      "stateMutability": "nonpayable",
      "type": "function"
    },
    {
      "inputs": [
        {
          "internalType": "uint256",
          "name": "amount",
          "type": "uint256"
        }
      ],
      "name": "stake",
      "outputs": [],
      "stateMutability": "nonpayable",
      "type": "function"
    },
    {
      "inputs": [],
      "name": "totalFeeders",
      "outputs": [
        {
          "internalType": "uint256",
          "name": "",
          "type": "uint256"
        }
      ],
      "stateMutability": "view",
      "type": "function"
    },
    {
      "inputs": [
        {
          "internalType": "address",
          "name": "newOwner",
          "type": "address"
        }
      ],
      "name": "transferOwnership",
      "outputs": [],
      "stateMutability": "nonpayable",
      "type": "function"
    },
    {
      "inputs": [],
      "name": "unstakeCooldown",
      "outputs": [
        {
          "internalType": "uint256",
          "name": "",
          "type": "uint256"
        }
      ],
      "stateMutability": "view",
      "type": "function"
    },
    {
      "inputs": [
        {
          "internalType": "enum FeedEngine.FeederRank",
          "name": "rank",
          "type": "uint8"
        },
        {
          "internalType": "uint256",
          "name": "amount",
          "type": "uint256"
        }
      ],
      "name": "updateMinStake",
      "outputs": [],
      "stateMutability": "nonpayable",
      "type": "function"
    },
    {
      "inputs": [
        {
          "internalType": "address",
          "name": "consensus_",
          "type": "address"
        },
        {
          "internalType": "address",
          "name": "rewardPenalty_",
          "type": "address"
        },
        {
          "internalType": "address",
          "name": "feederLicense_",
          "type": "address"
        }
      ],
      "name": "updateSubContracts",
      "outputs": [],
      "stateMutability": "nonpayable",
      "type": "function"
    },
    {
      "inputs": [
        {
          "internalType": "uint256",
          "name": "cooldown",
          "type": "uint256"
        }
      ],
      "name": "updateUnstakeCooldown",
      "outputs": [],
      "stateMutability": "nonpayable",
      "type": "function"
    },
    {
      "inputs": [
        {
          "internalType": "address",
          "name": "newImplementation",
          "type": "address"
        },
        {
          "internalType": "bytes",
          "name": "data",
          "type": "bytes"
        }
      ],
      "name": "upgradeToAndCall",
      "outputs": [],
      "stateMutability": "payable",
      "type": "function"
    },
    {
      "inputs": [],
      "name": "withdraw",
      "outputs": [],
      "stateMutability": "nonpayable",
      "type": "function"
    },
    {
      "inputs": [
        {
          "internalType": "enum FeedEngine.FeederRank",
          "name": "",
          "type": "uint8"
        }
      ],
      "name": "xpThresholds",
      "outputs": [
        {
          "internalType": "uint256",
          "name": "",
          "type": "uint256"
        }
      ],
      "stateMutability": "view",
      "type": "function"
    }
  ],
  "bytecode": "0x60a080604052346100ea57306080527ff0c57e16840df040f15088dc2f81fe391c3923bec73e23a9662efc9c229c6a005460ff8160401c166100d9576002600160401b03196001600160401b03821601610073575b6040516120e890816100f08239608051818181610d570152610dfd0152f35b6001600160401b0319166001600160401b039081177ff0c57e16840df040f15088dc2f81fe391c3923bec73e23a9662efc9c229c6a005581527fc7f505b2f371ae2175ee4913f4499e1f2633a7b5936321eed1cdaeb6115181d290602090a13880610054565b63f92ee8a960e01b60005260046000fd5b600080fdfe6080604052600436101561001257600080fd5b6000803560e01c806304993e6a146119b85780630aa316611461192357806313b99635146118dc5780631459457a146115305780632d230d2a146114835780632e822dbf146114595780633ccfd60b146112b9578063436a0fab14611286578063472ac4b714610fd55780634f1ef28614610dac57806352d1902d14610d44578063569bb6e914610d1b578063715018a614610cb15780637eefd5ae14610c9357806388e5ee8114610a455780638da5cb5b14610a0f5780638ef3f761146109e65780639f648f5514610988578063a694fc3a1461084f578063ad3cb1cc14610802578063b334c28b14610778578063c27308a814610751578063c639af3e14610717578063d21db9a514610693578063d3686dcf14610675578063d5adc96614610581578063e0f8b2ef14610558578063eb7bb5a71461023b578063f2fde38b1461020e5763fc63958e1461016757600080fd5b3461020b578060031936011261020b5733815260046020526040812061019060ff825416611b68565b600481019081546101d25760039142905501546040519081527f828764c21e74c28710e19919735825aba966621c95cbd913f8ed65a2d298f48c60203392a280f35b60405162461bcd60e51b8152602060048201526011602482015270105b1c9958591e481c995c5d595cdd1959607a1b6044820152606490fd5b80fd5b503461020b57602036600319011261020b5761023861022b611a4d565b610233611cf5565b611c7f565b80f35b503461020b57602036600319011261020b5760043590610259611d2b565b338152600460205260ff60408220541661051e576000805260066020527f54cdd369e4e8a8515e52ca72ec816c2101831ad1f18bf44102ed171459c9b4f85482106104e45780546040516323b872dd60e01b815233600482015230602482015260448101849052906020908290606490829086906001600160a01b03165af18015610484576104b7575b50604051610100810181811067ffffffffffffffff8211176104a3576040526001815260208101828152604082019383855260608301908482526080840190815260a084019085825260c085019286845260e08601948786523388526004602052604088209651151560ff801989541691161787555197600789101561048f57610371879899600698611c60565b5160018801555160028701555160038601555160048501555160058401555191015561039e600a54611c51565b600a55600354604051636a4b888360e01b815233600482015260606024820152601060648201526f1a5c199cce8bcbd45b511959985d5b1d60821b60848201526044810183905290602090829060a490829086906001600160a01b03165af190811561048457829161044d575b506040519081527f5e8c4c772a7a8b93ca7071579387eaf0b19513b729d2c2903c22f28cf60e46bc60203392a260016000805160206120738339815191525580f35b90506020813d60201161047c575b8161046860209383611a9c565b8101031261047757513861040b565b600080fd5b3d915061045b565b6040513d84823e3d90fd5b634e487b7160e01b88526021600452602488fd5b634e487b7160e01b83526041600452602483fd5b6104d89060203d6020116104dd575b6104d08183611a9c565b810190611bc8565b6102e3565b503d6104c6565b60405162461bcd60e51b8152602060048201526012602482015271496e73756666696369656e74207374616b6560701b6044820152606490fd5b60405162461bcd60e51b8152602060048201526012602482015271105b1c9958591e481c9959da5cdd195c995960721b6044820152606490fd5b503461020b578060031936011261020b576002546040516001600160a01b039091168152602090f35b503461020b57602036600319011261020b576001600160a01b036105a3611a4d565b1690818152600460205260408120908154916001810154906003600282015491015491602060018060a01b0360025416966024604051809981936318ebd13160e11b835260048301525afa9384156106695793610634575b60c0955061061e6040519560ff81161515875260ff602088019160081c16611a8f565b60408501526060840152608083015260a0820152f35b92506020853d602011610661575b8161064f60209383611a9c565b810103126104775760c09451926105fb565b3d9150610642565b604051903d90823e3d90fd5b503461020b578060031936011261020b576020600a54604051908152f35b503461020b57606036600319011261020b576106ad611a4d565b6044359067ffffffffffffffff8211610713573660238301121561071357816004013567ffffffffffffffff811161070f57366024828501011161070f5761023892610705916106fb611cf5565b6024369201611af0565b9060243590611e01565b8380fd5b8280fd5b503461020b57604036600319011261020b57600435600781101561074d5761073d611cf5565b61074960243591611a02565b5580f35b5080fd5b503461020b578060031936011261020b57546040516001600160a01b039091168152602090f35b503461020b57602036600319011261020b576107ae90600435815260056020526107b56001604083200160405193848092611be0565b0383611a9c565b604051918291602083016020845282518091526020604085019301915b8181106107e0575050500390f35b82516001600160a01b03168452859450602093840193909201916001016107d2565b503461020b578060031936011261020b575061084b604051610825604082611a9c565b60058152640352e302e360dc1b6020820152604051918291602083526020830190611b27565b0390f35b503461020b57602036600319011261020b5760043561086c611d2b565b338252600460205261088460ff604084205416611b68565b80156109555781546040516323b872dd60e01b815233600482015230602482015260448101839052906020908290606490829087906001600160a01b03165af1801561094a5761092d575b503382526004602052600360408320016108ea828254611ba5565b90556040519081527f9e71bc8eea02a63969f509818f2dafb9254532904319f9dbda79b67bd34a5f3d60203392a260016000805160206120738339815191525580f35b6109459060203d6020116104dd576104d08183611a9c565b6108cf565b6040513d85823e3d90fd5b60405162461bcd60e51b815260206004820152600b60248201526a16995c9bc8185b5bdd5b9d60aa1b6044820152606490fd5b503461020b57602036600319011261020b576004356109a5611cf5565b6201518081106109b55760085580f35b60405162461bcd60e51b8152602060048201526009602482015268151bdbc81cda1bdc9d60ba1b6044820152606490fd5b503461020b578060031936011261020b576001546040516001600160a01b039091168152602090f35b503461020b578060031936011261020b57600080516020612033833981519152546040516001600160a01b039091168152602090f35b503461020b57602036600319011261020b57600435338252600460205260408220805490610a7560ff8316611b68565b60ff60038201549260081c1691610a8b83611a02565b5411610c4e57600254604051630ddb3db760e41b815233600482015290602090829060249082906001600160a01b03165afa908115610c43578591610c24575b5015610be8576005906201518042046006820181815403610bdb575b50500190610af6825491611a34565b541115610b965781835260056020526001604084200180549068010000000000000000821015610b825790610b3091600182018155611c23565b81546001600160a01b0360039290921b91821b19163390911b1790558054610b5790611c51565b905533907f6f0e71390fec0559c3c025c4586a7a5d52bd03a8515f3ec54a03bff1b247ec538380a380f35b634e487b7160e01b85526041600452602485fd5b60405162461bcd60e51b815260206004820152601860248201527f4461696c792067726162206c696d6974207265616368656400000000000000006044820152606490fd5b8684840155553880610ae7565b60405162461bcd60e51b815260206004820152601460248201527342616e6e65642066726f6d206772616262696e6760601b6044820152606490fd5b610c3d915060203d6020116104dd576104d08183611a9c565b38610acb565b6040513d87823e3d90fd5b60405162461bcd60e51b815260206004820152601b60248201527f496e73756666696369656e74207374616b6520666f722072616e6b00000000006044820152606490fd5b503461020b578060031936011261020b576020600854604051908152f35b503461020b578060031936011261020b57610cca611cf5565b60008051602061203383398151915280546001600160a01b0319811690915581906001600160a01b03167f8be0079c531659141344cd1fd0a4f28419497f9722a3daafe3b4186f6b6457e08280a380f35b503461020b578060031936011261020b576003546040516001600160a01b039091168152602090f35b503461020b578060031936011261020b577f00000000000000000000000000000000000000000000000000000000000000006001600160a01b03163003610d9d5760206040516000805160206120538339815191528152f35b63703e46dd60e11b8152600490fd5b50604036600319011261020b57610dc1611a4d565b9060243567ffffffffffffffff811161074d573660238201121561074d57610df3903690602481600401359101611af0565b6001600160a01b037f000000000000000000000000000000000000000000000000000000000000000016308114908115610fb2575b50610fa357610e35611cf5565b6040516352d1902d60e01b8152926001600160a01b0381169190602085600481865afa80958596610f6b575b50610e7a57634c9c8ce360e01b84526004839052602484fd5b9091846000805160206120538339815191528103610f595750813b15610f475760008051602061205383398151915280546001600160a01b031916821790557fbc7cd75a20ee27fd9adebab32041f755214dbc6bffa90cc0225b39da2e5c2d3b8480a28151839015610f2d5780836020610f2195519101845af43d15610f25573d91610f0583611ad4565b92610f136040519485611a9c565b83523d85602085013e611fd1565b5080f35b606091611fd1565b50505034610f385780f35b63b398979f60e01b8152600490fd5b634c9c8ce360e01b8452600452602483fd5b632a87526960e21b8552600452602484fd5b9095506020813d602011610f9b575b81610f8760209383611a9c565b81010312610f9757519438610e61565b8480fd5b3d9150610f7a565b63703e46dd60e11b8252600482fd5b600080516020612053833981519152546001600160a01b03161415905038610e28565b503461020b57604036600319011261020b57602435600435610ff5611cf5565b610ffd611d2b565b80835260056020526040832090600382019160ff83541661124f57600181019283541561121457805460ff1916600190811790915560029091018490555460405163ce93f86760e01b8152600481018390529085906001600160a01b0316602083602481845afa9283156104845782936111e0575b50803b1561074d578190602460405180948193631242176360e21b83528860048401525af180156111d5576111c1575b508361114e575b845b835481101561110757806111016110c460019387611c23565b9054848060a01b039160031b1c166040906110e182519283611a9c565b600e82526d1999595917d8dbdb5c1b195d195960921b6020830152611d67565b016110ab565b85837f6f4014c94efe6688744a22acb21d0a62cd2a70b6bd4a75da3b1a20512419d6056040858982519182526020820152a260016000805160206120738339815191525580f35b60025485906001600160a01b0316803b1561074d57816040518092632a63773960e21b825286600483015260606024830152818381611190606482018c611be0565b8c604483015203925af18015610484576111ac575b50506110a9565b816111b691611a9c565b610f975784386111a5565b856111ce91969296611a9c565b93386110a2565b6040513d88823e3d90fd5b9092506020813d60201161120c575b816111fc60209383611a9c565b8101031261074d57519138611072565b3d91506111ef565b60405162461bcd60e51b8152602060048201526013602482015272139bc819995959195c9cc8185cdcda59db9959606a1b6044820152606490fd5b60405162461bcd60e51b815260206004820152600f60248201526e105b1c9958591e481cd95d1d1b1959608a1b6044820152606490fd5b503461020b57602036600319011261020b5760043590600782101561020b5760206112b083611a34565b54604051908152f35b503461020b578060031936011261020b576112d2611d2b565b3381526004602052604081206112eb60ff825416611b68565b60048101908154801561141f5760085461130491611ba5565b42106113e75760030180549182156113b357838092555581602060018060a01b0382541660446040518094819363a9059cbb60e01b83523360048401528760248401525af1801561094a57611396575b506040519081527f7084f5476618d8e60b11ef0d7d3f06914655adb8793e28ff7f018d4c76d505d560203392a260016000805160206120738339815191525580f35b6113ae9060203d6020116104dd576104d08183611a9c565b611354565b60405162461bcd60e51b815260206004820152600c60248201526b5a65726f2062616c616e636560a01b6044820152606490fd5b60405162461bcd60e51b815260206004820152601060248201526f10dbdbdb191bdddb881b9bdd081b595d60821b6044820152606490fd5b60405162461bcd60e51b8152602060048201526012602482015271139bc81d5b9cdd185ad9481c995c5d595cdd60721b6044820152606490fd5b503461020b57602036600319011261020b5760043590600782101561020b5760206112b083611a1b565b503461020b57606036600319011261020b5761149d611a4d565b6114a5611a63565b6114ad611a79565b916114b6611cf5565b6001600160a01b031680611517575b506001600160a01b0316806114fe575b506001600160a01b0316806114e8575080f35b6001600160601b0360a01b600354161760035580f35b6001600160601b0360a01b6002541617600255386114d5565b6001600160601b0360a01b6001541617600155386114c5565b503461020b5760a036600319011261020b5761154a611a4d565b611552611a63565b61155a611a79565b6064356001600160a01b0381169190829003610f97576084356001600160a01b03811693908490036118d857600080516020612093833981519152549460ff8660401c16159567ffffffffffffffff8116801590816118d0575b60011490816118c6575b1590816118bd575b506118ae5767ffffffffffffffff19811660011760008051602061209383398151915255611606919087611881575b506115fe611e8f565b610233611e8f565b61160e611e8f565b611616611e8f565b61161e611e8f565b60016000805160206120738339815191525560018060a01b03166001600160601b0360a01b86541617855560018060a01b03166001600160601b0360a01b60015416176001556001600160601b0360a01b60025416176002556001600160601b0360a01b600354161760035562093a80600855818052600660205268056bc75e2d631000006040832055600182526006602052680ad78ebc5ac62000006040832055600282526006602052681b1ae4d6e2ef5000006040832055600382526006602052683635c9adc5dea00000604083205560048252600660205268878678326eac900000604083205560058252600660205269010f0cf064dd59200000604083205560068252600660205269054b40b1f852bda0000060408320558180526007602052600a6040832055600182526007602052600f604083205560028252600760205260146040832055600382526007602052601e6040832055600482526007602052603260408320556005825260076020526064604083205560068252600760205260408220600019905581805260096020528160408120556001825260096020526103e86040832055600282526009602052610bb86040832055600382526009602052611f406040832055600482526009602052614e20604083205560058252600960205261c3506040832055600682526009602052620186a060408320556118275780f35b68ff0000000000000000196000805160206120938339815191525416600080516020612093833981519152557fc7f505b2f371ae2175ee4913f4499e1f2633a7b5936321eed1cdaeb6115181d2602060405160018152a180f35b68ffffffffffffffffff1916680100000000000000011760008051602061209383398151915255386115f5565b63f92ee8a960e01b8852600488fd5b905015386115c6565b303b1591506115be565b8891506115b4565b8580fd5b503461020b57602036600319011261020b576040606091600435815260056020522080549060ff600360028301549201541690604051928352602083015215156040820152f35b503461020b57602036600319011261020b57610100906040906001600160a01b0361194c611a4d565b1681526004602052208054906001810154906002810154600382015460048301549160066005850154940154946119986040519760ff81161515895260ff60208a019160081c16611a8f565b60408701526060860152608085015260a084015260c083015260e0820152f35b503461020b57602036600319011261020b5760043590600782101561020b5760206112b083611a02565b600711156119ec57565b634e487b7160e01b600052602160045260246000fd5b60078110156119ec576000526006602052604060002090565b60078110156119ec576000526009602052604060002090565b60078110156119ec576000526007602052604060002090565b600435906001600160a01b038216820361047757565b602435906001600160a01b038216820361047757565b604435906001600160a01b038216820361047757565b9060078210156119ec5752565b90601f8019910116810190811067ffffffffffffffff821117611abe57604052565b634e487b7160e01b600052604160045260246000fd5b67ffffffffffffffff8111611abe57601f01601f191660200190565b929192611afc82611ad4565b91611b0a6040519384611a9c565b829481845281830111610477578281602093846000960137010152565b919082519283825260005b848110611b53575050826000602080949584010152601f8019910116010190565b80602080928401015182828601015201611b32565b15611b6f57565b60405162461bcd60e51b815260206004820152600e60248201526d139bdd081c9959da5cdd195c995960921b6044820152606490fd5b91908201809211611bb257565b634e487b7160e01b600052601160045260246000fd5b90816020910312610477575180151581036104775790565b906020825491828152019160005260206000209060005b818110611c045750505090565b82546001600160a01b0316845260209093019260019283019201611bf7565b8054821015611c3b5760005260206000200190600090565b634e487b7160e01b600052603260045260246000fd5b6000198114611bb25760010190565b9060078110156119ec5761ff0082549160081b169061ff001916179055565b6001600160a01b03168015611cdf5760008051602061203383398151915280546001600160a01b0319811683179091556001600160a01b03167f8be0079c531659141344cd1fd0a4f28419497f9722a3daafe3b4186f6b6457e0600080a3565b631e4fbdf760e01b600052600060045260246000fd5b600080516020612033833981519152546001600160a01b03163303611d1657565b63118cdaa760e01b6000523360045260246000fd5b60026000805160206120738339815191525414611d5657600260008051602061207383398151915255565b633ee5aeb560e01b60005260046000fd5b6001600160a01b0381166000818152600460205260409020805460ff1615611dfb57600181019384549060328201809211611bb25760027fa13e62b23f693fff23dadfb64a02b469698038185aee33e381d571ecbaed843c93611df193611df9985501611dd48154611c51565b905560405191829160328352604060208401526040830190611b27565b0390a2611efc565b565b50505050565b909160018060a01b0382169081600052600460205260406000209060ff82541615611e8857611df99460028360017fa13e62b23f693fff23dadfb64a02b469698038185aee33e381d571ecbaed843c9501611e5d848254611ba5565b905501611e6a8154611c51565b9055611df16040519283928352604060208401526040830190611b27565b5050505050565b60ff6000805160206120938339815191525460401c1615611eac57565b631afcd79f60e31b60005260046000fd5b60ff60019116019060ff8211611bb257565b60ff1660078110156119ec5790565b916020611df9929493611ef5816040810197611a8f565b0190611a8f565b6001600160a01b0381166000818152600460205260409020805460081c60ff16929190611f28846119e2565b60068410611f365750505050565b611f3f846119e2565b611f50611f4b85611ebd565b611ecf565b6001820154611f5e82611a1b565b54111580611fba575b611f72575b50611dfb565b611fb094611fa1827fbaf1d8eff6bfe4c2b1cc56e312bf32080bd1f619fb4798bea7b55c74fb159dc894611c60565b611df160405192839283611ede565b3880808080611f6c565b506003820154611fc982611a02565b541115611f67565b90611ff75750805115611fe657602081519101fd5b63d6bda27560e01b60005260046000fd5b81511580612029575b612008575090565b639996b31560e01b60009081526001600160a01b0391909116600452602490fd5b50803b1561200056fe9016d09d72d40fdae2fd8ceac6b6234c7706214fd39c1cd1e609a0528c199300360894a13ba1a3210667c828492db98dca3e2076cc3735a920a3ca505d382bbc9b779b17422d0df92223018b32b4d1fa46e071723d6817e2486d003becc55f00f0c57e16840df040f15088dc2f81fe391c3923bec73e23a9662efc9c229c6a00a2646970667358221220a11df25acccca6c513fd83261b668ce03cc81bf1c273a7e075ab24cab8fc640e64736f6c634300081c0033",
  "linkReferences": {},
  "deployedLinkReferences": {}
}