{
  "_format": "hh-sol-artifact-1",
  "contractName": "RewardPenalty",
  "sourceName": "contracts/RewardPenalty.sol",
  "abi": [
    {
      "inputs": [],
      "stateMutability": "nonpayable",
      "type": "constructor"
    },
    {
      "inputs": [
        {
          "internalType": "address",
          "name": "target",
          "type": "address"
        }
      ],
      "name": "AddressEmptyCode",
      "type": "error"
    },
    {
      "inputs": [
        {
          "internalType": "address",
          "name": "implementation",
          "type": "address"
        }
      ],
      "name": "ERC1967InvalidImplementation",
      "type": "error"
    },
    {
      "inputs": [],
      "name": "ERC1967NonPayable",
      "type": "error"
    },
    {
      "inputs": [],
      "name": "FailedCall",
      "type": "error"
    },
    {
      "inputs": [],
      "name": "InvalidInitialization",
      "type": "error"
    },
    {
      "inputs": [],
      "name": "NotInitializing",
      "type": "error"
    },
    {
      "inputs": [
        {
          "internalType": "address",
          "name": "owner",
          "type": "address"
        }
      ],
      "name": "OwnableInvalidOwner",
      "type": "error"
    },
    {
      "inputs": [
        {
          "internalType": "address",
          "name": "account",
          "type": "address"
        }
      ],
      "name": "OwnableUnauthorizedAccount",
      "type": "error"
    },
    {
      "inputs": [],
      "name": "ReentrancyGuardReentrantCall",
      "type": "error"
    },
    {
      "inputs": [],
      "name": "UUPSUnauthorizedCallContext",
      "type": "error"
    },
    {
      "inputs": [
        {
          "internalType": "bytes32",
          "name": "slot",
          "type": "bytes32"
        }
      ],
      "name": "UUPSUnsupportedProxiableUUID",
      "type": "error"
    },
    {
      "anonymous": false,
      "inputs": [
        {
          "indexed": true,
          "internalType": "address",
          "name": "feeder",
          "type": "address"
        },
        {
          "indexed": false,
          "internalType": "uint256",
          "name": "until",
          "type": "uint256"
        }
      ],
      "name": "FeederBanned",
      "type": "event"
    },
    {
      "anonymous": false,
      "inputs": [
        {
          "indexed": true,
          "internalType": "address",
          "name": "feeder",
          "type": "address"
        }
      ],
      "name": "FeederPermanentlyBanned",
      "type": "event"
    },
    {
      "anonymous": false,
      "inputs": [
        {
          "indexed": false,
          "internalType": "uint64",
          "name": "version",
          "type": "uint64"
        }
      ],
      "name": "Initialized",
      "type": "event"
    },
    {
      "anonymous": false,
      "inputs": [
        {
          "indexed": true,
          "internalType": "address",
          "name": "operator",
          "type": "address"
        },
        {
          "indexed": false,
          "internalType": "bool",
          "name": "authorized",
          "type": "bool"
        }
      ],
      "name": "OperatorUpdated",
      "type": "event"
    },
    {
      "anonymous": false,
      "inputs": [
        {
          "indexed": true,
          "internalType": "address",
          "name": "previousOwner",
          "type": "address"
        },
        {
          "indexed": true,
          "internalType": "address",
          "name": "newOwner",
          "type": "address"
        }
      ],
      "name": "OwnershipTransferred",
      "type": "event"
    },
    {
      "anonymous": false,
      "inputs": [
        {
          "indexed": true,
          "internalType": "address",
          "name": "feeder",
          "type": "address"
        },
        {
          "indexed": false,
          "internalType": "enum RewardPenalty.PenaltyLevel",
          "name": "level",
          "type": "uint8"
        },
        {
          "indexed": false,
          "internalType": "uint256",
          "name": "slashedAmount",
          "type": "uint256"
        },
        {
          "indexed": false,
          "internalType": "string",
          "name": "reason",
          "type": "string"
        }
      ],
      "name": "PenaltyApplied",
      "type": "event"
    },
    {
      "anonymous": false,
      "inputs": [
        {
          "indexed": true,
          "internalType": "address",
          "name": "feeder",
          "type": "address"
        },
        {
          "indexed": false,
          "internalType": "uint256",
          "name": "amount",
          "type": "uint256"
        }
      ],
      "name": "RewardClaimed",
      "type": "event"
    },
    {
      "anonymous": false,
      "inputs": [
        {
          "indexed": true,
          "internalType": "bytes32",
          "name": "orderId",
          "type": "bytes32"
        },
        {
          "indexed": false,
          "internalType": "uint256",
          "name": "totalAmount",
          "type": "uint256"
        },
        {
          "indexed": false,
          "internalType": "uint256",
          "name": "feederAmount",
          "type": "uint256"
        },
        {
          "indexed": false,
          "internalType": "uint256",
          "name": "platformAmount",
          "type": "uint256"
        },
        {
          "indexed": false,
          "internalType": "uint256",
          "name": "daoAmount",
          "type": "uint256"
        },
        {
          "indexed": false,
          "internalType": "uint256",
          "name": "burnAmount",
          "type": "uint256"
        }
      ],
      "name": "RewardDistributed",
      "type": "event"
    },
    {
      "anonymous": false,
      "inputs": [
        {
          "indexed": true,
          "internalType": "address",
          "name": "implementation",
          "type": "address"
        }
      ],
      "name": "Upgraded",
      "type": "event"
    },
    {
      "inputs": [],
      "name": "UPGRADE_INTERFACE_VERSION",
      "outputs": [
        {
          "internalType": "string",
          "name": "",
          "type": "string"
        }
      ],
      "stateMutability": "view",
      "type": "function"
    },
    {
      "inputs": [
        {
          "internalType": "address",
          "name": "feeder",
          "type": "address"
        },
        {
          "internalType": "enum RewardPenalty.PenaltyLevel",
          "name": "level",
          "type": "uint8"
        },
        {
          "internalType": "string",
          "name": "reason",
          "type": "string"
        },
        {
          "internalType": "uint256",
          "name": "stakedAmount",
          "type": "uint256"
        }
      ],
      "name": "applyPenalty",
      "outputs": [
        {
          "internalType": "uint256",
          "name": "slashedAmount",
          "type": "uint256"
        }
      ],
      "stateMutability": "nonpayable",
      "type": "function"
    },
    {
      "inputs": [
        {
          "internalType": "address",
          "name": "",
          "type": "address"
        }
      ],
      "name": "authorizedOperators",
      "outputs": [
        {
          "internalType": "bool",
          "name": "",
          "type": "bool"
        }
      ],
      "stateMutability": "view",
      "type": "function"
    },
    {
      "inputs": [
        {
          "internalType": "address",
          "name": "",
          "type": "address"
        }
      ],
      "name": "banUntil",
      "outputs": [
        {
          "internalType": "uint256",
          "name": "",
          "type": "uint256"
        }
      ],
      "stateMutability": "view",
      "type": "function"
    },
    {
      "inputs": [
        {
          "internalType": "address",
          "name": "feeder",
          "type": "address"
        }
      ],
      "name": "canGrabOrder",
      "outputs": [
        {
          "internalType": "bool",
          "name": "",
          "type": "bool"
        }
      ],
      "stateMutability": "view",
      "type": "function"
    },
    {
      "inputs": [],
      "name": "claimRewards",
      "outputs": [],
      "stateMutability": "nonpayable",
      "type": "function"
    },
    {
      "inputs": [],
      "name": "daoTreasury",
      "outputs": [
        {
          "internalType": "address",
          "name": "",
          "type": "address"
        }
      ],
      "stateMutability": "view",
      "type": "function"
    },
    {
      "inputs": [
        {
          "internalType": "bytes32",
          "name": "orderId",
          "type": "bytes32"
        },
        {
          "internalType": "address[]",
          "name": "feeders",
          "type": "address[]"
        },
        {
          "internalType": "uint256",
          "name": "totalReward",
          "type": "uint256"
        }
      ],
      "name": "distributeRewards",
      "outputs": [],
      "stateMutability": "nonpayable",
      "type": "function"
    },
    {
      "inputs": [],
      "name": "feedToken",
      "outputs": [
        {
          "internalType": "contract IERC20",
          "name": "",
          "type": "address"
        }
      ],
      "stateMutability": "view",
      "type": "function"
    },
    {
      "inputs": [
        {
          "internalType": "address",
          "name": "feeder",
          "type": "address"
        }
      ],
      "name": "getPenaltyCount",
      "outputs": [
        {
          "internalType": "uint256",
          "name": "",
          "type": "uint256"
        }
      ],
      "stateMutability": "view",
      "type": "function"
    },
    {
      "inputs": [
        {
          "internalType": "address",
          "name": "feeder",
          "type": "address"
        },
        {
          "internalType": "uint256",
          "name": "index",
          "type": "uint256"
        }
      ],
      "name": "getPenaltyRecord",
      "outputs": [
        {
          "internalType": "enum RewardPenalty.PenaltyLevel",
          "name": "level",
          "type": "uint8"
        },
        {
          "internalType": "string",
          "name": "reason",
          "type": "string"
        },
        {
          "internalType": "uint256",
          "name": "slashedAmount",
          "type": "uint256"
        },
        {
          "internalType": "uint256",
          "name": "timestamp",
          "type": "uint256"
        }
      ],
      "stateMutability": "view",
      "type": "function"
    },
    {
      "inputs": [
        {
          "internalType": "address",
          "name": "owner_",
          "type": "address"
        },
        {
          "internalType": "address",
          "name": "feedToken_",
          "type": "address"
        },
        {
          "internalType": "address",
          "name": "platformTreasury_",
          "type": "address"
        },
        {
          "internalType": "address",
          "name": "daoTreasury_",
          "type": "address"
        }
      ],
      "name": "initialize",
      "outputs": [],
      "stateMutability": "nonpayable",
      "type": "function"
    },
    {
      "inputs": [],
      "name": "owner",
      "outputs": [
        {
          "internalType": "address",
          "name": "",
          "type": "address"
        }
      ],
      "stateMutability": "view",
      "type": "function"
    },
    {
      "inputs": [
        {
          "internalType": "enum RewardPenalty.PenaltyLevel",
          "name": "",
          "type": "uint8"
        }
      ],
      "name": "penaltyBanDays",
      "outputs": [
        {
          "internalType": "uint256",
          "name": "",
          "type": "uint256"
        }
      ],
      "stateMutability": "view",
      "type": "function"
    },
    {
      "inputs": [
        {
          "internalType": "address",
          "name": "",
          "type": "address"
        },
        {
          "internalType": "uint256",
          "name": "",
          "type": "uint256"
        }
      ],
      "name": "penaltyHistory",
      "outputs": [
        {
          "internalType": "enum RewardPenalty.PenaltyLevel",
          "name": "level",
          "type": "uint8"
        },
        {
          "internalType": "string",
          "name": "reason",
          "type": "string"
        },
        {
          "internalType": "uint256",
          "name": "slashedAmount",
          "type": "uint256"
        },
        {
          "internalType": "uint256",
          "name": "timestamp",
          "type": "uint256"
        },
        {
          "internalType": "uint256",
          "name": "banUntil",
          "type": "uint256"
        }
      ],
      "stateMutability": "view",
      "type": "function"
    },
    {
      "inputs": [
        {
          "internalType": "enum RewardPenalty.PenaltyLevel",
          "name": "",
          "type": "uint8"
        }
      ],
      "name": "penaltySlashBps",
      "outputs": [
        {
          "internalType": "uint256",
          "name": "",
          "type": "uint256"
        }
      ],
      "stateMutability": "view",
      "type": "function"
    },
    {
      "inputs": [
        {
          "internalType": "address",
          "name": "",
          "type": "address"
        }
      ],
      "name": "pendingRewards",
      "outputs": [
        {
          "internalType": "uint256",
          "name": "",
          "type": "uint256"
        }
      ],
      "stateMutability": "view",
      "type": "function"
    },
    {
      "inputs": [
        {
          "internalType": "address",
          "name": "",
          "type": "address"
        }
      ],
      "name": "permanentlyBanned",
      "outputs": [
        {
          "internalType": "bool",
          "name": "",
          "type": "bool"
        }
      ],
      "stateMutability": "view",
      "type": "function"
    },
    {
      "inputs": [],
      "name": "platformTreasury",
      "outputs": [
        {
          "internalType": "address",
          "name": "",
          "type": "address"
        }
      ],
      "stateMutability": "view",
      "type": "function"
    },
    {
      "inputs": [],
      "name": "proxiableUUID",
      "outputs": [
        {
          "internalType": "bytes32",
          "name": "",
          "type": "bytes32"
        }
      ],
      "stateMutability": "view",
      "type": "function"
    },
    {
      "inputs": [],
      "name": "renounceOwnership",
      "outputs": [],
      "stateMutability": "nonpayable",
      "type": "function"
    },
    {
      "inputs": [],
      "name": "rewardSplit",
      "outputs": [
        {
          "internalType": "uint256",
          "name": "feederBps",
          "type": "uint256"
        },
        {
          "internalType": "uint256",
          "name": "platformBps",
          "type": "uint256"
        },
        {
          "internalType": "uint256",
          "name": "daoBps",
          "type": "uint256"
        },
        {
          "internalType": "uint256",
          "name": "burnBps",
          "type": "uint256"
        }
      ],
      "stateMutability": "view",
      "type": "function"
    },
    {
      "inputs": [
        {
          "internalType": "address",
          "name": "operator",
          "type": "address"
        },
        {
          "internalType": "bool",
          "name": "authorized",
          "type": "bool"
        }
      ],
      "name": "setOperator",
      "outputs": [],
      "stateMutability": "nonpayable",
      "type": "function"
    },
    {
      "inputs": [
        {
          "internalType": "address",
          "name": "",
          "type": "address"
        }
      ],
      "name": "totalRewardsEarned",
      "outputs": [
        {
          "internalType": "uint256",
          "name": "",
          "type": "uint256"
        }
      ],
      "stateMutability": "view",
      "type": "function"
    },
    {
      "inputs": [
        {
          "internalType": "address",
          "name": "newOwner",
          "type": "address"
        }
      ],
      "name": "transferOwnership",
      "outputs": [],
      "stateMutability": "nonpayable",
      "type": "function"
    },
    {
      "inputs": [
        {
          "internalType": "uint256",
          "name": "feederBps",
          "type": "uint256"
        },
        {
          "internalType": "uint256",
          "name": "platformBps",
          "type": "uint256"
        },
        {
          "internalType": "uint256",
          "name": "daoBps",
          "type": "uint256"
        },
        {
          "internalType": "uint256",
          "name": "burnBps",
          "type": "uint256"
        }
      ],
      "name": "updateRewardSplit",
      "outputs": [],
      "stateMutability": "nonpayable",
      "type": "function"
    },
    {
      "inputs": [
        {
          "internalType": "address",
          "name": "platform",
          "type": "address"
        },
        {
          "internalType": "address",
          "name": "dao",
          "type": "address"
        }
      ],
      "name": "updateTreasuries",
      "outputs": [],
      "stateMutability": "nonpayable",
      "type": "function"
    },
    {
      "inputs": [
        {
          "internalType": "address",
          "name": "newImplementation",
          "type": "address"
        },
        {
          "internalType": "bytes",
          "name": "data",
          "type": "bytes"
        }
      ],
      "name": "upgradeToAndCall",
      "outputs": [],
      "stateMutability": "payable",
      "type": "function"
    }
  ],
  "bytecode": "0x60a080604052346100ea57306080527ff0c57e16840df040f15088dc2f81fe391c3923bec73e23a9662efc9c229c6a005460ff8160401c166100d9576002600160401b03196001600160401b03821601610073575b604051611d8f90816100f0823960805181818161121a01526112c00152f35b6001600160401b0319166001600160401b039081177ff0c57e16840df040f15088dc2f81fe391c3923bec73e23a9662efc9c229c6a005581527fc7f505b2f371ae2175ee4913f4499e1f2633a7b5936321eed1cdaeb6115181d290602090a13880610054565b63f92ee8a960e01b60005260046000fd5b600080fdfe6080604052600436101561001257600080fd5b60003560e01c80630eddf61e1461174e578063181d989b1461170f57806331d7a262146116d5578063372500ab1461156e5780633e20697c1461153757806349dc4b83146114865780634f1ef2861461127157806352d1902d14611207578063558a7297146111885780636f0c630514611149578063715018a6146110df57806379022a9f146110b6578063833ed1051461103b5780638da5cb5b146110055780639571781e14610b4157806396cae49b14610b19578063a98ddce41461070e578063ad3cb1cc146106c3578063c27308a81461069a578063c6fc720e14610669578063d206c2051461062f578063ddb3db7014610602578063e138818c146105d9578063e4f24cb01461059f578063ecf1c64b14610515578063f2fde38b146104ef578063f8bfd151146104b55763f8c8765e1461015057600080fd5b346104b05760803660031901126104b0576101696117f1565b610171611807565b6044356001600160a01b038116908190036104b0576064356001600160a01b03811692908390036104b057600080516020611d3a8339815191525460ff8160401c16159467ffffffffffffffff8216801590816104a8575b600114908161049e575b159081610495575b506104845767ffffffffffffffff198216600117600080516020611d3a8339815191525561021f9186610457575b50610212611c4a565b61021a611c4a565b611b62565b610227611c4a565b61022f611c4a565b610237611c4a565b6001600080516020611d1a8339815191525560018060a01b03166001600160601b0360a01b60005416176000556001600160601b0360a01b60015416176001556001600160601b0360a01b60025416176002556103e8606060405161029b81611889565b611b58808252602080830185905260408301859052929091019290925260039182556103e86004819055600581905560065560007f6d5257204ebe7d88fd91ae87941cb2dd9d8062b64ae5a2bd2d28ec40b9fbf6df8190556101f47fb39221ace053465ec3453ce2b36430bd138b997ecea25c1043da0c366812b828556107d07fb7c774451310d1be4108bc180d1b52823cb0ee0274a6c0081bcaf94f115fb96d556113887f3be6fd20d5acfde5b873b48692cd31f4d3c7e8ee8a813af4696af8859e5ca6c65560089091527f5eff886ea0ce6ca488a3d6e336d6c0f75f46d19b42c06ce5ee98e42c96d256c781905560017fad67d757c34507f157cacfa2e3153e9f260a2244f30428821be7be64587ac55f5560077f6add646517a5b0f6793cd5891b7937d28a5b2981a5d88ebc7cd776088fea9041559081527f625b35f5e76f098dd7c3a05b10e2e5e78a4a01228d60c3b143426cdf36d26455556103fe57005b68ff000000000000000019600080516020611d3a8339815191525416600080516020611d3a833981519152557fc7f505b2f371ae2175ee4913f4499e1f2633a7b5936321eed1cdaeb6115181d2602060405160018152a1005b68ffffffffffffffffff19166801000000000000000117600080516020611d3a8339815191525538610209565b63f92ee8a960e01b60005260046000fd5b905015386101db565b303b1591506101d3565b8791506101c9565b600080fd5b346104b05760203660031901126104b0576001600160a01b036104d66117f1565b1660005260096020526020604060002054604051908152f35b346104b05760203660031901126104b05761051361050b6117f1565b61021a611c14565b005b346104b05760403660031901126104b0576001600160a01b036105366117f1565b16600052600960205261057f610552602435604060002061181d565b5060ff815416906002810154906105906105736001600384015493016118c7565b6040519586809661196b565b60806020860152608085019061198e565b91604084015260608301520390f35b346104b05760203660031901126104b0576001600160a01b036105c06117f1565b16600052600d6020526020604060002054604051908152f35b346104b05760003660031901126104b0576001546040516001600160a01b039091168152602090f35b346104b05760203660031901126104b05760206106256106206117f1565b611b1f565b6040519015158152f35b346104b05760203660031901126104b0576001600160a01b036106506117f1565b16600052600b6020526020604060002054604051908152f35b346104b05760203660031901126104b05760043560048110156104b057610691602091611a3b565b54604051908152f35b346104b05760003660031901126104b0576000546040516001600160a01b039091168152602090f35b346104b05760003660031901126104b05761070a60408051906106e681836118a5565b60058252640352e302e360dc1b60208301525191829160208352602083019061198e565b0390f35b346104b05760603660031901126104b05760243567ffffffffffffffff81116104b057366023820112156104b05780600401359067ffffffffffffffff82116104b0576024810190602436918460051b0101116104b0576044359133600052600c60205260ff604060002054168015610af8575b61078b90611a8f565b610793611bd8565b8015610ac6578215610a93576127106107ae60035485611adb565b046127106107be60045486611adb565b04906127106107cf60055487611adb565b04926107e8846107e3856107e3868b611aee565b611aee565b948183049060005b8381106109f45750505050811515806109e0575b610975575b82151580610961575b6108f6575b83610873575b60405194855260208501526040840152606083015260808201527f3863fc447b7dde3f3f5a5ca0b5b06a5fd3570963a1a29918f09036746293f65860a060043592a26001600080516020611d1a83398151915255005b6000805460405163a9059cbb60e01b815261dead6004820152602481018790529160209183916044918391906001600160a01b03165af180156108ea576108bb575b5061081d565b6108dc9060203d6020116108e3575b6108d481836118a5565b810190611a54565b50856108b5565b503d6108ca565b6040513d6000823e3d90fd5b6000805460025460405163a9059cbb60e01b81526001600160a01b0391821660048201526024810187905292602092849260449284929091165af180156108ea57610942575b50610817565b61095a9060203d6020116108e3576108d481836118a5565b508561093c565b506002546001600160a01b03161515610812565b6000805460015460405163a9059cbb60e01b81526001600160a01b0391821660048201526024810186905292602092849260449284929091165af180156108ea576109c1575b50610809565b6109d99060203d6020116108e3576108d481836118a5565b50856109bb565b506001546001600160a01b03161515610804565b6001906001600160a01b03610a12610a0d838887611afb565b611b0b565b16600052600a60205260ff6040600020541615610a30575b016107f0565b818060a01b03610a44610a0d838887611afb565b16600052600e6020526040600020610a5d858254611a6c565b9055818060a01b03610a73610a0d838887611afb565b16600052600d6020526040600020610a8c858254611a6c565b9055610a2a565b60405162461bcd60e51b815260206004820152600b60248201526a16995c9bc81c995dd85c9960aa1b6044820152606490fd5b60405162461bcd60e51b815260206004820152600a6024820152694e6f206665656465727360b01b6044820152606490fd5b50600080516020611cda833981519152546001600160a01b03163314610782565b346104b05760203660031901126104b05760043560048110156104b057610691602091611a22565b346104b05760803660031901126104b057610b5a6117f1565b6024359060048210156104b0576044359167ffffffffffffffff83116104b057366023840112156104b05782600401359167ffffffffffffffff83116104b057602484019360248436920101116104b05733600052600c60205260ff604060002054168015610fe4575b610bcd90611a8f565b6001600160a01b03166000818152600a602052604090205490919060ff16610fae57612710610c07610bfe83611a22565b54606435611adb565b0492600060038303610f035783600052600a6020526040600020600160ff19825416179055837fa611978f5778a992904870d3c6a487d99f0323f4c82b478b71aad88ebdc70eff600080a25b83600052600960205260406000209560405160a0810181811067ffffffffffffffff821117610eed57604052600092858252610c903686856119eb565b9860208301998a526040830189815260608401914283526080850193845280549068010000000000000000821015610eb15790610cd29160018201815561181d565b949094610ed957516004811015610ec55760ff80198654169116178455600184019a519a8b5167ffffffffffffffff8111610eb157610d11825461184f565b601f8111610e6c575b5060209c8d90601f8311600114610dd557947f6f8684d781adb4ae14ab015cd2226c5fccc87e5adf3573d4a05f2200f9c9a1cf9b98948b9894846004958d9a95610d999f9a60809f92610dca575b50508160011b916000199060031b1c19161790555b516002850155516003840155519101556040519687809661196b565b898b8601526060604086015281606086015285850137828201840152601f01601f19168101030190a2604051908152f35b015190503880610d68565b838a52818a209190601f1984168b5b818110610e545750946001857f6f8684d781adb4ae14ab015cd2226c5fccc87e5adf3573d4a05f2200f9c9a1cf9f9c989395610d999f9c989560809f9c976004998f9d9810610e3b575b505050811b019055610d7d565b015160001960f88460031b161c19169055388080610e2e565b92936020600181928786015181550195019301610de4565b82895260208920601f830160051c81019160208410610ea7575b601f0160051c01905b818110610e9c5750610d1a565b898155600101610e8f565b9091508190610e86565b634e487b7160e01b88526041600452602488fd5b634e487b7160e01b87526021600452602487fd5b634e487b7160e01b87526004879052602487fd5b634e487b7160e01b600052604160045260246000fd5b610f0c83611a3b565b5415610c5357610f1b83611a3b565b549062015180820291808304620151801490151715610f9a5750610f3f9042611a6c565b83600052600b6020526040600020548111610f85575b837fa25f668a695272779290120b1829b1398f3611e9f41f7b0e9ecf33072eabe17f6020604051848152a2610c53565b83600052600b60205280604060002055610f55565b634e487b7160e01b81526011600452602490fd5b60405162461bcd60e51b815260206004820152600e60248201526d105b1c9958591e4818985b9b995960921b6044820152606490fd5b50600080516020611cda833981519152546001600160a01b03163314610bc4565b346104b05760003660031901126104b057600080516020611cda833981519152546040516001600160a01b039091168152602090f35b346104b05760403660031901126104b0576110546117f1565b61105c611807565b90611065611c14565b6001600160a01b03168061109d575b506001600160a01b03168061108557005b6001600160601b0360a01b6002541617600255600080f35b6001600160601b0360a01b600154161760015581611074565b346104b05760003660031901126104b0576002546040516001600160a01b039091168152602090f35b346104b05760003660031901126104b0576110f8611c14565b600080516020611cda83398151915280546001600160a01b031981169091556000906001600160a01b03167f8be0079c531659141344cd1fd0a4f28419497f9722a3daafe3b4186f6b6457e08280a3005b346104b05760203660031901126104b0576001600160a01b0361116a6117f1565b16600052600a602052602060ff604060002054166040519015158152f35b346104b05760403660031901126104b0576111a16117f1565b602435908115158092036104b05760207f966c160e1c4dbc7df8d69af4ace01e9297c3cf016397b7914971f2fbfa32672d916111db611c14565b60018060a01b03169283600052600c8252604060002060ff1981541660ff8316179055604051908152a2005b346104b05760003660031901126104b0577f00000000000000000000000000000000000000000000000000000000000000006001600160a01b03163003611260576020604051600080516020611cfa8339815191528152f35b63703e46dd60e11b60005260046000fd5b60403660031901126104b0576112856117f1565b60243567ffffffffffffffff81116104b057366023820112156104b0576112b69036906024816004013591016119eb565b6001600160a01b037f000000000000000000000000000000000000000000000000000000000000000016308114908115611463575b50611260576112f8611c14565b6040516352d1902d60e01b81526001600160a01b0383169290602081600481875afa6000918161142f575b5061133d5783634c9c8ce360e01b60005260045260246000fd5b80600080516020611cfa83398151915285920361141b5750813b1561140757600080516020611cfa83398151915280546001600160a01b031916821790557fbc7cd75a20ee27fd9adebab32041f755214dbc6bffa90cc0225b39da2e5c2d3b600080a28151156113ed5760008083602061051395519101845af43d156113e5573d916113c8836119cf565b926113d660405194856118a5565b83523d6000602085013e611c78565b606091611c78565b5050346113f657005b63b398979f60e01b60005260046000fd5b634c9c8ce360e01b60005260045260246000fd5b632a87526960e21b60005260045260246000fd5b9091506020813d60201161145b575b8161144b602093836118a5565b810103126104b057519085611323565b3d915061143e565b600080516020611cfa833981519152546001600160a01b031614159050836112eb565b346104b05760803660031901126104b0576064356044356024356004356114ab611c14565b6127106114c5856114c0866114c08787611a6c565b611a6c565b036114fb578360606040516114d981611889565b8381528460208201528560408201520152600355600455600555600655600080f35b60405162461bcd60e51b81526020600482015260146024820152734d75737420746f74616c2031303030302062707360601b6044820152606490fd5b346104b05760003660031901126104b057608060035460045460055460065491604051938452602084015260408301526060820152f35b346104b05760003660031901126104b057611587611bd8565b33600052600a60205260ff6040600020541661169b5733600052600e602052604060002054801561166157336000818152600e602090815260408083208390558254905163a9059cbb60e01b81526004810194909452602484018590529091839160449183916001600160a01b03165af180156108ea57611644575b506040519081527f106f923f993c2149d49b4255ff723acafa1f2d94393f561d3eda32ae348f724160203392a26001600080516020611d1a83398151915255005b61165c9060203d6020116108e3576108d481836118a5565b611603565b60405162461bcd60e51b81526020600482015260126024820152714e6f2070656e64696e67207265776172647360701b6044820152606490fd5b60405162461bcd60e51b815260206004820152601260248201527114195c9b585b995b9d1b1e4818985b9b995960721b6044820152606490fd5b346104b05760203660031901126104b0576001600160a01b036116f66117f1565b16600052600e6020526020604060002054604051908152f35b346104b05760203660031901126104b0576001600160a01b036117306117f1565b16600052600c602052602060ff604060002054166040519015158152f35b346104b05760403660031901126104b0576117676117f1565b6001600160a01b03166000908152600960205260409020805460243591908210156104b0576117cc916117999161181d565b5060ff815416906117ac600182016118c7565b6002820154916117dd60046003830154920154926040519687809761196b565b60a0602087015260a086019061198e565b926040850152606084015260808301520390f35b600435906001600160a01b03821682036104b057565b602435906001600160a01b03821682036104b057565b8054821015611839576000526005602060002091020190600090565b634e487b7160e01b600052603260045260246000fd5b90600182811c9216801561187f575b602083101461186957565b634e487b7160e01b600052602260045260246000fd5b91607f169161185e565b6080810190811067ffffffffffffffff821117610eed57604052565b90601f8019910116810190811067ffffffffffffffff821117610eed57604052565b90604051918260008254926118db8461184f565b80845293600181169081156119495750600114611902575b50611900925003836118a5565b565b90506000929192526020600020906000915b81831061192d57505090602061190092820101386118f3565b6020919350806001915483858901015201910190918492611914565b90506020925061190094915060ff191682840152151560051b820101386118f3565b9060048210156119785752565b634e487b7160e01b600052602160045260246000fd5b919082519283825260005b8481106119ba575050826000602080949584010152601f8019910116010190565b80602080928401015182828601015201611999565b67ffffffffffffffff8111610eed57601f01601f191660200190565b9291926119f7826119cf565b91611a0560405193846118a5565b8294818452818301116104b0578281602093846000960137010152565b6004811015611978576000526007602052604060002090565b6004811015611978576000526008602052604060002090565b908160209103126104b0575180151581036104b05790565b91908201809211611a7957565b634e487b7160e01b600052601160045260246000fd5b15611a9657565b60405162461bcd60e51b815260206004820152601b60248201527f52657761726450656e616c74793a206e6f74206f70657261746f7200000000006044820152606490fd5b81810292918115918404141715611a7957565b91908203918211611a7957565b91908110156118395760051b0190565b356001600160a01b03811681036104b05790565b6001600160a01b03166000818152600a602052604090205460ff16611b5c57600052600b6020526040600020544210611b5757600190565b600090565b50600090565b6001600160a01b03168015611bc257600080516020611cda83398151915280546001600160a01b0319811683179091556001600160a01b03167f8be0079c531659141344cd1fd0a4f28419497f9722a3daafe3b4186f6b6457e0600080a3565b631e4fbdf760e01b600052600060045260246000fd5b6002600080516020611d1a8339815191525414611c03576002600080516020611d1a83398151915255565b633ee5aeb560e01b60005260046000fd5b600080516020611cda833981519152546001600160a01b03163303611c3557565b63118cdaa760e01b6000523360045260246000fd5b60ff600080516020611d3a8339815191525460401c1615611c6757565b631afcd79f60e31b60005260046000fd5b90611c9e5750805115611c8d57602081519101fd5b63d6bda27560e01b60005260046000fd5b81511580611cd0575b611caf575090565b639996b31560e01b60009081526001600160a01b0391909116600452602490fd5b50803b15611ca756fe9016d09d72d40fdae2fd8ceac6b6234c7706214fd39c1cd1e609a0528c199300360894a13ba1a3210667c828492db98dca3e2076cc3735a920a3ca505d382bbc9b779b17422d0df92223018b32b4d1fa46e071723d6817e2486d003becc55f00f0c57e16840df040f15088dc2f81fe391c3923bec73e23a9662efc9c229c6a00a2646970667358221220e1db378cb2ff937574fc8d3653635393c8a5315d1dc4212789d1441c8ee224c964736f6c634300081c0033",
  "linkReferences": {},
  "deployedLinkReferences": {}
}