{
  "_format": "hh-sol-artifact-1",
  "contractName": "FeederLicense",
  "sourceName": "contracts/FeederLicense.sol",
  "abi": [
    {
      "inputs": [],
      "stateMutability": "nonpayable",
      "type": "constructor"
    },
    {
      "inputs": [
        {
          "internalType": "address",
          "name": "target",
          "type": "address"
        }
      ],
      "name": "AddressEmptyCode",
      "type": "error"
    },
    {
      "inputs": [
        {
          "internalType": "address",
          "name": "implementation",
          "type": "address"
        }
      ],
      "name": "ERC1967InvalidImplementation",
      "type": "error"
    },
    {
      "inputs": [],
      "name": "ERC1967NonPayable",
      "type": "error"
    },
    {
      "inputs": [],
      "name": "ERC721EnumerableForbiddenBatchMint",
      "type": "error"
    },
    {
      "inputs": [
        {
          "internalType": "address",
          "name": "sender",
          "type": "address"
        },
        {
          "internalType": "uint256",
          "name": "tokenId",
          "type": "uint256"
        },
        {
          "internalType": "address",
          "name": "owner",
          "type": "address"
        }
      ],
      "name": "ERC721IncorrectOwner",
      "type": "error"
    },
    {
      "inputs": [
        {
          "internalType": "address",
          "name": "operator",
          "type": "address"
        },
        {
          "internalType": "uint256",
          "name": "tokenId",
          "type": "uint256"
        }
      ],
      "name": "ERC721InsufficientApproval",
      "type": "error"
    },
    {
      "inputs": [
        {
          "internalType": "address",
          "name": "approver",
          "type": "address"
        }
      ],
      "name": "ERC721InvalidApprover",
      "type": "error"
    },
    {
      "inputs": [
        {
          "internalType": "address",
          "name": "operator",
          "type": "address"
        }
      ],
      "name": "ERC721InvalidOperator",
      "type": "error"
    },
    {
      "inputs": [
        {
          "internalType": "address",
          "name": "owner",
          "type": "address"
        }
      ],
      "name": "ERC721InvalidOwner",
      "type": "error"
    },
    {
      "inputs": [
        {
          "internalType": "address",
          "name": "receiver",
          "type": "address"
        }
      ],
      "name": "ERC721InvalidReceiver",
      "type": "error"
    },
    {
      "inputs": [
        {
          "internalType": "address",
          "name": "sender",
          "type": "address"
        }
      ],
      "name": "ERC721InvalidSender",
      "type": "error"
    },
    {
      "inputs": [
        {
          "internalType": "uint256",
          "name": "tokenId",
          "type": "uint256"
        }
      ],
      "name": "ERC721NonexistentToken",
      "type": "error"
    },
    {
      "inputs": [
        {
          "internalType": "address",
          "name": "owner",
          "type": "address"
        },
        {
          "internalType": "uint256",
          "name": "index",
          "type": "uint256"
        }
      ],
      "name": "ERC721OutOfBoundsIndex",
      "type": "error"
    },
    {
      "inputs": [],
      "name": "FailedCall",
      "type": "error"
    },
    {
      "inputs": [],
      "name": "InvalidInitialization",
      "type": "error"
    },
    {
      "inputs": [],
      "name": "NotInitializing",
      "type": "error"
    },
    {
      "inputs": [
        {
          "internalType": "address",
          "name": "owner",
          "type": "address"
        }
      ],
      "name": "OwnableInvalidOwner",
      "type": "error"
    },
    {
      "inputs": [
        {
          "internalType": "address",
          "name": "account",
          "type": "address"
        }
      ],
      "name": "OwnableUnauthorizedAccount",
      "type": "error"
    },
    {
      "inputs": [],
      "name": "UUPSUnauthorizedCallContext",
      "type": "error"
    },
    {
      "inputs": [
        {
          "internalType": "bytes32",
          "name": "slot",
          "type": "bytes32"
        }
      ],
      "name": "UUPSUnsupportedProxiableUUID",
      "type": "error"
    },
    {
      "anonymous": false,
      "inputs": [
        {
          "indexed": true,
          "internalType": "address",
          "name": "owner",
          "type": "address"
        },
        {
          "indexed": true,
          "internalType": "address",
          "name": "approved",
          "type": "address"
        },
        {
          "indexed": true,
          "internalType": "uint256",
          "name": "tokenId",
          "type": "uint256"
        }
      ],
      "name": "Approval",
      "type": "event"
    },
    {
      "anonymous": false,
      "inputs": [
        {
          "indexed": true,
          "internalType": "address",
          "name": "owner",
          "type": "address"
        },
        {
          "indexed": true,
          "internalType": "address",
          "name": "operator",
          "type": "address"
        },
        {
          "indexed": false,
          "internalType": "bool",
          "name": "approved",
          "type": "bool"
        }
      ],
      "name": "ApprovalForAll",
      "type": "event"
    },
    {
      "anonymous": false,
      "inputs": [
        {
          "indexed": false,
          "internalType": "uint256",
          "name": "_fromTokenId",
          "type": "uint256"
        },
        {
          "indexed": false,
          "internalType": "uint256",
          "name": "_toTokenId",
          "type": "uint256"
        }
      ],
      "name": "BatchMetadataUpdate",
      "type": "event"
    },
    {
      "anonymous": false,
      "inputs": [
        {
          "indexed": false,
          "internalType": "uint64",
          "name": "version",
          "type": "uint64"
        }
      ],
      "name": "Initialized",
      "type": "event"
    },
    {
      "anonymous": false,
      "inputs": [
        {
          "indexed": true,
          "internalType": "uint256",
          "name": "tokenId",
          "type": "uint256"
        }
      ],
      "name": "LicenseBurned",
      "type": "event"
    },
    {
      "anonymous": false,
      "inputs": [
        {
          "indexed": true,
          "internalType": "address",
          "name": "to",
          "type": "address"
        },
        {
          "indexed": true,
          "internalType": "uint256",
          "name": "tokenId",
          "type": "uint256"
        },
        {
          "indexed": false,
          "internalType": "enum FeederLicense.LicenseType",
          "name": "licenseType",
          "type": "uint8"
        }
      ],
      "name": "LicenseMinted",
      "type": "event"
    },
    {
      "anonymous": false,
      "inputs": [
        {
          "indexed": false,
          "internalType": "uint256",
          "name": "_tokenId",
          "type": "uint256"
        }
      ],
      "name": "MetadataUpdate",
      "type": "event"
    },
    {
      "anonymous": false,
      "inputs": [
        {
          "indexed": true,
          "internalType": "address",
          "name": "minter",
          "type": "address"
        },
        {
          "indexed": false,
          "internalType": "bool",
          "name": "authorized",
          "type": "bool"
        }
      ],
      "name": "MinterUpdated",
      "type": "event"
    },
    {
      "anonymous": false,
      "inputs": [
        {
          "indexed": true,
          "internalType": "address",
          "name": "previousOwner",
          "type": "address"
        },
        {
          "indexed": true,
          "internalType": "address",
          "name": "newOwner",
          "type": "address"
        }
      ],
      "name": "OwnershipTransferred",
      "type": "event"
    },
    {
      "anonymous": false,
      "inputs": [
        {
          "indexed": true,
          "internalType": "address",
          "name": "from",
          "type": "address"
        },
        {
          "indexed": true,
          "internalType": "address",
          "name": "to",
          "type": "address"
        },
        {
          "indexed": true,
          "internalType": "uint256",
          "name": "tokenId",
          "type": "uint256"
        }
      ],
      "name": "Transfer",
      "type": "event"
    },
    {
      "anonymous": false,
      "inputs": [
        {
          "indexed": true,
          "internalType": "address",
          "name": "implementation",
          "type": "address"
        }
      ],
      "name": "Upgraded",
      "type": "event"
    },
    {
      "inputs": [],
      "name": "UPGRADE_INTERFACE_VERSION",
      "outputs": [
        {
          "internalType": "string",
          "name": "",
          "type": "string"
        }
      ],
      "stateMutability": "view",
      "type": "function"
    },
    {
      "inputs": [
        {
          "internalType": "address",
          "name": "to",
          "type": "address"
        },
        {
          "internalType": "uint256",
          "name": "tokenId",
          "type": "uint256"
        }
      ],
      "name": "approve",
      "outputs": [],
      "stateMutability": "nonpayable",
      "type": "function"
    },
    {
      "inputs": [
        {
          "internalType": "address",
          "name": "",
          "type": "address"
        }
      ],
      "name": "authorizedMinters",
      "outputs": [
        {
          "internalType": "bool",
          "name": "",
          "type": "bool"
        }
      ],
      "stateMutability": "view",
      "type": "function"
    },
    {
      "inputs": [
        {
          "internalType": "address",
          "name": "owner",
          "type": "address"
        }
      ],
      "name": "balanceOf",
      "outputs": [
        {
          "internalType": "uint256",
          "name": "",
          "type": "uint256"
        }
      ],
      "stateMutability": "view",
      "type": "function"
    },
    {
      "inputs": [
        {
          "internalType": "uint256",
          "name": "tokenId",
          "type": "uint256"
        }
      ],
      "name": "burn",
      "outputs": [],
      "stateMutability": "nonpayable",
      "type": "function"
    },
    {
      "inputs": [
        {
          "internalType": "uint256",
          "name": "tokenId",
          "type": "uint256"
        }
      ],
      "name": "getApproved",
      "outputs": [
        {
          "internalType": "address",
          "name": "",
          "type": "address"
        }
      ],
      "stateMutability": "view",
      "type": "function"
    },
    {
      "inputs": [
        {
          "internalType": "address",
          "name": "owner_",
          "type": "address"
        }
      ],
      "name": "getTokensByOwner",
      "outputs": [
        {
          "internalType": "uint256[]",
          "name": "",
          "type": "uint256[]"
        }
      ],
      "stateMutability": "view",
      "type": "function"
    },
    {
      "inputs": [
        {
          "internalType": "address",
          "name": "owner_",
          "type": "address"
        }
      ],
      "name": "initialize",
      "outputs": [],
      "stateMutability": "nonpayable",
      "type": "function"
    },
    {
      "inputs": [
        {
          "internalType": "address",
          "name": "owner",
          "type": "address"
        },
        {
          "internalType": "address",
          "name": "operator",
          "type": "address"
        }
      ],
      "name": "isApprovedForAll",
      "outputs": [
        {
          "internalType": "bool",
          "name": "",
          "type": "bool"
        }
      ],
      "stateMutability": "view",
      "type": "function"
    },
    {
      "inputs": [
        {
          "internalType": "uint256",
          "name": "",
          "type": "uint256"
        }
      ],
      "name": "licenseTypes",
      "outputs": [
        {
          "internalType": "enum FeederLicense.LicenseType",
          "name": "",
          "type": "uint8"
        }
      ],
      "stateMutability": "view",
      "type": "function"
    },
    {
      "inputs": [
        {
          "internalType": "address",
          "name": "to",
          "type": "address"
        },
        {
          "internalType": "string",
          "name": "uri",
          "type": "string"
        },
        {
          "internalType": "enum FeederLicense.LicenseType",
          "name": "licenseType_",
          "type": "uint8"
        }
      ],
      "name": "mint",
      "outputs": [
        {
          "internalType": "uint256",
          "name": "",
          "type": "uint256"
        }
      ],
      "stateMutability": "nonpayable",
      "type": "function"
    },
    {
      "inputs": [],
      "name": "name",
      "outputs": [
        {
          "internalType": "string",
          "name": "",
          "type": "string"
        }
      ],
      "stateMutability": "view",
      "type": "function"
    },
    {
      "inputs": [],
      "name": "nextTokenId",
      "outputs": [
        {
          "internalType": "uint256",
          "name": "",
          "type": "uint256"
        }
      ],
      "stateMutability": "view",
      "type": "function"
    },
    {
      "inputs": [],
      "name": "owner",
      "outputs": [
        {
          "internalType": "address",
          "name": "",
          "type": "address"
        }
      ],
      "stateMutability": "view",
      "type": "function"
    },
    {
      "inputs": [
        {
          "internalType": "uint256",
          "name": "tokenId",
          "type": "uint256"
        }
      ],
      "name": "ownerOf",
      "outputs": [
        {
          "internalType": "address",
          "name": "",
          "type": "address"
        }
      ],
      "stateMutability": "view",
      "type": "function"
    },
    {
      "inputs": [],
      "name": "proxiableUUID",
      "outputs": [
        {
          "internalType": "bytes32",
          "name": "",
          "type": "bytes32"
        }
      ],
      "stateMutability": "view",
      "type": "function"
    },
    {
      "inputs": [],
      "name": "renounceOwnership",
      "outputs": [],
      "stateMutability": "nonpayable",
      "type": "function"
    },
    {
      "inputs": [
        {
          "internalType": "address",
          "name": "from",
          "type": "address"
        },
        {
          "internalType": "address",
          "name": "to",
          "type": "address"
        },
        {
          "internalType": "uint256",
          "name": "tokenId",
          "type": "uint256"
        }
      ],
      "name": "safeTransferFrom",
      "outputs": [],
      "stateMutability": "nonpayable",
      "type": "function"
    },
    {
      "inputs": [
        {
          "internalType": "address",
          "name": "from",
          "type": "address"
        },
        {
          "internalType": "address",
          "name": "to",
          "type": "address"
        },
        {
          "internalType": "uint256",
          "name": "tokenId",
          "type": "uint256"
        },
        {
          "internalType": "bytes",
          "name": "data",
          "type": "bytes"
        }
      ],
      "name": "safeTransferFrom",
      "outputs": [],
      "stateMutability": "nonpayable",
      "type": "function"
    },
    {
      "inputs": [
        {
          "internalType": "address",
          "name": "operator",
          "type": "address"
        },
        {
          "internalType": "bool",
          "name": "approved",
          "type": "bool"
        }
      ],
      "name": "setApprovalForAll",
      "outputs": [],
      "stateMutability": "nonpayable",
      "type": "function"
    },
    {
      "inputs": [
        {
          "internalType": "address",
          "name": "minter",
          "type": "address"
        },
        {
          "internalType": "bool",
          "name": "authorized",
          "type": "bool"
        }
      ],
      "name": "setMinter",
      "outputs": [],
      "stateMutability": "nonpayable",
      "type": "function"
    },
    {
      "inputs": [
        {
          "internalType": "bytes4",
          "name": "interfaceId",
          "type": "bytes4"
        }
      ],
      "name": "supportsInterface",
      "outputs": [
        {
          "internalType": "bool",
          "name": "",
          "type": "bool"
        }
      ],
      "stateMutability": "view",
      "type": "function"
    },
    {
      "inputs": [],
      "name": "symbol",
      "outputs": [
        {
          "internalType": "string",
          "name": "",
          "type": "string"
        }
      ],
      "stateMutability": "view",
      "type": "function"
    },
    {
      "inputs": [
        {
          "internalType": "uint256",
          "name": "index",
          "type": "uint256"
        }
      ],
      "name": "tokenByIndex",
      "outputs": [
        {
          "internalType": "uint256",
          "name": "",
          "type": "uint256"
        }
      ],
      "stateMutability": "view",
      "type": "function"
    },
    {
      "inputs": [
        {
          "internalType": "address",
          "name": "owner",
          "type": "address"
        },
        {
          "internalType": "uint256",
          "name": "index",
          "type": "uint256"
        }
      ],
      "name": "tokenOfOwnerByIndex",
      "outputs": [
        {
          "internalType": "uint256",
          "name": "",
          "type": "uint256"
        }
      ],
      "stateMutability": "view",
      "type": "function"
    },
    {
      "inputs": [
        {
          "internalType": "uint256",
          "name": "tokenId",
          "type": "uint256"
        }
      ],
      "name": "tokenURI",
      "outputs": [
        {
          "internalType": "string",
          "name": "",
          "type": "string"
        }
      ],
      "stateMutability": "view",
      "type": "function"
    },
    {
      "inputs": [],
      "name": "totalSupply",
      "outputs": [
        {
          "internalType": "uint256",
          "name": "",
          "type": "uint256"
        }
      ],
      "stateMutability": "view",
      "type": "function"
    },
    {
      "inputs": [
        {
          "internalType": "address",
          "name": "from",
          "type": "address"
        },
        {
          "internalType": "address",
          "name": "to",
          "type": "address"
        },
        {
          "internalType": "uint256",
          "name": "tokenId",
          "type": "uint256"
        }
      ],
      "name": "transferFrom",
      "outputs": [],
      "stateMutability": "nonpayable",
      "type": "function"
    },
    {
      "inputs": [
        {
          "internalType": "address",
          "name": "newOwner",
          "type": "address"
        }
      ],
      "name": "transferOwnership",
      "outputs": [],
      "stateMutability": "nonpayable",
      "type": "function"
    },
    {
      "inputs": [
        {
          "internalType": "address",
          "name": "newImplementation",
          "type": "address"
        },
        {
          "internalType": "bytes",
          "name": "data",
          "type": "bytes"
        }
      ],
      "name": "upgradeToAndCall",
      "outputs": [],
      "stateMutability": "payable",
      "type": "function"
    }
  ],
  "bytecode": "0x60a06040523060805234801561001457600080fd5b5061001d610022565b6100d4565b7ff0c57e16840df040f15088dc2f81fe391c3923bec73e23a9662efc9c229c6a00805468010000000000000000900460ff16156100725760405163f92ee8a960e01b815260040160405180910390fd5b80546001600160401b03908116146100d15780546001600160401b0319166001600160401b0390811782556040519081527fc7f505b2f371ae2175ee4913f4499e1f2633a7b5936321eed1cdaeb6115181d29060200160405180910390a15b50565b60805161287e6100fd60003960008181610fef015281816110180152611159015261287e6000f3fe6080604052600436106101cd5760003560e01c80636a4b8883116100f7578063aa2fe91b11610095578063c87b56dd11610064578063c87b56dd14610556578063cf456ae714610576578063e985e9c514610596578063f2fde38b146105b657600080fd5b8063aa2fe91b146104b5578063ad3cb1cc146104e5578063b88d4fde14610516578063c4d66de81461053657600080fd5b806375794a3c116100d157806375794a3c146104565780638da5cb5b1461046b57806395d89b4114610480578063a22cb4651461049557600080fd5b80636a4b88831461040157806370a0823114610421578063715018a61461044157600080fd5b806340398d671161016f5780634f1ef2861161013e5780634f1ef286146103995780634f6ccce7146103ac57806352d1902d146103cc5780636352211e146103e157600080fd5b806340398d67146102ef57806342842e0e1461031c57806342966c681461033c578063497b407c1461035c57600080fd5b8063095ea7b3116101ab578063095ea7b31461026157806318160ddd1461028357806323b872dd146102af5780632f745c59146102cf57600080fd5b806301ffc9a7146101d257806306fdde0314610207578063081812fc14610229575b600080fd5b3480156101de57600080fd5b506101f26101ed36600461213e565b6105d6565b60405190151581526020015b60405180910390f35b34801561021357600080fd5b5061021c6105e7565b6040516101fe91906121ab565b34801561023557600080fd5b506102496102443660046121be565b61068b565b6040516001600160a01b0390911681526020016101fe565b34801561026d57600080fd5b5061028161027c3660046121f3565b6106a0565b005b34801561028f57600080fd5b50600080516020612829833981519152545b6040519081526020016101fe565b3480156102bb57600080fd5b506102816102ca36600461221d565b6106af565b3480156102db57600080fd5b506102a16102ea3660046121f3565b61073f565b3480156102fb57600080fd5b5061030f61030a36600461225a565b6107b3565b6040516101fe9190612275565b34801561032857600080fd5b5061028161033736600461221d565b61084b565b34801561034857600080fd5b506102816103573660046121be565b61086b565b34801561036857600080fd5b5061038c6103773660046121be565b60026020526000908152604090205460ff1681565b6040516101fe91906122ce565b6102816103a736600461239b565b610968565b3480156103b857600080fd5b506102a16103c73660046121be565b610983565b3480156103d857600080fd5b506102a16109fb565b3480156103ed57600080fd5b506102496103fc3660046121be565b610a18565b34801561040d57600080fd5b506102a161041c3660046123e9565b610a23565b34801561042d57600080fd5b506102a161043c36600461225a565b610b8b565b34801561044d57600080fd5b50610281610be7565b34801561046257600080fd5b506000546102a1565b34801561047757600080fd5b50610249610bfb565b34801561048c57600080fd5b5061021c610c29565b3480156104a157600080fd5b506102816104b0366004612485565b610c68565b3480156104c157600080fd5b506101f26104d036600461225a565b60016020526000908152604090205460ff1681565b3480156104f157600080fd5b5061021c604051806040016040528060058152602001640352e302e360dc1b81525081565b34801561052257600080fd5b506102816105313660046124c1565b610c73565b34801561054257600080fd5b5061028161055136600461225a565b610c8b565b34801561056257600080fd5b5061021c6105713660046121be565b610df1565b34801561058257600080fd5b50610281610591366004612485565b610dfc565b3480156105a257600080fd5b506101f26105b1366004612529565b610e63565b3480156105c257600080fd5b506102816105d136600461225a565b610eb0565b60006105e182610eee565b92915050565b6000805160206127e983398151915280546060919081906106079061255c565b80601f01602080910402602001604051908101604052809291908181526020018280546106339061255c565b80156106805780601f1061065557610100808354040283529160200191610680565b820191906000526020600020905b81548152906001019060200180831161066357829003601f168201915b505050505091505090565b600061069682610f13565b506105e182610f4b565b6106ab828233610f85565b5050565b6001600160a01b0382166106de57604051633250574960e11b8152600060048201526024015b60405180910390fd5b60006106eb838333610f92565b9050836001600160a01b0316816001600160a01b031614610739576040516364283d7b60e01b81526001600160a01b03808616600483015260248201849052821660448201526064016106d5565b50505050565b60006000805160206127c983398151915261075984610b8b565b831061078a5760405163295f44f760e21b81526001600160a01b0385166004820152602481018490526044016106d5565b6001600160a01b0384166000908152602091825260408082208583529092522054905092915050565b606060006107c083610b8b565b905060008167ffffffffffffffff8111156107dd576107dd6122f6565b604051908082528060200260200182016040528015610806578160200160208202803683370190505b50905060005b828110156108435761081e858261073f565b82828151811061083057610830612596565b602090810291909101015260010161080c565b509392505050565b61086683838360405180602001604052806000815250610c73565b505050565b61087481610a18565b6001600160a01b0316336001600160a01b031614806108a257503360009081526001602052604090205460ff165b806108c557506108b0610bfb565b6001600160a01b0316336001600160a01b0316145b61091f5760405162461bcd60e51b815260206004820152602560248201527f4665656465724c6963656e73653a206e6f7420617574686f72697a656420746f60448201526410313ab93760d91b60648201526084016106d5565b61092881610fa9565b600081815260026020526040808220805460ff191690555182917f1bfec0e2ebbae8414a44ed0c4c85cf8ff82ce476996704123998ba20cb4bf2f091a250565b610970610fe4565b61097982611089565b6106ab8282611091565b60006000805160206127c98339815191526109aa6000805160206128298339815191525490565b83106109d35760405163295f44f760e21b815260006004820152602481018490526044016106d5565b8060020183815481106109e8576109e8612596565b9060005260206000200154915050919050565b6000610a0561114e565b5060008051602061280983398151915290565b60006105e182610f13565b3360009081526001602052604081205460ff1680610a595750610a44610bfb565b6001600160a01b0316336001600160a01b0316145b610ab15760405162461bcd60e51b8152602060048201526024808201527f4665656465724c6963656e73653a206e6f7420617574686f72697a6564206d69604482015263373a32b960e11b60648201526084016106d5565b600080548180610ac0836125c2565b919050559050610ad08682611197565b610b108186868080601f0160208091040260200160405190810160405280939291908181526020018383808284376000920191909152506111b192505050565b6000818152600260205260409020805484919060ff19166001836003811115610b3b57610b3b6122b8565b021790555080866001600160a01b03167fa24dd4dd6e097b46d254bcf1897bf20ad5267ebce015de3fd0c7bb82c89b8fa585604051610b7a91906122ce565b60405180910390a395945050505050565b60006000805160206127e98339815191526001600160a01b038316610bc6576040516322718ad960e21b8152600060048201526024016106d5565b6001600160a01b039092166000908152600390920160205250604090205490565b610bef611224565b610bf96000611256565b565b7f9016d09d72d40fdae2fd8ceac6b6234c7706214fd39c1cd1e609a0528c199300546001600160a01b031690565b7f80bb2b638cc20bc4d0a60d66940f3ab4a00c1d7b313497ca82fb0b4ab007930180546060916000805160206127e9833981519152916106079061255c565b6106ab3383836112c7565b610c7e8484846106af565b6107393385858585611378565b6000610c956114a1565b805490915060ff600160401b820416159067ffffffffffffffff16600081158015610cbd5750825b905060008267ffffffffffffffff166001148015610cda5750303b155b905081158015610ce8575080155b15610d065760405163f92ee8a960e01b815260040160405180910390fd5b845467ffffffffffffffff191660011785558315610d3057845460ff60401b1916600160401b1785555b610d7d6040518060400160405280600e81526020016d466565646572204c6963656e736560901b81525060405180604001604052806005815260200164119313919560da1b8152506114ca565b610d856114dc565b610d8d6114dc565b610d96866114e4565b610d9e6114dc565b60016000558315610de957845460ff60401b19168555604051600181527fc7f505b2f371ae2175ee4913f4499e1f2633a7b5936321eed1cdaeb6115181d29060200160405180910390a15b505050505050565b60606105e1826114f5565b610e04611224565b6001600160a01b038216600081815260016020908152604091829020805460ff191685151590811790915591519182527fb21afb9ce9be0a676f8f317ff0ca072fb89a4f8ce2d1b6fe80f8755c14f1cb19910160405180910390a25050565b6001600160a01b0391821660009081527f80bb2b638cc20bc4d0a60d66940f3ab4a00c1d7b313497ca82fb0b4ab00793056020908152604080832093909416825291909152205460ff1690565b610eb8611224565b6001600160a01b038116610ee257604051631e4fbdf760e01b8152600060048201526024016106d5565b610eeb81611256565b50565b60006001600160e01b03198216632483248360e11b14806105e157506105e18261162a565b600080610f1f8361164f565b90506001600160a01b0381166105e157604051637e27328960e01b8152600481018490526024016106d5565b60009081527f80bb2b638cc20bc4d0a60d66940f3ab4a00c1d7b313497ca82fb0b4ab007930460205260409020546001600160a01b031690565b6108668383836001611689565b6000610f9f84848461179f565b90505b9392505050565b6000610fb86000836000610f92565b90506001600160a01b0381166106ab57604051637e27328960e01b8152600481018390526024016106d5565b306001600160a01b037f000000000000000000000000000000000000000000000000000000000000000016148061106b57507f00000000000000000000000000000000000000000000000000000000000000006001600160a01b031661105f600080516020612809833981519152546001600160a01b031690565b6001600160a01b031614155b15610bf95760405163703e46dd60e11b815260040160405180910390fd5b610eeb611224565b816001600160a01b03166352d1902d6040518163ffffffff1660e01b8152600401602060405180830381865afa9250505080156110eb575060408051601f3d908101601f191682019092526110e8918101906125db565b60015b61111357604051634c9c8ce360e01b81526001600160a01b03831660048201526024016106d5565b600080516020612809833981519152811461114457604051632a87526960e21b8152600481018290526024016106d5565b6108668383611898565b306001600160a01b037f00000000000000000000000000000000000000000000000000000000000000001614610bf95760405163703e46dd60e11b815260040160405180910390fd5b6106ab8282604051806020016040528060008152506118ee565b60008281527f0542a41881ee128a365a727b282c86fa859579490b9bb45aab8503648c8e7900602081905260409091206111eb838261263b565b506040518381527ff8e1a15aba9398e019f0b49df1a4fde98ee17ae345cb5f6b5e2c27f5033e8ce79060200160405180910390a1505050565b3361122d610bfb565b6001600160a01b031614610bf95760405163118cdaa760e01b81523360048201526024016106d5565b7f9016d09d72d40fdae2fd8ceac6b6234c7706214fd39c1cd1e609a0528c19930080546001600160a01b031981166001600160a01b03848116918217845560405192169182907f8be0079c531659141344cd1fd0a4f28419497f9722a3daafe3b4186f6b6457e090600090a3505050565b6000805160206127e98339815191526001600160a01b03831661130857604051630b61174360e31b81526001600160a01b03841660048201526024016106d5565b6001600160a01b038481166000818152600584016020908152604080832094881680845294825291829020805460ff191687151590811790915591519182527f17307eab39ab6107e8899845ad3d59bd9653f200f220920489ca2b5937696c31910160405180910390a350505050565b6001600160a01b0383163b1561149a57604051630a85bd0160e11b81526001600160a01b0384169063150b7a02906113ba9088908890879087906004016126fa565b6020604051808303816000875af19250505080156113f5575060408051601f3d908101601f191682019092526113f291810190612737565b60015b61145e573d808015611423576040519150601f19603f3d011682016040523d82523d6000602084013e611428565b606091505b50805160000361145657604051633250574960e11b81526001600160a01b03851660048201526024016106d5565b805160208201fd5b6001600160e01b03198116630a85bd0160e11b14610de957604051633250574960e11b81526001600160a01b03851660048201526024016106d5565b5050505050565b6000807ff0c57e16840df040f15088dc2f81fe391c3923bec73e23a9662efc9c229c6a006105e1565b6114d2611906565b6106ab828261192b565b610bf9611906565b6114ec611906565b610eeb8161195c565b60607f0542a41881ee128a365a727b282c86fa859579490b9bb45aab8503648c8e790061152183610f13565b506000838152602082905260408120805461153b9061255c565b80601f01602080910402602001604051908101604052809291908181526020018280546115679061255c565b80156115b45780601f10611589576101008083540402835291602001916115b4565b820191906000526020600020905b81548152906001019060200180831161159757829003601f168201915b5050505050905060006115d260408051602081019091526000815290565b905080516000036115e557509392505050565b8151156116185780826040516020016115ff929190612754565b6040516020818303038152906040529350505050919050565b61162185611964565b95945050505050565b60006001600160e01b0319821663780e9d6360e01b14806105e157506105e1826119d8565b60009081527f80bb2b638cc20bc4d0a60d66940f3ab4a00c1d7b313497ca82fb0b4ab007930260205260409020546001600160a01b031690565b6000805160206127e983398151915281806116ac57506001600160a01b03831615155b1561176e5760006116bc85610f13565b90506001600160a01b038416158015906116e85750836001600160a01b0316816001600160a01b031614155b80156116fb57506116f98185610e63565b155b156117245760405163a9fbf51f60e01b81526001600160a01b03851660048201526024016106d5565b821561176c5784866001600160a01b0316826001600160a01b03167f8c5be1e5ebec7d5bd14f71427d1e84f3dd0314c0f7b2291e5b200ac8c7c3b92560405160405180910390a45b505b600093845260040160205250506040902080546001600160a01b0319166001600160a01b0392909216919091179055565b6000806117ad858585611a28565b90506001600160a01b0381166118365761183184600080516020612829833981519152805460008381527f645e039705490088daad89bae25049a34f4a9072d398537b1ab2425f24cbed0360205260408120829055600182018355919091527fa42f15e5d656f8155fd7419d740a6073999f19cd6e061449ce4a257150545bf20155565b611859565b846001600160a01b0316816001600160a01b031614611859576118598185611b32565b6001600160a01b0385166118755761187084611bce565b610f9f565b846001600160a01b0316816001600160a01b031614610f9f57610f9f8585611ca5565b6118a182611d00565b6040516001600160a01b038316907fbc7cd75a20ee27fd9adebab32041f755214dbc6bffa90cc0225b39da2e5c2d3b90600090a28051156118e6576108668282611d65565b6106ab611dd2565b6118f88383611df1565b610866336000858585611378565b61190e611e56565b610bf957604051631afcd79f60e31b815260040160405180910390fd5b611933611906565b6000805160206127e98339815191528061194d848261263b565b5060018101610739838261263b565b610eb8611906565b606061196f82610f13565b50600061198760408051602081019091526000815290565b905060008151116119a75760405180602001604052806000815250610fa2565b806119b184611e70565b6040516020016119c2929190612754565b6040516020818303038152906040529392505050565b60006001600160e01b031982166380ac58cd60e01b1480611a0957506001600160e01b03198216635b5e139f60e01b145b806105e157506301ffc9a760e01b6001600160e01b03198316146105e1565b60006000805160206127e983398151915281611a438561164f565b90506001600160a01b03841615611a5f57611a5f818587611f03565b6001600160a01b03811615611a9f57611a7c600086600080611689565b6001600160a01b0381166000908152600383016020526040902080546000190190555b6001600160a01b03861615611ad0576001600160a01b03861660009081526003830160205260409020805460010190555b600085815260028301602052604080822080546001600160a01b0319166001600160a01b038a811691821790925591518893918516917fddf252ad1be2c89b69c2b068fc378daa952ba7f163c4a11628f55a4df523b3ef91a495945050505050565b6000805160206127c98339815191526000611b4c84610b8b565b60008481526001840160209081526040808320546001600160a01b03891684529186905290912091925090818314611ba6576000838152602082815260408083205485845281842081905583526001870190915290208290555b6000948552600190930160209081526040808620869055928552929092528220919091555050565b600080516020612829833981519152546000805160206127c983398151915290600090611bfd90600190612783565b6000848152600384016020526040812054600285018054939450909284908110611c2957611c29612596565b9060005260206000200154905080846002018381548110611c4c57611c4c612596565b600091825260208083209091019290925582815260038601909152604080822084905586825281205560028401805480611c8857611c88612796565b600190038181906000526020600020016000905590555050505050565b6000805160206127c983398151915260006001611cc185610b8b565b611ccb9190612783565b6001600160a01b0390941660009081526020838152604080832087845282528083208690559482526001909301909252502055565b806001600160a01b03163b600003611d3657604051634c9c8ce360e01b81526001600160a01b03821660048201526024016106d5565b60008051602061280983398151915280546001600160a01b0319166001600160a01b0392909216919091179055565b6060600080846001600160a01b031684604051611d8291906127ac565b600060405180830381855af49150503d8060008114611dbd576040519150601f19603f3d011682016040523d82523d6000602084013e611dc2565b606091505b5091509150611621858383611f67565b3415610bf95760405163b398979f60e01b815260040160405180910390fd5b6001600160a01b038216611e1b57604051633250574960e11b8152600060048201526024016106d5565b6000611e2983836000610f92565b90506001600160a01b03811615610866576040516339e3563760e11b8152600060048201526024016106d5565b6000611e606114a1565b54600160401b900460ff16919050565b60606000611e7d83611fc3565b600101905060008167ffffffffffffffff811115611e9d57611e9d6122f6565b6040519080825280601f01601f191660200182016040528015611ec7576020820181803683370190505b5090508181016020015b600019016f181899199a1a9b1b9c1cb0b131b232b360811b600a86061a8153600a8504945084611ed157509392505050565b611f0e83838361209b565b610866576001600160a01b038316611f3c57604051637e27328960e01b8152600481018290526024016106d5565b60405163177e802f60e01b81526001600160a01b0383166004820152602481018290526044016106d5565b606082611f7c57611f7782612100565b610fa2565b8151158015611f9357506001600160a01b0384163b155b15611fbc57604051639996b31560e01b81526001600160a01b03851660048201526024016106d5565b5080610fa2565b60008072184f03e93ff9f4daa797ed6e38ed64bf6a1f0160401b83106120025772184f03e93ff9f4daa797ed6e38ed64bf6a1f0160401b830492506040015b6d04ee2d6d415b85acef8100000000831061202e576d04ee2d6d415b85acef8100000000830492506020015b662386f26fc10000831061204c57662386f26fc10000830492506010015b6305f5e1008310612064576305f5e100830492506008015b612710831061207857612710830492506004015b6064831061208a576064830492506002015b600a83106105e15760010192915050565b60006001600160a01b03831615801590610f9f5750826001600160a01b0316846001600160a01b031614806120d557506120d58484610e63565b80610f9f5750826001600160a01b03166120ee83610f4b565b6001600160a01b031614949350505050565b80511561210f57805160208201fd5b60405163d6bda27560e01b815260040160405180910390fd5b6001600160e01b031981168114610eeb57600080fd5b60006020828403121561215057600080fd5b8135610fa281612128565b60005b8381101561217657818101518382015260200161215e565b50506000910152565b6000815180845261219781602086016020860161215b565b601f01601f19169290920160200192915050565b602081526000610fa2602083018461217f565b6000602082840312156121d057600080fd5b5035919050565b80356001600160a01b03811681146121ee57600080fd5b919050565b6000806040838503121561220657600080fd5b61220f836121d7565b946020939093013593505050565b60008060006060848603121561223257600080fd5b61223b846121d7565b9250612249602085016121d7565b929592945050506040919091013590565b60006020828403121561226c57600080fd5b610fa2826121d7565b602080825282518282018190526000918401906040840190835b818110156122ad57835183526020938401939092019160010161228f565b509095945050505050565b634e487b7160e01b600052602160045260246000fd5b60208101600483106122f057634e487b7160e01b600052602160045260246000fd5b91905290565b634e487b7160e01b600052604160045260246000fd5b600082601f83011261231d57600080fd5b813567ffffffffffffffff811115612337576123376122f6565b604051601f8201601f19908116603f0116810167ffffffffffffffff81118282101715612366576123666122f6565b60405281815283820160200185101561237e57600080fd5b816020850160208301376000918101602001919091529392505050565b600080604083850312156123ae57600080fd5b6123b7836121d7565b9150602083013567ffffffffffffffff8111156123d357600080fd5b6123df8582860161230c565b9150509250929050565b600080600080606085870312156123ff57600080fd5b612408856121d7565b9350602085013567ffffffffffffffff81111561242457600080fd5b8501601f8101871361243557600080fd5b803567ffffffffffffffff81111561244c57600080fd5b87602082840101111561245e57600080fd5b6020919091019350915060408501356004811061247a57600080fd5b939692955090935050565b6000806040838503121561249857600080fd5b6124a1836121d7565b9150602083013580151581146124b657600080fd5b809150509250929050565b600080600080608085870312156124d757600080fd5b6124e0856121d7565b93506124ee602086016121d7565b925060408501359150606085013567ffffffffffffffff81111561251157600080fd5b61251d8782880161230c565b91505092959194509250565b6000806040838503121561253c57600080fd5b612545836121d7565b9150612553602084016121d7565b90509250929050565b600181811c9082168061257057607f821691505b60208210810361259057634e487b7160e01b600052602260045260246000fd5b50919050565b634e487b7160e01b600052603260045260246000fd5b634e487b7160e01b600052601160045260246000fd5b6000600182016125d4576125d46125ac565b5060010190565b6000602082840312156125ed57600080fd5b5051919050565b601f82111561086657806000526020600020601f840160051c8101602085101561261b5750805b601f840160051c820191505b8181101561149a5760008155600101612627565b815167ffffffffffffffff811115612655576126556122f6565b61266981612663845461255c565b846125f4565b6020601f82116001811461269d57600083156126855750848201515b600019600385901b1c1916600184901b17845561149a565b600084815260208120601f198516915b828110156126cd57878501518255602094850194600190920191016126ad565b50848210156126eb5786840151600019600387901b60f8161c191681555b50505050600190811b01905550565b6001600160a01b038581168252841660208201526040810183905260806060820181905260009061272d9083018461217f565b9695505050505050565b60006020828403121561274957600080fd5b8151610fa281612128565b6000835161276681846020880161215b565b83519083019061277a81836020880161215b565b01949350505050565b818103818111156105e1576105e16125ac565b634e487b7160e01b600052603160045260246000fd5b600082516127be81846020870161215b565b919091019291505056fe645e039705490088daad89bae25049a34f4a9072d398537b1ab2425f24cbed0080bb2b638cc20bc4d0a60d66940f3ab4a00c1d7b313497ca82fb0b4ab0079300360894a13ba1a3210667c828492db98dca3e2076cc3735a920a3ca505d382bbc645e039705490088daad89bae25049a34f4a9072d398537b1ab2425f24cbed02a26469706673582212200dd9146c16b4d87adba4e39b2b9a76aa7371ad9e7a14b27677f695c4bfdbfcad64736f6c634300081c0033",
  "linkReferences": {},
  "deployedLinkReferences": {}
}