{
  "_format": "hh-sol-artifact-1",
  "contractName": "FeedConsensus",
  "sourceName": "contracts/FeedConsensus.sol",
  "abi": [
    {
      "inputs": [],
      "stateMutability": "nonpayable",
      "type": "constructor"
    },
    {
      "inputs": [
        {
          "internalType": "address",
          "name": "target",
          "type": "address"
        }
      ],
      "name": "AddressEmptyCode",
      "type": "error"
    },
    {
      "inputs": [
        {
          "internalType": "address",
          "name": "implementation",
          "type": "address"
        }
      ],
      "name": "ERC1967InvalidImplementation",
      "type": "error"
    },
    {
      "inputs": [],
      "name": "ERC1967NonPayable",
      "type": "error"
    },
    {
      "inputs": [],
      "name": "FailedCall",
      "type": "error"
    },
    {
      "inputs": [],
      "name": "InvalidInitialization",
      "type": "error"
    },
    {
      "inputs": [],
      "name": "NotInitializing",
      "type": "error"
    },
    {
      "inputs": [
        {
          "internalType": "address",
          "name": "owner",
          "type": "address"
        }
      ],
      "name": "OwnableInvalidOwner",
      "type": "error"
    },
    {
      "inputs": [
        {
          "internalType": "address",
          "name": "account",
          "type": "address"
        }
      ],
      "name": "OwnableUnauthorizedAccount",
      "type": "error"
    },
    {
      "inputs": [],
      "name": "ReentrancyGuardReentrantCall",
      "type": "error"
    },
    {
      "inputs": [],
      "name": "UUPSUnauthorizedCallContext",
      "type": "error"
    },
    {
      "inputs": [
        {
          "internalType": "bytes32",
          "name": "slot",
          "type": "bytes32"
        }
      ],
      "name": "UUPSUnsupportedProxiableUUID",
      "type": "error"
    },
    {
      "anonymous": false,
      "inputs": [
        {
          "indexed": true,
          "internalType": "bytes32",
          "name": "orderId",
          "type": "bytes32"
        },
        {
          "indexed": false,
          "internalType": "uint256",
          "name": "consensusPrice",
          "type": "uint256"
        },
        {
          "indexed": false,
          "internalType": "uint256",
          "name": "participantCount",
          "type": "uint256"
        }
      ],
      "name": "ConsensusReached",
      "type": "event"
    },
    {
      "anonymous": false,
      "inputs": [
        {
          "indexed": false,
          "internalType": "uint64",
          "name": "version",
          "type": "uint64"
        }
      ],
      "name": "Initialized",
      "type": "event"
    },
    {
      "anonymous": false,
      "inputs": [
        {
          "indexed": true,
          "internalType": "address",
          "name": "operator",
          "type": "address"
        },
        {
          "indexed": false,
          "internalType": "bool",
          "name": "authorized",
          "type": "bool"
        }
      ],
      "name": "OperatorUpdated",
      "type": "event"
    },
    {
      "anonymous": false,
      "inputs": [
        {
          "indexed": true,
          "internalType": "bytes32",
          "name": "orderId",
          "type": "bytes32"
        },
        {
          "indexed": false,
          "internalType": "string",
          "name": "symbol",
          "type": "string"
        },
        {
          "indexed": false,
          "internalType": "uint256",
          "name": "notionalAmount",
          "type": "uint256"
        },
        {
          "indexed": false,
          "internalType": "uint256",
          "name": "quorum",
          "type": "uint256"
        }
      ],
      "name": "OrderCreated",
      "type": "event"
    },
    {
      "anonymous": false,
      "inputs": [
        {
          "indexed": true,
          "internalType": "bytes32",
          "name": "orderId",
          "type": "bytes32"
        },
        {
          "indexed": false,
          "internalType": "string",
          "name": "reason",
          "type": "string"
        }
      ],
      "name": "OrderDisputed",
      "type": "event"
    },
    {
      "anonymous": false,
      "inputs": [
        {
          "indexed": true,
          "internalType": "address",
          "name": "previousOwner",
          "type": "address"
        },
        {
          "indexed": true,
          "internalType": "address",
          "name": "newOwner",
          "type": "address"
        }
      ],
      "name": "OwnershipTransferred",
      "type": "event"
    },
    {
      "anonymous": false,
      "inputs": [
        {
          "indexed": true,
          "internalType": "bytes32",
          "name": "orderId",
          "type": "bytes32"
        },
        {
          "indexed": true,
          "internalType": "address",
          "name": "feeder",
          "type": "address"
        },
        {
          "indexed": false,
          "internalType": "bytes32",
          "name": "priceHash",
          "type": "bytes32"
        }
      ],
      "name": "PriceCommitted",
      "type": "event"
    },
    {
      "anonymous": false,
      "inputs": [
        {
          "indexed": true,
          "internalType": "bytes32",
          "name": "orderId",
          "type": "bytes32"
        },
        {
          "indexed": true,
          "internalType": "address",
          "name": "feeder",
          "type": "address"
        },
        {
          "indexed": false,
          "internalType": "uint256",
          "name": "price",
          "type": "uint256"
        }
      ],
      "name": "PriceRevealed",
      "type": "event"
    },
    {
      "anonymous": false,
      "inputs": [
        {
          "indexed": true,
          "internalType": "address",
          "name": "implementation",
          "type": "address"
        }
      ],
      "name": "Upgraded",
      "type": "event"
    },
    {
      "inputs": [],
      "name": "UPGRADE_INTERFACE_VERSION",
      "outputs": [
        {
          "internalType": "string",
          "name": "",
          "type": "string"
        }
      ],
      "stateMutability": "view",
      "type": "function"
    },
    {
      "inputs": [
        {
          "internalType": "address",
          "name": "",
          "type": "address"
        }
      ],
      "name": "authorizedOperators",
      "outputs": [
        {
          "internalType": "bool",
          "name": "",
          "type": "bool"
        }
      ],
      "stateMutability": "view",
      "type": "function"
    },
    {
      "inputs": [
        {
          "internalType": "bytes32[]",
          "name": "orderIds",
          "type": "bytes32[]"
        },
        {
          "internalType": "bytes32[]",
          "name": "priceHashes",
          "type": "bytes32[]"
        }
      ],
      "name": "batchSubmitPriceHash",
      "outputs": [],
      "stateMutability": "nonpayable",
      "type": "function"
    },
    {
      "inputs": [],
      "name": "commitWindow",
      "outputs": [
        {
          "internalType": "uint256",
          "name": "",
          "type": "uint256"
        }
      ],
      "stateMutability": "view",
      "type": "function"
    },
    {
      "inputs": [
        {
          "internalType": "bytes32",
          "name": "",
          "type": "bytes32"
        },
        {
          "internalType": "address",
          "name": "",
          "type": "address"
        }
      ],
      "name": "commits",
      "outputs": [
        {
          "internalType": "bytes32",
          "name": "priceHash",
          "type": "bytes32"
        },
        {
          "internalType": "uint256",
          "name": "revealedPrice",
          "type": "uint256"
        },
        {
          "internalType": "bool",
          "name": "committed",
          "type": "bool"
        },
        {
          "internalType": "bool",
          "name": "revealed",
          "type": "bool"
        },
        {
          "internalType": "uint256",
          "name": "commitTime",
          "type": "uint256"
        }
      ],
      "stateMutability": "view",
      "type": "function"
    },
    {
      "inputs": [
        {
          "internalType": "uint256",
          "name": "price",
          "type": "uint256"
        },
        {
          "internalType": "bytes32",
          "name": "salt",
          "type": "bytes32"
        }
      ],
      "name": "computePriceHash",
      "outputs": [
        {
          "internalType": "bytes32",
          "name": "",
          "type": "bytes32"
        }
      ],
      "stateMutability": "pure",
      "type": "function"
    },
    {
      "inputs": [
        {
          "internalType": "bytes32",
          "name": "orderId",
          "type": "bytes32"
        },
        {
          "internalType": "string",
          "name": "symbol",
          "type": "string"
        },
        {
          "internalType": "uint256",
          "name": "notionalAmount",
          "type": "uint256"
        },
        {
          "internalType": "uint256",
          "name": "quorum",
          "type": "uint256"
        }
      ],
      "name": "createOrder",
      "outputs": [],
      "stateMutability": "nonpayable",
      "type": "function"
    },
    {
      "inputs": [
        {
          "internalType": "bytes32",
          "name": "orderId",
          "type": "bytes32"
        },
        {
          "internalType": "string",
          "name": "reason",
          "type": "string"
        }
      ],
      "name": "disputeOrder",
      "outputs": [],
      "stateMutability": "nonpayable",
      "type": "function"
    },
    {
      "inputs": [
        {
          "internalType": "bytes32",
          "name": "orderId",
          "type": "bytes32"
        },
        {
          "internalType": "address",
          "name": "feeder",
          "type": "address"
        }
      ],
      "name": "getCommit",
      "outputs": [
        {
          "internalType": "bytes32",
          "name": "priceHash",
          "type": "bytes32"
        },
        {
          "internalType": "uint256",
          "name": "revealedPrice",
          "type": "uint256"
        },
        {
          "internalType": "bool",
          "name": "committed",
          "type": "bool"
        },
        {
          "internalType": "bool",
          "name": "revealed",
          "type": "bool"
        }
      ],
      "stateMutability": "view",
      "type": "function"
    },
    {
      "inputs": [
        {
          "internalType": "bytes32",
          "name": "orderId",
          "type": "bytes32"
        }
      ],
      "name": "getConsensusPrice",
      "outputs": [
        {
          "internalType": "uint256",
          "name": "",
          "type": "uint256"
        }
      ],
      "stateMutability": "view",
      "type": "function"
    },
    {
      "inputs": [
        {
          "internalType": "bytes32",
          "name": "orderId",
          "type": "bytes32"
        }
      ],
      "name": "getOrderPhase",
      "outputs": [
        {
          "internalType": "enum FeedConsensus.OrderPhase",
          "name": "",
          "type": "uint8"
        }
      ],
      "stateMutability": "view",
      "type": "function"
    },
    {
      "inputs": [
        {
          "internalType": "bytes32",
          "name": "orderId",
          "type": "bytes32"
        }
      ],
      "name": "getRevealedFeeders",
      "outputs": [
        {
          "internalType": "address[]",
          "name": "",
          "type": "address[]"
        }
      ],
      "stateMutability": "view",
      "type": "function"
    },
    {
      "inputs": [
        {
          "internalType": "address",
          "name": "owner_",
          "type": "address"
        },
        {
          "internalType": "uint256",
          "name": "commitWindow_",
          "type": "uint256"
        },
        {
          "internalType": "uint256",
          "name": "revealWindow_",
          "type": "uint256"
        }
      ],
      "name": "initialize",
      "outputs": [],
      "stateMutability": "nonpayable",
      "type": "function"
    },
    {
      "inputs": [],
      "name": "maxDeviationBps",
      "outputs": [
        {
          "internalType": "uint256",
          "name": "",
          "type": "uint256"
        }
      ],
      "stateMutability": "view",
      "type": "function"
    },
    {
      "inputs": [
        {
          "internalType": "bytes32",
          "name": "",
          "type": "bytes32"
        }
      ],
      "name": "orders",
      "outputs": [
        {
          "internalType": "bytes32",
          "name": "orderId",
          "type": "bytes32"
        },
        {
          "internalType": "string",
          "name": "symbol",
          "type": "string"
        },
        {
          "internalType": "uint256",
          "name": "notionalAmount",
          "type": "uint256"
        },
        {
          "internalType": "enum FeedConsensus.OrderPhase",
          "name": "phase",
          "type": "uint8"
        },
        {
          "internalType": "uint256",
          "name": "commitDeadline",
          "type": "uint256"
        },
        {
          "internalType": "uint256",
          "name": "revealDeadline",
          "type": "uint256"
        },
        {
          "internalType": "uint256",
          "name": "consensusPrice",
          "type": "uint256"
        },
        {
          "internalType": "uint256",
          "name": "requiredQuorum",
          "type": "uint256"
        },
        {
          "internalType": "uint256",
          "name": "commitCount",
          "type": "uint256"
        },
        {
          "internalType": "uint256",
          "name": "revealCount",
          "type": "uint256"
        },
        {
          "internalType": "address",
          "name": "creator",
          "type": "address"
        }
      ],
      "stateMutability": "view",
      "type": "function"
    },
    {
      "inputs": [],
      "name": "owner",
      "outputs": [
        {
          "internalType": "address",
          "name": "",
          "type": "address"
        }
      ],
      "stateMutability": "view",
      "type": "function"
    },
    {
      "inputs": [],
      "name": "proxiableUUID",
      "outputs": [
        {
          "internalType": "bytes32",
          "name": "",
          "type": "bytes32"
        }
      ],
      "stateMutability": "view",
      "type": "function"
    },
    {
      "inputs": [],
      "name": "renounceOwnership",
      "outputs": [],
      "stateMutability": "nonpayable",
      "type": "function"
    },
    {
      "inputs": [
        {
          "internalType": "bytes32",
          "name": "orderId",
          "type": "bytes32"
        },
        {
          "internalType": "uint256",
          "name": "price",
          "type": "uint256"
        },
        {
          "internalType": "bytes32",
          "name": "salt",
          "type": "bytes32"
        }
      ],
      "name": "revealPrice",
      "outputs": [],
      "stateMutability": "nonpayable",
      "type": "function"
    },
    {
      "inputs": [],
      "name": "revealWindow",
      "outputs": [
        {
          "internalType": "uint256",
          "name": "",
          "type": "uint256"
        }
      ],
      "stateMutability": "view",
      "type": "function"
    },
    {
      "inputs": [
        {
          "internalType": "bytes32",
          "name": "",
          "type": "bytes32"
        },
        {
          "internalType": "uint256",
          "name": "",
          "type": "uint256"
        }
      ],
      "name": "revealedFeeders",
      "outputs": [
        {
          "internalType": "address",
          "name": "",
          "type": "address"
        }
      ],
      "stateMutability": "view",
      "type": "function"
    },
    {
      "inputs": [
        {
          "internalType": "address",
          "name": "operator",
          "type": "address"
        },
        {
          "internalType": "bool",
          "name": "authorized",
          "type": "bool"
        }
      ],
      "name": "setOperator",
      "outputs": [],
      "stateMutability": "nonpayable",
      "type": "function"
    },
    {
      "inputs": [
        {
          "internalType": "bytes32",
          "name": "orderId",
          "type": "bytes32"
        }
      ],
      "name": "settleOrder",
      "outputs": [],
      "stateMutability": "nonpayable",
      "type": "function"
    },
    {
      "inputs": [
        {
          "internalType": "bytes32",
          "name": "orderId",
          "type": "bytes32"
        },
        {
          "internalType": "uint256",
          "name": "consensusPrice",
          "type": "uint256"
        }
      ],
      "name": "submitConsensus",
      "outputs": [],
      "stateMutability": "nonpayable",
      "type": "function"
    },
    {
      "inputs": [
        {
          "internalType": "bytes32",
          "name": "orderId",
          "type": "bytes32"
        },
        {
          "internalType": "bytes32",
          "name": "priceHash",
          "type": "bytes32"
        }
      ],
      "name": "submitPriceHash",
      "outputs": [],
      "stateMutability": "nonpayable",
      "type": "function"
    },
    {
      "inputs": [
        {
          "internalType": "address",
          "name": "newOwner",
          "type": "address"
        }
      ],
      "name": "transferOwnership",
      "outputs": [],
      "stateMutability": "nonpayable",
      "type": "function"
    },
    {
      "inputs": [
        {
          "internalType": "uint256",
          "name": "bps",
          "type": "uint256"
        }
      ],
      "name": "updateMaxDeviation",
      "outputs": [],
      "stateMutability": "nonpayable",
      "type": "function"
    },
    {
      "inputs": [
        {
          "internalType": "uint256",
          "name": "commitWindow_",
          "type": "uint256"
        },
        {
          "internalType": "uint256",
          "name": "revealWindow_",
          "type": "uint256"
        }
      ],
      "name": "updateWindows",
      "outputs": [],
      "stateMutability": "nonpayable",
      "type": "function"
    },
    {
      "inputs": [
        {
          "internalType": "address",
          "name": "newImplementation",
          "type": "address"
        },
        {
          "internalType": "bytes",
          "name": "data",
          "type": "bytes"
        }
      ],
      "name": "upgradeToAndCall",
      "outputs": [],
      "stateMutability": "payable",
      "type": "function"
    }
  ],
  "bytecode": "0x60a06040523060805234801561001457600080fd5b5061001d610022565b6100d4565b7ff0c57e16840df040f15088dc2f81fe391c3923bec73e23a9662efc9c229c6a00805468010000000000000000900460ff16156100725760405163f92ee8a960e01b815260040160405180910390fd5b80546001600160401b03908116146100d15780546001600160401b0319166001600160401b0390811782556040519081527fc7f505b2f371ae2175ee4913f4499e1f2633a7b5936321eed1cdaeb6115181d29060200160405180910390a15b50565b60805161260f6100fd600039600081816119620152818161198b0152611ad1015261260f6000f3fe6080604052600436106101c25760003560e01c80637a1ac61e116100f7578063ad3cb1cc11610095578063ce93f86711610064578063ce93f867146105b1578063cfc43c54146105e1578063f2fde38b14610601578063f885f7ed1461062157600080fd5b8063ad3cb1cc146104e6578063afea219814610524578063b912442514610551578063be1f626b1461059157600080fd5b806396cd54c6116100d157806396cd54c6146103e85780639a5260e81461046f5780639c3f1e901461048f5780639ed67a77146104c657600080fd5b80637a1ac61e1461039d578063863d22c7146103bd5780638da5cb5b146103d357600080fd5b8063464470231161016457806352d1902d1161013e57806352d1902d1461031b578063558a7297146103305780636e271ed814610350578063715018a61461038857600080fd5b806346447023146102c857806349085d8c146102e85780634f1ef2861461030857600080fd5b806324b178ec116101a057806324b178ec1461024e57806335e224d81461026e5780633ee7a7011461029c57806340699005146102b257600080fd5b806302651a29146101c757806305c28f79146101e9578063181d989b14610209575b600080fd5b3480156101d357600080fd5b506101e76101e2366004611e1e565b6106a7565b005b3480156101f557600080fd5b506101e7610204366004611e37565b61070c565b34801561021557600080fd5b50610239610224366004611e75565b60036020526000908152604090205460ff1681565b60405190151581526020015b60405180910390f35b34801561025a57600080fd5b506101e7610269366004611edc565b610911565b34801561027a57600080fd5b5061028e610289366004611e37565b610bd5565b604051908152602001610245565b3480156102a857600080fd5b5061028e60065481565b3480156102be57600080fd5b5061028e60045481565b3480156102d457600080fd5b506101e76102e3366004611f8f565b610c04565b3480156102f457600080fd5b506101e7610303366004611e1e565b610d3f565b6101e7610316366004611ff1565b610e10565b34801561032757600080fd5b5061028e610e2f565b34801561033c57600080fd5b506101e761034b3660046120bb565b610e4c565b34801561035c57600080fd5b5061037061036b366004611e37565b610eb3565b6040516001600160a01b039091168152602001610245565b34801561039457600080fd5b506101e7610eeb565b3480156103a957600080fd5b506101e76103b83660046120f7565b610eff565b3480156103c957600080fd5b5061028e60055481565b3480156103df57600080fd5b5061037061101d565b3480156103f457600080fd5b5061044761040336600461212a565b60008281526001602081815260408084206001600160a01b038616855290915290912080549181015460029091015460ff8082169161010090041692959194509250565b6040805194855260208501939093529015159183019190915215156060820152608001610245565b34801561047b57600080fd5b506101e761048a366004611e37565b61104b565b34801561049b57600080fd5b506104af6104aa366004611e1e565b6111af565b6040516102459b9a999897969594939291906121de565b3480156104d257600080fd5b506101e76104e1366004612252565b61129c565b3480156104f257600080fd5b50610517604051806040016040528060058152602001640352e302e360dc1b81525081565b604051610245919061227e565b34801561053057600080fd5b5061054461053f366004611e1e565b61156a565b6040516102459190612291565b34801561055d57600080fd5b5061058461056c366004611e1e565b60009081526020819052604090206003015460ff1690565b60405161024591906122dd565b34801561059d57600080fd5b506101e76105ac366004611e37565b6115d6565b3480156105bd57600080fd5b5061028e6105cc366004611e1e565b60009081526020819052604090206006015490565b3480156105ed57600080fd5b506101e76105fc3660046122eb565b61163a565b34801561060d57600080fd5b506101e761061c366004611e75565b6118e7565b34801561062d57600080fd5b5061067961063c36600461212a565b600160208181526000938452604080852090915291835291208054918101546002820154600390920154909160ff80821692610100909204169085565b604080519586526020860194909452911515928401929092529015156060830152608082015260a001610245565b6106af611925565b600a81101580156106c257506113888111155b6107075760405162461bcd60e51b815260206004820152601160248201527024b73b30b634b2103232bb34b0ba34b7b760791b60448201526064015b60405180910390fd5b600655565b60008281526020819052604090206001600382015460ff166005811115610735576107356121a6565b146107785760405162461bcd60e51b81526020600482015260136024820152724e6f7420696e20636f6d6d697420706861736560681b60448201526064016106fe565b80600401544211156107c55760405162461bcd60e51b815260206004820152601660248201527510dbdb5b5a5d08191958591b1a5b99481c185cdcd95960521b60448201526064016106fe565b600083815260016020908152604080832033845290915290206002015460ff16156108265760405162461bcd60e51b8152602060048201526011602482015270105b1c9958591e4818dbdb5b5a5d1d1959607a1b60448201526064016106fe565b6040805160a0810182528381526000602080830182815260018486018181526060860185815242608088019081528b87528386528887203388529095529685209551865591519085015551600284018054955115156101000261ff00199215159290921661ffff1990961695909517179093559151600390910155600882018054916108b18361235f565b919050555080600701548160080154106108d55760038101805460ff191660021790555b604051828152339084907f35936d35316af64ccd48288d27d178ada4b059d9803f014d1dd056cacf14c1469060200160405180910390a3505050565b8281146109525760405162461bcd60e51b815260206004820152600f60248201526e098cadccee8d040dad2e6dac2e8c6d608b1b60448201526064016106fe565b60148311156109955760405162461bcd60e51b815260206004820152600f60248201526e426174636820746f6f206c6172676560881b60448201526064016106fe565b60005b83811015610bce5760008060008787858181106109b7576109b7612378565b9050602002013581526020019081526020016000209050600160058111156109e1576109e16121a6565b600382015460ff1660058111156109fa576109fa6121a6565b148015610a0b575080600401544211155b8015610a57575060016000878785818110610a2857610a28612378565b60209081029290920135835250818101929092526040908101600090812033825290925290206002015460ff16155b15610bc5576040518060a00160405280858585818110610a7957610a79612378565b905060200201358152602001600081526020016001151581526020016000151581526020014281525060016000888886818110610ab857610ab8612378565b60209081029290920135835250818101929092526040908101600090812033825283528181208451815592840151600184015590830151600283018054606086015115156101000261ff00199315159390931661ffff199091161791909117905560809092015160039091015560088201805491610b358361235f565b91905055508060070154816008015410610b595760038101805460ff191660021790555b33868684818110610b6c57610b6c612378565b905060200201357f35936d35316af64ccd48288d27d178ada4b059d9803f014d1dd056cacf14c146868686818110610ba657610ba6612378565b90506020020135604051610bbc91815260200190565b60405180910390a35b50600101610998565b5050505050565b604080516020808201859052818301849052825180830384018152606090920190925280519101205b92915050565b3360009081526003602052604090205460ff1680610c3a5750610c2561101d565b6001600160a01b0316336001600160a01b0316145b610c565760405162461bcd60e51b81526004016106fe9061238e565b60008381526020819052604090206002600382015460ff166005811115610c7f57610c7f6121a6565b1480610ca2575060038082015460ff166005811115610ca057610ca06121a6565b145b610cee5760405162461bcd60e51b815260206004820152601c60248201527f43616e6e6f74206469737075746520696e20746869732070686173650000000060448201526064016106fe565b60038101805460ff1916600517905560405184907fee4b3ad9190f5248304daea47630eab4d57f027dba7a3664b5c0be831a40f3fb90610d3190869086906123ee565b60405180910390a250505050565b3360009081526003602052604090205460ff1680610d755750610d6061101d565b6001600160a01b0316336001600160a01b0316145b610d915760405162461bcd60e51b81526004016106fe9061238e565b600081815260208190526040902060038082015460ff166005811115610db957610db96121a6565b14610dff5760405162461bcd60e51b81526020600482015260166024820152754e6f7420696e20636f6e73656e73757320706861736560501b60448201526064016106fe565b600301805460ff1916600417905550565b610e18611957565b610e21826119fc565b610e2b8282611a04565b5050565b6000610e39611ac6565b506000805160206125ba83398151915290565b610e54611925565b6001600160a01b038216600081815260036020908152604091829020805460ff191685151590811790915591519182527f966c160e1c4dbc7df8d69af4ace01e9297c3cf016397b7914971f2fbfa32672d910160405180910390a25050565b60026020528160005260406000208181548110610ecf57600080fd5b6000918252602090912001546001600160a01b03169150829050565b610ef3611925565b610efd6000611b0f565b565b6000610f09611b80565b805490915060ff600160401b820416159067ffffffffffffffff16600081158015610f315750825b905060008267ffffffffffffffff166001148015610f4e5750303b155b905081158015610f5c575080155b15610f7a5760405163f92ee8a960e01b815260040160405180910390fd5b845467ffffffffffffffff191660011785558315610fa457845460ff60401b1916600160401b1785555b610fad88611ba9565b610fb5611bba565b610fbd611bc2565b600487905560058690556101f4600655831561101357845460ff60401b19168555604051600181527fc7f505b2f371ae2175ee4913f4499e1f2633a7b5936321eed1cdaeb6115181d29060200160405180910390a15b5050505050505050565b7f9016d09d72d40fdae2fd8ceac6b6234c7706214fd39c1cd1e609a0528c199300546001600160a01b031690565b3360009081526003602052604090205460ff1680611081575061106c61101d565b6001600160a01b0316336001600160a01b0316145b61109d5760405162461bcd60e51b81526004016106fe9061238e565b60008281526020819052604090206002600382015460ff1660058111156110c6576110c66121a6565b146111095760405162461bcd60e51b81526020600482015260136024820152724e6f7420696e2072657665616c20706861736560681b60448201526064016106fe565b8060070154816009015410156111525760405162461bcd60e51b815260206004820152600e60248201526d145d5bdc9d5b481b9bdd081b595d60921b60448201526064016106fe565b600681018290556003808201805460ff19169091179055600981015460408051848152602081019290925284917f71c41c8c26be69c8d84d44608d92a8a6c31398883af0ed1480592619d0214dcc910160405180910390a2505050565b600060208190529081526040902080546001820180549192916111d19061240a565b80601f01602080910402602001604051908101604052809291908181526020018280546111fd9061240a565b801561124a5780601f1061121f5761010080835404028352916020019161124a565b820191906000526020600020905b81548152906001019060200180831161122d57829003601f168201915b50505060028401546003850154600486015460058701546006880154600789015460088a015460098b0154600a909b0154999a969960ff9096169850939650919490939192916001600160a01b03168b565b60008381526020819052604090206002600382015460ff1660058111156112c5576112c56121a6565b14806112fc57506001600382015460ff1660058111156112e7576112e76121a6565b1480156112fc57508060070154816008015410155b61133e5760405162461bcd60e51b81526020600482015260136024820152724e6f7420696e2072657665616c20706861736560681b60448201526064016106fe565b806005015442111561138b5760405162461bcd60e51b815260206004820152601660248201527514995d99585b08191958591b1a5b99481c185cdcd95960521b60448201526064016106fe565b60008481526001602090815260408083203384529091529020600281015460ff166113e85760405162461bcd60e51b815260206004820152600d60248201526c139bdd0818dbdb5b5a5d1d1959609a1b60448201526064016106fe565b6002810154610100900460ff16156114355760405162461bcd60e51b815260206004820152601060248201526f105b1c9958591e481c995d99585b195960821b60448201526064016106fe565b604080516020808201879052818301869052825180830384018152606090920190925280519101208154811461149d5760405162461bcd60e51b815260206004820152600d60248201526c090c2e6d040dad2e6dac2e8c6d609b1b60448201526064016106fe565b6001820185905560028201805461ff0019166101001790556009830180549060006114c78361235f565b909155505060008681526002602090815260408220805460018181018355918452919092200180546001600160a01b03191633179055600384015460ff166005811115611516576115166121a6565b0361152b5760038301805460ff191660021790555b604051858152339087907f9537aae905308c8d3befcce1d02519f00273ca841b22d87684459656a6c94f4e9060200160405180910390a3505050505050565b6000818152600260209081526040918290208054835181840281018401909452808452606093928301828280156115ca57602002820191906000526020600020905b81546001600160a01b031681526001909101906020018083116115ac575b50505050509050919050565b6115de611925565b603c82101580156115f05750603c8110155b61162f5760405162461bcd60e51b815260206004820152601060248201526f15da5b991bddc81d1bdbc81cda1bdc9d60821b60448201526064016106fe565b600491909155600555565b3360009081526003602052604090205460ff1680611670575061165b61101d565b6001600160a01b0316336001600160a01b0316145b61168c5760405162461bcd60e51b81526004016106fe9061238e565b60008581526020819052604081206003015460ff1660058111156116b2576116b26121a6565b146116ee5760405162461bcd60e51b815260206004820152600c60248201526b4f726465722065786973747360a01b60448201526064016106fe565b60038110156117305760405162461bcd60e51b815260206004820152600e60248201526d51756f72756d20746f6f206c6f7760901b60448201526064016106fe565b60405180610160016040528086815260200185858080601f01602080910402602001604051908101604052809392919081815260200183838082843760009201919091525050509082525060208101849052604001600181526020016004544261179a9190612444565b8152602001600554600454426117b09190612444565b6117ba9190612444565b815260006020808301829052604080840186905260608401839052608084018390523360a09094019390935288825281815291902082518155908201516001820190611806908261249e565b5060408201516002820155606082015160038201805460ff19166001836005811115611834576118346121a6565b02179055506080820151600482015560a0820151600582015560c0820151600682015560e082015160078201556101008201516008820155610120820151600982015561014090910151600a90910180546001600160a01b0319166001600160a01b0390921691909117905560405185907f021b9ac2d33d64e86b93dd6d7479f0fbb3efdd462a90b03a291dd407ff009d06906118d890879087908790879061255d565b60405180910390a25050505050565b6118ef611925565b6001600160a01b03811661191957604051631e4fbdf760e01b8152600060048201526024016106fe565b61192281611b0f565b50565b3361192e61101d565b6001600160a01b031614610efd5760405163118cdaa760e01b81523360048201526024016106fe565b306001600160a01b037f00000000000000000000000000000000000000000000000000000000000000001614806119de57507f00000000000000000000000000000000000000000000000000000000000000006001600160a01b03166119d26000805160206125ba833981519152546001600160a01b031690565b6001600160a01b031614155b15610efd5760405163703e46dd60e11b815260040160405180910390fd5b611922611925565b816001600160a01b03166352d1902d6040518163ffffffff1660e01b8152600401602060405180830381865afa925050508015611a5e575060408051601f3d908101601f19168201909252611a5b91810190612584565b60015b611a8657604051634c9c8ce360e01b81526001600160a01b03831660048201526024016106fe565b6000805160206125ba8339815191528114611ab757604051632a87526960e21b8152600481018290526024016106fe565b611ac18383611bd2565b505050565b306001600160a01b037f00000000000000000000000000000000000000000000000000000000000000001614610efd5760405163703e46dd60e11b815260040160405180910390fd5b7f9016d09d72d40fdae2fd8ceac6b6234c7706214fd39c1cd1e609a0528c19930080546001600160a01b031981166001600160a01b03848116918217845560405192169182907f8be0079c531659141344cd1fd0a4f28419497f9722a3daafe3b4186f6b6457e090600090a3505050565b6000807ff0c57e16840df040f15088dc2f81fe391c3923bec73e23a9662efc9c229c6a00610bfe565b611bb1611c28565b61192281611c4d565b610efd611c28565b611bca611c28565b610efd611c55565b611bdb82611c83565b6040516001600160a01b038316907fbc7cd75a20ee27fd9adebab32041f755214dbc6bffa90cc0225b39da2e5c2d3b90600090a2805115611c2057611ac18282611ce8565b610e2b611d5e565b611c30611d7d565b610efd57604051631afcd79f60e31b815260040160405180910390fd5b6118ef611c28565b611c5d611c28565b60017f9b779b17422d0df92223018b32b4d1fa46e071723d6817e2486d003becc55f0055565b806001600160a01b03163b600003611cb957604051634c9c8ce360e01b81526001600160a01b03821660048201526024016106fe565b6000805160206125ba83398151915280546001600160a01b0319166001600160a01b0392909216919091179055565b6060600080846001600160a01b031684604051611d05919061259d565b600060405180830381855af49150503d8060008114611d40576040519150601f19603f3d011682016040523d82523d6000602084013e611d45565b606091505b5091509150611d55858383611d97565b95945050505050565b3415610efd5760405163b398979f60e01b815260040160405180910390fd5b6000611d87611b80565b54600160401b900460ff16919050565b606082611dac57611da782611df6565b611def565b8151158015611dc357506001600160a01b0384163b155b15611dec57604051639996b31560e01b81526001600160a01b03851660048201526024016106fe565b50805b9392505050565b805115611e0557805160208201fd5b60405163d6bda27560e01b815260040160405180910390fd5b600060208284031215611e3057600080fd5b5035919050565b60008060408385031215611e4a57600080fd5b50508035926020909101359150565b80356001600160a01b0381168114611e7057600080fd5b919050565b600060208284031215611e8757600080fd5b611def82611e59565b60008083601f840112611ea257600080fd5b50813567ffffffffffffffff811115611eba57600080fd5b6020830191508360208260051b8501011115611ed557600080fd5b9250929050565b60008060008060408587031215611ef257600080fd5b843567ffffffffffffffff811115611f0957600080fd5b611f1587828801611e90565b909550935050602085013567ffffffffffffffff811115611f3557600080fd5b611f4187828801611e90565b95989497509550505050565b60008083601f840112611f5f57600080fd5b50813567ffffffffffffffff811115611f7757600080fd5b602083019150836020828501011115611ed557600080fd5b600080600060408486031215611fa457600080fd5b83359250602084013567ffffffffffffffff811115611fc257600080fd5b611fce86828701611f4d565b9497909650939450505050565b634e487b7160e01b600052604160045260246000fd5b6000806040838503121561200457600080fd5b61200d83611e59565b9150602083013567ffffffffffffffff81111561202957600080fd5b8301601f8101851361203a57600080fd5b803567ffffffffffffffff81111561205457612054611fdb565b604051601f8201601f19908116603f0116810167ffffffffffffffff8111828210171561208357612083611fdb565b60405281815282820160200187101561209b57600080fd5b816020840160208301376000602083830101528093505050509250929050565b600080604083850312156120ce57600080fd5b6120d783611e59565b9150602083013580151581146120ec57600080fd5b809150509250929050565b60008060006060848603121561210c57600080fd5b61211584611e59565b95602085013595506040909401359392505050565b6000806040838503121561213d57600080fd5b8235915061214d60208401611e59565b90509250929050565b60005b83811015612171578181015183820152602001612159565b50506000910152565b60008151808452612192816020860160208601612156565b601f01601f19169290920160200192915050565b634e487b7160e01b600052602160045260246000fd5b600681106121da57634e487b7160e01b600052602160045260246000fd5b9052565b8b8152610160602082015260006121f961016083018d61217a565b90508a604083015261220e606083018b6121bc565b608082019890985260a081019690965260c086019490945260e08501929092526101008401526101208301526001600160a01b031661014090910152949350505050565b60008060006060848603121561226757600080fd5b505081359360208301359350604090920135919050565b602081526000611def602083018461217a565b602080825282518282018190526000918401906040840190835b818110156122d25783516001600160a01b03168352602093840193909201916001016122ab565b509095945050505050565b60208101610bfe82846121bc565b60008060008060006080868803121561230357600080fd5b85359450602086013567ffffffffffffffff81111561232157600080fd5b61232d88828901611f4d565b9699909850959660408101359660609091013595509350505050565b634e487b7160e01b600052601160045260246000fd5b60006001820161237157612371612349565b5060010190565b634e487b7160e01b600052603260045260246000fd5b6020808252601b908201527f46656564436f6e73656e7375733a206e6f74206f70657261746f720000000000604082015260600190565b81835281816020850137506000828201602090810191909152601f909101601f19169091010190565b6020815260006124026020830184866123c5565b949350505050565b600181811c9082168061241e57607f821691505b60208210810361243e57634e487b7160e01b600052602260045260246000fd5b50919050565b80820180821115610bfe57610bfe612349565b601f821115611ac157806000526020600020601f840160051c8101602085101561247e5750805b601f840160051c820191505b81811015610bce576000815560010161248a565b815167ffffffffffffffff8111156124b8576124b8611fdb565b6124cc816124c6845461240a565b84612457565b6020601f82116001811461250057600083156124e85750848201515b600019600385901b1c1916600184901b178455610bce565b600084815260208120601f198516915b828110156125305787850151825560209485019460019092019101612510565b508482101561254e5786840151600019600387901b60f8161c191681555b50505050600190811b01905550565b6060815260006125716060830186886123c5565b6020830194909452506040015292915050565b60006020828403121561259657600080fd5b5051919050565b600082516125af818460208701612156565b919091019291505056fe360894a13ba1a3210667c828492db98dca3e2076cc3735a920a3ca505d382bbca2646970667358221220aedacab34af0f811e6878f8f9de779e9a428d7e2d45e400b4cd22f858ac8a8c364736f6c634300081c0033",
  "linkReferences": {},
  "deployedLinkReferences": {}
}