{"contracts/FeederLicense.sol":{"FeederLicense":{"abi":[{"inputs":[],"stateMutability":"nonpayable","type":"constructor"},{"inputs":[{"internalType":"address","name":"target","type":"address"}],"name":"AddressEmptyCode","type":"error"},{"inputs":[{"internalType":"address","name":"implementation","type":"address"}],"name":"ERC1967InvalidImplementation","type":"error"},{"inputs":[],"name":"ERC1967NonPayable","type":"error"},{"inputs":[],"name":"ERC721EnumerableForbiddenBatchMint","type":"error"},{"inputs":[{"internalType":"address","name":"sender","type":"address"},{"internalType":"uint256","name":"tokenId","type":"uint256"},{"internalType":"address","name":"owner","type":"address"}],"name":"ERC721IncorrectOwner","type":"error"},{"inputs":[{"internalType":"address","name":"operator","type":"address"},{"internalType":"uint256","name":"tokenId","type":"uint256"}],"name":"ERC721InsufficientApproval","type":"error"},{"inputs":[{"internalType":"address","name":"approver","type":"address"}],"name":"ERC721InvalidApprover","type":"error"},{"inputs":[{"internalType":"address","name":"operator","type":"address"}],"name":"ERC721InvalidOperator","type":"error"},{"inputs":[{"internalType":"address","name":"owner","type":"address"}],"name":"ERC721InvalidOwner","type":"error"},{"inputs":[{"internalType":"address","name":"receiver","type":"address"}],"name":"ERC721InvalidReceiver","type":"error"},{"inputs":[{"internalType":"address","name":"sender","type":"address"}],"name":"ERC721InvalidSender","type":"error"},{"inputs":[{"internalType":"uint256","name":"tokenId","type":"uint256"}],"name":"ERC721NonexistentToken","type":"error"},{"inputs":[{"internalType":"address","name":"owner","type":"address"},{"internalType":"uint256","name":"index","type":"uint256"}],"name":"ERC721OutOfBoundsIndex","type":"error"},{"inputs":[],"name":"FailedCall","type":"error"},{"inputs":[],"name":"InvalidInitialization","type":"error"},{"inputs":[],"name":"NotInitializing","type":"error"},{"inputs":[{"internalType":"address","name":"owner","type":"address"}],"name":"OwnableInvalidOwner","type":"error"},{"inputs":[{"internalType":"address","name":"account","type":"address"}],"name":"OwnableUnauthorizedAccount","type":"error"},{"inputs":[],"name":"UUPSUnauthorizedCallContext","type":"error"},{"inputs":[{"internalType":"bytes32","name":"slot","type":"bytes32"}],"name":"UUPSUnsupportedProxiableUUID","type":"error"},{"anonymous":false,"inputs":[{"indexed":true,"internalType":"address","name":"owner","type":"address"},{"indexed":true,"internalType":"address","name":"approved","type":"address"},{"indexed":true,"internalType":"uint256","name":"tokenId","type":"uint256"}],"name":"Approval","type":"event"},{"anonymous":false,"inputs":[{"indexed":true,"internalType":"address","name":"owner","type":"address"},{"indexed":true,"internalType":"address","name":"operator","type":"address"},{"indexed":false,"internalType":"bool","name":"approved","type":"bool"}],"name":"ApprovalForAll","type":"event"},{"anonymous":false,"inputs":[{"indexed":false,"internalType":"uint256","name":"_fromTokenId","type":"uint256"},{"indexed":false,"internalType":"uint256","name":"_toTokenId","type":"uint256"}],"name":"BatchMetadataUpdate","type":"event"},{"anonymous":false,"inputs":[{"indexed":false,"internalType":"uint64","name":"version","type":"uint64"}],"name":"Initialized","type":"event"},{"anonymous":false,"inputs":[{"indexed":true,"internalType":"uint256","name":"tokenId","type":"uint256"}],"name":"LicenseBurned","type":"event"},{"anonymous":false,"inputs":[{"indexed":true,"internalType":"address","name":"to","type":"address"},{"indexed":true,"internalType":"uint256","name":"tokenId","type":"uint256"},{"indexed":false,"internalType":"enum FeederLicense.LicenseType","name":"licenseType","type":"uint8"}],"name":"LicenseMinted","type":"event"},{"anonymous":false,"inputs":[{"indexed":false,"internalType":"uint256","name":"_tokenId","type":"uint256"}],"name":"MetadataUpdate","type":"event"},{"anonymous":false,"inputs":[{"indexed":true,"internalType":"address","name":"minter","type":"address"},{"indexed":false,"internalType":"bool","name":"authorized","type":"bool"}],"name":"MinterUpdated","type":"event"},{"anonymous":false,"inputs":[{"indexed":true,"internalType":"address","name":"previousOwner","type":"address"},{"indexed":true,"internalType":"address","name":"newOwner","type":"address"}],"name":"OwnershipTransferred","type":"event"},{"anonymous":false,"inputs":[{"indexed":true,"internalType":"address","name":"from","type":"address"},{"indexed":true,"internalType":"address","name":"to","type":"address"},{"indexed":true,"internalType":"uint256","name":"tokenId","type":"uint256"}],"name":"Transfer","type":"event"},{"anonymous":false,"inputs":[{"indexed":true,"internalType":"address","name":"implementation","type":"address"}],"name":"Upgraded","type":"event"},{"inputs":[],"name":"UPGRADE_INTERFACE_VERSION","outputs":[{"internalType":"string","name":"","type":"string"}],"stateMutability":"view","type":"function"},{"inputs":[{"internalType":"address","name":"to","type":"address"},{"internalType":"uint256","name":"tokenId","type":"uint256"}],"name":"approve","outputs":[],"stateMutability":"nonpayable","type":"function"},{"inputs":[{"internalType":"address","name":"","type":"address"}],"name":"authorizedMinters","outputs":[{"internalType":"bool","name":"","type":"bool"}],"stateMutability":"view","type":"function"},{"inputs":[{"internalType":"address","name":"owner","type":"address"}],"name":"balanceOf","outputs":[{"internalType":"uint256","name":"","type":"uint256"}],"stateMutability":"view","type":"function"},{"inputs":[{"internalType":"uint256","name":"tokenId","type":"uint256"}],"name":"burn","outputs":[],"stateMutability":"nonpayable","type":"function"},{"inputs":[{"internalType":"uint256","name":"tokenId","type":"uint256"}],"name":"getApproved","outputs":[{"internalType":"address","name":"","type":"address"}],"stateMutability":"view","type":"function"},{"inputs":[{"internalType":"address","name":"owner_","type":"address"}],"name":"getTokensByOwner","outputs":[{"internalType":"uint256[]","name":"","type":"uint256[]"}],"stateMutability":"view","type":"function"},{"inputs":[{"internalType":"address","name":"owner_","type":"address"}],"name":"initialize","outputs":[],"stateMutability":"nonpayable","type":"function"},{"inputs":[{"internalType":"address","name":"owner","type":"address"},{"internalType":"address","name":"operator","type":"address"}],"name":"isApprovedForAll","outputs":[{"internalType":"bool","name":"","type":"bool"}],"stateMutability":"view","type":"function"},{"inputs":[{"internalType":"uint256","name":"","type":"uint256"}],"name":"licenseTypes","outputs":[{"internalType":"enum FeederLicense.LicenseType","name":"","type":"uint8"}],"stateMutability":"view","type":"function"},{"inputs":[{"internalType":"address","name":"to","type":"address"},{"internalType":"string","name":"uri","type":"string"},{"internalType":"enum FeederLicense.LicenseType","name":"licenseType_","type":"uint8"}],"name":"mint","outputs":[{"internalType":"uint256","name":"","type":"uint256"}],"stateMutability":"nonpayable","type":"function"},{"inputs":[],"name":"name","outputs":[{"internalType":"string","name":"","type":"string"}],"stateMutability":"view","type":"function"},{"inputs":[],"name":"nextTokenId","outputs":[{"internalType":"uint256","name":"","type":"uint256"}],"stateMutability":"view","type":"function"},{"inputs":[],"name":"owner","outputs":[{"internalType":"address","name":"","type":"address"}],"stateMutability":"view","type":"function"},{"inputs":[{"internalType":"uint256","name":"tokenId","type":"uint256"}],"name":"ownerOf","outputs":[{"internalType":"address","name":"","type":"address"}],"stateMutability":"view","type":"function"},{"inputs":[],"name":"proxiableUUID","outputs":[{"internalType":"bytes32","name":"","type":"bytes32"}],"stateMutability":"view","type":"function"},{"inputs":[],"name":"renounceOwnership","outputs":[],"stateMutability":"nonpayable","type":"function"},{"inputs":[{"internalType":"address","name":"from","type":"address"},{"internalType":"address","name":"to","type":"address"},{"internalType":"uint256","name":"tokenId","type":"uint256"}],"name":"safeTransferFrom","outputs":[],"stateMutability":"nonpayable","type":"function"},{"inputs":[{"internalType":"address","name":"from","type":"address"},{"internalType":"address","name":"to","type":"address"},{"internalType":"uint256","name":"tokenId","type":"uint256"},{"internalType":"bytes","name":"data","type":"bytes"}],"name":"safeTransferFrom","outputs":[],"stateMutability":"nonpayable","type":"function"},{"inputs":[{"internalType":"address","name":"operator","type":"address"},{"internalType":"bool","name":"approved","type":"bool"}],"name":"setApprovalForAll","outputs":[],"stateMutability":"nonpayable","type":"function"},{"inputs":[{"internalType":"address","name":"minter","type":"address"},{"internalType":"bool","name":"authorized","type":"bool"}],"name":"setMinter","outputs":[],"stateMutability":"nonpayable","type":"function"},{"inputs":[{"internalType":"bytes4","name":"interfaceId","type":"bytes4"}],"name":"supportsInterface","outputs":[{"internalType":"bool","name":"","type":"bool"}],"stateMutability":"view","type":"function"},{"inputs":[],"name":"symbol","outputs":[{"internalType":"string","name":"","type":"string"}],"stateMutability":"view","type":"function"},{"inputs":[{"internalType":"uint256","name":"index","type":"uint256"}],"name":"tokenByIndex","outputs":[{"internalType":"uint256","name":"","type":"uint256"}],"stateMutability":"view","type":"function"},{"inputs":[{"internalType":"address","name":"owner","type":"address"},{"internalType":"uint256","name":"index","type":"uint256"}],"name":"tokenOfOwnerByIndex","outputs":[{"internalType":"uint256","name":"","type":"uint256"}],"stateMutability":"view","type":"function"},{"inputs":[{"internalType":"uint256","name":"tokenId","type":"uint256"}],"name":"tokenURI","outputs":[{"internalType":"string","name":"","type":"string"}],"stateMutability":"view","type":"function"},{"inputs":[],"name":"totalSupply","outputs":[{"internalType":"uint256","name":"","type":"uint256"}],"stateMutability":"view","type":"function"},{"inputs":[{"internalType":"address","name":"from","type":"address"},{"internalType":"address","name":"to","type":"address"},{"internalType":"uint256","name":"tokenId","type":"uint256"}],"name":"transferFrom","outputs":[],"stateMutability":"nonpayable","type":"function"},{"inputs":[{"internalType":"address","name":"newOwner","type":"address"}],"name":"transferOwnership","outputs":[],"stateMutability":"nonpayable","type":"function"},{"inputs":[{"internalType":"address","name":"newImplementation","type":"address"},{"internalType":"bytes","name":"data","type":"bytes"}],"name":"upgradeToAndCall","outputs":[],"stateMutability":"payable","type":"function"}],"evm":{"bytecode":{"linkReferences":{},"object":"60a080604052346100ea57306080527ff0c57e16840df040f15088dc2f81fe391c3923bec73e23a9662efc9c229c6a005460ff8160401c166100d9576002600160401b03196001600160401b03821601610073575b6040516127d390816100f0823960805181818161118401526112770152f35b6001600160401b0319166001600160401b039081177ff0c57e16840df040f15088dc2f81fe391c3923bec73e23a9662efc9c229c6a005581527fc7f505b2f371ae2175ee4913f4499e1f2633a7b5936321eed1cdaeb6115181d290602090a13880610054565b63f92ee8a960e01b60005260046000fd5b600080fdfe608080604052600436101561001357600080fd5b60003560e01c90816301ffc9a714611b755750806306fdde0314611ac5578063081812fc14611a7a578063095ea7b31461198857806318160ddd1461195d57806323b872dd146119465780632f745c591461191f57806340398d671461184057806342842e0e1461181057806342966c6814611449578063497b407c146114155780634f1ef286146112395780634f6ccce7146111db57806352d1902d146111715780636352211e146111415780636a4b888314610aa457806370a0823114610a79578063715018a614610a0f57806375794a3c146109f15780638da5cb5b146109bb57806395d89b41146108d4578063a22cb46514610845578063aa2fe91b14610806578063ad3cb1cc146107bf578063b88d4fde14610764578063c4d66de81461028a578063c87b56dd14610253578063cf456ae7146101e7578063e985e9c5146101995763f2fde38b1461016957600080fd5b3461019457602036600319011261019457610192610185611c53565b61018d6122cf565b61223c565b005b600080fd5b34610194576040366003190112610194576101b2611c53565b6101c36101bd611c69565b91611da4565b9060018060a01b0316600052602052602060ff604060002054166040519015158152f35b346101945760207fb21afb9ce9be0a676f8f317ff0ca072fb89a4f8ce2d1b6fe80f8755c14f1cb1961021836611d75565b92906102226122cf565b6001600160a01b031660008181526001835260409020805460ff191660ff86151516179055926040519015158152a2005b346101945760203660031901126101945761028661027260043561244a565b604051918291602083526020830190611c14565b0390f35b34610194576020366003190112610194576102a3611c53565b60008051602061273e8339815191525460ff8160401c16159067ffffffffffffffff81168015908161075c575b6001149081610752575b159081610749575b506107385767ffffffffffffffff19811660011760008051602061273e833981519152558161070b575b5060409081519261031d8385611ce2565b600e84526d466565646572204c6963656e736560901b60208501528251936103458486611ce2565b6005855264119313919560da1b602086015261035f61258e565b61036761258e565b80519067ffffffffffffffff82116105d857819061039360008051602061265e83398151915254611e16565b601f8111610687575b50602090601f83116001146105f9576000926105ee575b50508160011b916000199060031b1c19161760008051602061265e833981519152555b835167ffffffffffffffff81116105d8576103ff60008051602061275e83398151915254611e16565b601f8111610566575b506020601f82116001146104df5781906104699495966000926104d4575b50508160011b916000199060031b1c19161760008051602061275e833981519152555b61045161258e565b61045961258e565b61046161258e565b61018d61258e565b61047161258e565b600160005561047c57005b60207fc7f505b2f371ae2175ee4913f4499e1f2633a7b5936321eed1cdaeb6115181d29168ff00000000000000001960008051602061273e833981519152541660008051602061273e833981519152555160018152a1005b015190508680610426565b601f1982169560008051602061275e833981519152600052816000209660005b81811061054e57509161046995969791846001959410610535575b505050811b0160008051602061275e83398151915255610449565b015160001960f88460031b161c1916905586808061051a565b838301518955600190980197602093840193016104ff565b60008051602061275e8339815191526000527ff4bad0a69248f59680a4f2b3000328cec71a413447c96781cfe5996daa8c456e601f830160051c810191602084106105ce575b601f0160051c01905b8181106105c25750610408565b600081556001016105b5565b90915081906105ac565b634e487b7160e01b600052604160045260246000fd5b0151905086806103b3565b60008051602061265e833981519152600090815260008051602061277e8339815191529350601f198516905b81811061066f5750908460019594939210610656575b505050811b0160008051602061265e833981519152556103d6565b015160001960f88460031b161c1916905586808061063b565b92936020600181928786015181550195019301610625565b90915060008051602061265e833981519152600052601f830160051c60008051602061277e8339815191520190602084106106f5575b90601f8493920160051c60008051602061277e83398151915201905b8181106106e6575061039c565b600081558493506001016106d9565b60008051602061277e83398151915291506106bd565b68ffffffffffffffffff1916680100000000000000011760008051602061273e833981519152558261030c565b63f92ee8a960e01b60005260046000fd5b905015846102e2565b303b1591506102da565b8391506102d0565b346101945760803660031901126101945761077d611c53565b610785611c69565b906044356064359267ffffffffffffffff8411610194576107ad610192943690600401611d57565b926107b9838383611e50565b33612335565b346101945760003660031901126101945761028660408051906107e28183611ce2565b60058252640352e302e360dc1b602083015251918291602083526020830190611c14565b34610194576020366003190112610194576001600160a01b03610827611c53565b166000526001602052602060ff604060002054166040519015158152f35b346101945761085336611d75565b6001600160a01b039091169081156108bf5761086e33611da4565b8260005260205261088f8160406000209060ff801983541691151516179055565b60405190151581527f17307eab39ab6107e8899845ad3d59bd9653f200f220920489ca2b5937696c3160203392a3005b50630b61174360e31b60005260045260246000fd5b3461019457600036600319011261019457604051600060008051602061275e8339815191525461090381611e16565b8084529060018116908115610997575060011461092b575b6102868361027281850382611ce2565b60008051602061275e83398151915260009081527ff4bad0a69248f59680a4f2b3000328cec71a413447c96781cfe5996daa8c456e939250905b80821061097d5750909150810160200161027261091b565b919260018160209254838588010152019101909291610965565b60ff191660208086019190915291151560051b84019091019150610272905061091b565b346101945760003660031901126101945760008051602061267e833981519152546040516001600160a01b039091168152602090f35b34610194576000366003190112610194576020600054604051908152f35b3461019457600036600319011261019457610a286122cf565b60008051602061267e83398151915280546001600160a01b031981169091556000906001600160a01b03167f8be0079c531659141344cd1fd0a4f28419497f9722a3daafe3b4186f6b6457e08280a3005b34610194576020366003190112610194576020610a9c610a97611c53565b61220a565b604051908152f35b3461019457606036600319011261019457610abd611c53565b6024359067ffffffffffffffff821161019457366023830112156101945781600401359167ffffffffffffffff8311610194573660248483010111610194576044359160048310156101945733600052600160205260ff604060002054168015611120575b156110cf576000549160001983146110b95760018301600055602094604051610b4b8782611ce2565b600081526001600160a01b0384169384156110a357856000610b6c82612535565b9060018060a01b038216888c6000805160206126fe83398151915283159182159788611083575b50610b9d89611ddd565b805460010190558d8652526040842080546001600160a01b031916831790558b82847fddf252ad1be2c89b69c2b068fc378daa952ba7f163c4a11628f55a4df523b3ef8780a415610ff357506000805160206126de833981519152548a835260008051602061269e8339815191528d52806040842055600160401b811015610fdf5790610c5b8b610c428460018e96016000805160206126de833981519152556121d5565b90919082549060031b91821b91600019901b1916179055565b03610f75575b5050610f5f573b610e5e575b5090610c7d916024369201611d20565b826000527f0542a41881ee128a365a727b282c86fa859579490b9bb45aab8503648c8e7900855260406000209080519067ffffffffffffffff82116105d857610cc68354611e16565b601f8111610e18575b508690601f8311600114610d8a579282610d74938798937fa24dd4dd6e097b46d254bcf1897bf20ad5267ebce015de3fd0c7bb82c89b8fa596600092610d7f575b50508160011b916000199060031b1c19161790555b7ff8e1a15aba9398e019f0b49df1a4fde98ee17ae345cb5f6b5e2c27f5033e8ce787604051878152a18460005260028752604060002060ff1981541660ff831617905560405191829182611cb9565b0390a3604051908152f35b015190508a80610d10565b90601f1983169184600052886000209260005b8a828210610e02575050938798937fa24dd4dd6e097b46d254bcf1897bf20ad5267ebce015de3fd0c7bb82c89b8fa5969360019383610d749810610de9575b505050811b019055610d25565b015160001960f88460031b161c191690558a8080610ddc565b6001859682939686015181550195019301610d9d565b8360005287600020601f840160051c810191898510610e54575b601f0160051c01905b818110610e485750610ccf565b60008155600101610e3b565b9091508190610e32565b86610e9d91604098979695985180938192630a85bd0160e11b835233600484015260006024840152886044840152608060648401526084830190611c14565b038160008b5af18091600091610f1a575b5090610edf578686610ebe612305565b8051919082610edc5783633250574960e11b60005260045260246000fd5b01fd5b949593949293926001600160e01b03191663757a42ff60e11b01610f0557610c7d610c6d565b82633250574960e11b60005260045260246000fd5b8781813d8311610f58575b610f2f8183611ce2565b81010312610f545751906001600160e01b031982168203610f51575088610eae565b80fd5b5080fd5b503d610f25565b6339e3563760e11b600052600060045260246000fd5b610f7e8461220a565b600019810191908211610fcb5780896040925260008051602061263e8339815191528d528181208382528d528a828220558a815260008051602061261e8339815191528d5220558a610c61565b634e487b7160e01b81526011600452602490fd5b634e487b7160e01b83526041600452602483fd5b90808214610c5b578a8d60008051602061261e8339815191526110158761220a565b9183875281815260408720549385885260008051602061263e8339815191528252604088209484810361105c575b5087525284604081205584528d52826040812055610c5b565b8489528583526040892054818a528684528060408b20558952838352604089205538611043565b61108c9061255d565b61109587611ddd565b80546000190190558d610b93565b633250574960e11b600052600060045260246000fd5b634e487b7160e01b600052601160045260246000fd5b60405162461bcd60e51b8152602060048201526024808201527f4665656465724c6963656e73653a206e6f7420617574686f72697a6564206d69604482015263373a32b960e11b6064820152608490fd5b5060008051602061267e833981519152546001600160a01b03163314610b22565b3461019457602036600319011261019457602061115f6004356122b2565b6040516001600160a01b039091168152f35b34610194576000366003190112610194577f00000000000000000000000000000000000000000000000000000000000000006001600160a01b031630036111ca5760206040516000805160206126be8339815191528152f35b63703e46dd60e11b60005260046000fd5b34610194576020366003190112610194576004356000805160206126de83398151915254811015611220576112116020916121d5565b90549060031b1c604051908152f35b63295f44f760e21b600052600060045260245260446000fd5b60403660031901126101945761124d611c53565b60243567ffffffffffffffff81116101945761126d903690600401611d57565b6001600160a01b037f0000000000000000000000000000000000000000000000000000000000000000163081149081156113f2575b506111ca576112af6122cf565b6040516352d1902d60e01b81526001600160a01b0383169290602081600481875afa600091816113be575b506112f45783634c9c8ce360e01b60005260045260246000fd5b806000805160206126be8339815191528592036113aa5750813b15611396576000805160206126be83398151915280546001600160a01b031916821790557fbc7cd75a20ee27fd9adebab32041f755214dbc6bffa90cc0225b39da2e5c2d3b600080a281511561137c5760008083602061019295519101845af4611376612305565b916125bc565b50503461138557005b63b398979f60e01b60005260046000fd5b634c9c8ce360e01b60005260045260246000fd5b632a87526960e21b60005260045260246000fd5b9091506020813d6020116113ea575b816113da60209383611ce2565b81010312610194575190856112da565b3d91506113cd565b6000805160206126be833981519152546001600160a01b031614159050836112a2565b3461019457602036600319011261019457600435600052600260205261028660ff6040600020541660405191829182611cb9565b34610194576020366003190112610194576004356001600160a01b0361146e826122b2565b16331480156117f8575b80156117d7575b1561178457600061148f82612535565b6001600160a01b03811680159290831580611765575b8583526000805160206126fe8339815191526020526040832080546001600160a01b03191690558583837fddf252ad1be2c89b69c2b068fc378daa952ba7f163c4a11628f55a4df523b3ef8280a484156116b05750506000805160206126de8339815191525484825260008051602061269e833981519152602052806040832055600160401b81101561169c5784610c4282600161155394016000805160206126de833981519152556121d5565b6000805160206126de8339815191525460001981019081116116885784825260008051602061269e8339815191526020526115926040832054916121d5565b90549060031b1c6115a681610c42846121d5565b825260008051602061269e833981519152602052604082205583815260008051602061269e8339815191526020528060408120556000805160206126de833981519152549081156116745750600019016115ff816121d5565b8154906000199060031b1b191690556000805160206126de833981519152555061166057806000526002602052604060002060ff1981541690557f1bfec0e2ebbae8414a44ed0c4c85cf8ff82ce476996704123998ba20cb4bf2f0600080a2005b637e27328960e01b60005260045260246000fd5b634e487b7160e01b81526031600452602490fd5b634e487b7160e01b82526011600452602482fd5b634e487b7160e01b82526041600452602482fd5b6116bb575b50611553565b6116c48361220a565b85835260008051602061261e833981519152602052604083205491835260008051602061263e833981519152602052604083209181810361172d575b5085835260008051602061261e8339815191526020528260408120558252602052806040812055846116b5565b81845282602052604084205481855283602052806040862055845260008051602061261e833981519152602052604084205586611700565b61176e8661255d565b61177784611ddd565b80546000190190556114a5565b60405162461bcd60e51b815260206004820152602560248201527f4665656465724c6963656e73653a206e6f7420617574686f72697a656420746f60448201526410313ab93760d91b6064820152608490fd5b5060008051602061267e833981519152546001600160a01b0316331461147f565b5033600052600160205260ff60406000205416611478565b346101945761019261182136611c7f565b9060405192611831602085611ce2565b600084526107b9838383611e50565b3461019457602036600319011261019457611859611c53565b6118628161220a565b9061186c826121bd565b9161187a6040519384611ce2565b808352611886816121bd565b602084019290601f190136843760005b8281106118e25783856040519182916020830190602084525180915260408301919060005b8181106118c9575050500390f35b82518452859450602093840193909201916001016118bb565b6118ec818361215c565b9085518110156119095760019160208260051b8801015201611896565b634e487b7160e01b600052603260045260246000fd5b34610194576040366003190112610194576020610a9c61193d611c53565b6024359061215c565b346101945761019261195736611c7f565b91611e50565b346101945760003660031901126101945760206000805160206126de83398151915254604051908152f35b34610194576040366003190112610194576119a1611c53565b6024356119ad816122b2565b33151580611a67575b80611a43575b611a2e5781906001600160a01b0384811691167f8c5be1e5ebec7d5bd14f71427d1e84f3dd0314c0f7b2291e5b200ac8c7c3b925600080a4600090815260008051602061271e8339815191526020526040902080546001600160a01b0319166001600160a01b03909216919091179055005b63a9fbf51f60e01b6000523360045260246000fd5b50611a4d81611da4565b336000908152602091909152604090205460ff16156119bc565b506001600160a01b0381163314156119b6565b3461019457602036600319011261019457602061115f600435611a9c816122b2565b50600090815260008051602061271e83398151915260205260409020546001600160a01b031690565b3461019457600036600319011261019457604051600060008051602061265e83398151915254611af481611e16565b80845290600181169081156109975750600114611b1b576102868361027281850382611ce2565b60008051602061265e833981519152600090815260008051602061277e833981519152939250905b808210611b5b5750909150810160200161027261091b565b919260018160209254838588010152019101909291611b43565b34610194576020366003190112610194576004359063ffffffff60e01b821680920361019457602091632483248360e11b8114908115611bb7575b5015158152f35b63780e9d6360e01b811491508115611bd1575b5083611bb0565b6380ac58cd60e01b811491508115611c03575b8115611bf2575b5083611bca565b6301ffc9a760e01b14905083611beb565b635b5e139f60e01b81149150611be4565b919082518082526020808301940160005b828110611c43575050600081602094950152601f8019910116010190565b8181015186820152602001611c25565b600435906001600160a01b038216820361019457565b602435906001600160a01b038216820361019457565b6060906003190112610194576004356001600160a01b038116810361019457906024356001600160a01b0381168103610194579060443590565b919060208301926004821015611ccc5752565b634e487b7160e01b600052602160045260246000fd5b90601f8019910116810190811067ffffffffffffffff8211176105d857604052565b67ffffffffffffffff81116105d857601f01601f191660200190565b929192611d2c82611d04565b91611d3a6040519384611ce2565b829481845281830111610194578281602093846000960137010152565b9080601f8301121561019457816020611d7293359101611d20565b90565b6040906003190112610194576004356001600160a01b0381168103610194579060243580151581036101945790565b6001600160a01b031660009081527f80bb2b638cc20bc4d0a60d66940f3ab4a00c1d7b313497ca82fb0b4ab00793056020526040902090565b6001600160a01b031660009081527f80bb2b638cc20bc4d0a60d66940f3ab4a00c1d7b313497ca82fb0b4ab00793036020526040902090565b90600182811c92168015611e46575b6020831014611e3057565b634e487b7160e01b600052602260045260246000fd5b91607f1691611e25565b9091906001600160a01b03831680156110a357600090611e6f84612535565b91331515806120b0575b506001600160a01b0383169586158015612091575b611e9782611ddd565b805460010190558683526000805160206126fe8339815191526020526040832080546001600160a01b031916851790558684897fddf252ad1be2c89b69c2b068fc378daa952ba7f163c4a11628f55a4df523b3ef8680a415611fe0576000805160206126de8339815191525486835260008051602061269e833981519152602052806040842055600160401b811015610fdf5786610c42826001611f4b94016000805160206126de833981519152556121d5565b828703611f85575b5050505060018060a01b0316808303611f6b57505050565b6364283d7b60e01b60005260045260245260445260646000fd5b611f8e9061220a565b6000198101929083116116885790604091815260008051602061263e833981519152602052818120838252602052858282205585815260008051602061261e8339815191526020522055388080611f53565b868314611f4b57611ff08461220a565b86835260008051602061261e83398151915260205260408320549088845260008051602061263e8339815191526020526040842091818103612059575b5087845260008051602061261e8339815191526020528360408120558352602052816040812055611f4b565b81855282602052604085205481865283602052806040872055855260008051602061261e83398151915260205260408520553861202d565b61209a8761255d565b6120a385611ddd565b8054600019019055611e8e565b806120f9575b156120c15738611e79565b9250506001600160a01b03166120e357602491637e27328960e01b8252600452fd5b60449163177e802f60e01b825233600452602452fd5b506001600160a01b0383163314801561213f575b806120b65750600085815260008051602061271e83398151915260205260409020546001600160a01b031633146120b6565b5061214983611da4565b338252602052604081205460ff1661210d565b6121658161220a565b82101561219e5760018060a01b031660005260008051602061263e83398151915260205260406000209060005260205260406000205490565b63295f44f760e21b60005260018060a01b031660045260245260446000fd5b67ffffffffffffffff81116105d85760051b60200190565b6000805160206126de83398151915254811015611909576000805160206126de83398151915260005260206000200190600090565b6001600160a01b038116156122265761222290611ddd565b5490565b6322718ad960e21b600052600060045260246000fd5b6001600160a01b0316801561229c5760008051602061267e83398151915280546001600160a01b0319811683179091556001600160a01b03167f8be0079c531659141344cd1fd0a4f28419497f9722a3daafe3b4186f6b6457e0600080a3565b631e4fbdf760e01b600052600060045260246000fd5b6122bb81612535565b906001600160a01b03821615611660575090565b60008051602061267e833981519152546001600160a01b031633036122f057565b63118cdaa760e01b6000523360045260246000fd5b3d15612330573d9061231682611d04565b916123246040519384611ce2565b82523d6000602084013e565b606090565b823b612343575b5050505050565b604051630a85bd0160e11b81526001600160a01b03918216600482015291811660248301526044820193909352608060648201529116916020908290819061238f906084830190611c14565b03816000865af18091600091612407575b50906123d157506123af612305565b805190816123cc5782633250574960e11b60005260045260246000fd5b602001fd5b6001600160e01b03191663757a42ff60e11b016123f35750388080808061233c565b633250574960e11b60005260045260246000fd5b6020813d602011612442575b8161242060209383611ce2565b81010312610f545751906001600160e01b031982168203610f515750386123a0565b3d9150612413565b612453816122b2565b506000527f0542a41881ee128a365a727b282c86fa859579490b9bb45aab8503648c8e790060205260406000206040519081600082549261249384611e16565b808452936001811690811561251357506001146124cc575b506124b892500382611ce2565b60006040516124c8602082611ce2565b5290565b90506000929192526020600020906000915b8183106124f75750509060206124b892820101386124ab565b60209193508060019154838588010152019101909183926124de565b9050602092506124b894915060ff191682840152151560051b820101386124ab565b60009081526000805160206126fe83398151915260205260409020546001600160a01b031690565b60005260008051602061271e83398151915260205260406000206bffffffffffffffffffffffff60a01b8154169055565b60ff60008051602061273e8339815191525460401c16156125ab57565b631afcd79f60e31b60005260046000fd5b906125e257508051156125d157602081519101fd5b63d6bda27560e01b60005260046000fd5b81511580612614575b6125f3575090565b639996b31560e01b60009081526001600160a01b0391909116600452602490fd5b50803b156125eb56fe645e039705490088daad89bae25049a34f4a9072d398537b1ab2425f24cbed01645e039705490088daad89bae25049a34f4a9072d398537b1ab2425f24cbed0080bb2b638cc20bc4d0a60d66940f3ab4a00c1d7b313497ca82fb0b4ab00793009016d09d72d40fdae2fd8ceac6b6234c7706214fd39c1cd1e609a0528c199300645e039705490088daad89bae25049a34f4a9072d398537b1ab2425f24cbed03360894a13ba1a3210667c828492db98dca3e2076cc3735a920a3ca505d382bbc645e039705490088daad89bae25049a34f4a9072d398537b1ab2425f24cbed0280bb2b638cc20bc4d0a60d66940f3ab4a00c1d7b313497ca82fb0b4ab007930280bb2b638cc20bc4d0a60d66940f3ab4a00c1d7b313497ca82fb0b4ab0079304f0c57e16840df040f15088dc2f81fe391c3923bec73e23a9662efc9c229c6a0080bb2b638cc20bc4d0a60d66940f3ab4a00c1d7b313497ca82fb0b4ab007930137c58c799b6609234b945e882912ee9ad34948a1dfaa20a97485e1a7752bbf81a26469706673582212205208d94a7abf5dea818abc73c3425baa270cffc600d22f5db63da3221b2881ab64736f6c634300081c0033","opcodes":"PUSH1 0xA0 DUP1 PUSH1 0x40 MSTORE CALLVALUE PUSH2 0xEA JUMPI ADDRESS PUSH1 0x80 MSTORE PUSH32 0xF0C57E16840DF040F15088DC2F81FE391C3923BEC73E23A9662EFC9C229C6A00 SLOAD PUSH1 0xFF DUP2 PUSH1 0x40 SHR AND PUSH2 0xD9 JUMPI PUSH1 0x2 PUSH1 0x1 PUSH1 0x40 SHL SUB NOT PUSH1 0x1 PUSH1 0x1 PUSH1 0x40 SHL SUB DUP3 AND ADD PUSH2 0x73 JUMPI JUMPDEST PUSH1 0x40 MLOAD PUSH2 0x27D3 SWAP1 DUP2 PUSH2 0xF0 DUP3 CODECOPY PUSH1 0x80 MLOAD DUP2 DUP2 DUP2 PUSH2 0x1184 ADD MSTORE PUSH2 0x1277 ADD MSTORE RETURN JUMPDEST PUSH1 0x1 PUSH1 0x1 PUSH1 0x40 SHL SUB NOT AND PUSH1 0x1 PUSH1 0x1 PUSH1 0x40 SHL SUB SWAP1 DUP2 OR PUSH32 0xF0C57E16840DF040F15088DC2F81FE391C3923BEC73E23A9662EFC9C229C6A00 SSTORE DUP2 MSTORE PUSH32 0xC7F505B2F371AE2175EE4913F4499E1F2633A7B5936321EED1CDAEB6115181D2 SWAP1 PUSH1 0x20 SWAP1 LOG1 CODESIZE DUP1 PUSH2 0x54 JUMP JUMPDEST PUSH4 0xF92EE8A9 PUSH1 0xE0 SHL PUSH1 0x0 MSTORE PUSH1 0x4 PUSH1 0x0 REVERT JUMPDEST PUSH1 0x0 DUP1 REVERT INVALID PUSH1 0x80 DUP1 PUSH1 0x40 MSTORE PUSH1 0x4 CALLDATASIZE LT ISZERO PUSH2 0x13 JUMPI PUSH1 0x0 DUP1 REVERT JUMPDEST PUSH1 0x0 CALLDATALOAD PUSH1 0xE0 SHR SWAP1 DUP2 PUSH4 0x1FFC9A7 EQ PUSH2 0x1B75 JUMPI POP DUP1 PUSH4 0x6FDDE03 EQ PUSH2 0x1AC5 JUMPI DUP1 PUSH4 0x81812FC EQ PUSH2 0x1A7A JUMPI DUP1 PUSH4 0x95EA7B3 EQ PUSH2 0x1988 JUMPI DUP1 PUSH4 0x18160DDD EQ PUSH2 0x195D JUMPI DUP1 PUSH4 0x23B872DD EQ PUSH2 0x1946 JUMPI DUP1 PUSH4 0x2F745C59 EQ PUSH2 0x191F JUMPI DUP1 PUSH4 0x40398D67 EQ PUSH2 0x1840 JUMPI DUP1 PUSH4 0x42842E0E EQ PUSH2 0x1810 JUMPI DUP1 PUSH4 0x42966C68 EQ PUSH2 0x1449 JUMPI DUP1 PUSH4 0x497B407C EQ PUSH2 0x1415 JUMPI DUP1 PUSH4 0x4F1EF286 EQ PUSH2 0x1239 JUMPI DUP1 PUSH4 0x4F6CCCE7 EQ PUSH2 0x11DB JUMPI DUP1 PUSH4 0x52D1902D EQ PUSH2 0x1171 JUMPI DUP1 PUSH4 0x6352211E EQ PUSH2 0x1141 JUMPI DUP1 PUSH4 0x6A4B8883 EQ PUSH2 0xAA4 JUMPI DUP1 PUSH4 0x70A08231 EQ PUSH2 0xA79 JUMPI DUP1 PUSH4 0x715018A6 EQ PUSH2 0xA0F JUMPI DUP1 PUSH4 0x75794A3C EQ PUSH2 0x9F1 JUMPI DUP1 PUSH4 0x8DA5CB5B EQ PUSH2 0x9BB JUMPI DUP1 PUSH4 0x95D89B41 EQ PUSH2 0x8D4 JUMPI DUP1 PUSH4 0xA22CB465 EQ PUSH2 0x845 JUMPI DUP1 PUSH4 0xAA2FE91B EQ PUSH2 0x806 JUMPI DUP1 PUSH4 0xAD3CB1CC EQ PUSH2 0x7BF JUMPI DUP1 PUSH4 0xB88D4FDE EQ PUSH2 0x764 JUMPI DUP1 PUSH4 0xC4D66DE8 EQ PUSH2 0x28A JUMPI DUP1 PUSH4 0xC87B56DD EQ PUSH2 0x253 JUMPI DUP1 PUSH4 0xCF456AE7 EQ PUSH2 0x1E7 JUMPI DUP1 PUSH4 0xE985E9C5 EQ PUSH2 0x199 JUMPI PUSH4 0xF2FDE38B EQ PUSH2 0x169 JUMPI PUSH1 0x0 DUP1 REVERT JUMPDEST CALLVALUE PUSH2 0x194 JUMPI PUSH1 0x20 CALLDATASIZE PUSH1 0x3 NOT ADD SLT PUSH2 0x194 JUMPI PUSH2 0x192 PUSH2 0x185 PUSH2 0x1C53 JUMP JUMPDEST PUSH2 0x18D PUSH2 0x22CF JUMP JUMPDEST PUSH2 0x223C JUMP JUMPDEST STOP JUMPDEST PUSH1 0x0 DUP1 REVERT JUMPDEST CALLVALUE PUSH2 0x194 JUMPI PUSH1 0x40 CALLDATASIZE PUSH1 0x3 NOT ADD SLT PUSH2 0x194 JUMPI PUSH2 0x1B2 PUSH2 0x1C53 JUMP JUMPDEST PUSH2 0x1C3 PUSH2 0x1BD PUSH2 0x1C69 JUMP JUMPDEST SWAP2 PUSH2 0x1DA4 JUMP JUMPDEST SWAP1 PUSH1 0x1 DUP1 PUSH1 0xA0 SHL SUB AND PUSH1 0x0 MSTORE PUSH1 0x20 MSTORE PUSH1 0x20 PUSH1 0xFF PUSH1 0x40 PUSH1 0x0 KECCAK256 SLOAD AND PUSH1 0x40 MLOAD SWAP1 ISZERO ISZERO DUP2 MSTORE RETURN JUMPDEST CALLVALUE PUSH2 0x194 JUMPI PUSH1 0x20 PUSH32 0xB21AFB9CE9BE0A676F8F317FF0CA072FB89A4F8CE2D1B6FE80F8755C14F1CB19 PUSH2 0x218 CALLDATASIZE PUSH2 0x1D75 JUMP JUMPDEST SWAP3 SWAP1 PUSH2 0x222 PUSH2 0x22CF JUMP JUMPDEST PUSH1 0x1 PUSH1 0x1 PUSH1 0xA0 SHL SUB AND PUSH1 0x0 DUP2 DUP2 MSTORE PUSH1 0x1 DUP4 MSTORE PUSH1 0x40 SWAP1 KECCAK256 DUP1 SLOAD PUSH1 0xFF NOT AND PUSH1 0xFF DUP7 ISZERO ISZERO AND OR SWAP1 SSTORE SWAP3 PUSH1 0x40 MLOAD SWAP1 ISZERO ISZERO DUP2 MSTORE LOG2 STOP JUMPDEST CALLVALUE PUSH2 0x194 JUMPI PUSH1 0x20 CALLDATASIZE PUSH1 0x3 NOT ADD SLT PUSH2 0x194 JUMPI PUSH2 0x286 PUSH2 0x272 PUSH1 0x4 CALLDATALOAD PUSH2 0x244A JUMP JUMPDEST PUSH1 0x40 MLOAD SWAP2 DUP3 SWAP2 PUSH1 0x20 DUP4 MSTORE PUSH1 0x20 DUP4 ADD SWAP1 PUSH2 0x1C14 JUMP JUMPDEST SUB SWAP1 RETURN JUMPDEST CALLVALUE PUSH2 0x194 JUMPI PUSH1 0x20 CALLDATASIZE PUSH1 0x3 NOT ADD SLT PUSH2 0x194 JUMPI PUSH2 0x2A3 PUSH2 0x1C53 JUMP JUMPDEST PUSH1 0x0 DUP1 MLOAD PUSH1 0x20 PUSH2 0x273E DUP4 CODECOPY DUP2 MLOAD SWAP2 MSTORE SLOAD PUSH1 0xFF DUP2 PUSH1 0x40 SHR AND ISZERO SWAP1 PUSH8 0xFFFFFFFFFFFFFFFF DUP2 AND DUP1 ISZERO SWAP1 DUP2 PUSH2 0x75C JUMPI JUMPDEST PUSH1 0x1 EQ SWAP1 DUP2 PUSH2 0x752 JUMPI JUMPDEST ISZERO SWAP1 DUP2 PUSH2 0x749 JUMPI JUMPDEST POP PUSH2 0x738 JUMPI PUSH8 0xFFFFFFFFFFFFFFFF NOT DUP2 AND PUSH1 0x1 OR PUSH1 0x0 DUP1 MLOAD PUSH1 0x20 PUSH2 0x273E DUP4 CODECOPY DUP2 MLOAD SWAP2 MSTORE SSTORE DUP2 PUSH2 0x70B JUMPI JUMPDEST POP PUSH1 0x40 SWAP1 DUP2 MLOAD SWAP3 PUSH2 0x31D DUP4 DUP6 PUSH2 0x1CE2 JUMP JUMPDEST PUSH1 0xE DUP5 MSTORE PUSH14 0x466565646572204C6963656E7365 PUSH1 0x90 SHL PUSH1 0x20 DUP6 ADD MSTORE DUP3 MLOAD SWAP4 PUSH2 0x345 DUP5 DUP7 PUSH2 0x1CE2 JUMP JUMPDEST PUSH1 0x5 DUP6 MSTORE PUSH5 0x1193139195 PUSH1 0xDA SHL PUSH1 0x20 DUP7 ADD MSTORE PUSH2 0x35F PUSH2 0x258E JUMP JUMPDEST PUSH2 0x367 PUSH2 0x258E JUMP JUMPDEST DUP1 MLOAD SWAP1 PUSH8 0xFFFFFFFFFFFFFFFF DUP3 GT PUSH2 0x5D8 JUMPI DUP2 SWAP1 PUSH2 0x393 PUSH1 0x0 DUP1 MLOAD PUSH1 0x20 PUSH2 0x265E DUP4 CODECOPY DUP2 MLOAD SWAP2 MSTORE SLOAD PUSH2 0x1E16 JUMP JUMPDEST PUSH1 0x1F DUP2 GT PUSH2 0x687 JUMPI JUMPDEST POP PUSH1 0x20 SWAP1 PUSH1 0x1F DUP4 GT PUSH1 0x1 EQ PUSH2 0x5F9 JUMPI PUSH1 0x0 SWAP3 PUSH2 0x5EE JUMPI JUMPDEST POP POP DUP2 PUSH1 0x1 SHL SWAP2 PUSH1 0x0 NOT SWAP1 PUSH1 0x3 SHL SHR NOT AND OR PUSH1 0x0 DUP1 MLOAD PUSH1 0x20 PUSH2 0x265E DUP4 CODECOPY DUP2 MLOAD SWAP2 MSTORE SSTORE JUMPDEST DUP4 MLOAD PUSH8 0xFFFFFFFFFFFFFFFF DUP2 GT PUSH2 0x5D8 JUMPI PUSH2 0x3FF PUSH1 0x0 DUP1 MLOAD PUSH1 0x20 PUSH2 0x275E DUP4 CODECOPY DUP2 MLOAD SWAP2 MSTORE SLOAD PUSH2 0x1E16 JUMP JUMPDEST PUSH1 0x1F DUP2 GT PUSH2 0x566 JUMPI JUMPDEST POP PUSH1 0x20 PUSH1 0x1F DUP3 GT PUSH1 0x1 EQ PUSH2 0x4DF JUMPI DUP2 SWAP1 PUSH2 0x469 SWAP5 SWAP6 SWAP7 PUSH1 0x0 SWAP3 PUSH2 0x4D4 JUMPI JUMPDEST POP POP DUP2 PUSH1 0x1 SHL SWAP2 PUSH1 0x0 NOT SWAP1 PUSH1 0x3 SHL SHR NOT AND OR PUSH1 0x0 DUP1 MLOAD PUSH1 0x20 PUSH2 0x275E DUP4 CODECOPY DUP2 MLOAD SWAP2 MSTORE SSTORE JUMPDEST PUSH2 0x451 PUSH2 0x258E JUMP JUMPDEST PUSH2 0x459 PUSH2 0x258E JUMP JUMPDEST PUSH2 0x461 PUSH2 0x258E JUMP JUMPDEST PUSH2 0x18D PUSH2 0x258E JUMP JUMPDEST PUSH2 0x471 PUSH2 0x258E JUMP JUMPDEST PUSH1 0x1 PUSH1 0x0 SSTORE PUSH2 0x47C JUMPI STOP JUMPDEST PUSH1 0x20 PUSH32 0xC7F505B2F371AE2175EE4913F4499E1F2633A7B5936321EED1CDAEB6115181D2 SWAP2 PUSH9 0xFF0000000000000000 NOT PUSH1 0x0 DUP1 MLOAD PUSH1 0x20 PUSH2 0x273E DUP4 CODECOPY DUP2 MLOAD SWAP2 MSTORE SLOAD AND PUSH1 0x0 DUP1 MLOAD PUSH1 0x20 PUSH2 0x273E DUP4 CODECOPY DUP2 MLOAD SWAP2 MSTORE SSTORE MLOAD PUSH1 0x1 DUP2 MSTORE LOG1 STOP JUMPDEST ADD MLOAD SWAP1 POP DUP7 DUP1 PUSH2 0x426 JUMP JUMPDEST PUSH1 0x1F NOT DUP3 AND SWAP6 PUSH1 0x0 DUP1 MLOAD PUSH1 0x20 PUSH2 0x275E DUP4 CODECOPY DUP2 MLOAD SWAP2 MSTORE PUSH1 0x0 MSTORE DUP2 PUSH1 0x0 KECCAK256 SWAP7 PUSH1 0x0 JUMPDEST DUP2 DUP2 LT PUSH2 0x54E JUMPI POP SWAP2 PUSH2 0x469 SWAP6 SWAP7 SWAP8 SWAP2 DUP5 PUSH1 0x1 SWAP6 SWAP5 LT PUSH2 0x535 JUMPI JUMPDEST POP POP POP DUP2 SHL ADD PUSH1 0x0 DUP1 MLOAD PUSH1 0x20 PUSH2 0x275E DUP4 CODECOPY DUP2 MLOAD SWAP2 MSTORE SSTORE PUSH2 0x449 JUMP JUMPDEST ADD MLOAD PUSH1 0x0 NOT PUSH1 0xF8 DUP5 PUSH1 0x3 SHL AND SHR NOT AND SWAP1 SSTORE DUP7 DUP1 DUP1 PUSH2 0x51A JUMP JUMPDEST DUP4 DUP4 ADD MLOAD DUP10 SSTORE PUSH1 0x1 SWAP1 SWAP9 ADD SWAP8 PUSH1 0x20 SWAP4 DUP5 ADD SWAP4 ADD PUSH2 0x4FF JUMP JUMPDEST PUSH1 0x0 DUP1 MLOAD PUSH1 0x20 PUSH2 0x275E DUP4 CODECOPY DUP2 MLOAD SWAP2 MSTORE PUSH1 0x0 MSTORE PUSH32 0xF4BAD0A69248F59680A4F2B3000328CEC71A413447C96781CFE5996DAA8C456E PUSH1 0x1F DUP4 ADD PUSH1 0x5 SHR DUP2 ADD SWAP2 PUSH1 0x20 DUP5 LT PUSH2 0x5CE JUMPI JUMPDEST PUSH1 0x1F ADD PUSH1 0x5 SHR ADD SWAP1 JUMPDEST DUP2 DUP2 LT PUSH2 0x5C2 JUMPI POP PUSH2 0x408 JUMP JUMPDEST PUSH1 0x0 DUP2 SSTORE PUSH1 0x1 ADD PUSH2 0x5B5 JUMP JUMPDEST SWAP1 SWAP2 POP DUP2 SWAP1 PUSH2 0x5AC JUMP JUMPDEST PUSH4 0x4E487B71 PUSH1 0xE0 SHL PUSH1 0x0 MSTORE PUSH1 0x41 PUSH1 0x4 MSTORE PUSH1 0x24 PUSH1 0x0 REVERT JUMPDEST ADD MLOAD SWAP1 POP DUP7 DUP1 PUSH2 0x3B3 JUMP JUMPDEST PUSH1 0x0 DUP1 MLOAD PUSH1 0x20 PUSH2 0x265E DUP4 CODECOPY DUP2 MLOAD SWAP2 MSTORE PUSH1 0x0 SWAP1 DUP2 MSTORE PUSH1 0x0 DUP1 MLOAD PUSH1 0x20 PUSH2 0x277E DUP4 CODECOPY DUP2 MLOAD SWAP2 MSTORE SWAP4 POP PUSH1 0x1F NOT DUP6 AND SWAP1 JUMPDEST DUP2 DUP2 LT PUSH2 0x66F JUMPI POP SWAP1 DUP5 PUSH1 0x1 SWAP6 SWAP5 SWAP4 SWAP3 LT PUSH2 0x656 JUMPI JUMPDEST POP POP POP DUP2 SHL ADD PUSH1 0x0 DUP1 MLOAD PUSH1 0x20 PUSH2 0x265E DUP4 CODECOPY DUP2 MLOAD SWAP2 MSTORE SSTORE PUSH2 0x3D6 JUMP JUMPDEST ADD MLOAD PUSH1 0x0 NOT PUSH1 0xF8 DUP5 PUSH1 0x3 SHL AND SHR NOT AND SWAP1 SSTORE DUP7 DUP1 DUP1 PUSH2 0x63B JUMP JUMPDEST SWAP3 SWAP4 PUSH1 0x20 PUSH1 0x1 DUP2 SWAP3 DUP8 DUP7 ADD MLOAD DUP2 SSTORE ADD SWAP6 ADD SWAP4 ADD PUSH2 0x625 JUMP JUMPDEST SWAP1 SWAP2 POP PUSH1 0x0 DUP1 MLOAD PUSH1 0x20 PUSH2 0x265E DUP4 CODECOPY DUP2 MLOAD SWAP2 MSTORE PUSH1 0x0 MSTORE PUSH1 0x1F DUP4 ADD PUSH1 0x5 SHR PUSH1 0x0 DUP1 MLOAD PUSH1 0x20 PUSH2 0x277E DUP4 CODECOPY DUP2 MLOAD SWAP2 MSTORE ADD SWAP1 PUSH1 0x20 DUP5 LT PUSH2 0x6F5 JUMPI JUMPDEST SWAP1 PUSH1 0x1F DUP5 SWAP4 SWAP3 ADD PUSH1 0x5 SHR PUSH1 0x0 DUP1 MLOAD PUSH1 0x20 PUSH2 0x277E DUP4 CODECOPY DUP2 MLOAD SWAP2 MSTORE ADD SWAP1 JUMPDEST DUP2 DUP2 LT PUSH2 0x6E6 JUMPI POP PUSH2 0x39C JUMP JUMPDEST PUSH1 0x0 DUP2 SSTORE DUP5 SWAP4 POP PUSH1 0x1 ADD PUSH2 0x6D9 JUMP JUMPDEST PUSH1 0x0 DUP1 MLOAD PUSH1 0x20 PUSH2 0x277E DUP4 CODECOPY DUP2 MLOAD SWAP2 MSTORE SWAP2 POP PUSH2 0x6BD JUMP JUMPDEST PUSH9 0xFFFFFFFFFFFFFFFFFF NOT AND PUSH9 0x10000000000000001 OR PUSH1 0x0 DUP1 MLOAD PUSH1 0x20 PUSH2 0x273E DUP4 CODECOPY DUP2 MLOAD SWAP2 MSTORE SSTORE DUP3 PUSH2 0x30C JUMP JUMPDEST PUSH4 0xF92EE8A9 PUSH1 0xE0 SHL PUSH1 0x0 MSTORE PUSH1 0x4 PUSH1 0x0 REVERT JUMPDEST SWAP1 POP ISZERO DUP5 PUSH2 0x2E2 JUMP JUMPDEST ADDRESS EXTCODESIZE ISZERO SWAP2 POP PUSH2 0x2DA JUMP JUMPDEST DUP4 SWAP2 POP PUSH2 0x2D0 JUMP JUMPDEST CALLVALUE PUSH2 0x194 JUMPI PUSH1 0x80 CALLDATASIZE PUSH1 0x3 NOT ADD SLT PUSH2 0x194 JUMPI PUSH2 0x77D PUSH2 0x1C53 JUMP JUMPDEST PUSH2 0x785 PUSH2 0x1C69 JUMP JUMPDEST SWAP1 PUSH1 0x44 CALLDATALOAD PUSH1 0x64 CALLDATALOAD SWAP3 PUSH8 0xFFFFFFFFFFFFFFFF DUP5 GT PUSH2 0x194 JUMPI PUSH2 0x7AD PUSH2 0x192 SWAP5 CALLDATASIZE SWAP1 PUSH1 0x4 ADD PUSH2 0x1D57 JUMP JUMPDEST SWAP3 PUSH2 0x7B9 DUP4 DUP4 DUP4 PUSH2 0x1E50 JUMP JUMPDEST CALLER PUSH2 0x2335 JUMP JUMPDEST CALLVALUE PUSH2 0x194 JUMPI PUSH1 0x0 CALLDATASIZE PUSH1 0x3 NOT ADD SLT PUSH2 0x194 JUMPI PUSH2 0x286 PUSH1 0x40 DUP1 MLOAD SWAP1 PUSH2 0x7E2 DUP2 DUP4 PUSH2 0x1CE2 JUMP JUMPDEST PUSH1 0x5 DUP3 MSTORE PUSH5 0x352E302E3 PUSH1 0xDC SHL PUSH1 0x20 DUP4 ADD MSTORE MLOAD SWAP2 DUP3 SWAP2 PUSH1 0x20 DUP4 MSTORE PUSH1 0x20 DUP4 ADD SWAP1 PUSH2 0x1C14 JUMP JUMPDEST CALLVALUE PUSH2 0x194 JUMPI PUSH1 0x20 CALLDATASIZE PUSH1 0x3 NOT ADD SLT PUSH2 0x194 JUMPI PUSH1 0x1 PUSH1 0x1 PUSH1 0xA0 SHL SUB PUSH2 0x827 PUSH2 0x1C53 JUMP JUMPDEST AND PUSH1 0x0 MSTORE PUSH1 0x1 PUSH1 0x20 MSTORE PUSH1 0x20 PUSH1 0xFF PUSH1 0x40 PUSH1 0x0 KECCAK256 SLOAD AND PUSH1 0x40 MLOAD SWAP1 ISZERO ISZERO DUP2 MSTORE RETURN JUMPDEST CALLVALUE PUSH2 0x194 JUMPI PUSH2 0x853 CALLDATASIZE PUSH2 0x1D75 JUMP JUMPDEST PUSH1 0x1 PUSH1 0x1 PUSH1 0xA0 SHL SUB SWAP1 SWAP2 AND SWAP1 DUP2 ISZERO PUSH2 0x8BF JUMPI PUSH2 0x86E CALLER PUSH2 0x1DA4 JUMP JUMPDEST DUP3 PUSH1 0x0 MSTORE PUSH1 0x20 MSTORE PUSH2 0x88F DUP2 PUSH1 0x40 PUSH1 0x0 KECCAK256 SWAP1 PUSH1 0xFF DUP1 NOT DUP4 SLOAD AND SWAP2 ISZERO ISZERO AND OR SWAP1 SSTORE JUMP JUMPDEST PUSH1 0x40 MLOAD SWAP1 ISZERO ISZERO DUP2 MSTORE PUSH32 0x17307EAB39AB6107E8899845AD3D59BD9653F200F220920489CA2B5937696C31 PUSH1 0x20 CALLER SWAP3 LOG3 STOP JUMPDEST POP PUSH4 0xB611743 PUSH1 0xE3 SHL PUSH1 0x0 MSTORE PUSH1 0x4 MSTORE PUSH1 0x24 PUSH1 0x0 REVERT JUMPDEST CALLVALUE PUSH2 0x194 JUMPI PUSH1 0x0 CALLDATASIZE PUSH1 0x3 NOT ADD SLT PUSH2 0x194 JUMPI PUSH1 0x40 MLOAD PUSH1 0x0 PUSH1 0x0 DUP1 MLOAD PUSH1 0x20 PUSH2 0x275E DUP4 CODECOPY DUP2 MLOAD SWAP2 MSTORE SLOAD PUSH2 0x903 DUP2 PUSH2 0x1E16 JUMP JUMPDEST DUP1 DUP5 MSTORE SWAP1 PUSH1 0x1 DUP2 AND SWAP1 DUP2 ISZERO PUSH2 0x997 JUMPI POP PUSH1 0x1 EQ PUSH2 0x92B JUMPI JUMPDEST PUSH2 0x286 DUP4 PUSH2 0x272 DUP2 DUP6 SUB DUP3 PUSH2 0x1CE2 JUMP JUMPDEST PUSH1 0x0 DUP1 MLOAD PUSH1 0x20 PUSH2 0x275E DUP4 CODECOPY DUP2 MLOAD SWAP2 MSTORE PUSH1 0x0 SWAP1 DUP2 MSTORE PUSH32 0xF4BAD0A69248F59680A4F2B3000328CEC71A413447C96781CFE5996DAA8C456E SWAP4 SWAP3 POP SWAP1 JUMPDEST DUP1 DUP3 LT PUSH2 0x97D JUMPI POP SWAP1 SWAP2 POP DUP2 ADD PUSH1 0x20 ADD PUSH2 0x272 PUSH2 0x91B JUMP JUMPDEST SWAP2 SWAP3 PUSH1 0x1 DUP2 PUSH1 0x20 SWAP3 SLOAD DUP4 DUP6 DUP9 ADD ADD MSTORE ADD SWAP2 ADD SWAP1 SWAP3 SWAP2 PUSH2 0x965 JUMP JUMPDEST PUSH1 0xFF NOT AND PUSH1 0x20 DUP1 DUP7 ADD SWAP2 SWAP1 SWAP2 MSTORE SWAP2 ISZERO ISZERO PUSH1 0x5 SHL DUP5 ADD SWAP1 SWAP2 ADD SWAP2 POP PUSH2 0x272 SWAP1 POP PUSH2 0x91B JUMP JUMPDEST CALLVALUE PUSH2 0x194 JUMPI PUSH1 0x0 CALLDATASIZE PUSH1 0x3 NOT ADD SLT PUSH2 0x194 JUMPI PUSH1 0x0 DUP1 MLOAD PUSH1 0x20 PUSH2 0x267E DUP4 CODECOPY DUP2 MLOAD SWAP2 MSTORE SLOAD PUSH1 0x40 MLOAD PUSH1 0x1 PUSH1 0x1 PUSH1 0xA0 SHL SUB SWAP1 SWAP2 AND DUP2 MSTORE PUSH1 0x20 SWAP1 RETURN JUMPDEST CALLVALUE PUSH2 0x194 JUMPI PUSH1 0x0 CALLDATASIZE PUSH1 0x3 NOT ADD SLT PUSH2 0x194 JUMPI PUSH1 0x20 PUSH1 0x0 SLOAD PUSH1 0x40 MLOAD SWAP1 DUP2 MSTORE RETURN JUMPDEST CALLVALUE PUSH2 0x194 JUMPI PUSH1 0x0 CALLDATASIZE PUSH1 0x3 NOT ADD SLT PUSH2 0x194 JUMPI PUSH2 0xA28 PUSH2 0x22CF JUMP JUMPDEST PUSH1 0x0 DUP1 MLOAD PUSH1 0x20 PUSH2 0x267E DUP4 CODECOPY DUP2 MLOAD SWAP2 MSTORE DUP1 SLOAD PUSH1 0x1 PUSH1 0x1 PUSH1 0xA0 SHL SUB NOT DUP2 AND SWAP1 SWAP2 SSTORE PUSH1 0x0 SWAP1 PUSH1 0x1 PUSH1 0x1 PUSH1 0xA0 SHL SUB AND PUSH32 0x8BE0079C531659141344CD1FD0A4F28419497F9722A3DAAFE3B4186F6B6457E0 DUP3 DUP1 LOG3 STOP JUMPDEST CALLVALUE PUSH2 0x194 JUMPI PUSH1 0x20 CALLDATASIZE PUSH1 0x3 NOT ADD SLT PUSH2 0x194 JUMPI PUSH1 0x20 PUSH2 0xA9C PUSH2 0xA97 PUSH2 0x1C53 JUMP JUMPDEST PUSH2 0x220A JUMP JUMPDEST PUSH1 0x40 MLOAD SWAP1 DUP2 MSTORE RETURN JUMPDEST CALLVALUE PUSH2 0x194 JUMPI PUSH1 0x60 CALLDATASIZE PUSH1 0x3 NOT ADD SLT PUSH2 0x194 JUMPI PUSH2 0xABD PUSH2 0x1C53 JUMP JUMPDEST PUSH1 0x24 CALLDATALOAD SWAP1 PUSH8 0xFFFFFFFFFFFFFFFF DUP3 GT PUSH2 0x194 JUMPI CALLDATASIZE PUSH1 0x23 DUP4 ADD SLT ISZERO PUSH2 0x194 JUMPI DUP2 PUSH1 0x4 ADD CALLDATALOAD SWAP2 PUSH8 0xFFFFFFFFFFFFFFFF DUP4 GT PUSH2 0x194 JUMPI CALLDATASIZE PUSH1 0x24 DUP5 DUP4 ADD ADD GT PUSH2 0x194 JUMPI PUSH1 0x44 CALLDATALOAD SWAP2 PUSH1 0x4 DUP4 LT ISZERO PUSH2 0x194 JUMPI CALLER PUSH1 0x0 MSTORE PUSH1 0x1 PUSH1 0x20 MSTORE PUSH1 0xFF PUSH1 0x40 PUSH1 0x0 KECCAK256 SLOAD AND DUP1 ISZERO PUSH2 0x1120 JUMPI JUMPDEST ISZERO PUSH2 0x10CF JUMPI PUSH1 0x0 SLOAD SWAP2 PUSH1 0x0 NOT DUP4 EQ PUSH2 0x10B9 JUMPI PUSH1 0x1 DUP4 ADD PUSH1 0x0 SSTORE PUSH1 0x20 SWAP5 PUSH1 0x40 MLOAD PUSH2 0xB4B DUP8 DUP3 PUSH2 0x1CE2 JUMP JUMPDEST PUSH1 0x0 DUP2 MSTORE PUSH1 0x1 PUSH1 0x1 PUSH1 0xA0 SHL SUB DUP5 AND SWAP4 DUP5 ISZERO PUSH2 0x10A3 JUMPI DUP6 PUSH1 0x0 PUSH2 0xB6C DUP3 PUSH2 0x2535 JUMP JUMPDEST SWAP1 PUSH1 0x1 DUP1 PUSH1 0xA0 SHL SUB DUP3 AND DUP9 DUP13 PUSH1 0x0 DUP1 MLOAD PUSH1 0x20 PUSH2 0x26FE DUP4 CODECOPY DUP2 MLOAD SWAP2 MSTORE DUP4 ISZERO SWAP2 DUP3 ISZERO SWAP8 DUP9 PUSH2 0x1083 JUMPI JUMPDEST POP PUSH2 0xB9D DUP10 PUSH2 0x1DDD JUMP JUMPDEST DUP1 SLOAD PUSH1 0x1 ADD SWAP1 SSTORE DUP14 DUP7 MSTORE MSTORE PUSH1 0x40 DUP5 KECCAK256 DUP1 SLOAD PUSH1 0x1 PUSH1 0x1 PUSH1 0xA0 SHL SUB NOT AND DUP4 OR SWAP1 SSTORE DUP12 DUP3 DUP5 PUSH32 0xDDF252AD1BE2C89B69C2B068FC378DAA952BA7F163C4A11628F55A4DF523B3EF DUP8 DUP1 LOG4 ISZERO PUSH2 0xFF3 JUMPI POP PUSH1 0x0 DUP1 MLOAD PUSH1 0x20 PUSH2 0x26DE DUP4 CODECOPY DUP2 MLOAD SWAP2 MSTORE SLOAD DUP11 DUP4 MSTORE PUSH1 0x0 DUP1 MLOAD PUSH1 0x20 PUSH2 0x269E DUP4 CODECOPY DUP2 MLOAD SWAP2 MSTORE DUP14 MSTORE DUP1 PUSH1 0x40 DUP5 KECCAK256 SSTORE PUSH1 0x1 PUSH1 0x40 SHL DUP2 LT ISZERO PUSH2 0xFDF JUMPI SWAP1 PUSH2 0xC5B DUP12 PUSH2 0xC42 DUP5 PUSH1 0x1 DUP15 SWAP7 ADD PUSH1 0x0 DUP1 MLOAD PUSH1 0x20 PUSH2 0x26DE DUP4 CODECOPY DUP2 MLOAD SWAP2 MSTORE SSTORE PUSH2 0x21D5 JUMP JUMPDEST SWAP1 SWAP2 SWAP1 DUP3 SLOAD SWAP1 PUSH1 0x3 SHL SWAP2 DUP3 SHL SWAP2 PUSH1 0x0 NOT SWAP1 SHL NOT AND OR SWAP1 SSTORE JUMP JUMPDEST SUB PUSH2 0xF75 JUMPI JUMPDEST POP POP PUSH2 0xF5F JUMPI EXTCODESIZE PUSH2 0xE5E JUMPI JUMPDEST POP SWAP1 PUSH2 0xC7D SWAP2 PUSH1 0x24 CALLDATASIZE SWAP3 ADD PUSH2 0x1D20 JUMP JUMPDEST DUP3 PUSH1 0x0 MSTORE PUSH32 0x542A41881EE128A365A727B282C86FA859579490B9BB45AAB8503648C8E7900 DUP6 MSTORE PUSH1 0x40 PUSH1 0x0 KECCAK256 SWAP1 DUP1 MLOAD SWAP1 PUSH8 0xFFFFFFFFFFFFFFFF DUP3 GT PUSH2 0x5D8 JUMPI PUSH2 0xCC6 DUP4 SLOAD PUSH2 0x1E16 JUMP JUMPDEST PUSH1 0x1F DUP2 GT PUSH2 0xE18 JUMPI JUMPDEST POP DUP7 SWAP1 PUSH1 0x1F DUP4 GT PUSH1 0x1 EQ PUSH2 0xD8A JUMPI SWAP3 DUP3 PUSH2 0xD74 SWAP4 DUP8 SWAP9 SWAP4 PUSH32 0xA24DD4DD6E097B46D254BCF1897BF20AD5267EBCE015DE3FD0C7BB82C89B8FA5 SWAP7 PUSH1 0x0 SWAP3 PUSH2 0xD7F JUMPI JUMPDEST POP POP DUP2 PUSH1 0x1 SHL SWAP2 PUSH1 0x0 NOT SWAP1 PUSH1 0x3 SHL SHR NOT AND OR SWAP1 SSTORE JUMPDEST PUSH32 0xF8E1A15ABA9398E019F0B49DF1A4FDE98EE17AE345CB5F6B5E2C27F5033E8CE7 DUP8 PUSH1 0x40 MLOAD DUP8 DUP2 MSTORE LOG1 DUP5 PUSH1 0x0 MSTORE PUSH1 0x2 DUP8 MSTORE PUSH1 0x40 PUSH1 0x0 KECCAK256 PUSH1 0xFF NOT DUP2 SLOAD AND PUSH1 0xFF DUP4 AND OR SWAP1 SSTORE PUSH1 0x40 MLOAD SWAP2 DUP3 SWAP2 DUP3 PUSH2 0x1CB9 JUMP JUMPDEST SUB SWAP1 LOG3 PUSH1 0x40 MLOAD SWAP1 DUP2 MSTORE RETURN JUMPDEST ADD MLOAD SWAP1 POP DUP11 DUP1 PUSH2 0xD10 JUMP JUMPDEST SWAP1 PUSH1 0x1F NOT DUP4 AND SWAP2 DUP5 PUSH1 0x0 MSTORE DUP9 PUSH1 0x0 KECCAK256 SWAP3 PUSH1 0x0 JUMPDEST DUP11 DUP3 DUP3 LT PUSH2 0xE02 JUMPI POP POP SWAP4 DUP8 SWAP9 SWAP4 PUSH32 0xA24DD4DD6E097B46D254BCF1897BF20AD5267EBCE015DE3FD0C7BB82C89B8FA5 SWAP7 SWAP4 PUSH1 0x1 SWAP4 DUP4 PUSH2 0xD74 SWAP9 LT PUSH2 0xDE9 JUMPI JUMPDEST POP POP POP DUP2 SHL ADD SWAP1 SSTORE PUSH2 0xD25 JUMP JUMPDEST ADD MLOAD PUSH1 0x0 NOT PUSH1 0xF8 DUP5 PUSH1 0x3 SHL AND SHR NOT AND SWAP1 SSTORE DUP11 DUP1 DUP1 PUSH2 0xDDC JUMP JUMPDEST PUSH1 0x1 DUP6 SWAP7 DUP3 SWAP4 SWAP7 DUP7 ADD MLOAD DUP2 SSTORE ADD SWAP6 ADD SWAP4 ADD PUSH2 0xD9D JUMP JUMPDEST DUP4 PUSH1 0x0 MSTORE DUP8 PUSH1 0x0 KECCAK256 PUSH1 0x1F DUP5 ADD PUSH1 0x5 SHR DUP2 ADD SWAP2 DUP10 DUP6 LT PUSH2 0xE54 JUMPI JUMPDEST PUSH1 0x1F ADD PUSH1 0x5 SHR ADD SWAP1 JUMPDEST DUP2 DUP2 LT PUSH2 0xE48 JUMPI POP PUSH2 0xCCF JUMP JUMPDEST PUSH1 0x0 DUP2 SSTORE PUSH1 0x1 ADD PUSH2 0xE3B JUMP JUMPDEST SWAP1 SWAP2 POP DUP2 SWAP1 PUSH2 0xE32 JUMP JUMPDEST DUP7 PUSH2 0xE9D SWAP2 PUSH1 0x40 SWAP9 SWAP8 SWAP7 SWAP6 SWAP9 MLOAD DUP1 SWAP4 DUP2 SWAP3 PUSH4 0xA85BD01 PUSH1 0xE1 SHL DUP4 MSTORE CALLER PUSH1 0x4 DUP5 ADD MSTORE PUSH1 0x0 PUSH1 0x24 DUP5 ADD MSTORE DUP9 PUSH1 0x44 DUP5 ADD MSTORE PUSH1 0x80 PUSH1 0x64 DUP5 ADD MSTORE PUSH1 0x84 DUP4 ADD SWAP1 PUSH2 0x1C14 JUMP JUMPDEST SUB DUP2 PUSH1 0x0 DUP12 GAS CALL DUP1 SWAP2 PUSH1 0x0 SWAP2 PUSH2 0xF1A JUMPI JUMPDEST POP SWAP1 PUSH2 0xEDF JUMPI DUP7 DUP7 PUSH2 0xEBE PUSH2 0x2305 JUMP JUMPDEST DUP1 MLOAD SWAP2 SWAP1 DUP3 PUSH2 0xEDC JUMPI DUP4 PUSH4 0x32505749 PUSH1 0xE1 SHL PUSH1 0x0 MSTORE PUSH1 0x4 MSTORE PUSH1 0x24 PUSH1 0x0 REVERT JUMPDEST ADD REVERT JUMPDEST SWAP5 SWAP6 SWAP4 SWAP5 SWAP3 SWAP4 SWAP3 PUSH1 0x1 PUSH1 0x1 PUSH1 0xE0 SHL SUB NOT AND PUSH4 0x757A42FF PUSH1 0xE1 SHL ADD PUSH2 0xF05 JUMPI PUSH2 0xC7D PUSH2 0xC6D JUMP JUMPDEST DUP3 PUSH4 0x32505749 PUSH1 0xE1 SHL PUSH1 0x0 MSTORE PUSH1 0x4 MSTORE PUSH1 0x24 PUSH1 0x0 REVERT JUMPDEST DUP8 DUP2 DUP2 RETURNDATASIZE DUP4 GT PUSH2 0xF58 JUMPI JUMPDEST PUSH2 0xF2F DUP2 DUP4 PUSH2 0x1CE2 JUMP JUMPDEST DUP2 ADD SUB SLT PUSH2 0xF54 JUMPI MLOAD SWAP1 PUSH1 0x1 PUSH1 0x1 PUSH1 0xE0 SHL SUB NOT DUP3 AND DUP3 SUB PUSH2 0xF51 JUMPI POP DUP9 PUSH2 0xEAE JUMP JUMPDEST DUP1 REVERT JUMPDEST POP DUP1 REVERT JUMPDEST POP RETURNDATASIZE PUSH2 0xF25 JUMP JUMPDEST PUSH4 0x39E35637 PUSH1 0xE1 SHL PUSH1 0x0 MSTORE PUSH1 0x0 PUSH1 0x4 MSTORE PUSH1 0x24 PUSH1 0x0 REVERT JUMPDEST PUSH2 0xF7E DUP5 PUSH2 0x220A JUMP JUMPDEST PUSH1 0x0 NOT DUP2 ADD SWAP2 SWAP1 DUP3 GT PUSH2 0xFCB JUMPI DUP1 DUP10 PUSH1 0x40 SWAP3 MSTORE PUSH1 0x0 DUP1 MLOAD PUSH1 0x20 PUSH2 0x263E DUP4 CODECOPY DUP2 MLOAD SWAP2 MSTORE DUP14 MSTORE DUP2 DUP2 KECCAK256 DUP4 DUP3 MSTORE DUP14 MSTORE DUP11 DUP3 DUP3 KECCAK256 SSTORE DUP11 DUP2 MSTORE PUSH1 0x0 DUP1 MLOAD PUSH1 0x20 PUSH2 0x261E DUP4 CODECOPY DUP2 MLOAD SWAP2 MSTORE DUP14 MSTORE KECCAK256 SSTORE DUP11 PUSH2 0xC61 JUMP JUMPDEST PUSH4 0x4E487B71 PUSH1 0xE0 SHL DUP2 MSTORE PUSH1 0x11 PUSH1 0x4 MSTORE PUSH1 0x24 SWAP1 REVERT JUMPDEST PUSH4 0x4E487B71 PUSH1 0xE0 SHL DUP4 MSTORE PUSH1 0x41 PUSH1 0x4 MSTORE PUSH1 0x24 DUP4 REVERT JUMPDEST SWAP1 DUP1 DUP3 EQ PUSH2 0xC5B JUMPI DUP11 DUP14 PUSH1 0x0 DUP1 MLOAD PUSH1 0x20 PUSH2 0x261E DUP4 CODECOPY DUP2 MLOAD SWAP2 MSTORE PUSH2 0x1015 DUP8 PUSH2 0x220A JUMP JUMPDEST SWAP2 DUP4 DUP8 MSTORE DUP2 DUP2 MSTORE PUSH1 0x40 DUP8 KECCAK256 SLOAD SWAP4 DUP6 DUP9 MSTORE PUSH1 0x0 DUP1 MLOAD PUSH1 0x20 PUSH2 0x263E DUP4 CODECOPY DUP2 MLOAD SWAP2 MSTORE DUP3 MSTORE PUSH1 0x40 DUP9 KECCAK256 SWAP5 DUP5 DUP2 SUB PUSH2 0x105C JUMPI JUMPDEST POP DUP8 MSTORE MSTORE DUP5 PUSH1 0x40 DUP2 KECCAK256 SSTORE DUP5 MSTORE DUP14 MSTORE DUP3 PUSH1 0x40 DUP2 KECCAK256 SSTORE PUSH2 0xC5B JUMP JUMPDEST DUP5 DUP10 MSTORE DUP6 DUP4 MSTORE PUSH1 0x40 DUP10 KECCAK256 SLOAD DUP2 DUP11 MSTORE DUP7 DUP5 MSTORE DUP1 PUSH1 0x40 DUP12 KECCAK256 SSTORE DUP10 MSTORE DUP4 DUP4 MSTORE PUSH1 0x40 DUP10 KECCAK256 SSTORE CODESIZE PUSH2 0x1043 JUMP JUMPDEST PUSH2 0x108C SWAP1 PUSH2 0x255D JUMP JUMPDEST PUSH2 0x1095 DUP8 PUSH2 0x1DDD JUMP JUMPDEST DUP1 SLOAD PUSH1 0x0 NOT ADD SWAP1 SSTORE DUP14 PUSH2 0xB93 JUMP JUMPDEST PUSH4 0x32505749 PUSH1 0xE1 SHL PUSH1 0x0 MSTORE PUSH1 0x0 PUSH1 0x4 MSTORE PUSH1 0x24 PUSH1 0x0 REVERT JUMPDEST PUSH4 0x4E487B71 PUSH1 0xE0 SHL PUSH1 0x0 MSTORE PUSH1 0x11 PUSH1 0x4 MSTORE PUSH1 0x24 PUSH1 0x0 REVERT JUMPDEST PUSH1 0x40 MLOAD PUSH3 0x461BCD PUSH1 0xE5 SHL DUP2 MSTORE PUSH1 0x20 PUSH1 0x4 DUP3 ADD MSTORE PUSH1 0x24 DUP1 DUP3 ADD MSTORE PUSH32 0x4665656465724C6963656E73653A206E6F7420617574686F72697A6564206D69 PUSH1 0x44 DUP3 ADD MSTORE PUSH4 0x373A32B9 PUSH1 0xE1 SHL PUSH1 0x64 DUP3 ADD MSTORE PUSH1 0x84 SWAP1 REVERT JUMPDEST POP PUSH1 0x0 DUP1 MLOAD PUSH1 0x20 PUSH2 0x267E DUP4 CODECOPY DUP2 MLOAD SWAP2 MSTORE SLOAD PUSH1 0x1 PUSH1 0x1 PUSH1 0xA0 SHL SUB AND CALLER EQ PUSH2 0xB22 JUMP JUMPDEST CALLVALUE PUSH2 0x194 JUMPI PUSH1 0x20 CALLDATASIZE PUSH1 0x3 NOT ADD SLT PUSH2 0x194 JUMPI PUSH1 0x20 PUSH2 0x115F PUSH1 0x4 CALLDATALOAD PUSH2 0x22B2 JUMP JUMPDEST PUSH1 0x40 MLOAD PUSH1 0x1 PUSH1 0x1 PUSH1 0xA0 SHL SUB SWAP1 SWAP2 AND DUP2 MSTORE RETURN JUMPDEST CALLVALUE PUSH2 0x194 JUMPI PUSH1 0x0 CALLDATASIZE PUSH1 0x3 NOT ADD SLT PUSH2 0x194 JUMPI PUSH32 0x0 PUSH1 0x1 PUSH1 0x1 PUSH1 0xA0 SHL SUB AND ADDRESS SUB PUSH2 0x11CA JUMPI PUSH1 0x20 PUSH1 0x40 MLOAD PUSH1 0x0 DUP1 MLOAD PUSH1 0x20 PUSH2 0x26BE DUP4 CODECOPY DUP2 MLOAD SWAP2 MSTORE DUP2 MSTORE RETURN JUMPDEST PUSH4 0x703E46DD PUSH1 0xE1 SHL PUSH1 0x0 MSTORE PUSH1 0x4 PUSH1 0x0 REVERT JUMPDEST CALLVALUE PUSH2 0x194 JUMPI PUSH1 0x20 CALLDATASIZE PUSH1 0x3 NOT ADD SLT PUSH2 0x194 JUMPI PUSH1 0x4 CALLDATALOAD PUSH1 0x0 DUP1 MLOAD PUSH1 0x20 PUSH2 0x26DE DUP4 CODECOPY DUP2 MLOAD SWAP2 MSTORE SLOAD DUP2 LT ISZERO PUSH2 0x1220 JUMPI PUSH2 0x1211 PUSH1 0x20 SWAP2 PUSH2 0x21D5 JUMP JUMPDEST SWAP1 SLOAD SWAP1 PUSH1 0x3 SHL SHR PUSH1 0x40 MLOAD SWAP1 DUP2 MSTORE RETURN JUMPDEST PUSH4 0x295F44F7 PUSH1 0xE2 SHL PUSH1 0x0 MSTORE PUSH1 0x0 PUSH1 0x4 MSTORE PUSH1 0x24 MSTORE PUSH1 0x44 PUSH1 0x0 REVERT JUMPDEST PUSH1 0x40 CALLDATASIZE PUSH1 0x3 NOT ADD SLT PUSH2 0x194 JUMPI PUSH2 0x124D PUSH2 0x1C53 JUMP JUMPDEST PUSH1 0x24 CALLDATALOAD PUSH8 0xFFFFFFFFFFFFFFFF DUP2 GT PUSH2 0x194 JUMPI PUSH2 0x126D SWAP1 CALLDATASIZE SWAP1 PUSH1 0x4 ADD PUSH2 0x1D57 JUMP JUMPDEST PUSH1 0x1 PUSH1 0x1 PUSH1 0xA0 SHL SUB PUSH32 0x0 AND ADDRESS DUP2 EQ SWAP1 DUP2 ISZERO PUSH2 0x13F2 JUMPI JUMPDEST POP PUSH2 0x11CA JUMPI PUSH2 0x12AF PUSH2 0x22CF JUMP JUMPDEST PUSH1 0x40 MLOAD PUSH4 0x52D1902D PUSH1 0xE0 SHL DUP2 MSTORE PUSH1 0x1 PUSH1 0x1 PUSH1 0xA0 SHL SUB DUP4 AND SWAP3 SWAP1 PUSH1 0x20 DUP2 PUSH1 0x4 DUP2 DUP8 GAS STATICCALL PUSH1 0x0 SWAP2 DUP2 PUSH2 0x13BE JUMPI JUMPDEST POP PUSH2 0x12F4 JUMPI DUP4 PUSH4 0x4C9C8CE3 PUSH1 0xE0 SHL PUSH1 0x0 MSTORE PUSH1 0x4 MSTORE PUSH1 0x24 PUSH1 0x0 REVERT JUMPDEST DUP1 PUSH1 0x0 DUP1 MLOAD PUSH1 0x20 PUSH2 0x26BE DUP4 CODECOPY DUP2 MLOAD SWAP2 MSTORE DUP6 SWAP3 SUB PUSH2 0x13AA JUMPI POP DUP2 EXTCODESIZE ISZERO PUSH2 0x1396 JUMPI PUSH1 0x0 DUP1 MLOAD PUSH1 0x20 PUSH2 0x26BE DUP4 CODECOPY DUP2 MLOAD SWAP2 MSTORE DUP1 SLOAD PUSH1 0x1 PUSH1 0x1 PUSH1 0xA0 SHL SUB NOT AND DUP3 OR SWAP1 SSTORE PUSH32 0xBC7CD75A20EE27FD9ADEBAB32041F755214DBC6BFFA90CC0225B39DA2E5C2D3B PUSH1 0x0 DUP1 LOG2 DUP2 MLOAD ISZERO PUSH2 0x137C JUMPI PUSH1 0x0 DUP1 DUP4 PUSH1 0x20 PUSH2 0x192 SWAP6 MLOAD SWAP2 ADD DUP5 GAS DELEGATECALL PUSH2 0x1376 PUSH2 0x2305 JUMP JUMPDEST SWAP2 PUSH2 0x25BC JUMP JUMPDEST POP POP CALLVALUE PUSH2 0x1385 JUMPI STOP JUMPDEST PUSH4 0xB398979F PUSH1 0xE0 SHL PUSH1 0x0 MSTORE PUSH1 0x4 PUSH1 0x0 REVERT JUMPDEST PUSH4 0x4C9C8CE3 PUSH1 0xE0 SHL PUSH1 0x0 MSTORE PUSH1 0x4 MSTORE PUSH1 0x24 PUSH1 0x0 REVERT JUMPDEST PUSH4 0x2A875269 PUSH1 0xE2 SHL PUSH1 0x0 MSTORE PUSH1 0x4 MSTORE PUSH1 0x24 PUSH1 0x0 REVERT JUMPDEST SWAP1 SWAP2 POP PUSH1 0x20 DUP2 RETURNDATASIZE PUSH1 0x20 GT PUSH2 0x13EA JUMPI JUMPDEST DUP2 PUSH2 0x13DA PUSH1 0x20 SWAP4 DUP4 PUSH2 0x1CE2 JUMP JUMPDEST DUP2 ADD SUB SLT PUSH2 0x194 JUMPI MLOAD SWAP1 DUP6 PUSH2 0x12DA JUMP JUMPDEST RETURNDATASIZE SWAP2 POP PUSH2 0x13CD JUMP JUMPDEST PUSH1 0x0 DUP1 MLOAD PUSH1 0x20 PUSH2 0x26BE DUP4 CODECOPY DUP2 MLOAD SWAP2 MSTORE SLOAD PUSH1 0x1 PUSH1 0x1 PUSH1 0xA0 SHL SUB AND EQ ISZERO SWAP1 POP DUP4 PUSH2 0x12A2 JUMP JUMPDEST CALLVALUE PUSH2 0x194 JUMPI PUSH1 0x20 CALLDATASIZE PUSH1 0x3 NOT ADD SLT PUSH2 0x194 JUMPI PUSH1 0x4 CALLDATALOAD PUSH1 0x0 MSTORE PUSH1 0x2 PUSH1 0x20 MSTORE PUSH2 0x286 PUSH1 0xFF PUSH1 0x40 PUSH1 0x0 KECCAK256 SLOAD AND PUSH1 0x40 MLOAD SWAP2 DUP3 SWAP2 DUP3 PUSH2 0x1CB9 JUMP JUMPDEST CALLVALUE PUSH2 0x194 JUMPI PUSH1 0x20 CALLDATASIZE PUSH1 0x3 NOT ADD SLT PUSH2 0x194 JUMPI PUSH1 0x4 CALLDATALOAD PUSH1 0x1 PUSH1 0x1 PUSH1 0xA0 SHL SUB PUSH2 0x146E DUP3 PUSH2 0x22B2 JUMP JUMPDEST AND CALLER EQ DUP1 ISZERO PUSH2 0x17F8 JUMPI JUMPDEST DUP1 ISZERO PUSH2 0x17D7 JUMPI JUMPDEST ISZERO PUSH2 0x1784 JUMPI PUSH1 0x0 PUSH2 0x148F DUP3 PUSH2 0x2535 JUMP JUMPDEST PUSH1 0x1 PUSH1 0x1 PUSH1 0xA0 SHL SUB DUP2 AND DUP1 ISZERO SWAP3 SWAP1 DUP4 ISZERO DUP1 PUSH2 0x1765 JUMPI JUMPDEST DUP6 DUP4 MSTORE PUSH1 0x0 DUP1 MLOAD PUSH1 0x20 PUSH2 0x26FE DUP4 CODECOPY DUP2 MLOAD SWAP2 MSTORE PUSH1 0x20 MSTORE PUSH1 0x40 DUP4 KECCAK256 DUP1 SLOAD PUSH1 0x1 PUSH1 0x1 PUSH1 0xA0 SHL SUB NOT AND SWAP1 SSTORE DUP6 DUP4 DUP4 PUSH32 0xDDF252AD1BE2C89B69C2B068FC378DAA952BA7F163C4A11628F55A4DF523B3EF DUP3 DUP1 LOG4 DUP5 ISZERO PUSH2 0x16B0 JUMPI POP POP PUSH1 0x0 DUP1 MLOAD PUSH1 0x20 PUSH2 0x26DE DUP4 CODECOPY DUP2 MLOAD SWAP2 MSTORE SLOAD DUP5 DUP3 MSTORE PUSH1 0x0 DUP1 MLOAD PUSH1 0x20 PUSH2 0x269E DUP4 CODECOPY DUP2 MLOAD SWAP2 MSTORE PUSH1 0x20 MSTORE DUP1 PUSH1 0x40 DUP4 KECCAK256 SSTORE PUSH1 0x1 PUSH1 0x40 SHL DUP2 LT ISZERO PUSH2 0x169C JUMPI DUP5 PUSH2 0xC42 DUP3 PUSH1 0x1 PUSH2 0x1553 SWAP5 ADD PUSH1 0x0 DUP1 MLOAD PUSH1 0x20 PUSH2 0x26DE DUP4 CODECOPY DUP2 MLOAD SWAP2 MSTORE SSTORE PUSH2 0x21D5 JUMP JUMPDEST PUSH1 0x0 DUP1 MLOAD PUSH1 0x20 PUSH2 0x26DE DUP4 CODECOPY DUP2 MLOAD SWAP2 MSTORE SLOAD PUSH1 0x0 NOT DUP2 ADD SWAP1 DUP2 GT PUSH2 0x1688 JUMPI DUP5 DUP3 MSTORE PUSH1 0x0 DUP1 MLOAD PUSH1 0x20 PUSH2 0x269E DUP4 CODECOPY DUP2 MLOAD SWAP2 MSTORE PUSH1 0x20 MSTORE PUSH2 0x1592 PUSH1 0x40 DUP4 KECCAK256 SLOAD SWAP2 PUSH2 0x21D5 JUMP JUMPDEST SWAP1 SLOAD SWAP1 PUSH1 0x3 SHL SHR PUSH2 0x15A6 DUP2 PUSH2 0xC42 DUP5 PUSH2 0x21D5 JUMP JUMPDEST DUP3 MSTORE PUSH1 0x0 DUP1 MLOAD PUSH1 0x20 PUSH2 0x269E DUP4 CODECOPY DUP2 MLOAD SWAP2 MSTORE PUSH1 0x20 MSTORE PUSH1 0x40 DUP3 KECCAK256 SSTORE DUP4 DUP2 MSTORE PUSH1 0x0 DUP1 MLOAD PUSH1 0x20 PUSH2 0x269E DUP4 CODECOPY DUP2 MLOAD SWAP2 MSTORE PUSH1 0x20 MSTORE DUP1 PUSH1 0x40 DUP2 KECCAK256 SSTORE PUSH1 0x0 DUP1 MLOAD PUSH1 0x20 PUSH2 0x26DE DUP4 CODECOPY DUP2 MLOAD SWAP2 MSTORE SLOAD SWAP1 DUP2 ISZERO PUSH2 0x1674 JUMPI POP PUSH1 0x0 NOT ADD PUSH2 0x15FF DUP2 PUSH2 0x21D5 JUMP JUMPDEST DUP2 SLOAD SWAP1 PUSH1 0x0 NOT SWAP1 PUSH1 0x3 SHL SHL NOT AND SWAP1 SSTORE PUSH1 0x0 DUP1 MLOAD PUSH1 0x20 PUSH2 0x26DE DUP4 CODECOPY DUP2 MLOAD SWAP2 MSTORE SSTORE POP PUSH2 0x1660 JUMPI DUP1 PUSH1 0x0 MSTORE PUSH1 0x2 PUSH1 0x20 MSTORE PUSH1 0x40 PUSH1 0x0 KECCAK256 PUSH1 0xFF NOT DUP2 SLOAD AND SWAP1 SSTORE PUSH32 0x1BFEC0E2EBBAE8414A44ED0C4C85CF8FF82CE476996704123998BA20CB4BF2F0 PUSH1 0x0 DUP1 LOG2 STOP JUMPDEST PUSH4 0x7E273289 PUSH1 0xE0 SHL PUSH1 0x0 MSTORE PUSH1 0x4 MSTORE PUSH1 0x24 PUSH1 0x0 REVERT JUMPDEST PUSH4 0x4E487B71 PUSH1 0xE0 SHL DUP2 MSTORE PUSH1 0x31 PUSH1 0x4 MSTORE PUSH1 0x24 SWAP1 REVERT JUMPDEST PUSH4 0x4E487B71 PUSH1 0xE0 SHL DUP3 MSTORE PUSH1 0x11 PUSH1 0x4 MSTORE PUSH1 0x24 DUP3 REVERT JUMPDEST PUSH4 0x4E487B71 PUSH1 0xE0 SHL DUP3 MSTORE PUSH1 0x41 PUSH1 0x4 MSTORE PUSH1 0x24 DUP3 REVERT JUMPDEST PUSH2 0x16BB JUMPI JUMPDEST POP PUSH2 0x1553 JUMP JUMPDEST PUSH2 0x16C4 DUP4 PUSH2 0x220A JUMP JUMPDEST DUP6 DUP4 MSTORE PUSH1 0x0 DUP1 MLOAD PUSH1 0x20 PUSH2 0x261E DUP4 CODECOPY DUP2 MLOAD SWAP2 MSTORE PUSH1 0x20 MSTORE PUSH1 0x40 DUP4 KECCAK256 SLOAD SWAP2 DUP4 MSTORE PUSH1 0x0 DUP1 MLOAD PUSH1 0x20 PUSH2 0x263E DUP4 CODECOPY DUP2 MLOAD SWAP2 MSTORE PUSH1 0x20 MSTORE PUSH1 0x40 DUP4 KECCAK256 SWAP2 DUP2 DUP2 SUB PUSH2 0x172D JUMPI JUMPDEST POP DUP6 DUP4 MSTORE PUSH1 0x0 DUP1 MLOAD PUSH1 0x20 PUSH2 0x261E DUP4 CODECOPY DUP2 MLOAD SWAP2 MSTORE PUSH1 0x20 MSTORE DUP3 PUSH1 0x40 DUP2 KECCAK256 SSTORE DUP3 MSTORE PUSH1 0x20 MSTORE DUP1 PUSH1 0x40 DUP2 KECCAK256 SSTORE DUP5 PUSH2 0x16B5 JUMP JUMPDEST DUP2 DUP5 MSTORE DUP3 PUSH1 0x20 MSTORE PUSH1 0x40 DUP5 KECCAK256 SLOAD DUP2 DUP6 MSTORE DUP4 PUSH1 0x20 MSTORE DUP1 PUSH1 0x40 DUP7 KECCAK256 SSTORE DUP5 MSTORE PUSH1 0x0 DUP1 MLOAD PUSH1 0x20 PUSH2 0x261E DUP4 CODECOPY DUP2 MLOAD SWAP2 MSTORE PUSH1 0x20 MSTORE PUSH1 0x40 DUP5 KECCAK256 SSTORE DUP7 PUSH2 0x1700 JUMP JUMPDEST PUSH2 0x176E DUP7 PUSH2 0x255D JUMP JUMPDEST PUSH2 0x1777 DUP5 PUSH2 0x1DDD JUMP JUMPDEST DUP1 SLOAD PUSH1 0x0 NOT ADD SWAP1 SSTORE PUSH2 0x14A5 JUMP JUMPDEST PUSH1 0x40 MLOAD PUSH3 0x461BCD PUSH1 0xE5 SHL DUP2 MSTORE PUSH1 0x20 PUSH1 0x4 DUP3 ADD MSTORE PUSH1 0x25 PUSH1 0x24 DUP3 ADD MSTORE PUSH32 0x4665656465724C6963656E73653A206E6F7420617574686F72697A656420746F PUSH1 0x44 DUP3 ADD MSTORE PUSH5 0x10313AB937 PUSH1 0xD9 SHL PUSH1 0x64 DUP3 ADD MSTORE PUSH1 0x84 SWAP1 REVERT JUMPDEST POP PUSH1 0x0 DUP1 MLOAD PUSH1 0x20 PUSH2 0x267E DUP4 CODECOPY DUP2 MLOAD SWAP2 MSTORE SLOAD PUSH1 0x1 PUSH1 0x1 PUSH1 0xA0 SHL SUB AND CALLER EQ PUSH2 0x147F JUMP JUMPDEST POP CALLER PUSH1 0x0 MSTORE PUSH1 0x1 PUSH1 0x20 MSTORE PUSH1 0xFF PUSH1 0x40 PUSH1 0x0 KECCAK256 SLOAD AND PUSH2 0x1478 JUMP JUMPDEST CALLVALUE PUSH2 0x194 JUMPI PUSH2 0x192 PUSH2 0x1821 CALLDATASIZE PUSH2 0x1C7F JUMP JUMPDEST SWAP1 PUSH1 0x40 MLOAD SWAP3 PUSH2 0x1831 PUSH1 0x20 DUP6 PUSH2 0x1CE2 JUMP JUMPDEST PUSH1 0x0 DUP5 MSTORE PUSH2 0x7B9 DUP4 DUP4 DUP4 PUSH2 0x1E50 JUMP JUMPDEST CALLVALUE PUSH2 0x194 JUMPI PUSH1 0x20 CALLDATASIZE PUSH1 0x3 NOT ADD SLT PUSH2 0x194 JUMPI PUSH2 0x1859 PUSH2 0x1C53 JUMP JUMPDEST PUSH2 0x1862 DUP2 PUSH2 0x220A JUMP JUMPDEST SWAP1 PUSH2 0x186C DUP3 PUSH2 0x21BD JUMP JUMPDEST SWAP2 PUSH2 0x187A PUSH1 0x40 MLOAD SWAP4 DUP5 PUSH2 0x1CE2 JUMP JUMPDEST DUP1 DUP4 MSTORE PUSH2 0x1886 DUP2 PUSH2 0x21BD JUMP JUMPDEST PUSH1 0x20 DUP5 ADD SWAP3 SWAP1 PUSH1 0x1F NOT ADD CALLDATASIZE DUP5 CALLDATACOPY PUSH1 0x0 JUMPDEST DUP3 DUP2 LT PUSH2 0x18E2 JUMPI DUP4 DUP6 PUSH1 0x40 MLOAD SWAP2 DUP3 SWAP2 PUSH1 0x20 DUP4 ADD SWAP1 PUSH1 0x20 DUP5 MSTORE MLOAD DUP1 SWAP2 MSTORE PUSH1 0x40 DUP4 ADD SWAP2 SWAP1 PUSH1 0x0 JUMPDEST DUP2 DUP2 LT PUSH2 0x18C9 JUMPI POP POP POP SUB SWAP1 RETURN JUMPDEST DUP3 MLOAD DUP5 MSTORE DUP6 SWAP5 POP PUSH1 0x20 SWAP4 DUP5 ADD SWAP4 SWAP1 SWAP3 ADD SWAP2 PUSH1 0x1 ADD PUSH2 0x18BB JUMP JUMPDEST PUSH2 0x18EC DUP2 DUP4 PUSH2 0x215C JUMP JUMPDEST SWAP1 DUP6 MLOAD DUP2 LT ISZERO PUSH2 0x1909 JUMPI PUSH1 0x1 SWAP2 PUSH1 0x20 DUP3 PUSH1 0x5 SHL DUP9 ADD ADD MSTORE ADD PUSH2 0x1896 JUMP JUMPDEST PUSH4 0x4E487B71 PUSH1 0xE0 SHL PUSH1 0x0 MSTORE PUSH1 0x32 PUSH1 0x4 MSTORE PUSH1 0x24 PUSH1 0x0 REVERT JUMPDEST CALLVALUE PUSH2 0x194 JUMPI PUSH1 0x40 CALLDATASIZE PUSH1 0x3 NOT ADD SLT PUSH2 0x194 JUMPI PUSH1 0x20 PUSH2 0xA9C PUSH2 0x193D PUSH2 0x1C53 JUMP JUMPDEST PUSH1 0x24 CALLDATALOAD SWAP1 PUSH2 0x215C JUMP JUMPDEST CALLVALUE PUSH2 0x194 JUMPI PUSH2 0x192 PUSH2 0x1957 CALLDATASIZE PUSH2 0x1C7F JUMP JUMPDEST SWAP2 PUSH2 0x1E50 JUMP JUMPDEST CALLVALUE PUSH2 0x194 JUMPI PUSH1 0x0 CALLDATASIZE PUSH1 0x3 NOT ADD SLT PUSH2 0x194 JUMPI PUSH1 0x20 PUSH1 0x0 DUP1 MLOAD PUSH1 0x20 PUSH2 0x26DE DUP4 CODECOPY DUP2 MLOAD SWAP2 MSTORE SLOAD PUSH1 0x40 MLOAD SWAP1 DUP2 MSTORE RETURN JUMPDEST CALLVALUE PUSH2 0x194 JUMPI PUSH1 0x40 CALLDATASIZE PUSH1 0x3 NOT ADD SLT PUSH2 0x194 JUMPI PUSH2 0x19A1 PUSH2 0x1C53 JUMP JUMPDEST PUSH1 0x24 CALLDATALOAD PUSH2 0x19AD DUP2 PUSH2 0x22B2 JUMP JUMPDEST CALLER ISZERO ISZERO DUP1 PUSH2 0x1A67 JUMPI JUMPDEST DUP1 PUSH2 0x1A43 JUMPI JUMPDEST PUSH2 0x1A2E JUMPI DUP2 SWAP1 PUSH1 0x1 PUSH1 0x1 PUSH1 0xA0 SHL SUB DUP5 DUP2 AND SWAP2 AND PUSH32 0x8C5BE1E5EBEC7D5BD14F71427D1E84F3DD0314C0F7B2291E5B200AC8C7C3B925 PUSH1 0x0 DUP1 LOG4 PUSH1 0x0 SWAP1 DUP2 MSTORE PUSH1 0x0 DUP1 MLOAD PUSH1 0x20 PUSH2 0x271E DUP4 CODECOPY DUP2 MLOAD SWAP2 MSTORE PUSH1 0x20 MSTORE PUSH1 0x40 SWAP1 KECCAK256 DUP1 SLOAD PUSH1 0x1 PUSH1 0x1 PUSH1 0xA0 SHL SUB NOT AND PUSH1 0x1 PUSH1 0x1 PUSH1 0xA0 SHL SUB SWAP1 SWAP3 AND SWAP2 SWAP1 SWAP2 OR SWAP1 SSTORE STOP JUMPDEST PUSH4 0xA9FBF51F PUSH1 0xE0 SHL PUSH1 0x0 MSTORE CALLER PUSH1 0x4 MSTORE PUSH1 0x24 PUSH1 0x0 REVERT JUMPDEST POP PUSH2 0x1A4D DUP2 PUSH2 0x1DA4 JUMP JUMPDEST CALLER PUSH1 0x0 SWAP1 DUP2 MSTORE PUSH1 0x20 SWAP2 SWAP1 SWAP2 MSTORE PUSH1 0x40 SWAP1 KECCAK256 SLOAD PUSH1 0xFF AND ISZERO PUSH2 0x19BC JUMP JUMPDEST POP PUSH1 0x1 PUSH1 0x1 PUSH1 0xA0 SHL SUB DUP2 AND CALLER EQ ISZERO PUSH2 0x19B6 JUMP JUMPDEST CALLVALUE PUSH2 0x194 JUMPI PUSH1 0x20 CALLDATASIZE PUSH1 0x3 NOT ADD SLT PUSH2 0x194 JUMPI PUSH1 0x20 PUSH2 0x115F PUSH1 0x4 CALLDATALOAD PUSH2 0x1A9C DUP2 PUSH2 0x22B2 JUMP JUMPDEST POP PUSH1 0x0 SWAP1 DUP2 MSTORE PUSH1 0x0 DUP1 MLOAD PUSH1 0x20 PUSH2 0x271E DUP4 CODECOPY DUP2 MLOAD SWAP2 MSTORE PUSH1 0x20 MSTORE PUSH1 0x40 SWAP1 KECCAK256 SLOAD PUSH1 0x1 PUSH1 0x1 PUSH1 0xA0 SHL SUB AND SWAP1 JUMP JUMPDEST CALLVALUE PUSH2 0x194 JUMPI PUSH1 0x0 CALLDATASIZE PUSH1 0x3 NOT ADD SLT PUSH2 0x194 JUMPI PUSH1 0x40 MLOAD PUSH1 0x0 PUSH1 0x0 DUP1 MLOAD PUSH1 0x20 PUSH2 0x265E DUP4 CODECOPY DUP2 MLOAD SWAP2 MSTORE SLOAD PUSH2 0x1AF4 DUP2 PUSH2 0x1E16 JUMP JUMPDEST DUP1 DUP5 MSTORE SWAP1 PUSH1 0x1 DUP2 AND SWAP1 DUP2 ISZERO PUSH2 0x997 JUMPI POP PUSH1 0x1 EQ PUSH2 0x1B1B JUMPI PUSH2 0x286 DUP4 PUSH2 0x272 DUP2 DUP6 SUB DUP3 PUSH2 0x1CE2 JUMP JUMPDEST PUSH1 0x0 DUP1 MLOAD PUSH1 0x20 PUSH2 0x265E DUP4 CODECOPY DUP2 MLOAD SWAP2 MSTORE PUSH1 0x0 SWAP1 DUP2 MSTORE PUSH1 0x0 DUP1 MLOAD PUSH1 0x20 PUSH2 0x277E DUP4 CODECOPY DUP2 MLOAD SWAP2 MSTORE SWAP4 SWAP3 POP SWAP1 JUMPDEST DUP1 DUP3 LT PUSH2 0x1B5B JUMPI POP SWAP1 SWAP2 POP DUP2 ADD PUSH1 0x20 ADD PUSH2 0x272 PUSH2 0x91B JUMP JUMPDEST SWAP2 SWAP3 PUSH1 0x1 DUP2 PUSH1 0x20 SWAP3 SLOAD DUP4 DUP6 DUP9 ADD ADD MSTORE ADD SWAP2 ADD SWAP1 SWAP3 SWAP2 PUSH2 0x1B43 JUMP JUMPDEST CALLVALUE PUSH2 0x194 JUMPI PUSH1 0x20 CALLDATASIZE PUSH1 0x3 NOT ADD SLT PUSH2 0x194 JUMPI PUSH1 0x4 CALLDATALOAD SWAP1 PUSH4 0xFFFFFFFF PUSH1 0xE0 SHL DUP3 AND DUP1 SWAP3 SUB PUSH2 0x194 JUMPI PUSH1 0x20 SWAP2 PUSH4 0x24832483 PUSH1 0xE1 SHL DUP2 EQ SWAP1 DUP2 ISZERO PUSH2 0x1BB7 JUMPI JUMPDEST POP ISZERO ISZERO DUP2 MSTORE RETURN JUMPDEST PUSH4 0x780E9D63 PUSH1 0xE0 SHL DUP2 EQ SWAP2 POP DUP2 ISZERO PUSH2 0x1BD1 JUMPI JUMPDEST POP DUP4 PUSH2 0x1BB0 JUMP JUMPDEST PUSH4 0x80AC58CD PUSH1 0xE0 SHL DUP2 EQ SWAP2 POP DUP2 ISZERO PUSH2 0x1C03 JUMPI JUMPDEST DUP2 ISZERO PUSH2 0x1BF2 JUMPI JUMPDEST POP DUP4 PUSH2 0x1BCA JUMP JUMPDEST PUSH4 0x1FFC9A7 PUSH1 0xE0 SHL EQ SWAP1 POP DUP4 PUSH2 0x1BEB JUMP JUMPDEST PUSH4 0x5B5E139F PUSH1 0xE0 SHL DUP2 EQ SWAP2 POP PUSH2 0x1BE4 JUMP JUMPDEST SWAP2 SWAP1 DUP3 MLOAD DUP1 DUP3 MSTORE PUSH1 0x20 DUP1 DUP4 ADD SWAP5 ADD PUSH1 0x0 JUMPDEST DUP3 DUP2 LT PUSH2 0x1C43 JUMPI POP POP PUSH1 0x0 DUP2 PUSH1 0x20 SWAP5 SWAP6 ADD MSTORE PUSH1 0x1F DUP1 NOT SWAP2 ADD AND ADD ADD SWAP1 JUMP JUMPDEST DUP2 DUP2 ADD MLOAD DUP7 DUP3 ADD MSTORE PUSH1 0x20 ADD PUSH2 0x1C25 JUMP JUMPDEST PUSH1 0x4 CALLDATALOAD SWAP1 PUSH1 0x1 PUSH1 0x1 PUSH1 0xA0 SHL SUB DUP3 AND DUP3 SUB PUSH2 0x194 JUMPI JUMP JUMPDEST PUSH1 0x24 CALLDATALOAD SWAP1 PUSH1 0x1 PUSH1 0x1 PUSH1 0xA0 SHL SUB DUP3 AND DUP3 SUB PUSH2 0x194 JUMPI JUMP JUMPDEST PUSH1 0x60 SWAP1 PUSH1 0x3 NOT ADD SLT PUSH2 0x194 JUMPI PUSH1 0x4 CALLDATALOAD PUSH1 0x1 PUSH1 0x1 PUSH1 0xA0 SHL SUB DUP2 AND DUP2 SUB PUSH2 0x194 JUMPI SWAP1 PUSH1 0x24 CALLDATALOAD PUSH1 0x1 PUSH1 0x1 PUSH1 0xA0 SHL SUB DUP2 AND DUP2 SUB PUSH2 0x194 JUMPI SWAP1 PUSH1 0x44 CALLDATALOAD SWAP1 JUMP JUMPDEST SWAP2 SWAP1 PUSH1 0x20 DUP4 ADD SWAP3 PUSH1 0x4 DUP3 LT ISZERO PUSH2 0x1CCC JUMPI MSTORE JUMP JUMPDEST PUSH4 0x4E487B71 PUSH1 0xE0 SHL PUSH1 0x0 MSTORE PUSH1 0x21 PUSH1 0x4 MSTORE PUSH1 0x24 PUSH1 0x0 REVERT JUMPDEST SWAP1 PUSH1 0x1F DUP1 NOT SWAP2 ADD AND DUP2 ADD SWAP1 DUP2 LT PUSH8 0xFFFFFFFFFFFFFFFF DUP3 GT OR PUSH2 0x5D8 JUMPI PUSH1 0x40 MSTORE JUMP JUMPDEST PUSH8 0xFFFFFFFFFFFFFFFF DUP2 GT PUSH2 0x5D8 JUMPI PUSH1 0x1F ADD PUSH1 0x1F NOT AND PUSH1 0x20 ADD SWAP1 JUMP JUMPDEST SWAP3 SWAP2 SWAP3 PUSH2 0x1D2C DUP3 PUSH2 0x1D04 JUMP JUMPDEST SWAP2 PUSH2 0x1D3A PUSH1 0x40 MLOAD SWAP4 DUP5 PUSH2 0x1CE2 JUMP JUMPDEST DUP3 SWAP5 DUP2 DUP5 MSTORE DUP2 DUP4 ADD GT PUSH2 0x194 JUMPI DUP3 DUP2 PUSH1 0x20 SWAP4 DUP5 PUSH1 0x0 SWAP7 ADD CALLDATACOPY ADD ADD MSTORE JUMP JUMPDEST SWAP1 DUP1 PUSH1 0x1F DUP4 ADD SLT ISZERO PUSH2 0x194 JUMPI DUP2 PUSH1 0x20 PUSH2 0x1D72 SWAP4 CALLDATALOAD SWAP2 ADD PUSH2 0x1D20 JUMP JUMPDEST SWAP1 JUMP JUMPDEST PUSH1 0x40 SWAP1 PUSH1 0x3 NOT ADD SLT PUSH2 0x194 JUMPI PUSH1 0x4 CALLDATALOAD PUSH1 0x1 PUSH1 0x1 PUSH1 0xA0 SHL SUB DUP2 AND DUP2 SUB PUSH2 0x194 JUMPI SWAP1 PUSH1 0x24 CALLDATALOAD DUP1 ISZERO ISZERO DUP2 SUB PUSH2 0x194 JUMPI SWAP1 JUMP JUMPDEST PUSH1 0x1 PUSH1 0x1 PUSH1 0xA0 SHL SUB AND PUSH1 0x0 SWAP1 DUP2 MSTORE PUSH32 0x80BB2B638CC20BC4D0A60D66940F3AB4A00C1D7B313497CA82FB0B4AB0079305 PUSH1 0x20 MSTORE PUSH1 0x40 SWAP1 KECCAK256 SWAP1 JUMP JUMPDEST PUSH1 0x1 PUSH1 0x1 PUSH1 0xA0 SHL SUB AND PUSH1 0x0 SWAP1 DUP2 MSTORE PUSH32 0x80BB2B638CC20BC4D0A60D66940F3AB4A00C1D7B313497CA82FB0B4AB0079303 PUSH1 0x20 MSTORE PUSH1 0x40 SWAP1 KECCAK256 SWAP1 JUMP JUMPDEST SWAP1 PUSH1 0x1 DUP3 DUP2 SHR SWAP3 AND DUP1 ISZERO PUSH2 0x1E46 JUMPI JUMPDEST PUSH1 0x20 DUP4 LT EQ PUSH2 0x1E30 JUMPI JUMP JUMPDEST PUSH4 0x4E487B71 PUSH1 0xE0 SHL PUSH1 0x0 MSTORE PUSH1 0x22 PUSH1 0x4 MSTORE PUSH1 0x24 PUSH1 0x0 REVERT JUMPDEST SWAP2 PUSH1 0x7F AND SWAP2 PUSH2 0x1E25 JUMP JUMPDEST SWAP1 SWAP2 SWAP1 PUSH1 0x1 PUSH1 0x1 PUSH1 0xA0 SHL SUB DUP4 AND DUP1 ISZERO PUSH2 0x10A3 JUMPI PUSH1 0x0 SWAP1 PUSH2 0x1E6F DUP5 PUSH2 0x2535 JUMP JUMPDEST SWAP2 CALLER ISZERO ISZERO DUP1 PUSH2 0x20B0 JUMPI JUMPDEST POP PUSH1 0x1 PUSH1 0x1 PUSH1 0xA0 SHL SUB DUP4 AND SWAP6 DUP7 ISZERO DUP1 ISZERO PUSH2 0x2091 JUMPI JUMPDEST PUSH2 0x1E97 DUP3 PUSH2 0x1DDD JUMP JUMPDEST DUP1 SLOAD PUSH1 0x1 ADD SWAP1 SSTORE DUP7 DUP4 MSTORE PUSH1 0x0 DUP1 MLOAD PUSH1 0x20 PUSH2 0x26FE DUP4 CODECOPY DUP2 MLOAD SWAP2 MSTORE PUSH1 0x20 MSTORE PUSH1 0x40 DUP4 KECCAK256 DUP1 SLOAD PUSH1 0x1 PUSH1 0x1 PUSH1 0xA0 SHL SUB NOT AND DUP6 OR SWAP1 SSTORE DUP7 DUP5 DUP10 PUSH32 0xDDF252AD1BE2C89B69C2B068FC378DAA952BA7F163C4A11628F55A4DF523B3EF DUP7 DUP1 LOG4 ISZERO PUSH2 0x1FE0 JUMPI PUSH1 0x0 DUP1 MLOAD PUSH1 0x20 PUSH2 0x26DE DUP4 CODECOPY DUP2 MLOAD SWAP2 MSTORE SLOAD DUP7 DUP4 MSTORE PUSH1 0x0 DUP1 MLOAD PUSH1 0x20 PUSH2 0x269E DUP4 CODECOPY DUP2 MLOAD SWAP2 MSTORE PUSH1 0x20 MSTORE DUP1 PUSH1 0x40 DUP5 KECCAK256 SSTORE PUSH1 0x1 PUSH1 0x40 SHL DUP2 LT ISZERO PUSH2 0xFDF JUMPI DUP7 PUSH2 0xC42 DUP3 PUSH1 0x1 PUSH2 0x1F4B SWAP5 ADD PUSH1 0x0 DUP1 MLOAD PUSH1 0x20 PUSH2 0x26DE DUP4 CODECOPY DUP2 MLOAD SWAP2 MSTORE SSTORE PUSH2 0x21D5 JUMP JUMPDEST DUP3 DUP8 SUB PUSH2 0x1F85 JUMPI JUMPDEST POP POP POP POP PUSH1 0x1 DUP1 PUSH1 0xA0 SHL SUB AND DUP1 DUP4 SUB PUSH2 0x1F6B JUMPI POP POP POP JUMP JUMPDEST PUSH4 0x64283D7B PUSH1 0xE0 SHL PUSH1 0x0 MSTORE PUSH1 0x4 MSTORE PUSH1 0x24 MSTORE PUSH1 0x44 MSTORE PUSH1 0x64 PUSH1 0x0 REVERT JUMPDEST PUSH2 0x1F8E SWAP1 PUSH2 0x220A JUMP JUMPDEST PUSH1 0x0 NOT DUP2 ADD SWAP3 SWAP1 DUP4 GT PUSH2 0x1688 JUMPI SWAP1 PUSH1 0x40 SWAP2 DUP2 MSTORE PUSH1 0x0 DUP1 MLOAD PUSH1 0x20 PUSH2 0x263E DUP4 CODECOPY DUP2 MLOAD SWAP2 MSTORE PUSH1 0x20 MSTORE DUP2 DUP2 KECCAK256 DUP4 DUP3 MSTORE PUSH1 0x20 MSTORE DUP6 DUP3 DUP3 KECCAK256 SSTORE DUP6 DUP2 MSTORE PUSH1 0x0 DUP1 MLOAD PUSH1 0x20 PUSH2 0x261E DUP4 CODECOPY DUP2 MLOAD SWAP2 MSTORE PUSH1 0x20 MSTORE KECCAK256 SSTORE CODESIZE DUP1 DUP1 PUSH2 0x1F53 JUMP JUMPDEST DUP7 DUP4 EQ PUSH2 0x1F4B JUMPI PUSH2 0x1FF0 DUP5 PUSH2 0x220A JUMP JUMPDEST DUP7 DUP4 MSTORE PUSH1 0x0 DUP1 MLOAD PUSH1 0x20 PUSH2 0x261E DUP4 CODECOPY DUP2 MLOAD SWAP2 MSTORE PUSH1 0x20 MSTORE PUSH1 0x40 DUP4 KECCAK256 SLOAD SWAP1 DUP9 DUP5 MSTORE PUSH1 0x0 DUP1 MLOAD PUSH1 0x20 PUSH2 0x263E DUP4 CODECOPY DUP2 MLOAD SWAP2 MSTORE PUSH1 0x20 MSTORE PUSH1 0x40 DUP5 KECCAK256 SWAP2 DUP2 DUP2 SUB PUSH2 0x2059 JUMPI JUMPDEST POP DUP8 DUP5 MSTORE PUSH1 0x0 DUP1 MLOAD PUSH1 0x20 PUSH2 0x261E DUP4 CODECOPY DUP2 MLOAD SWAP2 MSTORE PUSH1 0x20 MSTORE DUP4 PUSH1 0x40 DUP2 KECCAK256 SSTORE DUP4 MSTORE PUSH1 0x20 MSTORE DUP2 PUSH1 0x40 DUP2 KECCAK256 SSTORE PUSH2 0x1F4B JUMP JUMPDEST DUP2 DUP6 MSTORE DUP3 PUSH1 0x20 MSTORE PUSH1 0x40 DUP6 KECCAK256 SLOAD DUP2 DUP7 MSTORE DUP4 PUSH1 0x20 MSTORE DUP1 PUSH1 0x40 DUP8 KECCAK256 SSTORE DUP6 MSTORE PUSH1 0x0 DUP1 MLOAD PUSH1 0x20 PUSH2 0x261E DUP4 CODECOPY DUP2 MLOAD SWAP2 MSTORE PUSH1 0x20 MSTORE PUSH1 0x40 DUP6 KECCAK256 SSTORE CODESIZE PUSH2 0x202D JUMP JUMPDEST PUSH2 0x209A DUP8 PUSH2 0x255D JUMP JUMPDEST PUSH2 0x20A3 DUP6 PUSH2 0x1DDD JUMP JUMPDEST DUP1 SLOAD PUSH1 0x0 NOT ADD SWAP1 SSTORE PUSH2 0x1E8E JUMP JUMPDEST DUP1 PUSH2 0x20F9 JUMPI JUMPDEST ISZERO PUSH2 0x20C1 JUMPI CODESIZE PUSH2 0x1E79 JUMP JUMPDEST SWAP3 POP POP PUSH1 0x1 PUSH1 0x1 PUSH1 0xA0 SHL SUB AND PUSH2 0x20E3 JUMPI PUSH1 0x24 SWAP2 PUSH4 0x7E273289 PUSH1 0xE0 SHL DUP3 MSTORE PUSH1 0x4 MSTORE REVERT JUMPDEST PUSH1 0x44 SWAP2 PUSH4 0x177E802F PUSH1 0xE0 SHL DUP3 MSTORE CALLER PUSH1 0x4 MSTORE PUSH1 0x24 MSTORE REVERT JUMPDEST POP PUSH1 0x1 PUSH1 0x1 PUSH1 0xA0 SHL SUB DUP4 AND CALLER EQ DUP1 ISZERO PUSH2 0x213F JUMPI JUMPDEST DUP1 PUSH2 0x20B6 JUMPI POP PUSH1 0x0 DUP6 DUP2 MSTORE PUSH1 0x0 DUP1 MLOAD PUSH1 0x20 PUSH2 0x271E DUP4 CODECOPY DUP2 MLOAD SWAP2 MSTORE PUSH1 0x20 MSTORE PUSH1 0x40 SWAP1 KECCAK256 SLOAD PUSH1 0x1 PUSH1 0x1 PUSH1 0xA0 SHL SUB AND CALLER EQ PUSH2 0x20B6 JUMP JUMPDEST POP PUSH2 0x2149 DUP4 PUSH2 0x1DA4 JUMP JUMPDEST CALLER DUP3 MSTORE PUSH1 0x20 MSTORE PUSH1 0x40 DUP2 KECCAK256 SLOAD PUSH1 0xFF AND PUSH2 0x210D JUMP JUMPDEST PUSH2 0x2165 DUP2 PUSH2 0x220A JUMP JUMPDEST DUP3 LT ISZERO PUSH2 0x219E JUMPI PUSH1 0x1 DUP1 PUSH1 0xA0 SHL SUB AND PUSH1 0x0 MSTORE PUSH1 0x0 DUP1 MLOAD PUSH1 0x20 PUSH2 0x263E DUP4 CODECOPY DUP2 MLOAD SWAP2 MSTORE PUSH1 0x20 MSTORE PUSH1 0x40 PUSH1 0x0 KECCAK256 SWAP1 PUSH1 0x0 MSTORE PUSH1 0x20 MSTORE PUSH1 0x40 PUSH1 0x0 KECCAK256 SLOAD SWAP1 JUMP JUMPDEST PUSH4 0x295F44F7 PUSH1 0xE2 SHL PUSH1 0x0 MSTORE PUSH1 0x1 DUP1 PUSH1 0xA0 SHL SUB AND PUSH1 0x4 MSTORE PUSH1 0x24 MSTORE PUSH1 0x44 PUSH1 0x0 REVERT JUMPDEST PUSH8 0xFFFFFFFFFFFFFFFF DUP2 GT PUSH2 0x5D8 JUMPI PUSH1 0x5 SHL PUSH1 0x20 ADD SWAP1 JUMP JUMPDEST PUSH1 0x0 DUP1 MLOAD PUSH1 0x20 PUSH2 0x26DE DUP4 CODECOPY DUP2 MLOAD SWAP2 MSTORE SLOAD DUP2 LT ISZERO PUSH2 0x1909 JUMPI PUSH1 0x0 DUP1 MLOAD PUSH1 0x20 PUSH2 0x26DE DUP4 CODECOPY DUP2 MLOAD SWAP2 MSTORE PUSH1 0x0 MSTORE PUSH1 0x20 PUSH1 0x0 KECCAK256 ADD SWAP1 PUSH1 0x0 SWAP1 JUMP JUMPDEST PUSH1 0x1 PUSH1 0x1 PUSH1 0xA0 SHL SUB DUP2 AND ISZERO PUSH2 0x2226 JUMPI PUSH2 0x2222 SWAP1 PUSH2 0x1DDD JUMP JUMPDEST SLOAD SWAP1 JUMP JUMPDEST PUSH4 0x22718AD9 PUSH1 0xE2 SHL PUSH1 0x0 MSTORE PUSH1 0x0 PUSH1 0x4 MSTORE PUSH1 0x24 PUSH1 0x0 REVERT JUMPDEST PUSH1 0x1 PUSH1 0x1 PUSH1 0xA0 SHL SUB AND DUP1 ISZERO PUSH2 0x229C JUMPI PUSH1 0x0 DUP1 MLOAD PUSH1 0x20 PUSH2 0x267E DUP4 CODECOPY DUP2 MLOAD SWAP2 MSTORE DUP1 SLOAD PUSH1 0x1 PUSH1 0x1 PUSH1 0xA0 SHL SUB NOT DUP2 AND DUP4 OR SWAP1 SWAP2 SSTORE PUSH1 0x1 PUSH1 0x1 PUSH1 0xA0 SHL SUB AND PUSH32 0x8BE0079C531659141344CD1FD0A4F28419497F9722A3DAAFE3B4186F6B6457E0 PUSH1 0x0 DUP1 LOG3 JUMP JUMPDEST PUSH4 0x1E4FBDF7 PUSH1 0xE0 SHL PUSH1 0x0 MSTORE PUSH1 0x0 PUSH1 0x4 MSTORE PUSH1 0x24 PUSH1 0x0 REVERT JUMPDEST PUSH2 0x22BB DUP2 PUSH2 0x2535 JUMP JUMPDEST SWAP1 PUSH1 0x1 PUSH1 0x1 PUSH1 0xA0 SHL SUB DUP3 AND ISZERO PUSH2 0x1660 JUMPI POP SWAP1 JUMP JUMPDEST PUSH1 0x0 DUP1 MLOAD PUSH1 0x20 PUSH2 0x267E DUP4 CODECOPY DUP2 MLOAD SWAP2 MSTORE SLOAD PUSH1 0x1 PUSH1 0x1 PUSH1 0xA0 SHL SUB AND CALLER SUB PUSH2 0x22F0 JUMPI JUMP JUMPDEST PUSH4 0x118CDAA7 PUSH1 0xE0 SHL PUSH1 0x0 MSTORE CALLER PUSH1 0x4 MSTORE PUSH1 0x24 PUSH1 0x0 REVERT JUMPDEST RETURNDATASIZE ISZERO PUSH2 0x2330 JUMPI RETURNDATASIZE SWAP1 PUSH2 0x2316 DUP3 PUSH2 0x1D04 JUMP JUMPDEST SWAP2 PUSH2 0x2324 PUSH1 0x40 MLOAD SWAP4 DUP5 PUSH2 0x1CE2 JUMP JUMPDEST DUP3 MSTORE RETURNDATASIZE PUSH1 0x0 PUSH1 0x20 DUP5 ADD RETURNDATACOPY JUMP JUMPDEST PUSH1 0x60 SWAP1 JUMP JUMPDEST DUP3 EXTCODESIZE PUSH2 0x2343 JUMPI JUMPDEST POP POP POP POP POP JUMP JUMPDEST PUSH1 0x40 MLOAD PUSH4 0xA85BD01 PUSH1 0xE1 SHL DUP2 MSTORE PUSH1 0x1 PUSH1 0x1 PUSH1 0xA0 SHL SUB SWAP2 DUP3 AND PUSH1 0x4 DUP3 ADD MSTORE SWAP2 DUP2 AND PUSH1 0x24 DUP4 ADD MSTORE PUSH1 0x44 DUP3 ADD SWAP4 SWAP1 SWAP4 MSTORE PUSH1 0x80 PUSH1 0x64 DUP3 ADD MSTORE SWAP2 AND SWAP2 PUSH1 0x20 SWAP1 DUP3 SWAP1 DUP2 SWAP1 PUSH2 0x238F SWAP1 PUSH1 0x84 DUP4 ADD SWAP1 PUSH2 0x1C14 JUMP JUMPDEST SUB DUP2 PUSH1 0x0 DUP7 GAS CALL DUP1 SWAP2 PUSH1 0x0 SWAP2 PUSH2 0x2407 JUMPI JUMPDEST POP SWAP1 PUSH2 0x23D1 JUMPI POP PUSH2 0x23AF PUSH2 0x2305 JUMP JUMPDEST DUP1 MLOAD SWAP1 DUP2 PUSH2 0x23CC JUMPI DUP3 PUSH4 0x32505749 PUSH1 0xE1 SHL PUSH1 0x0 MSTORE PUSH1 0x4 MSTORE PUSH1 0x24 PUSH1 0x0 REVERT JUMPDEST PUSH1 0x20 ADD REVERT JUMPDEST PUSH1 0x1 PUSH1 0x1 PUSH1 0xE0 SHL SUB NOT AND PUSH4 0x757A42FF PUSH1 0xE1 SHL ADD PUSH2 0x23F3 JUMPI POP CODESIZE DUP1 DUP1 DUP1 DUP1 PUSH2 0x233C JUMP JUMPDEST PUSH4 0x32505749 PUSH1 0xE1 SHL PUSH1 0x0 MSTORE PUSH1 0x4 MSTORE PUSH1 0x24 PUSH1 0x0 REVERT JUMPDEST PUSH1 0x20 DUP2 RETURNDATASIZE PUSH1 0x20 GT PUSH2 0x2442 JUMPI JUMPDEST DUP2 PUSH2 0x2420 PUSH1 0x20 SWAP4 DUP4 PUSH2 0x1CE2 JUMP JUMPDEST DUP2 ADD SUB SLT PUSH2 0xF54 JUMPI MLOAD SWAP1 PUSH1 0x1 PUSH1 0x1 PUSH1 0xE0 SHL SUB NOT DUP3 AND DUP3 SUB PUSH2 0xF51 JUMPI POP CODESIZE PUSH2 0x23A0 JUMP JUMPDEST RETURNDATASIZE SWAP2 POP PUSH2 0x2413 JUMP JUMPDEST PUSH2 0x2453 DUP2 PUSH2 0x22B2 JUMP JUMPDEST POP PUSH1 0x0 MSTORE PUSH32 0x542A41881EE128A365A727B282C86FA859579490B9BB45AAB8503648C8E7900 PUSH1 0x20 MSTORE PUSH1 0x40 PUSH1 0x0 KECCAK256 PUSH1 0x40 MLOAD SWAP1 DUP2 PUSH1 0x0 DUP3 SLOAD SWAP3 PUSH2 0x2493 DUP5 PUSH2 0x1E16 JUMP JUMPDEST DUP1 DUP5 MSTORE SWAP4 PUSH1 0x1 DUP2 AND SWAP1 DUP2 ISZERO PUSH2 0x2513 JUMPI POP PUSH1 0x1 EQ PUSH2 0x24CC JUMPI JUMPDEST POP PUSH2 0x24B8 SWAP3 POP SUB DUP3 PUSH2 0x1CE2 JUMP JUMPDEST PUSH1 0x0 PUSH1 0x40 MLOAD PUSH2 0x24C8 PUSH1 0x20 DUP3 PUSH2 0x1CE2 JUMP JUMPDEST MSTORE SWAP1 JUMP JUMPDEST SWAP1 POP PUSH1 0x0 SWAP3 SWAP2 SWAP3 MSTORE PUSH1 0x20 PUSH1 0x0 KECCAK256 SWAP1 PUSH1 0x0 SWAP2 JUMPDEST DUP2 DUP4 LT PUSH2 0x24F7 JUMPI POP POP SWAP1 PUSH1 0x20 PUSH2 0x24B8 SWAP3 DUP3 ADD ADD CODESIZE PUSH2 0x24AB JUMP JUMPDEST PUSH1 0x20 SWAP2 SWAP4 POP DUP1 PUSH1 0x1 SWAP2 SLOAD DUP4 DUP6 DUP9 ADD ADD MSTORE ADD SWAP2 ADD SWAP1 SWAP2 DUP4 SWAP3 PUSH2 0x24DE JUMP JUMPDEST SWAP1 POP PUSH1 0x20 SWAP3 POP PUSH2 0x24B8 SWAP5 SWAP2 POP PUSH1 0xFF NOT AND DUP3 DUP5 ADD MSTORE ISZERO ISZERO PUSH1 0x5 SHL DUP3 ADD ADD CODESIZE PUSH2 0x24AB JUMP JUMPDEST PUSH1 0x0 SWAP1 DUP2 MSTORE PUSH1 0x0 DUP1 MLOAD PUSH1 0x20 PUSH2 0x26FE DUP4 CODECOPY DUP2 MLOAD SWAP2 MSTORE PUSH1 0x20 MSTORE PUSH1 0x40 SWAP1 KECCAK256 SLOAD PUSH1 0x1 PUSH1 0x1 PUSH1 0xA0 SHL SUB AND SWAP1 JUMP JUMPDEST PUSH1 0x0 MSTORE PUSH1 0x0 DUP1 MLOAD PUSH1 0x20 PUSH2 0x271E DUP4 CODECOPY DUP2 MLOAD SWAP2 MSTORE PUSH1 0x20 MSTORE PUSH1 0x40 PUSH1 0x0 KECCAK256 PUSH12 0xFFFFFFFFFFFFFFFFFFFFFFFF PUSH1 0xA0 SHL DUP2 SLOAD AND SWAP1 SSTORE JUMP JUMPDEST PUSH1 0xFF PUSH1 0x0 DUP1 MLOAD PUSH1 0x20 PUSH2 0x273E DUP4 CODECOPY DUP2 MLOAD SWAP2 MSTORE SLOAD PUSH1 0x40 SHR AND ISZERO PUSH2 0x25AB JUMPI JUMP JUMPDEST PUSH4 0x1AFCD79F PUSH1 0xE3 SHL PUSH1 0x0 MSTORE PUSH1 0x4 PUSH1 0x0 REVERT JUMPDEST SWAP1 PUSH2 0x25E2 JUMPI POP DUP1 MLOAD ISZERO PUSH2 0x25D1 JUMPI PUSH1 0x20 DUP2 MLOAD SWAP2 ADD REVERT JUMPDEST PUSH4 0xD6BDA275 PUSH1 0xE0 SHL PUSH1 0x0 MSTORE PUSH1 0x4 PUSH1 0x0 REVERT JUMPDEST DUP2 MLOAD ISZERO DUP1 PUSH2 0x2614 JUMPI JUMPDEST PUSH2 0x25F3 JUMPI POP SWAP1 JUMP JUMPDEST PUSH4 0x9996B315 PUSH1 0xE0 SHL PUSH1 0x0 SWAP1 DUP2 MSTORE PUSH1 0x1 PUSH1 0x1 PUSH1 0xA0 SHL SUB SWAP2 SWAP1 SWAP2 AND PUSH1 0x4 MSTORE PUSH1 0x24 SWAP1 REVERT JUMPDEST POP DUP1 EXTCODESIZE ISZERO PUSH2 0x25EB JUMP INVALID PUSH5 0x5E03970549 STOP DUP9 0xDA 0xAD DUP10 0xBA 0xE2 POP BLOBHASH LOG3 0x4F BLOBBASEFEE SWAP1 PUSH19 0xD398537B1AB2425F24CBED01645E0397054900 DUP9 0xDA 0xAD DUP10 0xBA 0xE2 POP BLOBHASH LOG3 0x4F BLOBBASEFEE SWAP1 PUSH19 0xD398537B1AB2425F24CBED0080BB2B638CC20B 0xC4 0xD0 0xA6 0xD PUSH7 0x940F3AB4A00C1D PUSH28 0x313497CA82FB0B4AB00793009016D09D72D40FDAE2FD8CEAC6B6234C PUSH24 0x6214FD39C1CD1E609A0528C199300645E039705490088DA 0xAD DUP10 0xBA 0xE2 POP BLOBHASH LOG3 0x4F BLOBBASEFEE SWAP1 PUSH19 0xD398537B1AB2425F24CBED03360894A13BA1A3 0x21 MOD PUSH8 0xC828492DB98DCA3E KECCAK256 PUSH23 0xCC3735A920A3CA505D382BBC645E039705490088DAAD89 0xBA 0xE2 POP BLOBHASH LOG3 0x4F BLOBBASEFEE SWAP1 PUSH19 0xD398537B1AB2425F24CBED0280BB2B638CC20B 0xC4 0xD0 0xA6 0xD PUSH7 0x940F3AB4A00C1D PUSH28 0x313497CA82FB0B4AB007930280BB2B638CC20BC4D0A60D66940F3AB4 LOG0 0xC SAR PUSH28 0x313497CA82FB0B4AB0079304F0C57E16840DF040F15088DC2F81FE39 SHR CODECOPY 0x23 0xBE 0xC7 RETURNDATACOPY 0x23 0xA9 PUSH7 0x2EFC9C229C6A00 DUP1 0xBB 0x2B PUSH4 0x8CC20BC4 0xD0 0xA6 0xD PUSH7 0x940F3AB4A00C1D PUSH28 0x313497CA82FB0B4AB007930137C58C799B6609234B945E882912EE9A 0xD3 BLOBHASH BASEFEE LOG1 0xDF 0xAA KECCAK256 0xA9 PUSH21 0x85E1A7752BBF81A26469706673582212205208D94A PUSH27 0xBF5DEA818ABC73C3425BAA270CFFC600D22F5DB63DA3221B2881AB PUSH5 0x736F6C6343 STOP ADDMOD SHR STOP CALLER "},"methodIdentifiers":{"UPGRADE_INTERFACE_VERSION()":"ad3cb1cc","approve(address,uint256)":"095ea7b3","authorizedMinters(address)":"aa2fe91b","balanceOf(address)":"70a08231","burn(uint256)":"42966c68","getApproved(uint256)":"081812fc","getTokensByOwner(address)":"40398d67","initialize(address)":"c4d66de8","isApprovedForAll(address,address)":"e985e9c5","licenseTypes(uint256)":"497b407c","mint(address,string,uint8)":"6a4b8883","name()":"06fdde03","nextTokenId()":"75794a3c","owner()":"8da5cb5b","ownerOf(uint256)":"6352211e","proxiableUUID()":"52d1902d","renounceOwnership()":"715018a6","safeTransferFrom(address,address,uint256)":"42842e0e","safeTransferFrom(address,address,uint256,bytes)":"b88d4fde","setApprovalForAll(address,bool)":"a22cb465","setMinter(address,bool)":"cf456ae7","supportsInterface(bytes4)":"01ffc9a7","symbol()":"95d89b41","tokenByIndex(uint256)":"4f6ccce7","tokenOfOwnerByIndex(address,uint256)":"2f745c59","tokenURI(uint256)":"c87b56dd","totalSupply()":"18160ddd","transferFrom(address,address,uint256)":"23b872dd","transferOwnership(address)":"f2fde38b","upgradeToAndCall(address,bytes)":"4f1ef286"}},"storageLayout":{"storage":[{"astId":11159,"contract":"contracts/FeederLicense.sol:FeederLicense","label":"_nextTokenId","offset":0,"slot":"0","type":"t_uint256"},{"astId":11164,"contract":"contracts/FeederLicense.sol:FeederLicense","label":"authorizedMinters","offset":0,"slot":"1","type":"t_mapping(t_address,t_bool)"},{"astId":11176,"contract":"contracts/FeederLicense.sol:FeederLicense","label":"licenseTypes","offset":0,"slot":"2","type":"t_mapping(t_uint256,t_enum(LicenseType)11170)"}],"types":{"t_address":{"encoding":"inplace","label":"address","numberOfBytes":"20"},"t_bool":{"encoding":"inplace","label":"bool","numberOfBytes":"1"},"t_enum(LicenseType)11170":{"encoding":"inplace","label":"enum FeederLicense.LicenseType","numberOfBytes":"1"},"t_mapping(t_address,t_bool)":{"encoding":"mapping","key":"t_address","label":"mapping(address => bool)","numberOfBytes":"32","value":"t_bool"},"t_mapping(t_uint256,t_enum(LicenseType)11170)":{"encoding":"mapping","key":"t_uint256","label":"mapping(uint256 => enum FeederLicense.LicenseType)","numberOfBytes":"32","value":"t_enum(LicenseType)11170"},"t_uint256":{"encoding":"inplace","label":"uint256","numberOfBytes":"32"}}}}}}