{"contracts/RewardPenalty.sol":{"RewardPenalty":{"abi":[{"inputs":[],"stateMutability":"nonpayable","type":"constructor"},{"inputs":[{"internalType":"address","name":"target","type":"address"}],"name":"AddressEmptyCode","type":"error"},{"inputs":[{"internalType":"address","name":"implementation","type":"address"}],"name":"ERC1967InvalidImplementation","type":"error"},{"inputs":[],"name":"ERC1967NonPayable","type":"error"},{"inputs":[],"name":"FailedCall","type":"error"},{"inputs":[],"name":"InvalidInitialization","type":"error"},{"inputs":[],"name":"NotInitializing","type":"error"},{"inputs":[{"internalType":"address","name":"owner","type":"address"}],"name":"OwnableInvalidOwner","type":"error"},{"inputs":[{"internalType":"address","name":"account","type":"address"}],"name":"OwnableUnauthorizedAccount","type":"error"},{"inputs":[],"name":"ReentrancyGuardReentrantCall","type":"error"},{"inputs":[],"name":"UUPSUnauthorizedCallContext","type":"error"},{"inputs":[{"internalType":"bytes32","name":"slot","type":"bytes32"}],"name":"UUPSUnsupportedProxiableUUID","type":"error"},{"anonymous":false,"inputs":[{"indexed":true,"internalType":"address","name":"feeder","type":"address"},{"indexed":false,"internalType":"uint256","name":"until","type":"uint256"}],"name":"FeederBanned","type":"event"},{"anonymous":false,"inputs":[{"indexed":true,"internalType":"address","name":"feeder","type":"address"}],"name":"FeederPermanentlyBanned","type":"event"},{"anonymous":false,"inputs":[{"indexed":false,"internalType":"uint64","name":"version","type":"uint64"}],"name":"Initialized","type":"event"},{"anonymous":false,"inputs":[{"indexed":true,"internalType":"address","name":"operator","type":"address"},{"indexed":false,"internalType":"bool","name":"authorized","type":"bool"}],"name":"OperatorUpdated","type":"event"},{"anonymous":false,"inputs":[{"indexed":true,"internalType":"address","name":"previousOwner","type":"address"},{"indexed":true,"internalType":"address","name":"newOwner","type":"address"}],"name":"OwnershipTransferred","type":"event"},{"anonymous":false,"inputs":[{"indexed":true,"internalType":"address","name":"feeder","type":"address"},{"indexed":false,"internalType":"enum RewardPenalty.PenaltyLevel","name":"level","type":"uint8"},{"indexed":false,"internalType":"uint256","name":"slashedAmount","type":"uint256"},{"indexed":false,"internalType":"string","name":"reason","type":"string"}],"name":"PenaltyApplied","type":"event"},{"anonymous":false,"inputs":[{"indexed":true,"internalType":"address","name":"feeder","type":"address"},{"indexed":false,"internalType":"uint256","name":"amount","type":"uint256"}],"name":"RewardClaimed","type":"event"},{"anonymous":false,"inputs":[{"indexed":true,"internalType":"bytes32","name":"orderId","type":"bytes32"},{"indexed":false,"internalType":"uint256","name":"totalAmount","type":"uint256"},{"indexed":false,"internalType":"uint256","name":"feederAmount","type":"uint256"},{"indexed":false,"internalType":"uint256","name":"platformAmount","type":"uint256"},{"indexed":false,"internalType":"uint256","name":"daoAmount","type":"uint256"},{"indexed":false,"internalType":"uint256","name":"burnAmount","type":"uint256"}],"name":"RewardDistributed","type":"event"},{"anonymous":false,"inputs":[{"indexed":true,"internalType":"address","name":"implementation","type":"address"}],"name":"Upgraded","type":"event"},{"inputs":[],"name":"UPGRADE_INTERFACE_VERSION","outputs":[{"internalType":"string","name":"","type":"string"}],"stateMutability":"view","type":"function"},{"inputs":[{"internalType":"address","name":"feeder","type":"address"},{"internalType":"enum RewardPenalty.PenaltyLevel","name":"level","type":"uint8"},{"internalType":"string","name":"reason","type":"string"},{"internalType":"uint256","name":"stakedAmount","type":"uint256"}],"name":"applyPenalty","outputs":[{"internalType":"uint256","name":"slashedAmount","type":"uint256"}],"stateMutability":"nonpayable","type":"function"},{"inputs":[{"internalType":"address","name":"","type":"address"}],"name":"authorizedOperators","outputs":[{"internalType":"bool","name":"","type":"bool"}],"stateMutability":"view","type":"function"},{"inputs":[{"internalType":"address","name":"","type":"address"}],"name":"banUntil","outputs":[{"internalType":"uint256","name":"","type":"uint256"}],"stateMutability":"view","type":"function"},{"inputs":[{"internalType":"address","name":"feeder","type":"address"}],"name":"canGrabOrder","outputs":[{"internalType":"bool","name":"","type":"bool"}],"stateMutability":"view","type":"function"},{"inputs":[],"name":"claimRewards","outputs":[],"stateMutability":"nonpayable","type":"function"},{"inputs":[],"name":"daoTreasury","outputs":[{"internalType":"address","name":"","type":"address"}],"stateMutability":"view","type":"function"},{"inputs":[{"internalType":"bytes32","name":"orderId","type":"bytes32"},{"internalType":"address[]","name":"feeders","type":"address[]"},{"internalType":"uint256","name":"totalReward","type":"uint256"}],"name":"distributeRewards","outputs":[],"stateMutability":"nonpayable","type":"function"},{"inputs":[],"name":"feedToken","outputs":[{"internalType":"contract IERC20","name":"","type":"address"}],"stateMutability":"view","type":"function"},{"inputs":[{"internalType":"address","name":"feeder","type":"address"}],"name":"getPenaltyCount","outputs":[{"internalType":"uint256","name":"","type":"uint256"}],"stateMutability":"view","type":"function"},{"inputs":[{"internalType":"address","name":"feeder","type":"address"},{"internalType":"uint256","name":"index","type":"uint256"}],"name":"getPenaltyRecord","outputs":[{"internalType":"enum RewardPenalty.PenaltyLevel","name":"level","type":"uint8"},{"internalType":"string","name":"reason","type":"string"},{"internalType":"uint256","name":"slashedAmount","type":"uint256"},{"internalType":"uint256","name":"timestamp","type":"uint256"}],"stateMutability":"view","type":"function"},{"inputs":[{"internalType":"address","name":"owner_","type":"address"},{"internalType":"address","name":"feedToken_","type":"address"},{"internalType":"address","name":"platformTreasury_","type":"address"},{"internalType":"address","name":"daoTreasury_","type":"address"}],"name":"initialize","outputs":[],"stateMutability":"nonpayable","type":"function"},{"inputs":[],"name":"owner","outputs":[{"internalType":"address","name":"","type":"address"}],"stateMutability":"view","type":"function"},{"inputs":[{"internalType":"enum RewardPenalty.PenaltyLevel","name":"","type":"uint8"}],"name":"penaltyBanDays","outputs":[{"internalType":"uint256","name":"","type":"uint256"}],"stateMutability":"view","type":"function"},{"inputs":[{"internalType":"address","name":"","type":"address"},{"internalType":"uint256","name":"","type":"uint256"}],"name":"penaltyHistory","outputs":[{"internalType":"enum RewardPenalty.PenaltyLevel","name":"level","type":"uint8"},{"internalType":"string","name":"reason","type":"string"},{"internalType":"uint256","name":"slashedAmount","type":"uint256"},{"internalType":"uint256","name":"timestamp","type":"uint256"},{"internalType":"uint256","name":"banUntil","type":"uint256"}],"stateMutability":"view","type":"function"},{"inputs":[{"internalType":"enum RewardPenalty.PenaltyLevel","name":"","type":"uint8"}],"name":"penaltySlashBps","outputs":[{"internalType":"uint256","name":"","type":"uint256"}],"stateMutability":"view","type":"function"},{"inputs":[{"internalType":"address","name":"","type":"address"}],"name":"pendingRewards","outputs":[{"internalType":"uint256","name":"","type":"uint256"}],"stateMutability":"view","type":"function"},{"inputs":[{"internalType":"address","name":"","type":"address"}],"name":"permanentlyBanned","outputs":[{"internalType":"bool","name":"","type":"bool"}],"stateMutability":"view","type":"function"},{"inputs":[],"name":"platformTreasury","outputs":[{"internalType":"address","name":"","type":"address"}],"stateMutability":"view","type":"function"},{"inputs":[],"name":"proxiableUUID","outputs":[{"internalType":"bytes32","name":"","type":"bytes32"}],"stateMutability":"view","type":"function"},{"inputs":[],"name":"renounceOwnership","outputs":[],"stateMutability":"nonpayable","type":"function"},{"inputs":[],"name":"rewardSplit","outputs":[{"internalType":"uint256","name":"feederBps","type":"uint256"},{"internalType":"uint256","name":"platformBps","type":"uint256"},{"internalType":"uint256","name":"daoBps","type":"uint256"},{"internalType":"uint256","name":"burnBps","type":"uint256"}],"stateMutability":"view","type":"function"},{"inputs":[{"internalType":"address","name":"operator","type":"address"},{"internalType":"bool","name":"authorized","type":"bool"}],"name":"setOperator","outputs":[],"stateMutability":"nonpayable","type":"function"},{"inputs":[{"internalType":"address","name":"","type":"address"}],"name":"totalRewardsEarned","outputs":[{"internalType":"uint256","name":"","type":"uint256"}],"stateMutability":"view","type":"function"},{"inputs":[{"internalType":"address","name":"newOwner","type":"address"}],"name":"transferOwnership","outputs":[],"stateMutability":"nonpayable","type":"function"},{"inputs":[{"internalType":"uint256","name":"feederBps","type":"uint256"},{"internalType":"uint256","name":"platformBps","type":"uint256"},{"internalType":"uint256","name":"daoBps","type":"uint256"},{"internalType":"uint256","name":"burnBps","type":"uint256"}],"name":"updateRewardSplit","outputs":[],"stateMutability":"nonpayable","type":"function"},{"inputs":[{"internalType":"address","name":"platform","type":"address"},{"internalType":"address","name":"dao","type":"address"}],"name":"updateTreasuries","outputs":[],"stateMutability":"nonpayable","type":"function"},{"inputs":[{"internalType":"address","name":"newImplementation","type":"address"},{"internalType":"bytes","name":"data","type":"bytes"}],"name":"upgradeToAndCall","outputs":[],"stateMutability":"payable","type":"function"}],"evm":{"bytecode":{"linkReferences":{},"object":"60a080604052346100ea57306080527ff0c57e16840df040f15088dc2f81fe391c3923bec73e23a9662efc9c229c6a005460ff8160401c166100d9576002600160401b03196001600160401b03821601610073575b604051611d8f90816100f0823960805181818161121a01526112c00152f35b6001600160401b0319166001600160401b039081177ff0c57e16840df040f15088dc2f81fe391c3923bec73e23a9662efc9c229c6a005581527fc7f505b2f371ae2175ee4913f4499e1f2633a7b5936321eed1cdaeb6115181d290602090a13880610054565b63f92ee8a960e01b60005260046000fd5b600080fdfe6080604052600436101561001257600080fd5b60003560e01c80630eddf61e1461174e578063181d989b1461170f57806331d7a262146116d5578063372500ab1461156e5780633e20697c1461153757806349dc4b83146114865780634f1ef2861461127157806352d1902d14611207578063558a7297146111885780636f0c630514611149578063715018a6146110df57806379022a9f146110b6578063833ed1051461103b5780638da5cb5b146110055780639571781e14610b4157806396cae49b14610b19578063a98ddce41461070e578063ad3cb1cc146106c3578063c27308a81461069a578063c6fc720e14610669578063d206c2051461062f578063ddb3db7014610602578063e138818c146105d9578063e4f24cb01461059f578063ecf1c64b14610515578063f2fde38b146104ef578063f8bfd151146104b55763f8c8765e1461015057600080fd5b346104b05760803660031901126104b0576101696117f1565b610171611807565b6044356001600160a01b038116908190036104b0576064356001600160a01b03811692908390036104b057600080516020611d3a8339815191525460ff8160401c16159467ffffffffffffffff8216801590816104a8575b600114908161049e575b159081610495575b506104845767ffffffffffffffff198216600117600080516020611d3a8339815191525561021f9186610457575b50610212611c4a565b61021a611c4a565b611b62565b610227611c4a565b61022f611c4a565b610237611c4a565b6001600080516020611d1a8339815191525560018060a01b03166001600160601b0360a01b60005416176000556001600160601b0360a01b60015416176001556001600160601b0360a01b60025416176002556103e8606060405161029b81611889565b611b58808252602080830185905260408301859052929091019290925260039182556103e86004819055600581905560065560007f6d5257204ebe7d88fd91ae87941cb2dd9d8062b64ae5a2bd2d28ec40b9fbf6df8190556101f47fb39221ace053465ec3453ce2b36430bd138b997ecea25c1043da0c366812b828556107d07fb7c774451310d1be4108bc180d1b52823cb0ee0274a6c0081bcaf94f115fb96d556113887f3be6fd20d5acfde5b873b48692cd31f4d3c7e8ee8a813af4696af8859e5ca6c65560089091527f5eff886ea0ce6ca488a3d6e336d6c0f75f46d19b42c06ce5ee98e42c96d256c781905560017fad67d757c34507f157cacfa2e3153e9f260a2244f30428821be7be64587ac55f5560077f6add646517a5b0f6793cd5891b7937d28a5b2981a5d88ebc7cd776088fea9041559081527f625b35f5e76f098dd7c3a05b10e2e5e78a4a01228d60c3b143426cdf36d26455556103fe57005b68ff000000000000000019600080516020611d3a8339815191525416600080516020611d3a833981519152557fc7f505b2f371ae2175ee4913f4499e1f2633a7b5936321eed1cdaeb6115181d2602060405160018152a1005b68ffffffffffffffffff19166801000000000000000117600080516020611d3a8339815191525538610209565b63f92ee8a960e01b60005260046000fd5b905015386101db565b303b1591506101d3565b8791506101c9565b600080fd5b346104b05760203660031901126104b0576001600160a01b036104d66117f1565b1660005260096020526020604060002054604051908152f35b346104b05760203660031901126104b05761051361050b6117f1565b61021a611c14565b005b346104b05760403660031901126104b0576001600160a01b036105366117f1565b16600052600960205261057f610552602435604060002061181d565b5060ff815416906002810154906105906105736001600384015493016118c7565b6040519586809661196b565b60806020860152608085019061198e565b91604084015260608301520390f35b346104b05760203660031901126104b0576001600160a01b036105c06117f1565b16600052600d6020526020604060002054604051908152f35b346104b05760003660031901126104b0576001546040516001600160a01b039091168152602090f35b346104b05760203660031901126104b05760206106256106206117f1565b611b1f565b6040519015158152f35b346104b05760203660031901126104b0576001600160a01b036106506117f1565b16600052600b6020526020604060002054604051908152f35b346104b05760203660031901126104b05760043560048110156104b057610691602091611a3b565b54604051908152f35b346104b05760003660031901126104b0576000546040516001600160a01b039091168152602090f35b346104b05760003660031901126104b05761070a60408051906106e681836118a5565b60058252640352e302e360dc1b60208301525191829160208352602083019061198e565b0390f35b346104b05760603660031901126104b05760243567ffffffffffffffff81116104b057366023820112156104b05780600401359067ffffffffffffffff82116104b0576024810190602436918460051b0101116104b0576044359133600052600c60205260ff604060002054168015610af8575b61078b90611a8f565b610793611bd8565b8015610ac6578215610a93576127106107ae60035485611adb565b046127106107be60045486611adb565b04906127106107cf60055487611adb565b04926107e8846107e3856107e3868b611aee565b611aee565b948183049060005b8381106109f45750505050811515806109e0575b610975575b82151580610961575b6108f6575b83610873575b60405194855260208501526040840152606083015260808201527f3863fc447b7dde3f3f5a5ca0b5b06a5fd3570963a1a29918f09036746293f65860a060043592a26001600080516020611d1a83398151915255005b6000805460405163a9059cbb60e01b815261dead6004820152602481018790529160209183916044918391906001600160a01b03165af180156108ea576108bb575b5061081d565b6108dc9060203d6020116108e3575b6108d481836118a5565b810190611a54565b50856108b5565b503d6108ca565b6040513d6000823e3d90fd5b6000805460025460405163a9059cbb60e01b81526001600160a01b0391821660048201526024810187905292602092849260449284929091165af180156108ea57610942575b50610817565b61095a9060203d6020116108e3576108d481836118a5565b508561093c565b506002546001600160a01b03161515610812565b6000805460015460405163a9059cbb60e01b81526001600160a01b0391821660048201526024810186905292602092849260449284929091165af180156108ea576109c1575b50610809565b6109d99060203d6020116108e3576108d481836118a5565b50856109bb565b506001546001600160a01b03161515610804565b6001906001600160a01b03610a12610a0d838887611afb565b611b0b565b16600052600a60205260ff6040600020541615610a30575b016107f0565b818060a01b03610a44610a0d838887611afb565b16600052600e6020526040600020610a5d858254611a6c565b9055818060a01b03610a73610a0d838887611afb565b16600052600d6020526040600020610a8c858254611a6c565b9055610a2a565b60405162461bcd60e51b815260206004820152600b60248201526a16995c9bc81c995dd85c9960aa1b6044820152606490fd5b60405162461bcd60e51b815260206004820152600a6024820152694e6f206665656465727360b01b6044820152606490fd5b50600080516020611cda833981519152546001600160a01b03163314610782565b346104b05760203660031901126104b05760043560048110156104b057610691602091611a22565b346104b05760803660031901126104b057610b5a6117f1565b6024359060048210156104b0576044359167ffffffffffffffff83116104b057366023840112156104b05782600401359167ffffffffffffffff83116104b057602484019360248436920101116104b05733600052600c60205260ff604060002054168015610fe4575b610bcd90611a8f565b6001600160a01b03166000818152600a602052604090205490919060ff16610fae57612710610c07610bfe83611a22565b54606435611adb565b0492600060038303610f035783600052600a6020526040600020600160ff19825416179055837fa611978f5778a992904870d3c6a487d99f0323f4c82b478b71aad88ebdc70eff600080a25b83600052600960205260406000209560405160a0810181811067ffffffffffffffff821117610eed57604052600092858252610c903686856119eb565b9860208301998a526040830189815260608401914283526080850193845280549068010000000000000000821015610eb15790610cd29160018201815561181d565b949094610ed957516004811015610ec55760ff80198654169116178455600184019a519a8b5167ffffffffffffffff8111610eb157610d11825461184f565b601f8111610e6c575b5060209c8d90601f8311600114610dd557947f6f8684d781adb4ae14ab015cd2226c5fccc87e5adf3573d4a05f2200f9c9a1cf9b98948b9894846004958d9a95610d999f9a60809f92610dca575b50508160011b916000199060031b1c19161790555b516002850155516003840155519101556040519687809661196b565b898b8601526060604086015281606086015285850137828201840152601f01601f19168101030190a2604051908152f35b015190503880610d68565b838a52818a209190601f1984168b5b818110610e545750946001857f6f8684d781adb4ae14ab015cd2226c5fccc87e5adf3573d4a05f2200f9c9a1cf9f9c989395610d999f9c989560809f9c976004998f9d9810610e3b575b505050811b019055610d7d565b015160001960f88460031b161c19169055388080610e2e565b92936020600181928786015181550195019301610de4565b82895260208920601f830160051c81019160208410610ea7575b601f0160051c01905b818110610e9c5750610d1a565b898155600101610e8f565b9091508190610e86565b634e487b7160e01b88526041600452602488fd5b634e487b7160e01b87526021600452602487fd5b634e487b7160e01b87526004879052602487fd5b634e487b7160e01b600052604160045260246000fd5b610f0c83611a3b565b5415610c5357610f1b83611a3b565b549062015180820291808304620151801490151715610f9a5750610f3f9042611a6c565b83600052600b6020526040600020548111610f85575b837fa25f668a695272779290120b1829b1398f3611e9f41f7b0e9ecf33072eabe17f6020604051848152a2610c53565b83600052600b60205280604060002055610f55565b634e487b7160e01b81526011600452602490fd5b60405162461bcd60e51b815260206004820152600e60248201526d105b1c9958591e4818985b9b995960921b6044820152606490fd5b50600080516020611cda833981519152546001600160a01b03163314610bc4565b346104b05760003660031901126104b057600080516020611cda833981519152546040516001600160a01b039091168152602090f35b346104b05760403660031901126104b0576110546117f1565b61105c611807565b90611065611c14565b6001600160a01b03168061109d575b506001600160a01b03168061108557005b6001600160601b0360a01b6002541617600255600080f35b6001600160601b0360a01b600154161760015581611074565b346104b05760003660031901126104b0576002546040516001600160a01b039091168152602090f35b346104b05760003660031901126104b0576110f8611c14565b600080516020611cda83398151915280546001600160a01b031981169091556000906001600160a01b03167f8be0079c531659141344cd1fd0a4f28419497f9722a3daafe3b4186f6b6457e08280a3005b346104b05760203660031901126104b0576001600160a01b0361116a6117f1565b16600052600a602052602060ff604060002054166040519015158152f35b346104b05760403660031901126104b0576111a16117f1565b602435908115158092036104b05760207f966c160e1c4dbc7df8d69af4ace01e9297c3cf016397b7914971f2fbfa32672d916111db611c14565b60018060a01b03169283600052600c8252604060002060ff1981541660ff8316179055604051908152a2005b346104b05760003660031901126104b0577f00000000000000000000000000000000000000000000000000000000000000006001600160a01b03163003611260576020604051600080516020611cfa8339815191528152f35b63703e46dd60e11b60005260046000fd5b60403660031901126104b0576112856117f1565b60243567ffffffffffffffff81116104b057366023820112156104b0576112b69036906024816004013591016119eb565b6001600160a01b037f000000000000000000000000000000000000000000000000000000000000000016308114908115611463575b50611260576112f8611c14565b6040516352d1902d60e01b81526001600160a01b0383169290602081600481875afa6000918161142f575b5061133d5783634c9c8ce360e01b60005260045260246000fd5b80600080516020611cfa83398151915285920361141b5750813b1561140757600080516020611cfa83398151915280546001600160a01b031916821790557fbc7cd75a20ee27fd9adebab32041f755214dbc6bffa90cc0225b39da2e5c2d3b600080a28151156113ed5760008083602061051395519101845af43d156113e5573d916113c8836119cf565b926113d660405194856118a5565b83523d6000602085013e611c78565b606091611c78565b5050346113f657005b63b398979f60e01b60005260046000fd5b634c9c8ce360e01b60005260045260246000fd5b632a87526960e21b60005260045260246000fd5b9091506020813d60201161145b575b8161144b602093836118a5565b810103126104b057519085611323565b3d915061143e565b600080516020611cfa833981519152546001600160a01b031614159050836112eb565b346104b05760803660031901126104b0576064356044356024356004356114ab611c14565b6127106114c5856114c0866114c08787611a6c565b611a6c565b036114fb578360606040516114d981611889565b8381528460208201528560408201520152600355600455600555600655600080f35b60405162461bcd60e51b81526020600482015260146024820152734d75737420746f74616c2031303030302062707360601b6044820152606490fd5b346104b05760003660031901126104b057608060035460045460055460065491604051938452602084015260408301526060820152f35b346104b05760003660031901126104b057611587611bd8565b33600052600a60205260ff6040600020541661169b5733600052600e602052604060002054801561166157336000818152600e602090815260408083208390558254905163a9059cbb60e01b81526004810194909452602484018590529091839160449183916001600160a01b03165af180156108ea57611644575b506040519081527f106f923f993c2149d49b4255ff723acafa1f2d94393f561d3eda32ae348f724160203392a26001600080516020611d1a83398151915255005b61165c9060203d6020116108e3576108d481836118a5565b611603565b60405162461bcd60e51b81526020600482015260126024820152714e6f2070656e64696e67207265776172647360701b6044820152606490fd5b60405162461bcd60e51b815260206004820152601260248201527114195c9b585b995b9d1b1e4818985b9b995960721b6044820152606490fd5b346104b05760203660031901126104b0576001600160a01b036116f66117f1565b16600052600e6020526020604060002054604051908152f35b346104b05760203660031901126104b0576001600160a01b036117306117f1565b16600052600c602052602060ff604060002054166040519015158152f35b346104b05760403660031901126104b0576117676117f1565b6001600160a01b03166000908152600960205260409020805460243591908210156104b0576117cc916117999161181d565b5060ff815416906117ac600182016118c7565b6002820154916117dd60046003830154920154926040519687809761196b565b60a0602087015260a086019061198e565b926040850152606084015260808301520390f35b600435906001600160a01b03821682036104b057565b602435906001600160a01b03821682036104b057565b8054821015611839576000526005602060002091020190600090565b634e487b7160e01b600052603260045260246000fd5b90600182811c9216801561187f575b602083101461186957565b634e487b7160e01b600052602260045260246000fd5b91607f169161185e565b6080810190811067ffffffffffffffff821117610eed57604052565b90601f8019910116810190811067ffffffffffffffff821117610eed57604052565b90604051918260008254926118db8461184f565b80845293600181169081156119495750600114611902575b50611900925003836118a5565b565b90506000929192526020600020906000915b81831061192d57505090602061190092820101386118f3565b6020919350806001915483858901015201910190918492611914565b90506020925061190094915060ff191682840152151560051b820101386118f3565b9060048210156119785752565b634e487b7160e01b600052602160045260246000fd5b919082519283825260005b8481106119ba575050826000602080949584010152601f8019910116010190565b80602080928401015182828601015201611999565b67ffffffffffffffff8111610eed57601f01601f191660200190565b9291926119f7826119cf565b91611a0560405193846118a5565b8294818452818301116104b0578281602093846000960137010152565b6004811015611978576000526007602052604060002090565b6004811015611978576000526008602052604060002090565b908160209103126104b0575180151581036104b05790565b91908201809211611a7957565b634e487b7160e01b600052601160045260246000fd5b15611a9657565b60405162461bcd60e51b815260206004820152601b60248201527f52657761726450656e616c74793a206e6f74206f70657261746f7200000000006044820152606490fd5b81810292918115918404141715611a7957565b91908203918211611a7957565b91908110156118395760051b0190565b356001600160a01b03811681036104b05790565b6001600160a01b03166000818152600a602052604090205460ff16611b5c57600052600b6020526040600020544210611b5757600190565b600090565b50600090565b6001600160a01b03168015611bc257600080516020611cda83398151915280546001600160a01b0319811683179091556001600160a01b03167f8be0079c531659141344cd1fd0a4f28419497f9722a3daafe3b4186f6b6457e0600080a3565b631e4fbdf760e01b600052600060045260246000fd5b6002600080516020611d1a8339815191525414611c03576002600080516020611d1a83398151915255565b633ee5aeb560e01b60005260046000fd5b600080516020611cda833981519152546001600160a01b03163303611c3557565b63118cdaa760e01b6000523360045260246000fd5b60ff600080516020611d3a8339815191525460401c1615611c6757565b631afcd79f60e31b60005260046000fd5b90611c9e5750805115611c8d57602081519101fd5b63d6bda27560e01b60005260046000fd5b81511580611cd0575b611caf575090565b639996b31560e01b60009081526001600160a01b0391909116600452602490fd5b50803b15611ca756fe9016d09d72d40fdae2fd8ceac6b6234c7706214fd39c1cd1e609a0528c199300360894a13ba1a3210667c828492db98dca3e2076cc3735a920a3ca505d382bbc9b779b17422d0df92223018b32b4d1fa46e071723d6817e2486d003becc55f00f0c57e16840df040f15088dc2f81fe391c3923bec73e23a9662efc9c229c6a00a2646970667358221220e1db378cb2ff937574fc8d3653635393c8a5315d1dc4212789d1441c8ee224c964736f6c634300081c0033","opcodes":"PUSH1 0xA0 DUP1 PUSH1 0x40 MSTORE CALLVALUE PUSH2 0xEA JUMPI ADDRESS PUSH1 0x80 MSTORE PUSH32 0xF0C57E16840DF040F15088DC2F81FE391C3923BEC73E23A9662EFC9C229C6A00 SLOAD PUSH1 0xFF DUP2 PUSH1 0x40 SHR AND PUSH2 0xD9 JUMPI PUSH1 0x2 PUSH1 0x1 PUSH1 0x40 SHL SUB NOT PUSH1 0x1 PUSH1 0x1 PUSH1 0x40 SHL SUB DUP3 AND ADD PUSH2 0x73 JUMPI JUMPDEST PUSH1 0x40 MLOAD PUSH2 0x1D8F SWAP1 DUP2 PUSH2 0xF0 DUP3 CODECOPY PUSH1 0x80 MLOAD DUP2 DUP2 DUP2 PUSH2 0x121A ADD MSTORE PUSH2 0x12C0 ADD MSTORE RETURN JUMPDEST PUSH1 0x1 PUSH1 0x1 PUSH1 0x40 SHL SUB NOT AND PUSH1 0x1 PUSH1 0x1 PUSH1 0x40 SHL SUB SWAP1 DUP2 OR PUSH32 0xF0C57E16840DF040F15088DC2F81FE391C3923BEC73E23A9662EFC9C229C6A00 SSTORE DUP2 MSTORE PUSH32 0xC7F505B2F371AE2175EE4913F4499E1F2633A7B5936321EED1CDAEB6115181D2 SWAP1 PUSH1 0x20 SWAP1 LOG1 CODESIZE DUP1 PUSH2 0x54 JUMP JUMPDEST PUSH4 0xF92EE8A9 PUSH1 0xE0 SHL PUSH1 0x0 MSTORE PUSH1 0x4 PUSH1 0x0 REVERT JUMPDEST PUSH1 0x0 DUP1 REVERT INVALID PUSH1 0x80 PUSH1 0x40 MSTORE PUSH1 0x4 CALLDATASIZE LT ISZERO PUSH2 0x12 JUMPI PUSH1 0x0 DUP1 REVERT JUMPDEST PUSH1 0x0 CALLDATALOAD PUSH1 0xE0 SHR DUP1 PUSH4 0xEDDF61E EQ PUSH2 0x174E JUMPI DUP1 PUSH4 0x181D989B EQ PUSH2 0x170F JUMPI DUP1 PUSH4 0x31D7A262 EQ PUSH2 0x16D5 JUMPI DUP1 PUSH4 0x372500AB EQ PUSH2 0x156E JUMPI DUP1 PUSH4 0x3E20697C EQ PUSH2 0x1537 JUMPI DUP1 PUSH4 0x49DC4B83 EQ PUSH2 0x1486 JUMPI DUP1 PUSH4 0x4F1EF286 EQ PUSH2 0x1271 JUMPI DUP1 PUSH4 0x52D1902D EQ PUSH2 0x1207 JUMPI DUP1 PUSH4 0x558A7297 EQ PUSH2 0x1188 JUMPI DUP1 PUSH4 0x6F0C6305 EQ PUSH2 0x1149 JUMPI DUP1 PUSH4 0x715018A6 EQ PUSH2 0x10DF JUMPI DUP1 PUSH4 0x79022A9F EQ PUSH2 0x10B6 JUMPI DUP1 PUSH4 0x833ED105 EQ PUSH2 0x103B JUMPI DUP1 PUSH4 0x8DA5CB5B EQ PUSH2 0x1005 JUMPI DUP1 PUSH4 0x9571781E EQ PUSH2 0xB41 JUMPI DUP1 PUSH4 0x96CAE49B EQ PUSH2 0xB19 JUMPI DUP1 PUSH4 0xA98DDCE4 EQ PUSH2 0x70E JUMPI DUP1 PUSH4 0xAD3CB1CC EQ PUSH2 0x6C3 JUMPI DUP1 PUSH4 0xC27308A8 EQ PUSH2 0x69A JUMPI DUP1 PUSH4 0xC6FC720E EQ PUSH2 0x669 JUMPI DUP1 PUSH4 0xD206C205 EQ PUSH2 0x62F JUMPI DUP1 PUSH4 0xDDB3DB70 EQ PUSH2 0x602 JUMPI DUP1 PUSH4 0xE138818C EQ PUSH2 0x5D9 JUMPI DUP1 PUSH4 0xE4F24CB0 EQ PUSH2 0x59F JUMPI DUP1 PUSH4 0xECF1C64B EQ PUSH2 0x515 JUMPI DUP1 PUSH4 0xF2FDE38B EQ PUSH2 0x4EF JUMPI DUP1 PUSH4 0xF8BFD151 EQ PUSH2 0x4B5 JUMPI PUSH4 0xF8C8765E EQ PUSH2 0x150 JUMPI PUSH1 0x0 DUP1 REVERT JUMPDEST CALLVALUE PUSH2 0x4B0 JUMPI PUSH1 0x80 CALLDATASIZE PUSH1 0x3 NOT ADD SLT PUSH2 0x4B0 JUMPI PUSH2 0x169 PUSH2 0x17F1 JUMP JUMPDEST PUSH2 0x171 PUSH2 0x1807 JUMP JUMPDEST PUSH1 0x44 CALLDATALOAD PUSH1 0x1 PUSH1 0x1 PUSH1 0xA0 SHL SUB DUP2 AND SWAP1 DUP2 SWAP1 SUB PUSH2 0x4B0 JUMPI PUSH1 0x64 CALLDATALOAD PUSH1 0x1 PUSH1 0x1 PUSH1 0xA0 SHL SUB DUP2 AND SWAP3 SWAP1 DUP4 SWAP1 SUB PUSH2 0x4B0 JUMPI PUSH1 0x0 DUP1 MLOAD PUSH1 0x20 PUSH2 0x1D3A DUP4 CODECOPY DUP2 MLOAD SWAP2 MSTORE SLOAD PUSH1 0xFF DUP2 PUSH1 0x40 SHR AND ISZERO SWAP5 PUSH8 0xFFFFFFFFFFFFFFFF DUP3 AND DUP1 ISZERO SWAP1 DUP2 PUSH2 0x4A8 JUMPI JUMPDEST PUSH1 0x1 EQ SWAP1 DUP2 PUSH2 0x49E JUMPI JUMPDEST ISZERO SWAP1 DUP2 PUSH2 0x495 JUMPI JUMPDEST POP PUSH2 0x484 JUMPI PUSH8 0xFFFFFFFFFFFFFFFF NOT DUP3 AND PUSH1 0x1 OR PUSH1 0x0 DUP1 MLOAD PUSH1 0x20 PUSH2 0x1D3A DUP4 CODECOPY DUP2 MLOAD SWAP2 MSTORE SSTORE PUSH2 0x21F SWAP2 DUP7 PUSH2 0x457 JUMPI JUMPDEST POP PUSH2 0x212 PUSH2 0x1C4A JUMP JUMPDEST PUSH2 0x21A PUSH2 0x1C4A JUMP JUMPDEST PUSH2 0x1B62 JUMP JUMPDEST PUSH2 0x227 PUSH2 0x1C4A JUMP JUMPDEST PUSH2 0x22F PUSH2 0x1C4A JUMP JUMPDEST PUSH2 0x237 PUSH2 0x1C4A JUMP JUMPDEST PUSH1 0x1 PUSH1 0x0 DUP1 MLOAD PUSH1 0x20 PUSH2 0x1D1A DUP4 CODECOPY DUP2 MLOAD SWAP2 MSTORE SSTORE PUSH1 0x1 DUP1 PUSH1 0xA0 SHL SUB AND PUSH1 0x1 PUSH1 0x1 PUSH1 0x60 SHL SUB PUSH1 0xA0 SHL PUSH1 0x0 SLOAD AND OR PUSH1 0x0 SSTORE PUSH1 0x1 PUSH1 0x1 PUSH1 0x60 SHL SUB PUSH1 0xA0 SHL PUSH1 0x1 SLOAD AND OR PUSH1 0x1 SSTORE PUSH1 0x1 PUSH1 0x1 PUSH1 0x60 SHL SUB PUSH1 0xA0 SHL PUSH1 0x2 SLOAD AND OR PUSH1 0x2 SSTORE PUSH2 0x3E8 PUSH1 0x60 PUSH1 0x40 MLOAD PUSH2 0x29B DUP2 PUSH2 0x1889 JUMP JUMPDEST PUSH2 0x1B58 DUP1 DUP3 MSTORE PUSH1 0x20 DUP1 DUP4 ADD DUP6 SWAP1 MSTORE PUSH1 0x40 DUP4 ADD DUP6 SWAP1 MSTORE SWAP3 SWAP1 SWAP2 ADD SWAP3 SWAP1 SWAP3 MSTORE PUSH1 0x3 SWAP2 DUP3 SSTORE PUSH2 0x3E8 PUSH1 0x4 DUP2 SWAP1 SSTORE PUSH1 0x5 DUP2 SWAP1 SSTORE PUSH1 0x6 SSTORE PUSH1 0x0 PUSH32 0x6D5257204EBE7D88FD91AE87941CB2DD9D8062B64AE5A2BD2D28EC40B9FBF6DF DUP2 SWAP1 SSTORE PUSH2 0x1F4 PUSH32 0xB39221ACE053465EC3453CE2B36430BD138B997ECEA25C1043DA0C366812B828 SSTORE PUSH2 0x7D0 PUSH32 0xB7C774451310D1BE4108BC180D1B52823CB0EE0274A6C0081BCAF94F115FB96D SSTORE PUSH2 0x1388 PUSH32 0x3BE6FD20D5ACFDE5B873B48692CD31F4D3C7E8EE8A813AF4696AF8859E5CA6C6 SSTORE PUSH1 0x8 SWAP1 SWAP2 MSTORE PUSH32 0x5EFF886EA0CE6CA488A3D6E336D6C0F75F46D19B42C06CE5EE98E42C96D256C7 DUP2 SWAP1 SSTORE PUSH1 0x1 PUSH32 0xAD67D757C34507F157CACFA2E3153E9F260A2244F30428821BE7BE64587AC55F SSTORE PUSH1 0x7 PUSH32 0x6ADD646517A5B0F6793CD5891B7937D28A5B2981A5D88EBC7CD776088FEA9041 SSTORE SWAP1 DUP2 MSTORE PUSH32 0x625B35F5E76F098DD7C3A05B10E2E5E78A4A01228D60C3B143426CDF36D26455 SSTORE PUSH2 0x3FE JUMPI STOP JUMPDEST PUSH9 0xFF0000000000000000 NOT PUSH1 0x0 DUP1 MLOAD PUSH1 0x20 PUSH2 0x1D3A DUP4 CODECOPY DUP2 MLOAD SWAP2 MSTORE SLOAD AND PUSH1 0x0 DUP1 MLOAD PUSH1 0x20 PUSH2 0x1D3A DUP4 CODECOPY DUP2 MLOAD SWAP2 MSTORE SSTORE PUSH32 0xC7F505B2F371AE2175EE4913F4499E1F2633A7B5936321EED1CDAEB6115181D2 PUSH1 0x20 PUSH1 0x40 MLOAD PUSH1 0x1 DUP2 MSTORE LOG1 STOP JUMPDEST PUSH9 0xFFFFFFFFFFFFFFFFFF NOT AND PUSH9 0x10000000000000001 OR PUSH1 0x0 DUP1 MLOAD PUSH1 0x20 PUSH2 0x1D3A DUP4 CODECOPY DUP2 MLOAD SWAP2 MSTORE SSTORE CODESIZE PUSH2 0x209 JUMP JUMPDEST PUSH4 0xF92EE8A9 PUSH1 0xE0 SHL PUSH1 0x0 MSTORE PUSH1 0x4 PUSH1 0x0 REVERT JUMPDEST SWAP1 POP ISZERO CODESIZE PUSH2 0x1DB JUMP JUMPDEST ADDRESS EXTCODESIZE ISZERO SWAP2 POP PUSH2 0x1D3 JUMP JUMPDEST DUP8 SWAP2 POP PUSH2 0x1C9 JUMP JUMPDEST PUSH1 0x0 DUP1 REVERT JUMPDEST CALLVALUE PUSH2 0x4B0 JUMPI PUSH1 0x20 CALLDATASIZE PUSH1 0x3 NOT ADD SLT PUSH2 0x4B0 JUMPI PUSH1 0x1 PUSH1 0x1 PUSH1 0xA0 SHL SUB PUSH2 0x4D6 PUSH2 0x17F1 JUMP JUMPDEST AND PUSH1 0x0 MSTORE PUSH1 0x9 PUSH1 0x20 MSTORE PUSH1 0x20 PUSH1 0x40 PUSH1 0x0 KECCAK256 SLOAD PUSH1 0x40 MLOAD SWAP1 DUP2 MSTORE RETURN JUMPDEST CALLVALUE PUSH2 0x4B0 JUMPI PUSH1 0x20 CALLDATASIZE PUSH1 0x3 NOT ADD SLT PUSH2 0x4B0 JUMPI PUSH2 0x513 PUSH2 0x50B PUSH2 0x17F1 JUMP JUMPDEST PUSH2 0x21A PUSH2 0x1C14 JUMP JUMPDEST STOP JUMPDEST CALLVALUE PUSH2 0x4B0 JUMPI PUSH1 0x40 CALLDATASIZE PUSH1 0x3 NOT ADD SLT PUSH2 0x4B0 JUMPI PUSH1 0x1 PUSH1 0x1 PUSH1 0xA0 SHL SUB PUSH2 0x536 PUSH2 0x17F1 JUMP JUMPDEST AND PUSH1 0x0 MSTORE PUSH1 0x9 PUSH1 0x20 MSTORE PUSH2 0x57F PUSH2 0x552 PUSH1 0x24 CALLDATALOAD PUSH1 0x40 PUSH1 0x0 KECCAK256 PUSH2 0x181D JUMP JUMPDEST POP PUSH1 0xFF DUP2 SLOAD AND SWAP1 PUSH1 0x2 DUP2 ADD SLOAD SWAP1 PUSH2 0x590 PUSH2 0x573 PUSH1 0x1 PUSH1 0x3 DUP5 ADD SLOAD SWAP4 ADD PUSH2 0x18C7 JUMP JUMPDEST PUSH1 0x40 MLOAD SWAP6 DUP7 DUP1 SWAP7 PUSH2 0x196B JUMP JUMPDEST PUSH1 0x80 PUSH1 0x20 DUP7 ADD MSTORE PUSH1 0x80 DUP6 ADD SWAP1 PUSH2 0x198E JUMP JUMPDEST SWAP2 PUSH1 0x40 DUP5 ADD MSTORE PUSH1 0x60 DUP4 ADD MSTORE SUB SWAP1 RETURN JUMPDEST CALLVALUE PUSH2 0x4B0 JUMPI PUSH1 0x20 CALLDATASIZE PUSH1 0x3 NOT ADD SLT PUSH2 0x4B0 JUMPI PUSH1 0x1 PUSH1 0x1 PUSH1 0xA0 SHL SUB PUSH2 0x5C0 PUSH2 0x17F1 JUMP JUMPDEST AND PUSH1 0x0 MSTORE PUSH1 0xD PUSH1 0x20 MSTORE PUSH1 0x20 PUSH1 0x40 PUSH1 0x0 KECCAK256 SLOAD PUSH1 0x40 MLOAD SWAP1 DUP2 MSTORE RETURN JUMPDEST CALLVALUE PUSH2 0x4B0 JUMPI PUSH1 0x0 CALLDATASIZE PUSH1 0x3 NOT ADD SLT PUSH2 0x4B0 JUMPI PUSH1 0x1 SLOAD PUSH1 0x40 MLOAD PUSH1 0x1 PUSH1 0x1 PUSH1 0xA0 SHL SUB SWAP1 SWAP2 AND DUP2 MSTORE PUSH1 0x20 SWAP1 RETURN JUMPDEST CALLVALUE PUSH2 0x4B0 JUMPI PUSH1 0x20 CALLDATASIZE PUSH1 0x3 NOT ADD SLT PUSH2 0x4B0 JUMPI PUSH1 0x20 PUSH2 0x625 PUSH2 0x620 PUSH2 0x17F1 JUMP JUMPDEST PUSH2 0x1B1F JUMP JUMPDEST PUSH1 0x40 MLOAD SWAP1 ISZERO ISZERO DUP2 MSTORE RETURN JUMPDEST CALLVALUE PUSH2 0x4B0 JUMPI PUSH1 0x20 CALLDATASIZE PUSH1 0x3 NOT ADD SLT PUSH2 0x4B0 JUMPI PUSH1 0x1 PUSH1 0x1 PUSH1 0xA0 SHL SUB PUSH2 0x650 PUSH2 0x17F1 JUMP JUMPDEST AND PUSH1 0x0 MSTORE PUSH1 0xB PUSH1 0x20 MSTORE PUSH1 0x20 PUSH1 0x40 PUSH1 0x0 KECCAK256 SLOAD PUSH1 0x40 MLOAD SWAP1 DUP2 MSTORE RETURN JUMPDEST CALLVALUE PUSH2 0x4B0 JUMPI PUSH1 0x20 CALLDATASIZE PUSH1 0x3 NOT ADD SLT PUSH2 0x4B0 JUMPI PUSH1 0x4 CALLDATALOAD PUSH1 0x4 DUP2 LT ISZERO PUSH2 0x4B0 JUMPI PUSH2 0x691 PUSH1 0x20 SWAP2 PUSH2 0x1A3B JUMP JUMPDEST SLOAD PUSH1 0x40 MLOAD SWAP1 DUP2 MSTORE RETURN JUMPDEST CALLVALUE PUSH2 0x4B0 JUMPI PUSH1 0x0 CALLDATASIZE PUSH1 0x3 NOT ADD SLT PUSH2 0x4B0 JUMPI PUSH1 0x0 SLOAD PUSH1 0x40 MLOAD PUSH1 0x1 PUSH1 0x1 PUSH1 0xA0 SHL SUB SWAP1 SWAP2 AND DUP2 MSTORE PUSH1 0x20 SWAP1 RETURN JUMPDEST CALLVALUE PUSH2 0x4B0 JUMPI PUSH1 0x0 CALLDATASIZE PUSH1 0x3 NOT ADD SLT PUSH2 0x4B0 JUMPI PUSH2 0x70A PUSH1 0x40 DUP1 MLOAD SWAP1 PUSH2 0x6E6 DUP2 DUP4 PUSH2 0x18A5 JUMP JUMPDEST PUSH1 0x5 DUP3 MSTORE PUSH5 0x352E302E3 PUSH1 0xDC SHL PUSH1 0x20 DUP4 ADD MSTORE MLOAD SWAP2 DUP3 SWAP2 PUSH1 0x20 DUP4 MSTORE PUSH1 0x20 DUP4 ADD SWAP1 PUSH2 0x198E JUMP JUMPDEST SUB SWAP1 RETURN JUMPDEST CALLVALUE PUSH2 0x4B0 JUMPI PUSH1 0x60 CALLDATASIZE PUSH1 0x3 NOT ADD SLT PUSH2 0x4B0 JUMPI PUSH1 0x24 CALLDATALOAD PUSH8 0xFFFFFFFFFFFFFFFF DUP2 GT PUSH2 0x4B0 JUMPI CALLDATASIZE PUSH1 0x23 DUP3 ADD SLT ISZERO PUSH2 0x4B0 JUMPI DUP1 PUSH1 0x4 ADD CALLDATALOAD SWAP1 PUSH8 0xFFFFFFFFFFFFFFFF DUP3 GT PUSH2 0x4B0 JUMPI PUSH1 0x24 DUP2 ADD SWAP1 PUSH1 0x24 CALLDATASIZE SWAP2 DUP5 PUSH1 0x5 SHL ADD ADD GT PUSH2 0x4B0 JUMPI PUSH1 0x44 CALLDATALOAD SWAP2 CALLER PUSH1 0x0 MSTORE PUSH1 0xC PUSH1 0x20 MSTORE PUSH1 0xFF PUSH1 0x40 PUSH1 0x0 KECCAK256 SLOAD AND DUP1 ISZERO PUSH2 0xAF8 JUMPI JUMPDEST PUSH2 0x78B SWAP1 PUSH2 0x1A8F JUMP JUMPDEST PUSH2 0x793 PUSH2 0x1BD8 JUMP JUMPDEST DUP1 ISZERO PUSH2 0xAC6 JUMPI DUP3 ISZERO PUSH2 0xA93 JUMPI PUSH2 0x2710 PUSH2 0x7AE PUSH1 0x3 SLOAD DUP6 PUSH2 0x1ADB JUMP JUMPDEST DIV PUSH2 0x2710 PUSH2 0x7BE PUSH1 0x4 SLOAD DUP7 PUSH2 0x1ADB JUMP JUMPDEST DIV SWAP1 PUSH2 0x2710 PUSH2 0x7CF PUSH1 0x5 SLOAD DUP8 PUSH2 0x1ADB JUMP JUMPDEST DIV SWAP3 PUSH2 0x7E8 DUP5 PUSH2 0x7E3 DUP6 PUSH2 0x7E3 DUP7 DUP12 PUSH2 0x1AEE JUMP JUMPDEST PUSH2 0x1AEE JUMP JUMPDEST SWAP5 DUP2 DUP4 DIV SWAP1 PUSH1 0x0 JUMPDEST DUP4 DUP2 LT PUSH2 0x9F4 JUMPI POP POP POP POP DUP2 ISZERO ISZERO DUP1 PUSH2 0x9E0 JUMPI JUMPDEST PUSH2 0x975 JUMPI JUMPDEST DUP3 ISZERO ISZERO DUP1 PUSH2 0x961 JUMPI JUMPDEST PUSH2 0x8F6 JUMPI JUMPDEST DUP4 PUSH2 0x873 JUMPI JUMPDEST PUSH1 0x40 MLOAD SWAP5 DUP6 MSTORE PUSH1 0x20 DUP6 ADD MSTORE PUSH1 0x40 DUP5 ADD MSTORE PUSH1 0x60 DUP4 ADD MSTORE PUSH1 0x80 DUP3 ADD MSTORE PUSH32 0x3863FC447B7DDE3F3F5A5CA0B5B06A5FD3570963A1A29918F09036746293F658 PUSH1 0xA0 PUSH1 0x4 CALLDATALOAD SWAP3 LOG2 PUSH1 0x1 PUSH1 0x0 DUP1 MLOAD PUSH1 0x20 PUSH2 0x1D1A DUP4 CODECOPY DUP2 MLOAD SWAP2 MSTORE SSTORE STOP JUMPDEST PUSH1 0x0 DUP1 SLOAD PUSH1 0x40 MLOAD PUSH4 0xA9059CBB PUSH1 0xE0 SHL DUP2 MSTORE PUSH2 0xDEAD PUSH1 0x4 DUP3 ADD MSTORE PUSH1 0x24 DUP2 ADD DUP8 SWAP1 MSTORE SWAP2 PUSH1 0x20 SWAP2 DUP4 SWAP2 PUSH1 0x44 SWAP2 DUP4 SWAP2 SWAP1 PUSH1 0x1 PUSH1 0x1 PUSH1 0xA0 SHL SUB AND GAS CALL DUP1 ISZERO PUSH2 0x8EA JUMPI PUSH2 0x8BB JUMPI JUMPDEST POP PUSH2 0x81D JUMP JUMPDEST PUSH2 0x8DC SWAP1 PUSH1 0x20 RETURNDATASIZE PUSH1 0x20 GT PUSH2 0x8E3 JUMPI JUMPDEST PUSH2 0x8D4 DUP2 DUP4 PUSH2 0x18A5 JUMP JUMPDEST DUP2 ADD SWAP1 PUSH2 0x1A54 JUMP JUMPDEST POP DUP6 PUSH2 0x8B5 JUMP JUMPDEST POP RETURNDATASIZE PUSH2 0x8CA JUMP JUMPDEST PUSH1 0x40 MLOAD RETURNDATASIZE PUSH1 0x0 DUP3 RETURNDATACOPY RETURNDATASIZE SWAP1 REVERT JUMPDEST PUSH1 0x0 DUP1 SLOAD PUSH1 0x2 SLOAD PUSH1 0x40 MLOAD PUSH4 0xA9059CBB PUSH1 0xE0 SHL DUP2 MSTORE PUSH1 0x1 PUSH1 0x1 PUSH1 0xA0 SHL SUB SWAP2 DUP3 AND PUSH1 0x4 DUP3 ADD MSTORE PUSH1 0x24 DUP2 ADD DUP8 SWAP1 MSTORE SWAP3 PUSH1 0x20 SWAP3 DUP5 SWAP3 PUSH1 0x44 SWAP3 DUP5 SWAP3 SWAP1 SWAP2 AND GAS CALL DUP1 ISZERO PUSH2 0x8EA JUMPI PUSH2 0x942 JUMPI JUMPDEST POP PUSH2 0x817 JUMP JUMPDEST PUSH2 0x95A SWAP1 PUSH1 0x20 RETURNDATASIZE PUSH1 0x20 GT PUSH2 0x8E3 JUMPI PUSH2 0x8D4 DUP2 DUP4 PUSH2 0x18A5 JUMP JUMPDEST POP DUP6 PUSH2 0x93C JUMP JUMPDEST POP PUSH1 0x2 SLOAD PUSH1 0x1 PUSH1 0x1 PUSH1 0xA0 SHL SUB AND ISZERO ISZERO PUSH2 0x812 JUMP JUMPDEST PUSH1 0x0 DUP1 SLOAD PUSH1 0x1 SLOAD PUSH1 0x40 MLOAD PUSH4 0xA9059CBB PUSH1 0xE0 SHL DUP2 MSTORE PUSH1 0x1 PUSH1 0x1 PUSH1 0xA0 SHL SUB SWAP2 DUP3 AND PUSH1 0x4 DUP3 ADD MSTORE PUSH1 0x24 DUP2 ADD DUP7 SWAP1 MSTORE SWAP3 PUSH1 0x20 SWAP3 DUP5 SWAP3 PUSH1 0x44 SWAP3 DUP5 SWAP3 SWAP1 SWAP2 AND GAS CALL DUP1 ISZERO PUSH2 0x8EA JUMPI PUSH2 0x9C1 JUMPI JUMPDEST POP PUSH2 0x809 JUMP JUMPDEST PUSH2 0x9D9 SWAP1 PUSH1 0x20 RETURNDATASIZE PUSH1 0x20 GT PUSH2 0x8E3 JUMPI PUSH2 0x8D4 DUP2 DUP4 PUSH2 0x18A5 JUMP JUMPDEST POP DUP6 PUSH2 0x9BB JUMP JUMPDEST POP PUSH1 0x1 SLOAD PUSH1 0x1 PUSH1 0x1 PUSH1 0xA0 SHL SUB AND ISZERO ISZERO PUSH2 0x804 JUMP JUMPDEST PUSH1 0x1 SWAP1 PUSH1 0x1 PUSH1 0x1 PUSH1 0xA0 SHL SUB PUSH2 0xA12 PUSH2 0xA0D DUP4 DUP9 DUP8 PUSH2 0x1AFB JUMP JUMPDEST PUSH2 0x1B0B JUMP JUMPDEST AND PUSH1 0x0 MSTORE PUSH1 0xA PUSH1 0x20 MSTORE PUSH1 0xFF PUSH1 0x40 PUSH1 0x0 KECCAK256 SLOAD AND ISZERO PUSH2 0xA30 JUMPI JUMPDEST ADD PUSH2 0x7F0 JUMP JUMPDEST DUP2 DUP1 PUSH1 0xA0 SHL SUB PUSH2 0xA44 PUSH2 0xA0D DUP4 DUP9 DUP8 PUSH2 0x1AFB JUMP JUMPDEST AND PUSH1 0x0 MSTORE PUSH1 0xE PUSH1 0x20 MSTORE PUSH1 0x40 PUSH1 0x0 KECCAK256 PUSH2 0xA5D DUP6 DUP3 SLOAD PUSH2 0x1A6C JUMP JUMPDEST SWAP1 SSTORE DUP2 DUP1 PUSH1 0xA0 SHL SUB PUSH2 0xA73 PUSH2 0xA0D DUP4 DUP9 DUP8 PUSH2 0x1AFB JUMP JUMPDEST AND PUSH1 0x0 MSTORE PUSH1 0xD PUSH1 0x20 MSTORE PUSH1 0x40 PUSH1 0x0 KECCAK256 PUSH2 0xA8C DUP6 DUP3 SLOAD PUSH2 0x1A6C JUMP JUMPDEST SWAP1 SSTORE PUSH2 0xA2A JUMP JUMPDEST PUSH1 0x40 MLOAD PUSH3 0x461BCD PUSH1 0xE5 SHL DUP2 MSTORE PUSH1 0x20 PUSH1 0x4 DUP3 ADD MSTORE PUSH1 0xB PUSH1 0x24 DUP3 ADD MSTORE PUSH11 0x16995C9BC81C995DD85C99 PUSH1 0xAA SHL PUSH1 0x44 DUP3 ADD MSTORE PUSH1 0x64 SWAP1 REVERT JUMPDEST PUSH1 0x40 MLOAD PUSH3 0x461BCD PUSH1 0xE5 SHL DUP2 MSTORE PUSH1 0x20 PUSH1 0x4 DUP3 ADD MSTORE PUSH1 0xA PUSH1 0x24 DUP3 ADD MSTORE PUSH10 0x4E6F2066656564657273 PUSH1 0xB0 SHL PUSH1 0x44 DUP3 ADD MSTORE PUSH1 0x64 SWAP1 REVERT JUMPDEST POP PUSH1 0x0 DUP1 MLOAD PUSH1 0x20 PUSH2 0x1CDA DUP4 CODECOPY DUP2 MLOAD SWAP2 MSTORE SLOAD PUSH1 0x1 PUSH1 0x1 PUSH1 0xA0 SHL SUB AND CALLER EQ PUSH2 0x782 JUMP JUMPDEST CALLVALUE PUSH2 0x4B0 JUMPI PUSH1 0x20 CALLDATASIZE PUSH1 0x3 NOT ADD SLT PUSH2 0x4B0 JUMPI PUSH1 0x4 CALLDATALOAD PUSH1 0x4 DUP2 LT ISZERO PUSH2 0x4B0 JUMPI PUSH2 0x691 PUSH1 0x20 SWAP2 PUSH2 0x1A22 JUMP JUMPDEST CALLVALUE PUSH2 0x4B0 JUMPI PUSH1 0x80 CALLDATASIZE PUSH1 0x3 NOT ADD SLT PUSH2 0x4B0 JUMPI PUSH2 0xB5A PUSH2 0x17F1 JUMP JUMPDEST PUSH1 0x24 CALLDATALOAD SWAP1 PUSH1 0x4 DUP3 LT ISZERO PUSH2 0x4B0 JUMPI PUSH1 0x44 CALLDATALOAD SWAP2 PUSH8 0xFFFFFFFFFFFFFFFF DUP4 GT PUSH2 0x4B0 JUMPI CALLDATASIZE PUSH1 0x23 DUP5 ADD SLT ISZERO PUSH2 0x4B0 JUMPI DUP3 PUSH1 0x4 ADD CALLDATALOAD SWAP2 PUSH8 0xFFFFFFFFFFFFFFFF DUP4 GT PUSH2 0x4B0 JUMPI PUSH1 0x24 DUP5 ADD SWAP4 PUSH1 0x24 DUP5 CALLDATASIZE SWAP3 ADD ADD GT PUSH2 0x4B0 JUMPI CALLER PUSH1 0x0 MSTORE PUSH1 0xC PUSH1 0x20 MSTORE PUSH1 0xFF PUSH1 0x40 PUSH1 0x0 KECCAK256 SLOAD AND DUP1 ISZERO PUSH2 0xFE4 JUMPI JUMPDEST PUSH2 0xBCD SWAP1 PUSH2 0x1A8F JUMP JUMPDEST PUSH1 0x1 PUSH1 0x1 PUSH1 0xA0 SHL SUB AND PUSH1 0x0 DUP2 DUP2 MSTORE PUSH1 0xA PUSH1 0x20 MSTORE PUSH1 0x40 SWAP1 KECCAK256 SLOAD SWAP1 SWAP2 SWAP1 PUSH1 0xFF AND PUSH2 0xFAE JUMPI PUSH2 0x2710 PUSH2 0xC07 PUSH2 0xBFE DUP4 PUSH2 0x1A22 JUMP JUMPDEST SLOAD PUSH1 0x64 CALLDATALOAD PUSH2 0x1ADB JUMP JUMPDEST DIV SWAP3 PUSH1 0x0 PUSH1 0x3 DUP4 SUB PUSH2 0xF03 JUMPI DUP4 PUSH1 0x0 MSTORE PUSH1 0xA PUSH1 0x20 MSTORE PUSH1 0x40 PUSH1 0x0 KECCAK256 PUSH1 0x1 PUSH1 0xFF NOT DUP3 SLOAD AND OR SWAP1 SSTORE DUP4 PUSH32 0xA611978F5778A992904870D3C6A487D99F0323F4C82B478B71AAD88EBDC70EFF PUSH1 0x0 DUP1 LOG2 JUMPDEST DUP4 PUSH1 0x0 MSTORE PUSH1 0x9 PUSH1 0x20 MSTORE PUSH1 0x40 PUSH1 0x0 KECCAK256 SWAP6 PUSH1 0x40 MLOAD PUSH1 0xA0 DUP2 ADD DUP2 DUP2 LT PUSH8 0xFFFFFFFFFFFFFFFF DUP3 GT OR PUSH2 0xEED JUMPI PUSH1 0x40 MSTORE PUSH1 0x0 SWAP3 DUP6 DUP3 MSTORE PUSH2 0xC90 CALLDATASIZE DUP7 DUP6 PUSH2 0x19EB JUMP JUMPDEST SWAP9 PUSH1 0x20 DUP4 ADD SWAP10 DUP11 MSTORE PUSH1 0x40 DUP4 ADD DUP10 DUP2 MSTORE PUSH1 0x60 DUP5 ADD SWAP2 TIMESTAMP DUP4 MSTORE PUSH1 0x80 DUP6 ADD SWAP4 DUP5 MSTORE DUP1 SLOAD SWAP1 PUSH9 0x10000000000000000 DUP3 LT ISZERO PUSH2 0xEB1 JUMPI SWAP1 PUSH2 0xCD2 SWAP2 PUSH1 0x1 DUP3 ADD DUP2 SSTORE PUSH2 0x181D JUMP JUMPDEST SWAP5 SWAP1 SWAP5 PUSH2 0xED9 JUMPI MLOAD PUSH1 0x4 DUP2 LT ISZERO PUSH2 0xEC5 JUMPI PUSH1 0xFF DUP1 NOT DUP7 SLOAD AND SWAP2 AND OR DUP5 SSTORE PUSH1 0x1 DUP5 ADD SWAP11 MLOAD SWAP11 DUP12 MLOAD PUSH8 0xFFFFFFFFFFFFFFFF DUP2 GT PUSH2 0xEB1 JUMPI PUSH2 0xD11 DUP3 SLOAD PUSH2 0x184F JUMP JUMPDEST PUSH1 0x1F DUP2 GT PUSH2 0xE6C JUMPI JUMPDEST POP PUSH1 0x20 SWAP13 DUP14 SWAP1 PUSH1 0x1F DUP4 GT PUSH1 0x1 EQ PUSH2 0xDD5 JUMPI SWAP5 PUSH32 0x6F8684D781ADB4AE14AB015CD2226C5FCCC87E5ADF3573D4A05F2200F9C9A1CF SWAP12 SWAP9 SWAP5 DUP12 SWAP9 SWAP5 DUP5 PUSH1 0x4 SWAP6 DUP14 SWAP11 SWAP6 PUSH2 0xD99 SWAP16 SWAP11 PUSH1 0x80 SWAP16 SWAP3 PUSH2 0xDCA JUMPI JUMPDEST POP POP DUP2 PUSH1 0x1 SHL SWAP2 PUSH1 0x0 NOT SWAP1 PUSH1 0x3 SHL SHR NOT AND OR SWAP1 SSTORE JUMPDEST MLOAD PUSH1 0x2 DUP6 ADD SSTORE MLOAD PUSH1 0x3 DUP5 ADD SSTORE MLOAD SWAP2 ADD SSTORE PUSH1 0x40 MLOAD SWAP7 DUP8 DUP1 SWAP7 PUSH2 0x196B JUMP JUMPDEST DUP10 DUP12 DUP7 ADD MSTORE PUSH1 0x60 PUSH1 0x40 DUP7 ADD MSTORE DUP2 PUSH1 0x60 DUP7 ADD MSTORE DUP6 DUP6 ADD CALLDATACOPY DUP3 DUP3 ADD DUP5 ADD MSTORE PUSH1 0x1F ADD PUSH1 0x1F NOT AND DUP2 ADD SUB ADD SWAP1 LOG2 PUSH1 0x40 MLOAD SWAP1 DUP2 MSTORE RETURN JUMPDEST ADD MLOAD SWAP1 POP CODESIZE DUP1 PUSH2 0xD68 JUMP JUMPDEST DUP4 DUP11 MSTORE DUP2 DUP11 KECCAK256 SWAP2 SWAP1 PUSH1 0x1F NOT DUP5 AND DUP12 JUMPDEST DUP2 DUP2 LT PUSH2 0xE54 JUMPI POP SWAP5 PUSH1 0x1 DUP6 PUSH32 0x6F8684D781ADB4AE14AB015CD2226C5FCCC87E5ADF3573D4A05F2200F9C9A1CF SWAP16 SWAP13 SWAP9 SWAP4 SWAP6 PUSH2 0xD99 SWAP16 SWAP13 SWAP9 SWAP6 PUSH1 0x80 SWAP16 SWAP13 SWAP8 PUSH1 0x4 SWAP10 DUP16 SWAP14 SWAP9 LT PUSH2 0xE3B JUMPI JUMPDEST POP POP POP DUP2 SHL ADD SWAP1 SSTORE PUSH2 0xD7D JUMP JUMPDEST ADD MLOAD PUSH1 0x0 NOT PUSH1 0xF8 DUP5 PUSH1 0x3 SHL AND SHR NOT AND SWAP1 SSTORE CODESIZE DUP1 DUP1 PUSH2 0xE2E JUMP JUMPDEST SWAP3 SWAP4 PUSH1 0x20 PUSH1 0x1 DUP2 SWAP3 DUP8 DUP7 ADD MLOAD DUP2 SSTORE ADD SWAP6 ADD SWAP4 ADD PUSH2 0xDE4 JUMP JUMPDEST DUP3 DUP10 MSTORE PUSH1 0x20 DUP10 KECCAK256 PUSH1 0x1F DUP4 ADD PUSH1 0x5 SHR DUP2 ADD SWAP2 PUSH1 0x20 DUP5 LT PUSH2 0xEA7 JUMPI JUMPDEST PUSH1 0x1F ADD PUSH1 0x5 SHR ADD SWAP1 JUMPDEST DUP2 DUP2 LT PUSH2 0xE9C JUMPI POP PUSH2 0xD1A JUMP JUMPDEST DUP10 DUP2 SSTORE PUSH1 0x1 ADD PUSH2 0xE8F JUMP JUMPDEST SWAP1 SWAP2 POP DUP2 SWAP1 PUSH2 0xE86 JUMP JUMPDEST PUSH4 0x4E487B71 PUSH1 0xE0 SHL DUP9 MSTORE PUSH1 0x41 PUSH1 0x4 MSTORE PUSH1 0x24 DUP9 REVERT JUMPDEST PUSH4 0x4E487B71 PUSH1 0xE0 SHL DUP8 MSTORE PUSH1 0x21 PUSH1 0x4 MSTORE PUSH1 0x24 DUP8 REVERT JUMPDEST PUSH4 0x4E487B71 PUSH1 0xE0 SHL DUP8 MSTORE PUSH1 0x4 DUP8 SWAP1 MSTORE PUSH1 0x24 DUP8 REVERT JUMPDEST PUSH4 0x4E487B71 PUSH1 0xE0 SHL PUSH1 0x0 MSTORE PUSH1 0x41 PUSH1 0x4 MSTORE PUSH1 0x24 PUSH1 0x0 REVERT JUMPDEST PUSH2 0xF0C DUP4 PUSH2 0x1A3B JUMP JUMPDEST SLOAD ISZERO PUSH2 0xC53 JUMPI PUSH2 0xF1B DUP4 PUSH2 0x1A3B JUMP JUMPDEST SLOAD SWAP1 PUSH3 0x15180 DUP3 MUL SWAP2 DUP1 DUP4 DIV PUSH3 0x15180 EQ SWAP1 ISZERO OR ISZERO PUSH2 0xF9A JUMPI POP PUSH2 0xF3F SWAP1 TIMESTAMP PUSH2 0x1A6C JUMP JUMPDEST DUP4 PUSH1 0x0 MSTORE PUSH1 0xB PUSH1 0x20 MSTORE PUSH1 0x40 PUSH1 0x0 KECCAK256 SLOAD DUP2 GT PUSH2 0xF85 JUMPI JUMPDEST DUP4 PUSH32 0xA25F668A695272779290120B1829B1398F3611E9F41F7B0E9ECF33072EABE17F PUSH1 0x20 PUSH1 0x40 MLOAD DUP5 DUP2 MSTORE LOG2 PUSH2 0xC53 JUMP JUMPDEST DUP4 PUSH1 0x0 MSTORE PUSH1 0xB PUSH1 0x20 MSTORE DUP1 PUSH1 0x40 PUSH1 0x0 KECCAK256 SSTORE PUSH2 0xF55 JUMP JUMPDEST PUSH4 0x4E487B71 PUSH1 0xE0 SHL DUP2 MSTORE PUSH1 0x11 PUSH1 0x4 MSTORE PUSH1 0x24 SWAP1 REVERT JUMPDEST PUSH1 0x40 MLOAD PUSH3 0x461BCD PUSH1 0xE5 SHL DUP2 MSTORE PUSH1 0x20 PUSH1 0x4 DUP3 ADD MSTORE PUSH1 0xE PUSH1 0x24 DUP3 ADD MSTORE PUSH14 0x105B1C9958591E4818985B9B9959 PUSH1 0x92 SHL PUSH1 0x44 DUP3 ADD MSTORE PUSH1 0x64 SWAP1 REVERT JUMPDEST POP PUSH1 0x0 DUP1 MLOAD PUSH1 0x20 PUSH2 0x1CDA DUP4 CODECOPY DUP2 MLOAD SWAP2 MSTORE SLOAD PUSH1 0x1 PUSH1 0x1 PUSH1 0xA0 SHL SUB AND CALLER EQ PUSH2 0xBC4 JUMP JUMPDEST CALLVALUE PUSH2 0x4B0 JUMPI PUSH1 0x0 CALLDATASIZE PUSH1 0x3 NOT ADD SLT PUSH2 0x4B0 JUMPI PUSH1 0x0 DUP1 MLOAD PUSH1 0x20 PUSH2 0x1CDA DUP4 CODECOPY DUP2 MLOAD SWAP2 MSTORE SLOAD PUSH1 0x40 MLOAD PUSH1 0x1 PUSH1 0x1 PUSH1 0xA0 SHL SUB SWAP1 SWAP2 AND DUP2 MSTORE PUSH1 0x20 SWAP1 RETURN JUMPDEST CALLVALUE PUSH2 0x4B0 JUMPI PUSH1 0x40 CALLDATASIZE PUSH1 0x3 NOT ADD SLT PUSH2 0x4B0 JUMPI PUSH2 0x1054 PUSH2 0x17F1 JUMP JUMPDEST PUSH2 0x105C PUSH2 0x1807 JUMP JUMPDEST SWAP1 PUSH2 0x1065 PUSH2 0x1C14 JUMP JUMPDEST PUSH1 0x1 PUSH1 0x1 PUSH1 0xA0 SHL SUB AND DUP1 PUSH2 0x109D JUMPI JUMPDEST POP PUSH1 0x1 PUSH1 0x1 PUSH1 0xA0 SHL SUB AND DUP1 PUSH2 0x1085 JUMPI STOP JUMPDEST PUSH1 0x1 PUSH1 0x1 PUSH1 0x60 SHL SUB PUSH1 0xA0 SHL PUSH1 0x2 SLOAD AND OR PUSH1 0x2 SSTORE PUSH1 0x0 DUP1 RETURN JUMPDEST PUSH1 0x1 PUSH1 0x1 PUSH1 0x60 SHL SUB PUSH1 0xA0 SHL PUSH1 0x1 SLOAD AND OR PUSH1 0x1 SSTORE DUP2 PUSH2 0x1074 JUMP JUMPDEST CALLVALUE PUSH2 0x4B0 JUMPI PUSH1 0x0 CALLDATASIZE PUSH1 0x3 NOT ADD SLT PUSH2 0x4B0 JUMPI PUSH1 0x2 SLOAD PUSH1 0x40 MLOAD PUSH1 0x1 PUSH1 0x1 PUSH1 0xA0 SHL SUB SWAP1 SWAP2 AND DUP2 MSTORE PUSH1 0x20 SWAP1 RETURN JUMPDEST CALLVALUE PUSH2 0x4B0 JUMPI PUSH1 0x0 CALLDATASIZE PUSH1 0x3 NOT ADD SLT PUSH2 0x4B0 JUMPI PUSH2 0x10F8 PUSH2 0x1C14 JUMP JUMPDEST PUSH1 0x0 DUP1 MLOAD PUSH1 0x20 PUSH2 0x1CDA DUP4 CODECOPY DUP2 MLOAD SWAP2 MSTORE DUP1 SLOAD PUSH1 0x1 PUSH1 0x1 PUSH1 0xA0 SHL SUB NOT DUP2 AND SWAP1 SWAP2 SSTORE PUSH1 0x0 SWAP1 PUSH1 0x1 PUSH1 0x1 PUSH1 0xA0 SHL SUB AND PUSH32 0x8BE0079C531659141344CD1FD0A4F28419497F9722A3DAAFE3B4186F6B6457E0 DUP3 DUP1 LOG3 STOP JUMPDEST CALLVALUE PUSH2 0x4B0 JUMPI PUSH1 0x20 CALLDATASIZE PUSH1 0x3 NOT ADD SLT PUSH2 0x4B0 JUMPI PUSH1 0x1 PUSH1 0x1 PUSH1 0xA0 SHL SUB PUSH2 0x116A PUSH2 0x17F1 JUMP JUMPDEST AND PUSH1 0x0 MSTORE PUSH1 0xA PUSH1 0x20 MSTORE PUSH1 0x20 PUSH1 0xFF PUSH1 0x40 PUSH1 0x0 KECCAK256 SLOAD AND PUSH1 0x40 MLOAD SWAP1 ISZERO ISZERO DUP2 MSTORE RETURN JUMPDEST CALLVALUE PUSH2 0x4B0 JUMPI PUSH1 0x40 CALLDATASIZE PUSH1 0x3 NOT ADD SLT PUSH2 0x4B0 JUMPI PUSH2 0x11A1 PUSH2 0x17F1 JUMP JUMPDEST PUSH1 0x24 CALLDATALOAD SWAP1 DUP2 ISZERO ISZERO DUP1 SWAP3 SUB PUSH2 0x4B0 JUMPI PUSH1 0x20 PUSH32 0x966C160E1C4DBC7DF8D69AF4ACE01E9297C3CF016397B7914971F2FBFA32672D SWAP2 PUSH2 0x11DB PUSH2 0x1C14 JUMP JUMPDEST PUSH1 0x1 DUP1 PUSH1 0xA0 SHL SUB AND SWAP3 DUP4 PUSH1 0x0 MSTORE PUSH1 0xC DUP3 MSTORE PUSH1 0x40 PUSH1 0x0 KECCAK256 PUSH1 0xFF NOT DUP2 SLOAD AND PUSH1 0xFF DUP4 AND OR SWAP1 SSTORE PUSH1 0x40 MLOAD SWAP1 DUP2 MSTORE LOG2 STOP JUMPDEST CALLVALUE PUSH2 0x4B0 JUMPI PUSH1 0x0 CALLDATASIZE PUSH1 0x3 NOT ADD SLT PUSH2 0x4B0 JUMPI PUSH32 0x0 PUSH1 0x1 PUSH1 0x1 PUSH1 0xA0 SHL SUB AND ADDRESS SUB PUSH2 0x1260 JUMPI PUSH1 0x20 PUSH1 0x40 MLOAD PUSH1 0x0 DUP1 MLOAD PUSH1 0x20 PUSH2 0x1CFA DUP4 CODECOPY DUP2 MLOAD SWAP2 MSTORE DUP2 MSTORE RETURN JUMPDEST PUSH4 0x703E46DD PUSH1 0xE1 SHL PUSH1 0x0 MSTORE PUSH1 0x4 PUSH1 0x0 REVERT JUMPDEST PUSH1 0x40 CALLDATASIZE PUSH1 0x3 NOT ADD SLT PUSH2 0x4B0 JUMPI PUSH2 0x1285 PUSH2 0x17F1 JUMP JUMPDEST PUSH1 0x24 CALLDATALOAD PUSH8 0xFFFFFFFFFFFFFFFF DUP2 GT PUSH2 0x4B0 JUMPI CALLDATASIZE PUSH1 0x23 DUP3 ADD SLT ISZERO PUSH2 0x4B0 JUMPI PUSH2 0x12B6 SWAP1 CALLDATASIZE SWAP1 PUSH1 0x24 DUP2 PUSH1 0x4 ADD CALLDATALOAD SWAP2 ADD PUSH2 0x19EB JUMP JUMPDEST PUSH1 0x1 PUSH1 0x1 PUSH1 0xA0 SHL SUB PUSH32 0x0 AND ADDRESS DUP2 EQ SWAP1 DUP2 ISZERO PUSH2 0x1463 JUMPI JUMPDEST POP PUSH2 0x1260 JUMPI PUSH2 0x12F8 PUSH2 0x1C14 JUMP JUMPDEST PUSH1 0x40 MLOAD PUSH4 0x52D1902D PUSH1 0xE0 SHL DUP2 MSTORE PUSH1 0x1 PUSH1 0x1 PUSH1 0xA0 SHL SUB DUP4 AND SWAP3 SWAP1 PUSH1 0x20 DUP2 PUSH1 0x4 DUP2 DUP8 GAS STATICCALL PUSH1 0x0 SWAP2 DUP2 PUSH2 0x142F JUMPI JUMPDEST POP PUSH2 0x133D JUMPI DUP4 PUSH4 0x4C9C8CE3 PUSH1 0xE0 SHL PUSH1 0x0 MSTORE PUSH1 0x4 MSTORE PUSH1 0x24 PUSH1 0x0 REVERT JUMPDEST DUP1 PUSH1 0x0 DUP1 MLOAD PUSH1 0x20 PUSH2 0x1CFA DUP4 CODECOPY DUP2 MLOAD SWAP2 MSTORE DUP6 SWAP3 SUB PUSH2 0x141B JUMPI POP DUP2 EXTCODESIZE ISZERO PUSH2 0x1407 JUMPI PUSH1 0x0 DUP1 MLOAD PUSH1 0x20 PUSH2 0x1CFA DUP4 CODECOPY DUP2 MLOAD SWAP2 MSTORE DUP1 SLOAD PUSH1 0x1 PUSH1 0x1 PUSH1 0xA0 SHL SUB NOT AND DUP3 OR SWAP1 SSTORE PUSH32 0xBC7CD75A20EE27FD9ADEBAB32041F755214DBC6BFFA90CC0225B39DA2E5C2D3B PUSH1 0x0 DUP1 LOG2 DUP2 MLOAD ISZERO PUSH2 0x13ED JUMPI PUSH1 0x0 DUP1 DUP4 PUSH1 0x20 PUSH2 0x513 SWAP6 MLOAD SWAP2 ADD DUP5 GAS DELEGATECALL RETURNDATASIZE ISZERO PUSH2 0x13E5 JUMPI RETURNDATASIZE SWAP2 PUSH2 0x13C8 DUP4 PUSH2 0x19CF JUMP JUMPDEST SWAP3 PUSH2 0x13D6 PUSH1 0x40 MLOAD SWAP5 DUP6 PUSH2 0x18A5 JUMP JUMPDEST DUP4 MSTORE RETURNDATASIZE PUSH1 0x0 PUSH1 0x20 DUP6 ADD RETURNDATACOPY PUSH2 0x1C78 JUMP JUMPDEST PUSH1 0x60 SWAP2 PUSH2 0x1C78 JUMP JUMPDEST POP POP CALLVALUE PUSH2 0x13F6 JUMPI STOP JUMPDEST PUSH4 0xB398979F PUSH1 0xE0 SHL PUSH1 0x0 MSTORE PUSH1 0x4 PUSH1 0x0 REVERT JUMPDEST PUSH4 0x4C9C8CE3 PUSH1 0xE0 SHL PUSH1 0x0 MSTORE PUSH1 0x4 MSTORE PUSH1 0x24 PUSH1 0x0 REVERT JUMPDEST PUSH4 0x2A875269 PUSH1 0xE2 SHL PUSH1 0x0 MSTORE PUSH1 0x4 MSTORE PUSH1 0x24 PUSH1 0x0 REVERT JUMPDEST SWAP1 SWAP2 POP PUSH1 0x20 DUP2 RETURNDATASIZE PUSH1 0x20 GT PUSH2 0x145B JUMPI JUMPDEST DUP2 PUSH2 0x144B PUSH1 0x20 SWAP4 DUP4 PUSH2 0x18A5 JUMP JUMPDEST DUP2 ADD SUB SLT PUSH2 0x4B0 JUMPI MLOAD SWAP1 DUP6 PUSH2 0x1323 JUMP JUMPDEST RETURNDATASIZE SWAP2 POP PUSH2 0x143E JUMP JUMPDEST PUSH1 0x0 DUP1 MLOAD PUSH1 0x20 PUSH2 0x1CFA DUP4 CODECOPY DUP2 MLOAD SWAP2 MSTORE SLOAD PUSH1 0x1 PUSH1 0x1 PUSH1 0xA0 SHL SUB AND EQ ISZERO SWAP1 POP DUP4 PUSH2 0x12EB JUMP JUMPDEST CALLVALUE PUSH2 0x4B0 JUMPI PUSH1 0x80 CALLDATASIZE PUSH1 0x3 NOT ADD SLT PUSH2 0x4B0 JUMPI PUSH1 0x64 CALLDATALOAD PUSH1 0x44 CALLDATALOAD PUSH1 0x24 CALLDATALOAD PUSH1 0x4 CALLDATALOAD PUSH2 0x14AB PUSH2 0x1C14 JUMP JUMPDEST PUSH2 0x2710 PUSH2 0x14C5 DUP6 PUSH2 0x14C0 DUP7 PUSH2 0x14C0 DUP8 DUP8 PUSH2 0x1A6C JUMP JUMPDEST PUSH2 0x1A6C JUMP JUMPDEST SUB PUSH2 0x14FB JUMPI DUP4 PUSH1 0x60 PUSH1 0x40 MLOAD PUSH2 0x14D9 DUP2 PUSH2 0x1889 JUMP JUMPDEST DUP4 DUP2 MSTORE DUP5 PUSH1 0x20 DUP3 ADD MSTORE DUP6 PUSH1 0x40 DUP3 ADD MSTORE ADD MSTORE PUSH1 0x3 SSTORE PUSH1 0x4 SSTORE PUSH1 0x5 SSTORE PUSH1 0x6 SSTORE PUSH1 0x0 DUP1 RETURN JUMPDEST PUSH1 0x40 MLOAD PUSH3 0x461BCD PUSH1 0xE5 SHL DUP2 MSTORE PUSH1 0x20 PUSH1 0x4 DUP3 ADD MSTORE PUSH1 0x14 PUSH1 0x24 DUP3 ADD MSTORE PUSH20 0x4D75737420746F74616C20313030303020627073 PUSH1 0x60 SHL PUSH1 0x44 DUP3 ADD MSTORE PUSH1 0x64 SWAP1 REVERT JUMPDEST CALLVALUE PUSH2 0x4B0 JUMPI PUSH1 0x0 CALLDATASIZE PUSH1 0x3 NOT ADD SLT PUSH2 0x4B0 JUMPI PUSH1 0x80 PUSH1 0x3 SLOAD PUSH1 0x4 SLOAD PUSH1 0x5 SLOAD PUSH1 0x6 SLOAD SWAP2 PUSH1 0x40 MLOAD SWAP4 DUP5 MSTORE PUSH1 0x20 DUP5 ADD MSTORE PUSH1 0x40 DUP4 ADD MSTORE PUSH1 0x60 DUP3 ADD MSTORE RETURN JUMPDEST CALLVALUE PUSH2 0x4B0 JUMPI PUSH1 0x0 CALLDATASIZE PUSH1 0x3 NOT ADD SLT PUSH2 0x4B0 JUMPI PUSH2 0x1587 PUSH2 0x1BD8 JUMP JUMPDEST CALLER PUSH1 0x0 MSTORE PUSH1 0xA PUSH1 0x20 MSTORE PUSH1 0xFF PUSH1 0x40 PUSH1 0x0 KECCAK256 SLOAD AND PUSH2 0x169B JUMPI CALLER PUSH1 0x0 MSTORE PUSH1 0xE PUSH1 0x20 MSTORE PUSH1 0x40 PUSH1 0x0 KECCAK256 SLOAD DUP1 ISZERO PUSH2 0x1661 JUMPI CALLER PUSH1 0x0 DUP2 DUP2 MSTORE PUSH1 0xE PUSH1 0x20 SWAP1 DUP2 MSTORE PUSH1 0x40 DUP1 DUP4 KECCAK256 DUP4 SWAP1 SSTORE DUP3 SLOAD SWAP1 MLOAD PUSH4 0xA9059CBB PUSH1 0xE0 SHL DUP2 MSTORE PUSH1 0x4 DUP2 ADD SWAP5 SWAP1 SWAP5 MSTORE PUSH1 0x24 DUP5 ADD DUP6 SWAP1 MSTORE SWAP1 SWAP2 DUP4 SWAP2 PUSH1 0x44 SWAP2 DUP4 SWAP2 PUSH1 0x1 PUSH1 0x1 PUSH1 0xA0 SHL SUB AND GAS CALL DUP1 ISZERO PUSH2 0x8EA JUMPI PUSH2 0x1644 JUMPI JUMPDEST POP PUSH1 0x40 MLOAD SWAP1 DUP2 MSTORE PUSH32 0x106F923F993C2149D49B4255FF723ACAFA1F2D94393F561D3EDA32AE348F7241 PUSH1 0x20 CALLER SWAP3 LOG2 PUSH1 0x1 PUSH1 0x0 DUP1 MLOAD PUSH1 0x20 PUSH2 0x1D1A DUP4 CODECOPY DUP2 MLOAD SWAP2 MSTORE SSTORE STOP JUMPDEST PUSH2 0x165C SWAP1 PUSH1 0x20 RETURNDATASIZE PUSH1 0x20 GT PUSH2 0x8E3 JUMPI PUSH2 0x8D4 DUP2 DUP4 PUSH2 0x18A5 JUMP JUMPDEST PUSH2 0x1603 JUMP JUMPDEST PUSH1 0x40 MLOAD PUSH3 0x461BCD PUSH1 0xE5 SHL DUP2 MSTORE PUSH1 0x20 PUSH1 0x4 DUP3 ADD MSTORE PUSH1 0x12 PUSH1 0x24 DUP3 ADD MSTORE PUSH18 0x4E6F2070656E64696E672072657761726473 PUSH1 0x70 SHL PUSH1 0x44 DUP3 ADD MSTORE PUSH1 0x64 SWAP1 REVERT JUMPDEST PUSH1 0x40 MLOAD PUSH3 0x461BCD PUSH1 0xE5 SHL DUP2 MSTORE PUSH1 0x20 PUSH1 0x4 DUP3 ADD MSTORE PUSH1 0x12 PUSH1 0x24 DUP3 ADD MSTORE PUSH18 0x14195C9B585B995B9D1B1E4818985B9B9959 PUSH1 0x72 SHL PUSH1 0x44 DUP3 ADD MSTORE PUSH1 0x64 SWAP1 REVERT JUMPDEST CALLVALUE PUSH2 0x4B0 JUMPI PUSH1 0x20 CALLDATASIZE PUSH1 0x3 NOT ADD SLT PUSH2 0x4B0 JUMPI PUSH1 0x1 PUSH1 0x1 PUSH1 0xA0 SHL SUB PUSH2 0x16F6 PUSH2 0x17F1 JUMP JUMPDEST AND PUSH1 0x0 MSTORE PUSH1 0xE PUSH1 0x20 MSTORE PUSH1 0x20 PUSH1 0x40 PUSH1 0x0 KECCAK256 SLOAD PUSH1 0x40 MLOAD SWAP1 DUP2 MSTORE RETURN JUMPDEST CALLVALUE PUSH2 0x4B0 JUMPI PUSH1 0x20 CALLDATASIZE PUSH1 0x3 NOT ADD SLT PUSH2 0x4B0 JUMPI PUSH1 0x1 PUSH1 0x1 PUSH1 0xA0 SHL SUB PUSH2 0x1730 PUSH2 0x17F1 JUMP JUMPDEST AND PUSH1 0x0 MSTORE PUSH1 0xC PUSH1 0x20 MSTORE PUSH1 0x20 PUSH1 0xFF PUSH1 0x40 PUSH1 0x0 KECCAK256 SLOAD AND PUSH1 0x40 MLOAD SWAP1 ISZERO ISZERO DUP2 MSTORE RETURN JUMPDEST CALLVALUE PUSH2 0x4B0 JUMPI PUSH1 0x40 CALLDATASIZE PUSH1 0x3 NOT ADD SLT PUSH2 0x4B0 JUMPI PUSH2 0x1767 PUSH2 0x17F1 JUMP JUMPDEST PUSH1 0x1 PUSH1 0x1 PUSH1 0xA0 SHL SUB AND PUSH1 0x0 SWAP1 DUP2 MSTORE PUSH1 0x9 PUSH1 0x20 MSTORE PUSH1 0x40 SWAP1 KECCAK256 DUP1 SLOAD PUSH1 0x24 CALLDATALOAD SWAP2 SWAP1 DUP3 LT ISZERO PUSH2 0x4B0 JUMPI PUSH2 0x17CC SWAP2 PUSH2 0x1799 SWAP2 PUSH2 0x181D JUMP JUMPDEST POP PUSH1 0xFF DUP2 SLOAD AND SWAP1 PUSH2 0x17AC PUSH1 0x1 DUP3 ADD PUSH2 0x18C7 JUMP JUMPDEST PUSH1 0x2 DUP3 ADD SLOAD SWAP2 PUSH2 0x17DD PUSH1 0x4 PUSH1 0x3 DUP4 ADD SLOAD SWAP3 ADD SLOAD SWAP3 PUSH1 0x40 MLOAD SWAP7 DUP8 DUP1 SWAP8 PUSH2 0x196B JUMP JUMPDEST PUSH1 0xA0 PUSH1 0x20 DUP8 ADD MSTORE PUSH1 0xA0 DUP7 ADD SWAP1 PUSH2 0x198E JUMP JUMPDEST SWAP3 PUSH1 0x40 DUP6 ADD MSTORE PUSH1 0x60 DUP5 ADD MSTORE PUSH1 0x80 DUP4 ADD MSTORE SUB SWAP1 RETURN JUMPDEST PUSH1 0x4 CALLDATALOAD SWAP1 PUSH1 0x1 PUSH1 0x1 PUSH1 0xA0 SHL SUB DUP3 AND DUP3 SUB PUSH2 0x4B0 JUMPI JUMP JUMPDEST PUSH1 0x24 CALLDATALOAD SWAP1 PUSH1 0x1 PUSH1 0x1 PUSH1 0xA0 SHL SUB DUP3 AND DUP3 SUB PUSH2 0x4B0 JUMPI JUMP JUMPDEST DUP1 SLOAD DUP3 LT ISZERO PUSH2 0x1839 JUMPI PUSH1 0x0 MSTORE PUSH1 0x5 PUSH1 0x20 PUSH1 0x0 KECCAK256 SWAP2 MUL ADD SWAP1 PUSH1 0x0 SWAP1 JUMP JUMPDEST PUSH4 0x4E487B71 PUSH1 0xE0 SHL PUSH1 0x0 MSTORE PUSH1 0x32 PUSH1 0x4 MSTORE PUSH1 0x24 PUSH1 0x0 REVERT JUMPDEST SWAP1 PUSH1 0x1 DUP3 DUP2 SHR SWAP3 AND DUP1 ISZERO PUSH2 0x187F JUMPI JUMPDEST PUSH1 0x20 DUP4 LT EQ PUSH2 0x1869 JUMPI JUMP JUMPDEST PUSH4 0x4E487B71 PUSH1 0xE0 SHL PUSH1 0x0 MSTORE PUSH1 0x22 PUSH1 0x4 MSTORE PUSH1 0x24 PUSH1 0x0 REVERT JUMPDEST SWAP2 PUSH1 0x7F AND SWAP2 PUSH2 0x185E JUMP JUMPDEST PUSH1 0x80 DUP2 ADD SWAP1 DUP2 LT PUSH8 0xFFFFFFFFFFFFFFFF DUP3 GT OR PUSH2 0xEED JUMPI PUSH1 0x40 MSTORE JUMP JUMPDEST SWAP1 PUSH1 0x1F DUP1 NOT SWAP2 ADD AND DUP2 ADD SWAP1 DUP2 LT PUSH8 0xFFFFFFFFFFFFFFFF DUP3 GT OR PUSH2 0xEED JUMPI PUSH1 0x40 MSTORE JUMP JUMPDEST SWAP1 PUSH1 0x40 MLOAD SWAP2 DUP3 PUSH1 0x0 DUP3 SLOAD SWAP3 PUSH2 0x18DB DUP5 PUSH2 0x184F JUMP JUMPDEST DUP1 DUP5 MSTORE SWAP4 PUSH1 0x1 DUP2 AND SWAP1 DUP2 ISZERO PUSH2 0x1949 JUMPI POP PUSH1 0x1 EQ PUSH2 0x1902 JUMPI JUMPDEST POP PUSH2 0x1900 SWAP3 POP SUB DUP4 PUSH2 0x18A5 JUMP JUMPDEST JUMP JUMPDEST SWAP1 POP PUSH1 0x0 SWAP3 SWAP2 SWAP3 MSTORE PUSH1 0x20 PUSH1 0x0 KECCAK256 SWAP1 PUSH1 0x0 SWAP2 JUMPDEST DUP2 DUP4 LT PUSH2 0x192D JUMPI POP POP SWAP1 PUSH1 0x20 PUSH2 0x1900 SWAP3 DUP3 ADD ADD CODESIZE PUSH2 0x18F3 JUMP JUMPDEST PUSH1 0x20 SWAP2 SWAP4 POP DUP1 PUSH1 0x1 SWAP2 SLOAD DUP4 DUP6 DUP10 ADD ADD MSTORE ADD SWAP2 ADD SWAP1 SWAP2 DUP5 SWAP3 PUSH2 0x1914 JUMP JUMPDEST SWAP1 POP PUSH1 0x20 SWAP3 POP PUSH2 0x1900 SWAP5 SWAP2 POP PUSH1 0xFF NOT AND DUP3 DUP5 ADD MSTORE ISZERO ISZERO PUSH1 0x5 SHL DUP3 ADD ADD CODESIZE PUSH2 0x18F3 JUMP JUMPDEST SWAP1 PUSH1 0x4 DUP3 LT ISZERO PUSH2 0x1978 JUMPI MSTORE JUMP JUMPDEST PUSH4 0x4E487B71 PUSH1 0xE0 SHL PUSH1 0x0 MSTORE PUSH1 0x21 PUSH1 0x4 MSTORE PUSH1 0x24 PUSH1 0x0 REVERT JUMPDEST SWAP2 SWAP1 DUP3 MLOAD SWAP3 DUP4 DUP3 MSTORE PUSH1 0x0 JUMPDEST DUP5 DUP2 LT PUSH2 0x19BA JUMPI POP POP DUP3 PUSH1 0x0 PUSH1 0x20 DUP1 SWAP5 SWAP6 DUP5 ADD ADD MSTORE PUSH1 0x1F DUP1 NOT SWAP2 ADD AND ADD ADD SWAP1 JUMP JUMPDEST DUP1 PUSH1 0x20 DUP1 SWAP3 DUP5 ADD ADD MLOAD DUP3 DUP3 DUP7 ADD ADD MSTORE ADD PUSH2 0x1999 JUMP JUMPDEST PUSH8 0xFFFFFFFFFFFFFFFF DUP2 GT PUSH2 0xEED JUMPI PUSH1 0x1F ADD PUSH1 0x1F NOT AND PUSH1 0x20 ADD SWAP1 JUMP JUMPDEST SWAP3 SWAP2 SWAP3 PUSH2 0x19F7 DUP3 PUSH2 0x19CF JUMP JUMPDEST SWAP2 PUSH2 0x1A05 PUSH1 0x40 MLOAD SWAP4 DUP5 PUSH2 0x18A5 JUMP JUMPDEST DUP3 SWAP5 DUP2 DUP5 MSTORE DUP2 DUP4 ADD GT PUSH2 0x4B0 JUMPI DUP3 DUP2 PUSH1 0x20 SWAP4 DUP5 PUSH1 0x0 SWAP7 ADD CALLDATACOPY ADD ADD MSTORE JUMP JUMPDEST PUSH1 0x4 DUP2 LT ISZERO PUSH2 0x1978 JUMPI PUSH1 0x0 MSTORE PUSH1 0x7 PUSH1 0x20 MSTORE PUSH1 0x40 PUSH1 0x0 KECCAK256 SWAP1 JUMP JUMPDEST PUSH1 0x4 DUP2 LT ISZERO PUSH2 0x1978 JUMPI PUSH1 0x0 MSTORE PUSH1 0x8 PUSH1 0x20 MSTORE PUSH1 0x40 PUSH1 0x0 KECCAK256 SWAP1 JUMP JUMPDEST SWAP1 DUP2 PUSH1 0x20 SWAP2 SUB SLT PUSH2 0x4B0 JUMPI MLOAD DUP1 ISZERO ISZERO DUP2 SUB PUSH2 0x4B0 JUMPI SWAP1 JUMP JUMPDEST SWAP2 SWAP1 DUP3 ADD DUP1 SWAP3 GT PUSH2 0x1A79 JUMPI JUMP JUMPDEST PUSH4 0x4E487B71 PUSH1 0xE0 SHL PUSH1 0x0 MSTORE PUSH1 0x11 PUSH1 0x4 MSTORE PUSH1 0x24 PUSH1 0x0 REVERT JUMPDEST ISZERO PUSH2 0x1A96 JUMPI JUMP JUMPDEST PUSH1 0x40 MLOAD PUSH3 0x461BCD PUSH1 0xE5 SHL DUP2 MSTORE PUSH1 0x20 PUSH1 0x4 DUP3 ADD MSTORE PUSH1 0x1B PUSH1 0x24 DUP3 ADD MSTORE PUSH32 0x52657761726450656E616C74793A206E6F74206F70657261746F720000000000 PUSH1 0x44 DUP3 ADD MSTORE PUSH1 0x64 SWAP1 REVERT JUMPDEST DUP2 DUP2 MUL SWAP3 SWAP2 DUP2 ISZERO SWAP2 DUP5 DIV EQ OR ISZERO PUSH2 0x1A79 JUMPI JUMP JUMPDEST SWAP2 SWAP1 DUP3 SUB SWAP2 DUP3 GT PUSH2 0x1A79 JUMPI JUMP JUMPDEST SWAP2 SWAP1 DUP2 LT ISZERO PUSH2 0x1839 JUMPI PUSH1 0x5 SHL ADD SWAP1 JUMP JUMPDEST CALLDATALOAD PUSH1 0x1 PUSH1 0x1 PUSH1 0xA0 SHL SUB DUP2 AND DUP2 SUB PUSH2 0x4B0 JUMPI SWAP1 JUMP JUMPDEST PUSH1 0x1 PUSH1 0x1 PUSH1 0xA0 SHL SUB AND PUSH1 0x0 DUP2 DUP2 MSTORE PUSH1 0xA PUSH1 0x20 MSTORE PUSH1 0x40 SWAP1 KECCAK256 SLOAD PUSH1 0xFF AND PUSH2 0x1B5C JUMPI PUSH1 0x0 MSTORE PUSH1 0xB PUSH1 0x20 MSTORE PUSH1 0x40 PUSH1 0x0 KECCAK256 SLOAD TIMESTAMP LT PUSH2 0x1B57 JUMPI PUSH1 0x1 SWAP1 JUMP JUMPDEST PUSH1 0x0 SWAP1 JUMP JUMPDEST POP PUSH1 0x0 SWAP1 JUMP JUMPDEST PUSH1 0x1 PUSH1 0x1 PUSH1 0xA0 SHL SUB AND DUP1 ISZERO PUSH2 0x1BC2 JUMPI PUSH1 0x0 DUP1 MLOAD PUSH1 0x20 PUSH2 0x1CDA DUP4 CODECOPY DUP2 MLOAD SWAP2 MSTORE DUP1 SLOAD PUSH1 0x1 PUSH1 0x1 PUSH1 0xA0 SHL SUB NOT DUP2 AND DUP4 OR SWAP1 SWAP2 SSTORE PUSH1 0x1 PUSH1 0x1 PUSH1 0xA0 SHL SUB AND PUSH32 0x8BE0079C531659141344CD1FD0A4F28419497F9722A3DAAFE3B4186F6B6457E0 PUSH1 0x0 DUP1 LOG3 JUMP JUMPDEST PUSH4 0x1E4FBDF7 PUSH1 0xE0 SHL PUSH1 0x0 MSTORE PUSH1 0x0 PUSH1 0x4 MSTORE PUSH1 0x24 PUSH1 0x0 REVERT JUMPDEST PUSH1 0x2 PUSH1 0x0 DUP1 MLOAD PUSH1 0x20 PUSH2 0x1D1A DUP4 CODECOPY DUP2 MLOAD SWAP2 MSTORE SLOAD EQ PUSH2 0x1C03 JUMPI PUSH1 0x2 PUSH1 0x0 DUP1 MLOAD PUSH1 0x20 PUSH2 0x1D1A DUP4 CODECOPY DUP2 MLOAD SWAP2 MSTORE SSTORE JUMP JUMPDEST PUSH4 0x3EE5AEB5 PUSH1 0xE0 SHL PUSH1 0x0 MSTORE PUSH1 0x4 PUSH1 0x0 REVERT JUMPDEST PUSH1 0x0 DUP1 MLOAD PUSH1 0x20 PUSH2 0x1CDA DUP4 CODECOPY DUP2 MLOAD SWAP2 MSTORE SLOAD PUSH1 0x1 PUSH1 0x1 PUSH1 0xA0 SHL SUB AND CALLER SUB PUSH2 0x1C35 JUMPI JUMP JUMPDEST PUSH4 0x118CDAA7 PUSH1 0xE0 SHL PUSH1 0x0 MSTORE CALLER PUSH1 0x4 MSTORE PUSH1 0x24 PUSH1 0x0 REVERT JUMPDEST PUSH1 0xFF PUSH1 0x0 DUP1 MLOAD PUSH1 0x20 PUSH2 0x1D3A DUP4 CODECOPY DUP2 MLOAD SWAP2 MSTORE SLOAD PUSH1 0x40 SHR AND ISZERO PUSH2 0x1C67 JUMPI JUMP JUMPDEST PUSH4 0x1AFCD79F PUSH1 0xE3 SHL PUSH1 0x0 MSTORE PUSH1 0x4 PUSH1 0x0 REVERT JUMPDEST SWAP1 PUSH2 0x1C9E JUMPI POP DUP1 MLOAD ISZERO PUSH2 0x1C8D JUMPI PUSH1 0x20 DUP2 MLOAD SWAP2 ADD REVERT JUMPDEST PUSH4 0xD6BDA275 PUSH1 0xE0 SHL PUSH1 0x0 MSTORE PUSH1 0x4 PUSH1 0x0 REVERT JUMPDEST DUP2 MLOAD ISZERO DUP1 PUSH2 0x1CD0 JUMPI JUMPDEST PUSH2 0x1CAF JUMPI POP SWAP1 JUMP JUMPDEST PUSH4 0x9996B315 PUSH1 0xE0 SHL PUSH1 0x0 SWAP1 DUP2 MSTORE PUSH1 0x1 PUSH1 0x1 PUSH1 0xA0 SHL SUB SWAP2 SWAP1 SWAP2 AND PUSH1 0x4 MSTORE PUSH1 0x24 SWAP1 REVERT JUMPDEST POP DUP1 EXTCODESIZE ISZERO PUSH2 0x1CA7 JUMP INVALID SWAP1 AND 0xD0 SWAP14 PUSH19 0xD40FDAE2FD8CEAC6B6234C7706214FD39C1CD1 0xE6 MULMOD LOG0 MSTORE DUP13 NOT SWAP4 STOP CALLDATASIZE ADDMOD SWAP5 LOG1 EXTCODESIZE LOG1 LOG3 0x21 MOD PUSH8 0xC828492DB98DCA3E KECCAK256 PUSH23 0xCC3735A920A3CA505D382BBC9B779B17422D0DF9222301 DUP12 ORIGIN 0xB4 0xD1 STATICCALL CHAINID 0xE0 PUSH18 0x723D6817E2486D003BECC55F00F0C57E1684 0xD CREATE BLOCKHASH CALL POP DUP9 0xDC 0x2F DUP2 INVALID CODECOPY SHR CODECOPY 0x23 0xBE 0xC7 RETURNDATACOPY 0x23 0xA9 PUSH7 0x2EFC9C229C6A00 LOG2 PUSH5 0x6970667358 0x22 SLT KECCAK256 0xE1 0xDB CALLDATACOPY DUP13 0xB2 SELFDESTRUCT SWAP4 PUSH22 0x74FC8D3653635393C8A5315D1DC4212789D1441C8EE2 0x24 0xC9 PUSH5 0x736F6C6343 STOP ADDMOD SHR STOP CALLER "},"methodIdentifiers":{"UPGRADE_INTERFACE_VERSION()":"ad3cb1cc","applyPenalty(address,uint8,string,uint256)":"9571781e","authorizedOperators(address)":"181d989b","banUntil(address)":"d206c205","canGrabOrder(address)":"ddb3db70","claimRewards()":"372500ab","daoTreasury()":"79022a9f","distributeRewards(bytes32,address[],uint256)":"a98ddce4","feedToken()":"c27308a8","getPenaltyCount(address)":"f8bfd151","getPenaltyRecord(address,uint256)":"ecf1c64b","initialize(address,address,address,address)":"f8c8765e","owner()":"8da5cb5b","penaltyBanDays(uint8)":"c6fc720e","penaltyHistory(address,uint256)":"0eddf61e","penaltySlashBps(uint8)":"96cae49b","pendingRewards(address)":"31d7a262","permanentlyBanned(address)":"6f0c6305","platformTreasury()":"e138818c","proxiableUUID()":"52d1902d","renounceOwnership()":"715018a6","rewardSplit()":"3e20697c","setOperator(address,bool)":"558a7297","totalRewardsEarned(address)":"e4f24cb0","transferOwnership(address)":"f2fde38b","updateRewardSplit(uint256,uint256,uint256,uint256)":"49dc4b83","updateTreasuries(address,address)":"833ed105","upgradeToAndCall(address,bytes)":"4f1ef286"}},"storageLayout":{"storage":[{"astId":11555,"contract":"contracts/RewardPenalty.sol:RewardPenalty","label":"feedToken","offset":0,"slot":"0","type":"t_contract(IERC20)3177"},{"astId":11558,"contract":"contracts/RewardPenalty.sol:RewardPenalty","label":"platformTreasury","offset":0,"slot":"1","type":"t_address"},{"astId":11561,"contract":"contracts/RewardPenalty.sol:RewardPenalty","label":"daoTreasury","offset":0,"slot":"2","type":"t_address"},{"astId":11565,"contract":"contracts/RewardPenalty.sol:RewardPenalty","label":"rewardSplit","offset":0,"slot":"3","type":"t_struct(RewardSplit)11551_storage"},{"astId":11571,"contract":"contracts/RewardPenalty.sol:RewardPenalty","label":"penaltySlashBps","offset":0,"slot":"7","type":"t_mapping(t_enum(PenaltyLevel)11528,t_uint256)"},{"astId":11577,"contract":"contracts/RewardPenalty.sol:RewardPenalty","label":"penaltyBanDays","offset":0,"slot":"8","type":"t_mapping(t_enum(PenaltyLevel)11528,t_uint256)"},{"astId":11584,"contract":"contracts/RewardPenalty.sol:RewardPenalty","label":"penaltyHistory","offset":0,"slot":"9","type":"t_mapping(t_address,t_array(t_struct(PenaltyRecord)11541_storage)dyn_storage)"},{"astId":11589,"contract":"contracts/RewardPenalty.sol:RewardPenalty","label":"permanentlyBanned","offset":0,"slot":"10","type":"t_mapping(t_address,t_bool)"},{"astId":11594,"contract":"contracts/RewardPenalty.sol:RewardPenalty","label":"banUntil","offset":0,"slot":"11","type":"t_mapping(t_address,t_uint256)"},{"astId":11599,"contract":"contracts/RewardPenalty.sol:RewardPenalty","label":"authorizedOperators","offset":0,"slot":"12","type":"t_mapping(t_address,t_bool)"},{"astId":11604,"contract":"contracts/RewardPenalty.sol:RewardPenalty","label":"totalRewardsEarned","offset":0,"slot":"13","type":"t_mapping(t_address,t_uint256)"},{"astId":11609,"contract":"contracts/RewardPenalty.sol:RewardPenalty","label":"pendingRewards","offset":0,"slot":"14","type":"t_mapping(t_address,t_uint256)"}],"types":{"t_address":{"encoding":"inplace","label":"address","numberOfBytes":"20"},"t_array(t_struct(PenaltyRecord)11541_storage)dyn_storage":{"base":"t_struct(PenaltyRecord)11541_storage","encoding":"dynamic_array","label":"struct RewardPenalty.PenaltyRecord[]","numberOfBytes":"32"},"t_bool":{"encoding":"inplace","label":"bool","numberOfBytes":"1"},"t_contract(IERC20)3177":{"encoding":"inplace","label":"contract IERC20","numberOfBytes":"20"},"t_enum(PenaltyLevel)11528":{"encoding":"inplace","label":"enum RewardPenalty.PenaltyLevel","numberOfBytes":"1"},"t_mapping(t_address,t_array(t_struct(PenaltyRecord)11541_storage)dyn_storage)":{"encoding":"mapping","key":"t_address","label":"mapping(address => struct RewardPenalty.PenaltyRecord[])","numberOfBytes":"32","value":"t_array(t_struct(PenaltyRecord)11541_storage)dyn_storage"},"t_mapping(t_address,t_bool)":{"encoding":"mapping","key":"t_address","label":"mapping(address => bool)","numberOfBytes":"32","value":"t_bool"},"t_mapping(t_address,t_uint256)":{"encoding":"mapping","key":"t_address","label":"mapping(address => uint256)","numberOfBytes":"32","value":"t_uint256"},"t_mapping(t_enum(PenaltyLevel)11528,t_uint256)":{"encoding":"mapping","key":"t_enum(PenaltyLevel)11528","label":"mapping(enum RewardPenalty.PenaltyLevel => uint256)","numberOfBytes":"32","value":"t_uint256"},"t_string_storage":{"encoding":"bytes","label":"string","numberOfBytes":"32"},"t_struct(PenaltyRecord)11541_storage":{"encoding":"inplace","label":"struct RewardPenalty.PenaltyRecord","members":[{"astId":11532,"contract":"contracts/RewardPenalty.sol:RewardPenalty","label":"level","offset":0,"slot":"0","type":"t_enum(PenaltyLevel)11528"},{"astId":11534,"contract":"contracts/RewardPenalty.sol:RewardPenalty","label":"reason","offset":0,"slot":"1","type":"t_string_storage"},{"astId":11536,"contract":"contracts/RewardPenalty.sol:RewardPenalty","label":"slashedAmount","offset":0,"slot":"2","type":"t_uint256"},{"astId":11538,"contract":"contracts/RewardPenalty.sol:RewardPenalty","label":"timestamp","offset":0,"slot":"3","type":"t_uint256"},{"astId":11540,"contract":"contracts/RewardPenalty.sol:RewardPenalty","label":"banUntil","offset":0,"slot":"4","type":"t_uint256"}],"numberOfBytes":"160"},"t_struct(RewardSplit)11551_storage":{"encoding":"inplace","label":"struct RewardPenalty.RewardSplit","members":[{"astId":11544,"contract":"contracts/RewardPenalty.sol:RewardPenalty","label":"feederBps","offset":0,"slot":"0","type":"t_uint256"},{"astId":11546,"contract":"contracts/RewardPenalty.sol:RewardPenalty","label":"platformBps","offset":0,"slot":"1","type":"t_uint256"},{"astId":11548,"contract":"contracts/RewardPenalty.sol:RewardPenalty","label":"daoBps","offset":0,"slot":"2","type":"t_uint256"},{"astId":11550,"contract":"contracts/RewardPenalty.sol:RewardPenalty","label":"burnBps","offset":0,"slot":"3","type":"t_uint256"}],"numberOfBytes":"128"},"t_uint256":{"encoding":"inplace","label":"uint256","numberOfBytes":"32"}}}}}}