{"contracts/FeedEngine.sol":{"FeedEngine":{"abi":[{"inputs":[],"stateMutability":"nonpayable","type":"constructor"},{"inputs":[{"internalType":"address","name":"target","type":"address"}],"name":"AddressEmptyCode","type":"error"},{"inputs":[{"internalType":"address","name":"implementation","type":"address"}],"name":"ERC1967InvalidImplementation","type":"error"},{"inputs":[],"name":"ERC1967NonPayable","type":"error"},{"inputs":[],"name":"FailedCall","type":"error"},{"inputs":[],"name":"InvalidInitialization","type":"error"},{"inputs":[],"name":"NotInitializing","type":"error"},{"inputs":[{"internalType":"address","name":"owner","type":"address"}],"name":"OwnableInvalidOwner","type":"error"},{"inputs":[{"internalType":"address","name":"account","type":"address"}],"name":"OwnableUnauthorizedAccount","type":"error"},{"inputs":[],"name":"ReentrancyGuardReentrantCall","type":"error"},{"inputs":[],"name":"UUPSUnauthorizedCallContext","type":"error"},{"inputs":[{"internalType":"bytes32","name":"slot","type":"bytes32"}],"name":"UUPSUnsupportedProxiableUUID","type":"error"},{"anonymous":false,"inputs":[{"indexed":true,"internalType":"bytes32","name":"orderId","type":"bytes32"},{"indexed":true,"internalType":"address","name":"requester","type":"address"},{"indexed":false,"internalType":"uint256","name":"requiredFeeders","type":"uint256"},{"indexed":false,"internalType":"uint256","name":"rewardAmount","type":"uint256"}],"name":"FeedRequested","type":"event"},{"anonymous":false,"inputs":[{"indexed":true,"internalType":"address","name":"feeder","type":"address"},{"indexed":false,"internalType":"enum FeedEngine.FeederRank","name":"oldRank","type":"uint8"},{"indexed":false,"internalType":"enum FeedEngine.FeederRank","name":"newRank","type":"uint8"}],"name":"FeederRankUpdated","type":"event"},{"anonymous":false,"inputs":[{"indexed":true,"internalType":"address","name":"feeder","type":"address"},{"indexed":false,"internalType":"uint256","name":"licenseTokenId","type":"uint256"}],"name":"FeederRegistered","type":"event"},{"anonymous":false,"inputs":[{"indexed":false,"internalType":"uint64","name":"version","type":"uint64"}],"name":"Initialized","type":"event"},{"anonymous":false,"inputs":[{"indexed":true,"internalType":"bytes32","name":"orderId","type":"bytes32"},{"indexed":true,"internalType":"address","name":"feeder","type":"address"}],"name":"OrderGrabbed","type":"event"},{"anonymous":false,"inputs":[{"indexed":true,"internalType":"bytes32","name":"orderId","type":"bytes32"},{"indexed":false,"internalType":"uint256","name":"consensusPrice","type":"uint256"},{"indexed":false,"internalType":"uint256","name":"reward","type":"uint256"}],"name":"OrderSettled","type":"event"},{"anonymous":false,"inputs":[{"indexed":true,"internalType":"address","name":"previousOwner","type":"address"},{"indexed":true,"internalType":"address","name":"newOwner","type":"address"}],"name":"OwnershipTransferred","type":"event"},{"anonymous":false,"inputs":[{"indexed":true,"internalType":"address","name":"protocol","type":"address"},{"indexed":false,"internalType":"bool","name":"authorized","type":"bool"}],"name":"ProtocolAuthorized","type":"event"},{"anonymous":false,"inputs":[{"indexed":true,"internalType":"address","name":"feeder","type":"address"},{"indexed":false,"internalType":"uint256","name":"amount","type":"uint256"}],"name":"Staked","type":"event"},{"anonymous":false,"inputs":[{"indexed":true,"internalType":"address","name":"feeder","type":"address"},{"indexed":false,"internalType":"uint256","name":"amount","type":"uint256"}],"name":"UnstakeRequested","type":"event"},{"anonymous":false,"inputs":[{"indexed":true,"internalType":"address","name":"implementation","type":"address"}],"name":"Upgraded","type":"event"},{"anonymous":false,"inputs":[{"indexed":true,"internalType":"address","name":"feeder","type":"address"},{"indexed":false,"internalType":"uint256","name":"amount","type":"uint256"}],"name":"Withdrawn","type":"event"},{"anonymous":false,"inputs":[{"indexed":true,"internalType":"address","name":"feeder","type":"address"},{"indexed":false,"internalType":"uint256","name":"amount","type":"uint256"},{"indexed":false,"internalType":"string","name":"reason","type":"string"}],"name":"XPAwarded","type":"event"},{"inputs":[],"name":"UPGRADE_INTERFACE_VERSION","outputs":[{"internalType":"string","name":"","type":"string"}],"stateMutability":"view","type":"function"},{"inputs":[{"internalType":"address","name":"","type":"address"}],"name":"authorizedProtocols","outputs":[{"internalType":"bool","name":"","type":"bool"}],"stateMutability":"view","type":"function"},{"inputs":[{"internalType":"address","name":"feederAddr","type":"address"},{"internalType":"uint256","name":"amount","type":"uint256"},{"internalType":"string","name":"reason","type":"string"}],"name":"awardXP","outputs":[],"stateMutability":"nonpayable","type":"function"},{"inputs":[],"name":"consensus","outputs":[{"internalType":"contract FeedConsensus","name":"","type":"address"}],"stateMutability":"view","type":"function"},{"inputs":[{"internalType":"bytes32","name":"","type":"bytes32"}],"name":"engineOrders","outputs":[{"internalType":"bytes32","name":"orderId","type":"bytes32"},{"internalType":"uint256","name":"rewardAmount","type":"uint256"},{"internalType":"bool","name":"settled","type":"bool"}],"stateMutability":"view","type":"function"},{"inputs":[{"internalType":"bytes32","name":"","type":"bytes32"}],"name":"feedRequests","outputs":[{"internalType":"address","name":"requester","type":"address"},{"internalType":"uint256","name":"requiredFeeders","type":"uint256"},{"internalType":"uint256","name":"rewardAmount","type":"uint256"},{"internalType":"uint256","name":"timestamp","type":"uint256"},{"internalType":"bool","name":"exists","type":"bool"}],"stateMutability":"view","type":"function"},{"inputs":[],"name":"feedToken","outputs":[{"internalType":"contract IERC20","name":"","type":"address"}],"stateMutability":"view","type":"function"},{"inputs":[],"name":"feederLicense","outputs":[{"internalType":"contract FeederLicense","name":"","type":"address"}],"stateMutability":"view","type":"function"},{"inputs":[{"internalType":"address","name":"","type":"address"}],"name":"feeders","outputs":[{"internalType":"bool","name":"registered","type":"bool"},{"internalType":"enum FeedEngine.FeederRank","name":"rank","type":"uint8"},{"internalType":"uint256","name":"xp","type":"uint256"},{"internalType":"uint256","name":"totalFeeds","type":"uint256"},{"internalType":"uint256","name":"stakedAmount","type":"uint256"},{"internalType":"uint256","name":"unstakeRequestTime","type":"uint256"},{"internalType":"uint256","name":"dailyGrabCount","type":"uint256"},{"internalType":"uint256","name":"lastGrabDate","type":"uint256"}],"stateMutability":"view","type":"function"},{"inputs":[{"internalType":"bytes32","name":"orderId","type":"bytes32"}],"name":"getConsensusPrice","outputs":[{"internalType":"uint256","name":"price","type":"uint256"},{"internalType":"uint256","name":"timestamp","type":"uint256"},{"internalType":"bool","name":"finalized","type":"bool"}],"stateMutability":"view","type":"function"},{"inputs":[{"internalType":"address","name":"feederAddr","type":"address"}],"name":"getFeederInfo","outputs":[{"internalType":"bool","name":"registered","type":"bool"},{"internalType":"enum FeedEngine.FeederRank","name":"rank","type":"uint8"},{"internalType":"uint256","name":"xp","type":"uint256"},{"internalType":"uint256","name":"totalFeeds","type":"uint256"},{"internalType":"uint256","name":"stakedAmount","type":"uint256"},{"internalType":"uint256","name":"pendingRewards","type":"uint256"}],"stateMutability":"view","type":"function"},{"inputs":[{"internalType":"bytes32","name":"orderId","type":"bytes32"}],"name":"getOrderFeeders","outputs":[{"internalType":"address[]","name":"","type":"address[]"}],"stateMutability":"view","type":"function"},{"inputs":[{"internalType":"bytes32","name":"orderId","type":"bytes32"}],"name":"grabOrder","outputs":[],"stateMutability":"nonpayable","type":"function"},{"inputs":[{"internalType":"address","name":"owner_","type":"address"},{"internalType":"address","name":"feedToken_","type":"address"},{"internalType":"address","name":"consensus_","type":"address"},{"internalType":"address","name":"rewardPenalty_","type":"address"},{"internalType":"address","name":"feederLicense_","type":"address"}],"name":"initialize","outputs":[],"stateMutability":"nonpayable","type":"function"},{"inputs":[{"internalType":"address","name":"protocol","type":"address"}],"name":"isProtocolAuthorized","outputs":[{"internalType":"bool","name":"","type":"bool"}],"stateMutability":"view","type":"function"},{"inputs":[{"internalType":"enum FeedEngine.FeederRank","name":"","type":"uint8"}],"name":"maxDailyGrabByRank","outputs":[{"internalType":"uint256","name":"","type":"uint256"}],"stateMutability":"view","type":"function"},{"inputs":[{"internalType":"enum FeedEngine.FeederRank","name":"","type":"uint8"}],"name":"minStakeByRank","outputs":[{"internalType":"uint256","name":"","type":"uint256"}],"stateMutability":"view","type":"function"},{"inputs":[],"name":"owner","outputs":[{"internalType":"address","name":"","type":"address"}],"stateMutability":"view","type":"function"},{"inputs":[],"name":"proxiableUUID","outputs":[{"internalType":"bytes32","name":"","type":"bytes32"}],"stateMutability":"view","type":"function"},{"inputs":[{"internalType":"uint256","name":"stakeAmount","type":"uint256"}],"name":"registerFeeder","outputs":[],"stateMutability":"nonpayable","type":"function"},{"inputs":[],"name":"renounceOwnership","outputs":[],"stateMutability":"nonpayable","type":"function"},{"inputs":[{"internalType":"bytes32","name":"orderId","type":"bytes32"},{"internalType":"uint256","name":"requiredFeeders","type":"uint256"},{"internalType":"uint256","name":"rewardAmount","type":"uint256"}],"name":"requestFeed","outputs":[],"stateMutability":"nonpayable","type":"function"},{"inputs":[],"name":"requestUnstake","outputs":[],"stateMutability":"nonpayable","type":"function"},{"inputs":[],"name":"rewardPenalty","outputs":[{"internalType":"contract RewardPenalty","name":"","type":"address"}],"stateMutability":"view","type":"function"},{"inputs":[{"internalType":"address","name":"protocol","type":"address"},{"internalType":"bool","name":"authorized","type":"bool"}],"name":"setAuthorizedProtocol","outputs":[],"stateMutability":"nonpayable","type":"function"},{"inputs":[{"internalType":"bytes32","name":"orderId","type":"bytes32"},{"internalType":"uint256","name":"rewardAmount","type":"uint256"}],"name":"settleOrder","outputs":[],"stateMutability":"nonpayable","type":"function"},{"inputs":[{"internalType":"uint256","name":"amount","type":"uint256"}],"name":"stake","outputs":[],"stateMutability":"nonpayable","type":"function"},{"inputs":[],"name":"totalFeeders","outputs":[{"internalType":"uint256","name":"","type":"uint256"}],"stateMutability":"view","type":"function"},{"inputs":[{"internalType":"address","name":"newOwner","type":"address"}],"name":"transferOwnership","outputs":[],"stateMutability":"nonpayable","type":"function"},{"inputs":[],"name":"unstakeCooldown","outputs":[{"internalType":"uint256","name":"","type":"uint256"}],"stateMutability":"view","type":"function"},{"inputs":[{"internalType":"enum FeedEngine.FeederRank","name":"rank","type":"uint8"},{"internalType":"uint256","name":"amount","type":"uint256"}],"name":"updateMinStake","outputs":[],"stateMutability":"nonpayable","type":"function"},{"inputs":[{"internalType":"address","name":"consensus_","type":"address"},{"internalType":"address","name":"rewardPenalty_","type":"address"},{"internalType":"address","name":"feederLicense_","type":"address"}],"name":"updateSubContracts","outputs":[],"stateMutability":"nonpayable","type":"function"},{"inputs":[{"internalType":"uint256","name":"cooldown","type":"uint256"}],"name":"updateUnstakeCooldown","outputs":[],"stateMutability":"nonpayable","type":"function"},{"inputs":[{"internalType":"address","name":"newImplementation","type":"address"},{"internalType":"bytes","name":"data","type":"bytes"}],"name":"upgradeToAndCall","outputs":[],"stateMutability":"payable","type":"function"},{"inputs":[],"name":"withdraw","outputs":[],"stateMutability":"nonpayable","type":"function"},{"inputs":[{"internalType":"enum FeedEngine.FeederRank","name":"","type":"uint8"}],"name":"xpThresholds","outputs":[{"internalType":"uint256","name":"","type":"uint256"}],"stateMutability":"view","type":"function"}],"evm":{"bytecode":{"linkReferences":{},"object":"60a080604052346100ea57306080527ff0c57e16840df040f15088dc2f81fe391c3923bec73e23a9662efc9c229c6a005460ff8160401c166100d9576002600160401b03196001600160401b03821601610073575b60405161266f90816100f08239608051818181611277015261131d0152f35b6001600160401b0319166001600160401b039081177ff0c57e16840df040f15088dc2f81fe391c3923bec73e23a9662efc9c229c6a005581527fc7f505b2f371ae2175ee4913f4499e1f2633a7b5936321eed1cdaeb6115181d290602090a13880610054565b63f92ee8a960e01b60005260046000fd5b600080fdfe6080604052600436101561001257600080fd5b6000803560e01c806304993e6a14611f775780630aa3166114611ee257806313b9963514611e9b5780631459457a14611af35780632d230d2a14611a465780632e822dbf14611a1c5780633ccfd60b1461187c57806340c340ec146111fc57806340e1990814611819578063436a0fab146117e6578063472ac4b7146114f55780634f1ef286146112cc57806352d1902d14611264578063569bb6e91461123b5780635f76a98d146111fc57806365334ac014611139578063715018a6146110cf5780637eefd5ae146110b157806388e5ee8114610e6e5780638da5cb5b14610e385780638ef3f76114610e0f5780639f648f5514610db1578063a694fc3a14610c83578063ad3cb1cc14610c36578063b334c28b14610b7a578063c27308a814610b53578063c639af3e14610b19578063ce93f86714610a53578063d21db9a5146109cf578063d3686dcf146109b1578063d5adc966146108bd578063de000f4b146105cc578063e0f8b2ef146105a3578063eb7bb5a71461027d578063f2fde38b146102505763fc63958e146101a957600080fd5b3461024d578060031936011261024d573381526004602052604081206101d260ff825416612127565b600481019081546102145760039142905501546040519081527f828764c21e74c28710e19919735825aba966621c95cbd913f8ed65a2d298f48c60203392a280f35b60405162461bcd60e51b8152602060048201526011602482015270105b1c9958591e481c995c5d595cdd1959607a1b6044820152606490fd5b80fd5b503461024d57602036600319011261024d5761027a61026d61200c565b610275612271565b6121fb565b80f35b503461024d57602036600319011261024d576004359061029b6122a7565b338152600460205260ff604082205416610569576000805260086020527f5eff886ea0ce6ca488a3d6e336d6c0f75f46d19b42c06ce5ee98e42c96d256c754821061052f5780546040516323b872dd60e01b815233600482015230602482015260448101849052906020908290606490829086906001600160a01b03165af180156104cf57610502575b50604051610100810181811067ffffffffffffffff8211176104ee576040526001815260208101828152604082019383855260608301908482526080840190815260a084019085825260c085019286845260e086019487865233885260046020526103a36040892097511515889060ff801983541691151516179055565b519760078910156104da576103bc8798996006986121dc565b516001880155516002870155516003860155516004850155516005840155519101556103e9600c546121cd565b600c55600354604051636a4b888360e01b815233600482015260606024820152601060648201526f1a5c199cce8bcbd45b511959985d5b1d60821b60848201526044810183905290602090829060a490829086906001600160a01b03165af19081156104cf578291610498575b506040519081527f5e8c4c772a7a8b93ca7071579387eaf0b19513b729d2c2903c22f28cf60e46bc60203392a260016000805160206125fa8339815191525580f35b90506020813d6020116104c7575b816104b36020938361205b565b810103126104c2575138610456565b600080fd5b3d91506104a6565b6040513d84823e3d90fd5b634e487b7160e01b88526021600452602488fd5b634e487b7160e01b83526041600452602483fd5b6105239060203d602011610528575b61051b818361205b565b810190612187565b610325565b503d610511565b60405162461bcd60e51b8152602060048201526012602482015271496e73756666696369656e74207374616b6560701b6044820152606490fd5b60405162461bcd60e51b8152602060048201526012602482015271105b1c9958591e481c9959da5cdd195c995960721b6044820152606490fd5b503461024d578060031936011261024d576002546040516001600160a01b039091168152602090f35b503461024d57606036600319011261024d576024356004356044356105ef6122a7565b338452600760205260ff604085205416801561089c575b1561085757818452600660205260ff60046040862001541661081957600383106107e05780156107ad5783546040516323b872dd60e01b815233600482015230602482015260448101839052906020908290606490829089906001600160a01b03165af180156107a257610785575b5060405160a0810181811067ffffffffffffffff821117610771579061070c91604052338152600460208201868152604083018581526060840190428252608085019260018452888b52600660205260408b209560018060a01b039051166001600160601b0360a01b87541617865551600186015551600285015551600384015551151591019060ff801983541691151516179055565b8184526005602052816040852055818452600560205280600260408620015560405192835260208301527f4a2e25c6248f385ba4235761cc1548ebe077dc5489f7ad4c9c33ac62830492d760403393a360016000805160206125fa8339815191525580f35b634e487b7160e01b86526041600452602486fd5b61079d9060203d6020116105285761051b818361205b565b610675565b6040513d87823e3d90fd5b60405162461bcd60e51b815260206004820152600b60248201526a16995c9bc81c995dd85c9960aa1b6044820152606490fd5b60405162461bcd60e51b81526020600482015260116024820152704d696e696d756d2033206665656465727360781b6044820152606490fd5b60405162461bcd60e51b81526020600482015260166024820152755265717565737420616c72656164792065786973747360501b6044820152606490fd5b60405162461bcd60e51b815260206004820152601760248201527f4e6f7420617574686f72697a65642070726f746f636f6c0000000000000000006044820152606490fd5b506000805160206125ba833981519152546001600160a01b03163314610606565b503461024d57602036600319011261024d576001600160a01b036108df61200c565b1690818152600460205260408120908154916001810154906003600282015491015491602060018060a01b0360025416966024604051809981936318ebd13160e11b835260048301525afa9384156109a55793610970575b60c0955061095a6040519560ff81161515875260ff602088019160081c1661204e565b60408501526060840152608083015260a0820152f35b92506020853d60201161099d575b8161098b6020938361205b565b810103126104c25760c0945192610937565b3d915061097e565b604051903d90823e3d90fd5b503461024d578060031936011261024d576020600c54604051908152f35b503461024d57606036600319011261024d576109e961200c565b6044359067ffffffffffffffff8211610a4f5736602383011215610a4f57816004013567ffffffffffffffff8111610a4b573660248285010111610a4b5761027a92610a4191610a37612271565b60243692016120af565b906024359061237d565b8380fd5b8280fd5b503461024d57602036600319011261024d576024600435602060018060a01b03600154166040519384809263ce93f86760e01b82528560048301525afa918215610b0e578392610ad7575b5060ff60036040858460609752600660205282828220015494815260056020522001541690604051928352602083015215156040820152f35b9291506020833d602011610b06575b81610af36020938361205b565b810103126104c2579151909160ff610a9e565b3d9150610ae6565b6040513d85823e3d90fd5b503461024d57604036600319011261024d576004356007811015610b4f57610b3f612271565b610b4b60243591611fc1565b5580f35b5080fd5b503461024d578060031936011261024d57546040516001600160a01b039091168152602090f35b503461024d57602036600319011261024d576004358152600560205260016040822001604051908160208254918281520190819285526020852090855b818110610c175750505082610bcd91038361205b565b604051928392602084019060208552518091526040840192915b818110610bf5575050500390f35b82516001600160a01b0316845285945060209384019390920191600101610be7565b82546001600160a01b0316845260209093019260019283019201610bb7565b503461024d578060031936011261024d5750610c7f604051610c5960408261205b565b60058152640352e302e360dc1b60208201526040519182916020835260208301906120e6565b0390f35b503461024d57602036600319011261024d57600435610ca06122a7565b3382526004602052610cb860ff604084205416612127565b8015610d7e5781546040516323b872dd60e01b815233600482015230602482015260448101839052906020908290606490829087906001600160a01b03165af18015610b0e57610d61575b50338252600460205260036040832001610d1e828254612164565b90556040519081527f9e71bc8eea02a63969f509818f2dafb9254532904319f9dbda79b67bd34a5f3d60203392a260016000805160206125fa8339815191525580f35b610d799060203d6020116105285761051b818361205b565b610d03565b60405162461bcd60e51b815260206004820152600b60248201526a16995c9bc8185b5bdd5b9d60aa1b6044820152606490fd5b503461024d57602036600319011261024d57600435610dce612271565b620151808110610dde57600a5580f35b60405162461bcd60e51b8152602060048201526009602482015268151bdbc81cda1bdc9d60ba1b6044820152606490fd5b503461024d578060031936011261024d576001546040516001600160a01b039091168152602090f35b503461024d578060031936011261024d576000805160206125ba833981519152546040516001600160a01b039091168152602090f35b503461024d57602036600319011261024d57600435338252600460205260408220805490610e9e60ff8316612127565b60ff60038201549260081c1691610eb483611fc1565b541161106c57600254604051630ddb3db760e41b815233600482015290602090829060249082906001600160a01b03165afa9081156107a257859161104d575b5015611011576005906201518042046006820181815403611004575b50500190610f1f825491611ff3565b541115610fbf5781835260056020526001604084200180549068010000000000000000821015610fab5790610f599160018201815561219f565b81546001600160a01b0360039290921b91821b19163390911b1790558054610f80906121cd565b905533907f6f0e71390fec0559c3c025c4586a7a5d52bd03a8515f3ec54a03bff1b247ec538380a380f35b634e487b7160e01b85526041600452602485fd5b60405162461bcd60e51b815260206004820152601860248201527f4461696c792067726162206c696d6974207265616368656400000000000000006044820152606490fd5b8684840155553880610f10565b60405162461bcd60e51b815260206004820152601460248201527342616e6e65642066726f6d206772616262696e6760601b6044820152606490fd5b611066915060203d6020116105285761051b818361205b565b38610ef4565b60405162461bcd60e51b815260206004820152601b60248201527f496e73756666696369656e74207374616b6520666f722072616e6b00000000006044820152606490fd5b503461024d578060031936011261024d576020600a54604051908152f35b503461024d578060031936011261024d576110e8612271565b6000805160206125ba83398151915280546001600160a01b0319811690915581906001600160a01b03167f8be0079c531659141344cd1fd0a4f28419497f9722a3daafe3b4186f6b6457e08280a380f35b503461024d57604036600319011261024d5761115361200c565b6024359081151590818303610a4b5761116a612271565b6001600160a01b03169182156111c8577f68a5f73b4ad49573fdcbd5e548404a298dea33f94c1475d4f7825a23232637f3916111be60209285875260078452604087209060ff801983541691151516179055565b604051908152a280f35b60405162461bcd60e51b815260206004820152600c60248201526b5a65726f206164647265737360a01b6044820152606490fd5b503461024d57602036600319011261024d5760209060ff906040906001600160a01b0361122761200c565b168152600784522054166040519015158152f35b503461024d578060031936011261024d576003546040516001600160a01b039091168152602090f35b503461024d578060031936011261024d577f00000000000000000000000000000000000000000000000000000000000000006001600160a01b031630036112bd5760206040516000805160206125da8339815191528152f35b63703e46dd60e11b8152600490fd5b50604036600319011261024d576112e161200c565b9060243567ffffffffffffffff8111610b4f5736602382011215610b4f576113139036906024816004013591016120af565b6001600160a01b037f0000000000000000000000000000000000000000000000000000000000000000163081149081156114d2575b506114c357611355612271565b6040516352d1902d60e01b8152926001600160a01b0381169190602085600481865afa8095859661148b575b5061139a57634c9c8ce360e01b84526004839052602484fd5b9091846000805160206125da83398151915281036114795750813b15611467576000805160206125da83398151915280546001600160a01b031916821790557fbc7cd75a20ee27fd9adebab32041f755214dbc6bffa90cc0225b39da2e5c2d3b8480a2815183901561144d578083602061144195519101845af43d15611445573d9161142583612093565b92611433604051948561205b565b83523d85602085013e612558565b5080f35b606091612558565b505050346114585780f35b63b398979f60e01b8152600490fd5b634c9c8ce360e01b8452600452602483fd5b632a87526960e21b8552600452602484fd5b9095506020813d6020116114bb575b816114a76020938361205b565b810103126114b757519438611381565b8480fd5b3d915061149a565b63703e46dd60e11b8252600482fd5b6000805160206125da833981519152546001600160a01b03161415905038611348565b503461024d57604036600319011261024d57602435600435611515612271565b61151d6122a7565b80835260056020526040832090600382019160ff8354166117af57600181019283541561177457805460ff1916600190811790915560029091018490555460405163ce93f86760e01b8152600481018390529085906001600160a01b0316602083602481845afa9283156104cf578293611740575b50803b15610b4f578190602460405180948193631242176360e21b83528860048401525af1801561173557611721575b508361166e575b845b835481101561162757806116216115e46001938761219f565b9054848060a01b039160031b1c166040906116018251928361205b565b600e82526d1999595917d8dbdb5c1b195d195960921b60208301526122e3565b016115cb565b85837f6f4014c94efe6688744a22acb21d0a62cd2a70b6bd4a75da3b1a20512419d6056040858982519182526020820152a260016000805160206125fa8339815191525580f35b6002546001600160a01b0316803b1561171d57604051632a63773960e21b8152600481018490526060602482015284546064820181905285885260208820889391608484019190855b8181106116fb575050508391838381848195508c604483015203925af180156104cf576116e6575b50506115c9565b816116f09161205b565b6114b75784386116df565b82546001600160a01b031684528b9650602090930192600192830192016116b7565b8580fd5b8561172e9196929661205b565b93386115c2565b6040513d88823e3d90fd5b9092506020813d60201161176c575b8161175c6020938361205b565b81010312610b4f57519138611592565b3d915061174f565b60405162461bcd60e51b8152602060048201526013602482015272139bc819995959195c9cc8185cdcda59db9959606a1b6044820152606490fd5b60405162461bcd60e51b815260206004820152600f60248201526e105b1c9958591e481cd95d1d1b1959608a1b6044820152606490fd5b503461024d57602036600319011261024d5760043590600782101561024d57602061181083611ff3565b54604051908152f35b503461024d57602036600319011261024d57604060a0916004358152600660205220600180831b0381541690600181015490600281015460ff60046003840154930154169260405194855260208501526040840152606083015215156080820152f35b503461024d578060031936011261024d576118956122a7565b3381526004602052604081206118ae60ff825416612127565b6004810190815480156119e257600a546118c791612164565b42106119aa57600301805491821561197657838092555581602060018060a01b0382541660446040518094819363a9059cbb60e01b83523360048401528760248401525af18015610b0e57611959575b506040519081527f7084f5476618d8e60b11ef0d7d3f06914655adb8793e28ff7f018d4c76d505d560203392a260016000805160206125fa8339815191525580f35b6119719060203d6020116105285761051b818361205b565b611917565b60405162461bcd60e51b815260206004820152600c60248201526b5a65726f2062616c616e636560a01b6044820152606490fd5b60405162461bcd60e51b815260206004820152601060248201526f10dbdbdb191bdddb881b9bdd081b595d60821b6044820152606490fd5b60405162461bcd60e51b8152602060048201526012602482015271139bc81d5b9cdd185ad9481c995c5d595cdd60721b6044820152606490fd5b503461024d57602036600319011261024d5760043590600782101561024d57602061181083611fda565b503461024d57606036600319011261024d57611a6061200c565b611a68612022565b611a70612038565b91611a79612271565b6001600160a01b031680611ada575b506001600160a01b031680611ac1575b506001600160a01b031680611aab575080f35b6001600160601b0360a01b600354161760035580f35b6001600160601b0360a01b600254161760025538611a98565b6001600160601b0360a01b600154161760015538611a88565b503461024d5760a036600319011261024d57611b0d61200c565b611b15612022565b611b1d612038565b6064356001600160a01b03811691908290036114b7576084356001600160a01b038116939084900361171d5760008051602061261a833981519152549460ff8660401c16159567ffffffffffffffff811680159081611e93575b6001149081611e89575b159081611e80575b50611e715767ffffffffffffffff19811660011760008051602061261a83398151915255611bc9919087611e44575b50611bc161240b565b61027561240b565b611bd161240b565b611bd961240b565b611be161240b565b60016000805160206125fa8339815191525560018060a01b03166001600160601b0360a01b86541617855560018060a01b03166001600160601b0360a01b60015416176001556001600160601b0360a01b60025416176002556001600160601b0360a01b600354161760035562093a80600a55818052600860205268056bc75e2d631000006040832055600182526008602052680ad78ebc5ac62000006040832055600282526008602052681b1ae4d6e2ef5000006040832055600382526008602052683635c9adc5dea00000604083205560048252600860205268878678326eac900000604083205560058252600860205269010f0cf064dd59200000604083205560068252600860205269054b40b1f852bda0000060408320558180526009602052600a6040832055600182526009602052600f604083205560028252600960205260146040832055600382526009602052601e60408320556004825260096020526032604083205560058252600960205260646040832055600682526009602052604082206000199055818052600b60205281604081205560018252600b6020526103e8604083205560028252600b602052610bb8604083205560038252600b602052611f40604083205560048252600b602052614e20604083205560058252600b60205261c350604083205560068252600b602052620186a06040832055611dea5780f35b68ff00000000000000001960008051602061261a833981519152541660008051602061261a833981519152557fc7f505b2f371ae2175ee4913f4499e1f2633a7b5936321eed1cdaeb6115181d2602060405160018152a180f35b68ffffffffffffffffff1916680100000000000000011760008051602061261a8339815191525538611bb8565b63f92ee8a960e01b8852600488fd5b90501538611b89565b303b159150611b81565b889150611b77565b503461024d57602036600319011261024d576040606091600435815260056020522080549060ff600360028301549201541690604051928352602083015215156040820152f35b503461024d57602036600319011261024d57610100906040906001600160a01b03611f0b61200c565b168152600460205220805490600181015490600281015460038201546004830154916006600585015494015494611f576040519760ff81161515895260ff60208a019160081c1661204e565b60408701526060860152608085015260a084015260c083015260e0820152f35b503461024d57602036600319011261024d5760043590600782101561024d57602061181083611fc1565b60071115611fab57565b634e487b7160e01b600052602160045260246000fd5b6007811015611fab576000526008602052604060002090565b6007811015611fab57600052600b602052604060002090565b6007811015611fab576000526009602052604060002090565b600435906001600160a01b03821682036104c257565b602435906001600160a01b03821682036104c257565b604435906001600160a01b03821682036104c257565b906007821015611fab5752565b90601f8019910116810190811067ffffffffffffffff82111761207d57604052565b634e487b7160e01b600052604160045260246000fd5b67ffffffffffffffff811161207d57601f01601f191660200190565b9291926120bb82612093565b916120c9604051938461205b565b8294818452818301116104c2578281602093846000960137010152565b919082519283825260005b848110612112575050826000602080949584010152601f8019910116010190565b806020809284010151828286010152016120f1565b1561212e57565b60405162461bcd60e51b815260206004820152600e60248201526d139bdd081c9959da5cdd195c995960921b6044820152606490fd5b9190820180921161217157565b634e487b7160e01b600052601160045260246000fd5b908160209103126104c2575180151581036104c25790565b80548210156121b75760005260206000200190600090565b634e487b7160e01b600052603260045260246000fd5b60001981146121715760010190565b906007811015611fab5761ff0082549160081b169061ff001916179055565b6001600160a01b0316801561225b576000805160206125ba83398151915280546001600160a01b0319811683179091556001600160a01b03167f8be0079c531659141344cd1fd0a4f28419497f9722a3daafe3b4186f6b6457e0600080a3565b631e4fbdf760e01b600052600060045260246000fd5b6000805160206125ba833981519152546001600160a01b0316330361229257565b63118cdaa760e01b6000523360045260246000fd5b60026000805160206125fa83398151915254146122d25760026000805160206125fa83398151915255565b633ee5aeb560e01b60005260046000fd5b6001600160a01b0381166000818152600460205260409020805460ff1615612377576001810193845490603282018092116121715760027fa13e62b23f693fff23dadfb64a02b469698038185aee33e381d571ecbaed843c9361236d9361237598550161235081546121cd565b9055604051918291603283526040602084015260408301906120e6565b0390a2612478565b565b50505050565b909160018060a01b0382169081600052600460205260406000209060ff82541615612404576123759460028360017fa13e62b23f693fff23dadfb64a02b469698038185aee33e381d571ecbaed843c95016123d9848254612164565b9055016123e681546121cd565b905561236d60405192839283526040602084015260408301906120e6565b5050505050565b60ff60008051602061261a8339815191525460401c161561242857565b631afcd79f60e31b60005260046000fd5b60ff60019116019060ff821161217157565b60ff166007811015611fab5790565b91602061237592949361247181604081019761204e565b019061204e565b6001600160a01b0381166000908152600460205260409020805490919060081c60ff166124a481611fa1565b600681106124b157505050565b6124ba81611fa1565b6124cb6124c682612439565b61244b565b60018401546124d982611fda565b54111580612541575b6124ec5750505050565b61236d8161251e7fbaf1d8eff6bfe4c2b1cc56e312bf32080bd1f619fb4798bea7b55c74fb159dc893612538976121dc565b6040516001600160a01b038616949092839290918361245a565b38808080612377565b50600384015461255082611fc1565b5411156124e2565b9061257e575080511561256d57602081519101fd5b63d6bda27560e01b60005260046000fd5b815115806125b0575b61258f575090565b639996b31560e01b60009081526001600160a01b0391909116600452602490fd5b50803b1561258756fe9016d09d72d40fdae2fd8ceac6b6234c7706214fd39c1cd1e609a0528c199300360894a13ba1a3210667c828492db98dca3e2076cc3735a920a3ca505d382bbc9b779b17422d0df92223018b32b4d1fa46e071723d6817e2486d003becc55f00f0c57e16840df040f15088dc2f81fe391c3923bec73e23a9662efc9c229c6a00a264697066735822122013ab1f0a96abc4be77b957900a5d4b21332543d0095aadc293f3ae4664afd37864736f6c634300081c0033","opcodes":"PUSH1 0xA0 DUP1 PUSH1 0x40 MSTORE CALLVALUE PUSH2 0xEA JUMPI ADDRESS PUSH1 0x80 MSTORE PUSH32 0xF0C57E16840DF040F15088DC2F81FE391C3923BEC73E23A9662EFC9C229C6A00 SLOAD PUSH1 0xFF DUP2 PUSH1 0x40 SHR AND PUSH2 0xD9 JUMPI PUSH1 0x2 PUSH1 0x1 PUSH1 0x40 SHL SUB NOT PUSH1 0x1 PUSH1 0x1 PUSH1 0x40 SHL SUB DUP3 AND ADD PUSH2 0x73 JUMPI JUMPDEST PUSH1 0x40 MLOAD PUSH2 0x266F SWAP1 DUP2 PUSH2 0xF0 DUP3 CODECOPY PUSH1 0x80 MLOAD DUP2 DUP2 DUP2 PUSH2 0x1277 ADD MSTORE PUSH2 0x131D ADD MSTORE RETURN JUMPDEST PUSH1 0x1 PUSH1 0x1 PUSH1 0x40 SHL SUB NOT AND PUSH1 0x1 PUSH1 0x1 PUSH1 0x40 SHL SUB SWAP1 DUP2 OR PUSH32 0xF0C57E16840DF040F15088DC2F81FE391C3923BEC73E23A9662EFC9C229C6A00 SSTORE DUP2 MSTORE PUSH32 0xC7F505B2F371AE2175EE4913F4499E1F2633A7B5936321EED1CDAEB6115181D2 SWAP1 PUSH1 0x20 SWAP1 LOG1 CODESIZE DUP1 PUSH2 0x54 JUMP JUMPDEST PUSH4 0xF92EE8A9 PUSH1 0xE0 SHL PUSH1 0x0 MSTORE PUSH1 0x4 PUSH1 0x0 REVERT JUMPDEST PUSH1 0x0 DUP1 REVERT INVALID PUSH1 0x80 PUSH1 0x40 MSTORE PUSH1 0x4 CALLDATASIZE LT ISZERO PUSH2 0x12 JUMPI PUSH1 0x0 DUP1 REVERT JUMPDEST PUSH1 0x0 DUP1 CALLDATALOAD PUSH1 0xE0 SHR DUP1 PUSH4 0x4993E6A EQ PUSH2 0x1F77 JUMPI DUP1 PUSH4 0xAA31661 EQ PUSH2 0x1EE2 JUMPI DUP1 PUSH4 0x13B99635 EQ PUSH2 0x1E9B JUMPI DUP1 PUSH4 0x1459457A EQ PUSH2 0x1AF3 JUMPI DUP1 PUSH4 0x2D230D2A EQ PUSH2 0x1A46 JUMPI DUP1 PUSH4 0x2E822DBF EQ PUSH2 0x1A1C JUMPI DUP1 PUSH4 0x3CCFD60B EQ PUSH2 0x187C JUMPI DUP1 PUSH4 0x40C340EC EQ PUSH2 0x11FC JUMPI DUP1 PUSH4 0x40E19908 EQ PUSH2 0x1819 JUMPI DUP1 PUSH4 0x436A0FAB EQ PUSH2 0x17E6 JUMPI DUP1 PUSH4 0x472AC4B7 EQ PUSH2 0x14F5 JUMPI DUP1 PUSH4 0x4F1EF286 EQ PUSH2 0x12CC JUMPI DUP1 PUSH4 0x52D1902D EQ PUSH2 0x1264 JUMPI DUP1 PUSH4 0x569BB6E9 EQ PUSH2 0x123B JUMPI DUP1 PUSH4 0x5F76A98D EQ PUSH2 0x11FC JUMPI DUP1 PUSH4 0x65334AC0 EQ PUSH2 0x1139 JUMPI DUP1 PUSH4 0x715018A6 EQ PUSH2 0x10CF JUMPI DUP1 PUSH4 0x7EEFD5AE EQ PUSH2 0x10B1 JUMPI DUP1 PUSH4 0x88E5EE81 EQ PUSH2 0xE6E JUMPI DUP1 PUSH4 0x8DA5CB5B EQ PUSH2 0xE38 JUMPI DUP1 PUSH4 0x8EF3F761 EQ PUSH2 0xE0F JUMPI DUP1 PUSH4 0x9F648F55 EQ PUSH2 0xDB1 JUMPI DUP1 PUSH4 0xA694FC3A EQ PUSH2 0xC83 JUMPI DUP1 PUSH4 0xAD3CB1CC EQ PUSH2 0xC36 JUMPI DUP1 PUSH4 0xB334C28B EQ PUSH2 0xB7A JUMPI DUP1 PUSH4 0xC27308A8 EQ PUSH2 0xB53 JUMPI DUP1 PUSH4 0xC639AF3E EQ PUSH2 0xB19 JUMPI DUP1 PUSH4 0xCE93F867 EQ PUSH2 0xA53 JUMPI DUP1 PUSH4 0xD21DB9A5 EQ PUSH2 0x9CF JUMPI DUP1 PUSH4 0xD3686DCF EQ PUSH2 0x9B1 JUMPI DUP1 PUSH4 0xD5ADC966 EQ PUSH2 0x8BD JUMPI DUP1 PUSH4 0xDE000F4B EQ PUSH2 0x5CC JUMPI DUP1 PUSH4 0xE0F8B2EF EQ PUSH2 0x5A3 JUMPI DUP1 PUSH4 0xEB7BB5A7 EQ PUSH2 0x27D JUMPI DUP1 PUSH4 0xF2FDE38B EQ PUSH2 0x250 JUMPI PUSH4 0xFC63958E EQ PUSH2 0x1A9 JUMPI PUSH1 0x0 DUP1 REVERT JUMPDEST CALLVALUE PUSH2 0x24D JUMPI DUP1 PUSH1 0x3 NOT CALLDATASIZE ADD SLT PUSH2 0x24D JUMPI CALLER DUP2 MSTORE PUSH1 0x4 PUSH1 0x20 MSTORE PUSH1 0x40 DUP2 KECCAK256 PUSH2 0x1D2 PUSH1 0xFF DUP3 SLOAD AND PUSH2 0x2127 JUMP JUMPDEST PUSH1 0x4 DUP2 ADD SWAP1 DUP2 SLOAD PUSH2 0x214 JUMPI PUSH1 0x3 SWAP2 TIMESTAMP SWAP1 SSTORE ADD SLOAD PUSH1 0x40 MLOAD SWAP1 DUP2 MSTORE PUSH32 0x828764C21E74C28710E19919735825ABA966621C95CBD913F8ED65A2D298F48C PUSH1 0x20 CALLER SWAP3 LOG2 DUP1 RETURN JUMPDEST PUSH1 0x40 MLOAD PUSH3 0x461BCD PUSH1 0xE5 SHL DUP2 MSTORE PUSH1 0x20 PUSH1 0x4 DUP3 ADD MSTORE PUSH1 0x11 PUSH1 0x24 DUP3 ADD MSTORE PUSH17 0x105B1C9958591E481C995C5D595CDD1959 PUSH1 0x7A SHL PUSH1 0x44 DUP3 ADD MSTORE PUSH1 0x64 SWAP1 REVERT JUMPDEST DUP1 REVERT JUMPDEST POP CALLVALUE PUSH2 0x24D JUMPI PUSH1 0x20 CALLDATASIZE PUSH1 0x3 NOT ADD SLT PUSH2 0x24D JUMPI PUSH2 0x27A PUSH2 0x26D PUSH2 0x200C JUMP JUMPDEST PUSH2 0x275 PUSH2 0x2271 JUMP JUMPDEST PUSH2 0x21FB JUMP JUMPDEST DUP1 RETURN JUMPDEST POP CALLVALUE PUSH2 0x24D JUMPI PUSH1 0x20 CALLDATASIZE PUSH1 0x3 NOT ADD SLT PUSH2 0x24D JUMPI PUSH1 0x4 CALLDATALOAD SWAP1 PUSH2 0x29B PUSH2 0x22A7 JUMP JUMPDEST CALLER DUP2 MSTORE PUSH1 0x4 PUSH1 0x20 MSTORE PUSH1 0xFF PUSH1 0x40 DUP3 KECCAK256 SLOAD AND PUSH2 0x569 JUMPI PUSH1 0x0 DUP1 MSTORE PUSH1 0x8 PUSH1 0x20 MSTORE PUSH32 0x5EFF886EA0CE6CA488A3D6E336D6C0F75F46D19B42C06CE5EE98E42C96D256C7 SLOAD DUP3 LT PUSH2 0x52F JUMPI DUP1 SLOAD PUSH1 0x40 MLOAD PUSH4 0x23B872DD PUSH1 0xE0 SHL DUP2 MSTORE CALLER PUSH1 0x4 DUP3 ADD MSTORE ADDRESS PUSH1 0x24 DUP3 ADD MSTORE PUSH1 0x44 DUP2 ADD DUP5 SWAP1 MSTORE SWAP1 PUSH1 0x20 SWAP1 DUP3 SWAP1 PUSH1 0x64 SWAP1 DUP3 SWAP1 DUP7 SWAP1 PUSH1 0x1 PUSH1 0x1 PUSH1 0xA0 SHL SUB AND GAS CALL DUP1 ISZERO PUSH2 0x4CF JUMPI PUSH2 0x502 JUMPI JUMPDEST POP PUSH1 0x40 MLOAD PUSH2 0x100 DUP2 ADD DUP2 DUP2 LT PUSH8 0xFFFFFFFFFFFFFFFF DUP3 GT OR PUSH2 0x4EE JUMPI PUSH1 0x40 MSTORE PUSH1 0x1 DUP2 MSTORE PUSH1 0x20 DUP2 ADD DUP3 DUP2 MSTORE PUSH1 0x40 DUP3 ADD SWAP4 DUP4 DUP6 MSTORE PUSH1 0x60 DUP4 ADD SWAP1 DUP5 DUP3 MSTORE PUSH1 0x80 DUP5 ADD SWAP1 DUP2 MSTORE PUSH1 0xA0 DUP5 ADD SWAP1 DUP6 DUP3 MSTORE PUSH1 0xC0 DUP6 ADD SWAP3 DUP7 DUP5 MSTORE PUSH1 0xE0 DUP7 ADD SWAP5 DUP8 DUP7 MSTORE CALLER DUP9 MSTORE PUSH1 0x4 PUSH1 0x20 MSTORE PUSH2 0x3A3 PUSH1 0x40 DUP10 KECCAK256 SWAP8 MLOAD ISZERO ISZERO DUP9 SWAP1 PUSH1 0xFF DUP1 NOT DUP4 SLOAD AND SWAP2 ISZERO ISZERO AND OR SWAP1 SSTORE JUMP JUMPDEST MLOAD SWAP8 PUSH1 0x7 DUP10 LT ISZERO PUSH2 0x4DA JUMPI PUSH2 0x3BC DUP8 SWAP9 SWAP10 PUSH1 0x6 SWAP9 PUSH2 0x21DC JUMP JUMPDEST MLOAD PUSH1 0x1 DUP9 ADD SSTORE MLOAD PUSH1 0x2 DUP8 ADD SSTORE MLOAD PUSH1 0x3 DUP7 ADD SSTORE MLOAD PUSH1 0x4 DUP6 ADD SSTORE MLOAD PUSH1 0x5 DUP5 ADD SSTORE MLOAD SWAP2 ADD SSTORE PUSH2 0x3E9 PUSH1 0xC SLOAD PUSH2 0x21CD JUMP JUMPDEST PUSH1 0xC SSTORE PUSH1 0x3 SLOAD PUSH1 0x40 MLOAD PUSH4 0x6A4B8883 PUSH1 0xE0 SHL DUP2 MSTORE CALLER PUSH1 0x4 DUP3 ADD MSTORE PUSH1 0x60 PUSH1 0x24 DUP3 ADD MSTORE PUSH1 0x10 PUSH1 0x64 DUP3 ADD MSTORE PUSH16 0x1A5C199CCE8BCBD45B511959985D5B1D PUSH1 0x82 SHL PUSH1 0x84 DUP3 ADD MSTORE PUSH1 0x44 DUP2 ADD DUP4 SWAP1 MSTORE SWAP1 PUSH1 0x20 SWAP1 DUP3 SWAP1 PUSH1 0xA4 SWAP1 DUP3 SWAP1 DUP7 SWAP1 PUSH1 0x1 PUSH1 0x1 PUSH1 0xA0 SHL SUB AND GAS CALL SWAP1 DUP2 ISZERO PUSH2 0x4CF JUMPI DUP3 SWAP2 PUSH2 0x498 JUMPI JUMPDEST POP PUSH1 0x40 MLOAD SWAP1 DUP2 MSTORE PUSH32 0x5E8C4C772A7A8B93CA7071579387EAF0B19513B729D2C2903C22F28CF60E46BC PUSH1 0x20 CALLER SWAP3 LOG2 PUSH1 0x1 PUSH1 0x0 DUP1 MLOAD PUSH1 0x20 PUSH2 0x25FA DUP4 CODECOPY DUP2 MLOAD SWAP2 MSTORE SSTORE DUP1 RETURN JUMPDEST SWAP1 POP PUSH1 0x20 DUP2 RETURNDATASIZE PUSH1 0x20 GT PUSH2 0x4C7 JUMPI JUMPDEST DUP2 PUSH2 0x4B3 PUSH1 0x20 SWAP4 DUP4 PUSH2 0x205B JUMP JUMPDEST DUP2 ADD SUB SLT PUSH2 0x4C2 JUMPI MLOAD CODESIZE PUSH2 0x456 JUMP JUMPDEST PUSH1 0x0 DUP1 REVERT JUMPDEST RETURNDATASIZE SWAP2 POP PUSH2 0x4A6 JUMP JUMPDEST PUSH1 0x40 MLOAD RETURNDATASIZE DUP5 DUP3 RETURNDATACOPY RETURNDATASIZE SWAP1 REVERT JUMPDEST PUSH4 0x4E487B71 PUSH1 0xE0 SHL DUP9 MSTORE PUSH1 0x21 PUSH1 0x4 MSTORE PUSH1 0x24 DUP9 REVERT JUMPDEST PUSH4 0x4E487B71 PUSH1 0xE0 SHL DUP4 MSTORE PUSH1 0x41 PUSH1 0x4 MSTORE PUSH1 0x24 DUP4 REVERT JUMPDEST PUSH2 0x523 SWAP1 PUSH1 0x20 RETURNDATASIZE PUSH1 0x20 GT PUSH2 0x528 JUMPI JUMPDEST PUSH2 0x51B DUP2 DUP4 PUSH2 0x205B JUMP JUMPDEST DUP2 ADD SWAP1 PUSH2 0x2187 JUMP JUMPDEST PUSH2 0x325 JUMP JUMPDEST POP RETURNDATASIZE PUSH2 0x511 JUMP JUMPDEST PUSH1 0x40 MLOAD PUSH3 0x461BCD PUSH1 0xE5 SHL DUP2 MSTORE PUSH1 0x20 PUSH1 0x4 DUP3 ADD MSTORE PUSH1 0x12 PUSH1 0x24 DUP3 ADD MSTORE PUSH18 0x496E73756666696369656E74207374616B65 PUSH1 0x70 SHL PUSH1 0x44 DUP3 ADD MSTORE PUSH1 0x64 SWAP1 REVERT JUMPDEST PUSH1 0x40 MLOAD PUSH3 0x461BCD PUSH1 0xE5 SHL DUP2 MSTORE PUSH1 0x20 PUSH1 0x4 DUP3 ADD MSTORE PUSH1 0x12 PUSH1 0x24 DUP3 ADD MSTORE PUSH18 0x105B1C9958591E481C9959DA5CDD195C9959 PUSH1 0x72 SHL PUSH1 0x44 DUP3 ADD MSTORE PUSH1 0x64 SWAP1 REVERT JUMPDEST POP CALLVALUE PUSH2 0x24D JUMPI DUP1 PUSH1 0x3 NOT CALLDATASIZE ADD SLT PUSH2 0x24D JUMPI PUSH1 0x2 SLOAD PUSH1 0x40 MLOAD PUSH1 0x1 PUSH1 0x1 PUSH1 0xA0 SHL SUB SWAP1 SWAP2 AND DUP2 MSTORE PUSH1 0x20 SWAP1 RETURN JUMPDEST POP CALLVALUE PUSH2 0x24D JUMPI PUSH1 0x60 CALLDATASIZE PUSH1 0x3 NOT ADD SLT PUSH2 0x24D JUMPI PUSH1 0x24 CALLDATALOAD PUSH1 0x4 CALLDATALOAD PUSH1 0x44 CALLDATALOAD PUSH2 0x5EF PUSH2 0x22A7 JUMP JUMPDEST CALLER DUP5 MSTORE PUSH1 0x7 PUSH1 0x20 MSTORE PUSH1 0xFF PUSH1 0x40 DUP6 KECCAK256 SLOAD AND DUP1 ISZERO PUSH2 0x89C JUMPI JUMPDEST ISZERO PUSH2 0x857 JUMPI DUP2 DUP5 MSTORE PUSH1 0x6 PUSH1 0x20 MSTORE PUSH1 0xFF PUSH1 0x4 PUSH1 0x40 DUP7 KECCAK256 ADD SLOAD AND PUSH2 0x819 JUMPI PUSH1 0x3 DUP4 LT PUSH2 0x7E0 JUMPI DUP1 ISZERO PUSH2 0x7AD JUMPI DUP4 SLOAD PUSH1 0x40 MLOAD PUSH4 0x23B872DD PUSH1 0xE0 SHL DUP2 MSTORE CALLER PUSH1 0x4 DUP3 ADD MSTORE ADDRESS PUSH1 0x24 DUP3 ADD MSTORE PUSH1 0x44 DUP2 ADD DUP4 SWAP1 MSTORE SWAP1 PUSH1 0x20 SWAP1 DUP3 SWAP1 PUSH1 0x64 SWAP1 DUP3 SWAP1 DUP10 SWAP1 PUSH1 0x1 PUSH1 0x1 PUSH1 0xA0 SHL SUB AND GAS CALL DUP1 ISZERO PUSH2 0x7A2 JUMPI PUSH2 0x785 JUMPI JUMPDEST POP PUSH1 0x40 MLOAD PUSH1 0xA0 DUP2 ADD DUP2 DUP2 LT PUSH8 0xFFFFFFFFFFFFFFFF DUP3 GT OR PUSH2 0x771 JUMPI SWAP1 PUSH2 0x70C SWAP2 PUSH1 0x40 MSTORE CALLER DUP2 MSTORE PUSH1 0x4 PUSH1 0x20 DUP3 ADD DUP7 DUP2 MSTORE PUSH1 0x40 DUP4 ADD DUP6 DUP2 MSTORE PUSH1 0x60 DUP5 ADD SWAP1 TIMESTAMP DUP3 MSTORE PUSH1 0x80 DUP6 ADD SWAP3 PUSH1 0x1 DUP5 MSTORE DUP9 DUP12 MSTORE PUSH1 0x6 PUSH1 0x20 MSTORE PUSH1 0x40 DUP12 KECCAK256 SWAP6 PUSH1 0x1 DUP1 PUSH1 0xA0 SHL SUB SWAP1 MLOAD AND PUSH1 0x1 PUSH1 0x1 PUSH1 0x60 SHL SUB PUSH1 0xA0 SHL DUP8 SLOAD AND OR DUP7 SSTORE MLOAD PUSH1 0x1 DUP7 ADD SSTORE MLOAD PUSH1 0x2 DUP6 ADD SSTORE MLOAD PUSH1 0x3 DUP5 ADD SSTORE MLOAD ISZERO ISZERO SWAP2 ADD SWAP1 PUSH1 0xFF DUP1 NOT DUP4 SLOAD AND SWAP2 ISZERO ISZERO AND OR SWAP1 SSTORE JUMP JUMPDEST DUP2 DUP5 MSTORE PUSH1 0x5 PUSH1 0x20 MSTORE DUP2 PUSH1 0x40 DUP6 KECCAK256 SSTORE DUP2 DUP5 MSTORE PUSH1 0x5 PUSH1 0x20 MSTORE DUP1 PUSH1 0x2 PUSH1 0x40 DUP7 KECCAK256 ADD SSTORE PUSH1 0x40 MLOAD SWAP3 DUP4 MSTORE PUSH1 0x20 DUP4 ADD MSTORE PUSH32 0x4A2E25C6248F385BA4235761CC1548EBE077DC5489F7AD4C9C33AC62830492D7 PUSH1 0x40 CALLER SWAP4 LOG3 PUSH1 0x1 PUSH1 0x0 DUP1 MLOAD PUSH1 0x20 PUSH2 0x25FA DUP4 CODECOPY DUP2 MLOAD SWAP2 MSTORE SSTORE DUP1 RETURN JUMPDEST PUSH4 0x4E487B71 PUSH1 0xE0 SHL DUP7 MSTORE PUSH1 0x41 PUSH1 0x4 MSTORE PUSH1 0x24 DUP7 REVERT JUMPDEST PUSH2 0x79D SWAP1 PUSH1 0x20 RETURNDATASIZE PUSH1 0x20 GT PUSH2 0x528 JUMPI PUSH2 0x51B DUP2 DUP4 PUSH2 0x205B JUMP JUMPDEST PUSH2 0x675 JUMP JUMPDEST PUSH1 0x40 MLOAD RETURNDATASIZE DUP8 DUP3 RETURNDATACOPY RETURNDATASIZE SWAP1 REVERT JUMPDEST PUSH1 0x40 MLOAD PUSH3 0x461BCD PUSH1 0xE5 SHL DUP2 MSTORE PUSH1 0x20 PUSH1 0x4 DUP3 ADD MSTORE PUSH1 0xB PUSH1 0x24 DUP3 ADD MSTORE PUSH11 0x16995C9BC81C995DD85C99 PUSH1 0xAA SHL PUSH1 0x44 DUP3 ADD MSTORE PUSH1 0x64 SWAP1 REVERT JUMPDEST PUSH1 0x40 MLOAD PUSH3 0x461BCD PUSH1 0xE5 SHL DUP2 MSTORE PUSH1 0x20 PUSH1 0x4 DUP3 ADD MSTORE PUSH1 0x11 PUSH1 0x24 DUP3 ADD MSTORE PUSH17 0x4D696E696D756D20332066656564657273 PUSH1 0x78 SHL PUSH1 0x44 DUP3 ADD MSTORE PUSH1 0x64 SWAP1 REVERT JUMPDEST PUSH1 0x40 MLOAD PUSH3 0x461BCD PUSH1 0xE5 SHL DUP2 MSTORE PUSH1 0x20 PUSH1 0x4 DUP3 ADD MSTORE PUSH1 0x16 PUSH1 0x24 DUP3 ADD MSTORE PUSH22 0x5265717565737420616C726561647920657869737473 PUSH1 0x50 SHL PUSH1 0x44 DUP3 ADD MSTORE PUSH1 0x64 SWAP1 REVERT JUMPDEST PUSH1 0x40 MLOAD PUSH3 0x461BCD PUSH1 0xE5 SHL DUP2 MSTORE PUSH1 0x20 PUSH1 0x4 DUP3 ADD MSTORE PUSH1 0x17 PUSH1 0x24 DUP3 ADD MSTORE PUSH32 0x4E6F7420617574686F72697A65642070726F746F636F6C000000000000000000 PUSH1 0x44 DUP3 ADD MSTORE PUSH1 0x64 SWAP1 REVERT JUMPDEST POP PUSH1 0x0 DUP1 MLOAD PUSH1 0x20 PUSH2 0x25BA DUP4 CODECOPY DUP2 MLOAD SWAP2 MSTORE SLOAD PUSH1 0x1 PUSH1 0x1 PUSH1 0xA0 SHL SUB AND CALLER EQ PUSH2 0x606 JUMP JUMPDEST POP CALLVALUE PUSH2 0x24D JUMPI PUSH1 0x20 CALLDATASIZE PUSH1 0x3 NOT ADD SLT PUSH2 0x24D JUMPI PUSH1 0x1 PUSH1 0x1 PUSH1 0xA0 SHL SUB PUSH2 0x8DF PUSH2 0x200C JUMP JUMPDEST AND SWAP1 DUP2 DUP2 MSTORE PUSH1 0x4 PUSH1 0x20 MSTORE PUSH1 0x40 DUP2 KECCAK256 SWAP1 DUP2 SLOAD SWAP2 PUSH1 0x1 DUP2 ADD SLOAD SWAP1 PUSH1 0x3 PUSH1 0x2 DUP3 ADD SLOAD SWAP2 ADD SLOAD SWAP2 PUSH1 0x20 PUSH1 0x1 DUP1 PUSH1 0xA0 SHL SUB PUSH1 0x2 SLOAD AND SWAP7 PUSH1 0x24 PUSH1 0x40 MLOAD DUP1 SWAP10 DUP2 SWAP4 PUSH4 0x18EBD131 PUSH1 0xE1 SHL DUP4 MSTORE PUSH1 0x4 DUP4 ADD MSTORE GAS STATICCALL SWAP4 DUP5 ISZERO PUSH2 0x9A5 JUMPI SWAP4 PUSH2 0x970 JUMPI JUMPDEST PUSH1 0xC0 SWAP6 POP PUSH2 0x95A PUSH1 0x40 MLOAD SWAP6 PUSH1 0xFF DUP2 AND ISZERO ISZERO DUP8 MSTORE PUSH1 0xFF PUSH1 0x20 DUP9 ADD SWAP2 PUSH1 0x8 SHR AND PUSH2 0x204E JUMP JUMPDEST PUSH1 0x40 DUP6 ADD MSTORE PUSH1 0x60 DUP5 ADD MSTORE PUSH1 0x80 DUP4 ADD MSTORE PUSH1 0xA0 DUP3 ADD MSTORE RETURN JUMPDEST SWAP3 POP PUSH1 0x20 DUP6 RETURNDATASIZE PUSH1 0x20 GT PUSH2 0x99D JUMPI JUMPDEST DUP2 PUSH2 0x98B PUSH1 0x20 SWAP4 DUP4 PUSH2 0x205B JUMP JUMPDEST DUP2 ADD SUB SLT PUSH2 0x4C2 JUMPI PUSH1 0xC0 SWAP5 MLOAD SWAP3 PUSH2 0x937 JUMP JUMPDEST RETURNDATASIZE SWAP2 POP PUSH2 0x97E JUMP JUMPDEST PUSH1 0x40 MLOAD SWAP1 RETURNDATASIZE SWAP1 DUP3 RETURNDATACOPY RETURNDATASIZE SWAP1 REVERT JUMPDEST POP CALLVALUE PUSH2 0x24D JUMPI DUP1 PUSH1 0x3 NOT CALLDATASIZE ADD SLT PUSH2 0x24D JUMPI PUSH1 0x20 PUSH1 0xC SLOAD PUSH1 0x40 MLOAD SWAP1 DUP2 MSTORE RETURN JUMPDEST POP CALLVALUE PUSH2 0x24D JUMPI PUSH1 0x60 CALLDATASIZE PUSH1 0x3 NOT ADD SLT PUSH2 0x24D JUMPI PUSH2 0x9E9 PUSH2 0x200C JUMP JUMPDEST PUSH1 0x44 CALLDATALOAD SWAP1 PUSH8 0xFFFFFFFFFFFFFFFF DUP3 GT PUSH2 0xA4F JUMPI CALLDATASIZE PUSH1 0x23 DUP4 ADD SLT ISZERO PUSH2 0xA4F JUMPI DUP2 PUSH1 0x4 ADD CALLDATALOAD PUSH8 0xFFFFFFFFFFFFFFFF DUP2 GT PUSH2 0xA4B JUMPI CALLDATASIZE PUSH1 0x24 DUP3 DUP6 ADD ADD GT PUSH2 0xA4B JUMPI PUSH2 0x27A SWAP3 PUSH2 0xA41 SWAP2 PUSH2 0xA37 PUSH2 0x2271 JUMP JUMPDEST PUSH1 0x24 CALLDATASIZE SWAP3 ADD PUSH2 0x20AF JUMP JUMPDEST SWAP1 PUSH1 0x24 CALLDATALOAD SWAP1 PUSH2 0x237D JUMP JUMPDEST DUP4 DUP1 REVERT JUMPDEST DUP3 DUP1 REVERT JUMPDEST POP CALLVALUE PUSH2 0x24D JUMPI PUSH1 0x20 CALLDATASIZE PUSH1 0x3 NOT ADD SLT PUSH2 0x24D JUMPI PUSH1 0x24 PUSH1 0x4 CALLDATALOAD PUSH1 0x20 PUSH1 0x1 DUP1 PUSH1 0xA0 SHL SUB PUSH1 0x1 SLOAD AND PUSH1 0x40 MLOAD SWAP4 DUP5 DUP1 SWAP3 PUSH4 0xCE93F867 PUSH1 0xE0 SHL DUP3 MSTORE DUP6 PUSH1 0x4 DUP4 ADD MSTORE GAS STATICCALL SWAP2 DUP3 ISZERO PUSH2 0xB0E JUMPI DUP4 SWAP3 PUSH2 0xAD7 JUMPI JUMPDEST POP PUSH1 0xFF PUSH1 0x3 PUSH1 0x40 DUP6 DUP5 PUSH1 0x60 SWAP8 MSTORE PUSH1 0x6 PUSH1 0x20 MSTORE DUP3 DUP3 DUP3 KECCAK256 ADD SLOAD SWAP5 DUP2 MSTORE PUSH1 0x5 PUSH1 0x20 MSTORE KECCAK256 ADD SLOAD AND SWAP1 PUSH1 0x40 MLOAD SWAP3 DUP4 MSTORE PUSH1 0x20 DUP4 ADD MSTORE ISZERO ISZERO PUSH1 0x40 DUP3 ADD MSTORE RETURN JUMPDEST SWAP3 SWAP2 POP PUSH1 0x20 DUP4 RETURNDATASIZE PUSH1 0x20 GT PUSH2 0xB06 JUMPI JUMPDEST DUP2 PUSH2 0xAF3 PUSH1 0x20 SWAP4 DUP4 PUSH2 0x205B JUMP JUMPDEST DUP2 ADD SUB SLT PUSH2 0x4C2 JUMPI SWAP2 MLOAD SWAP1 SWAP2 PUSH1 0xFF PUSH2 0xA9E JUMP JUMPDEST RETURNDATASIZE SWAP2 POP PUSH2 0xAE6 JUMP JUMPDEST PUSH1 0x40 MLOAD RETURNDATASIZE DUP6 DUP3 RETURNDATACOPY RETURNDATASIZE SWAP1 REVERT JUMPDEST POP CALLVALUE PUSH2 0x24D JUMPI PUSH1 0x40 CALLDATASIZE PUSH1 0x3 NOT ADD SLT PUSH2 0x24D JUMPI PUSH1 0x4 CALLDATALOAD PUSH1 0x7 DUP2 LT ISZERO PUSH2 0xB4F JUMPI PUSH2 0xB3F PUSH2 0x2271 JUMP JUMPDEST PUSH2 0xB4B PUSH1 0x24 CALLDATALOAD SWAP2 PUSH2 0x1FC1 JUMP JUMPDEST SSTORE DUP1 RETURN JUMPDEST POP DUP1 REVERT JUMPDEST POP CALLVALUE PUSH2 0x24D JUMPI DUP1 PUSH1 0x3 NOT CALLDATASIZE ADD SLT PUSH2 0x24D JUMPI SLOAD PUSH1 0x40 MLOAD PUSH1 0x1 PUSH1 0x1 PUSH1 0xA0 SHL SUB SWAP1 SWAP2 AND DUP2 MSTORE PUSH1 0x20 SWAP1 RETURN JUMPDEST POP CALLVALUE PUSH2 0x24D JUMPI PUSH1 0x20 CALLDATASIZE PUSH1 0x3 NOT ADD SLT PUSH2 0x24D JUMPI PUSH1 0x4 CALLDATALOAD DUP2 MSTORE PUSH1 0x5 PUSH1 0x20 MSTORE PUSH1 0x1 PUSH1 0x40 DUP3 KECCAK256 ADD PUSH1 0x40 MLOAD SWAP1 DUP2 PUSH1 0x20 DUP3 SLOAD SWAP2 DUP3 DUP2 MSTORE ADD SWAP1 DUP2 SWAP3 DUP6 MSTORE PUSH1 0x20 DUP6 KECCAK256 SWAP1 DUP6 JUMPDEST DUP2 DUP2 LT PUSH2 0xC17 JUMPI POP POP POP DUP3 PUSH2 0xBCD SWAP2 SUB DUP4 PUSH2 0x205B JUMP JUMPDEST PUSH1 0x40 MLOAD SWAP3 DUP4 SWAP3 PUSH1 0x20 DUP5 ADD SWAP1 PUSH1 0x20 DUP6 MSTORE MLOAD DUP1 SWAP2 MSTORE PUSH1 0x40 DUP5 ADD SWAP3 SWAP2 JUMPDEST DUP2 DUP2 LT PUSH2 0xBF5 JUMPI POP POP POP SUB SWAP1 RETURN JUMPDEST DUP3 MLOAD PUSH1 0x1 PUSH1 0x1 PUSH1 0xA0 SHL SUB AND DUP5 MSTORE DUP6 SWAP5 POP PUSH1 0x20 SWAP4 DUP5 ADD SWAP4 SWAP1 SWAP3 ADD SWAP2 PUSH1 0x1 ADD PUSH2 0xBE7 JUMP JUMPDEST DUP3 SLOAD PUSH1 0x1 PUSH1 0x1 PUSH1 0xA0 SHL SUB AND DUP5 MSTORE PUSH1 0x20 SWAP1 SWAP4 ADD SWAP3 PUSH1 0x1 SWAP3 DUP4 ADD SWAP3 ADD PUSH2 0xBB7 JUMP JUMPDEST POP CALLVALUE PUSH2 0x24D JUMPI DUP1 PUSH1 0x3 NOT CALLDATASIZE ADD SLT PUSH2 0x24D JUMPI POP PUSH2 0xC7F PUSH1 0x40 MLOAD PUSH2 0xC59 PUSH1 0x40 DUP3 PUSH2 0x205B JUMP JUMPDEST PUSH1 0x5 DUP2 MSTORE PUSH5 0x352E302E3 PUSH1 0xDC SHL PUSH1 0x20 DUP3 ADD MSTORE PUSH1 0x40 MLOAD SWAP2 DUP3 SWAP2 PUSH1 0x20 DUP4 MSTORE PUSH1 0x20 DUP4 ADD SWAP1 PUSH2 0x20E6 JUMP JUMPDEST SUB SWAP1 RETURN JUMPDEST POP CALLVALUE PUSH2 0x24D JUMPI PUSH1 0x20 CALLDATASIZE PUSH1 0x3 NOT ADD SLT PUSH2 0x24D JUMPI PUSH1 0x4 CALLDATALOAD PUSH2 0xCA0 PUSH2 0x22A7 JUMP JUMPDEST CALLER DUP3 MSTORE PUSH1 0x4 PUSH1 0x20 MSTORE PUSH2 0xCB8 PUSH1 0xFF PUSH1 0x40 DUP5 KECCAK256 SLOAD AND PUSH2 0x2127 JUMP JUMPDEST DUP1 ISZERO PUSH2 0xD7E JUMPI DUP2 SLOAD PUSH1 0x40 MLOAD PUSH4 0x23B872DD PUSH1 0xE0 SHL DUP2 MSTORE CALLER PUSH1 0x4 DUP3 ADD MSTORE ADDRESS PUSH1 0x24 DUP3 ADD MSTORE PUSH1 0x44 DUP2 ADD DUP4 SWAP1 MSTORE SWAP1 PUSH1 0x20 SWAP1 DUP3 SWAP1 PUSH1 0x64 SWAP1 DUP3 SWAP1 DUP8 SWAP1 PUSH1 0x1 PUSH1 0x1 PUSH1 0xA0 SHL SUB AND GAS CALL DUP1 ISZERO PUSH2 0xB0E JUMPI PUSH2 0xD61 JUMPI JUMPDEST POP CALLER DUP3 MSTORE PUSH1 0x4 PUSH1 0x20 MSTORE PUSH1 0x3 PUSH1 0x40 DUP4 KECCAK256 ADD PUSH2 0xD1E DUP3 DUP3 SLOAD PUSH2 0x2164 JUMP JUMPDEST SWAP1 SSTORE PUSH1 0x40 MLOAD SWAP1 DUP2 MSTORE PUSH32 0x9E71BC8EEA02A63969F509818F2DAFB9254532904319F9DBDA79B67BD34A5F3D PUSH1 0x20 CALLER SWAP3 LOG2 PUSH1 0x1 PUSH1 0x0 DUP1 MLOAD PUSH1 0x20 PUSH2 0x25FA DUP4 CODECOPY DUP2 MLOAD SWAP2 MSTORE SSTORE DUP1 RETURN JUMPDEST PUSH2 0xD79 SWAP1 PUSH1 0x20 RETURNDATASIZE PUSH1 0x20 GT PUSH2 0x528 JUMPI PUSH2 0x51B DUP2 DUP4 PUSH2 0x205B JUMP JUMPDEST PUSH2 0xD03 JUMP JUMPDEST PUSH1 0x40 MLOAD PUSH3 0x461BCD PUSH1 0xE5 SHL DUP2 MSTORE PUSH1 0x20 PUSH1 0x4 DUP3 ADD MSTORE PUSH1 0xB PUSH1 0x24 DUP3 ADD MSTORE PUSH11 0x16995C9BC8185B5BDD5B9D PUSH1 0xAA SHL PUSH1 0x44 DUP3 ADD MSTORE PUSH1 0x64 SWAP1 REVERT JUMPDEST POP CALLVALUE PUSH2 0x24D JUMPI PUSH1 0x20 CALLDATASIZE PUSH1 0x3 NOT ADD SLT PUSH2 0x24D JUMPI PUSH1 0x4 CALLDATALOAD PUSH2 0xDCE PUSH2 0x2271 JUMP JUMPDEST PUSH3 0x15180 DUP2 LT PUSH2 0xDDE JUMPI PUSH1 0xA SSTORE DUP1 RETURN JUMPDEST PUSH1 0x40 MLOAD PUSH3 0x461BCD PUSH1 0xE5 SHL DUP2 MSTORE PUSH1 0x20 PUSH1 0x4 DUP3 ADD MSTORE PUSH1 0x9 PUSH1 0x24 DUP3 ADD MSTORE PUSH9 0x151BDBC81CDA1BDC9D PUSH1 0xBA SHL PUSH1 0x44 DUP3 ADD MSTORE PUSH1 0x64 SWAP1 REVERT JUMPDEST POP CALLVALUE PUSH2 0x24D JUMPI DUP1 PUSH1 0x3 NOT CALLDATASIZE ADD SLT PUSH2 0x24D JUMPI PUSH1 0x1 SLOAD PUSH1 0x40 MLOAD PUSH1 0x1 PUSH1 0x1 PUSH1 0xA0 SHL SUB SWAP1 SWAP2 AND DUP2 MSTORE PUSH1 0x20 SWAP1 RETURN JUMPDEST POP CALLVALUE PUSH2 0x24D JUMPI DUP1 PUSH1 0x3 NOT CALLDATASIZE ADD SLT PUSH2 0x24D JUMPI PUSH1 0x0 DUP1 MLOAD PUSH1 0x20 PUSH2 0x25BA DUP4 CODECOPY DUP2 MLOAD SWAP2 MSTORE SLOAD PUSH1 0x40 MLOAD PUSH1 0x1 PUSH1 0x1 PUSH1 0xA0 SHL SUB SWAP1 SWAP2 AND DUP2 MSTORE PUSH1 0x20 SWAP1 RETURN JUMPDEST POP CALLVALUE PUSH2 0x24D JUMPI PUSH1 0x20 CALLDATASIZE PUSH1 0x3 NOT ADD SLT PUSH2 0x24D JUMPI PUSH1 0x4 CALLDATALOAD CALLER DUP3 MSTORE PUSH1 0x4 PUSH1 0x20 MSTORE PUSH1 0x40 DUP3 KECCAK256 DUP1 SLOAD SWAP1 PUSH2 0xE9E PUSH1 0xFF DUP4 AND PUSH2 0x2127 JUMP JUMPDEST PUSH1 0xFF PUSH1 0x3 DUP3 ADD SLOAD SWAP3 PUSH1 0x8 SHR AND SWAP2 PUSH2 0xEB4 DUP4 PUSH2 0x1FC1 JUMP JUMPDEST SLOAD GT PUSH2 0x106C JUMPI PUSH1 0x2 SLOAD PUSH1 0x40 MLOAD PUSH4 0xDDB3DB7 PUSH1 0xE4 SHL DUP2 MSTORE CALLER PUSH1 0x4 DUP3 ADD MSTORE SWAP1 PUSH1 0x20 SWAP1 DUP3 SWAP1 PUSH1 0x24 SWAP1 DUP3 SWAP1 PUSH1 0x1 PUSH1 0x1 PUSH1 0xA0 SHL SUB AND GAS STATICCALL SWAP1 DUP2 ISZERO PUSH2 0x7A2 JUMPI DUP6 SWAP2 PUSH2 0x104D JUMPI JUMPDEST POP ISZERO PUSH2 0x1011 JUMPI PUSH1 0x5 SWAP1 PUSH3 0x15180 TIMESTAMP DIV PUSH1 0x6 DUP3 ADD DUP2 DUP2 SLOAD SUB PUSH2 0x1004 JUMPI JUMPDEST POP POP ADD SWAP1 PUSH2 0xF1F DUP3 SLOAD SWAP2 PUSH2 0x1FF3 JUMP JUMPDEST SLOAD GT ISZERO PUSH2 0xFBF JUMPI DUP2 DUP4 MSTORE PUSH1 0x5 PUSH1 0x20 MSTORE PUSH1 0x1 PUSH1 0x40 DUP5 KECCAK256 ADD DUP1 SLOAD SWAP1 PUSH9 0x10000000000000000 DUP3 LT ISZERO PUSH2 0xFAB JUMPI SWAP1 PUSH2 0xF59 SWAP2 PUSH1 0x1 DUP3 ADD DUP2 SSTORE PUSH2 0x219F JUMP JUMPDEST DUP2 SLOAD PUSH1 0x1 PUSH1 0x1 PUSH1 0xA0 SHL SUB PUSH1 0x3 SWAP3 SWAP1 SWAP3 SHL SWAP2 DUP3 SHL NOT AND CALLER SWAP1 SWAP2 SHL OR SWAP1 SSTORE DUP1 SLOAD PUSH2 0xF80 SWAP1 PUSH2 0x21CD JUMP JUMPDEST SWAP1 SSTORE CALLER SWAP1 PUSH32 0x6F0E71390FEC0559C3C025C4586A7A5D52BD03A8515F3EC54A03BFF1B247EC53 DUP4 DUP1 LOG3 DUP1 RETURN JUMPDEST PUSH4 0x4E487B71 PUSH1 0xE0 SHL DUP6 MSTORE PUSH1 0x41 PUSH1 0x4 MSTORE PUSH1 0x24 DUP6 REVERT JUMPDEST PUSH1 0x40 MLOAD PUSH3 0x461BCD PUSH1 0xE5 SHL DUP2 MSTORE PUSH1 0x20 PUSH1 0x4 DUP3 ADD MSTORE PUSH1 0x18 PUSH1 0x24 DUP3 ADD MSTORE PUSH32 0x4461696C792067726162206C696D697420726561636865640000000000000000 PUSH1 0x44 DUP3 ADD MSTORE PUSH1 0x64 SWAP1 REVERT JUMPDEST DUP7 DUP5 DUP5 ADD SSTORE SSTORE CODESIZE DUP1 PUSH2 0xF10 JUMP JUMPDEST PUSH1 0x40 MLOAD PUSH3 0x461BCD PUSH1 0xE5 SHL DUP2 MSTORE PUSH1 0x20 PUSH1 0x4 DUP3 ADD MSTORE PUSH1 0x14 PUSH1 0x24 DUP3 ADD MSTORE PUSH20 0x42616E6E65642066726F6D206772616262696E67 PUSH1 0x60 SHL PUSH1 0x44 DUP3 ADD MSTORE PUSH1 0x64 SWAP1 REVERT JUMPDEST PUSH2 0x1066 SWAP2 POP PUSH1 0x20 RETURNDATASIZE PUSH1 0x20 GT PUSH2 0x528 JUMPI PUSH2 0x51B DUP2 DUP4 PUSH2 0x205B JUMP JUMPDEST CODESIZE PUSH2 0xEF4 JUMP JUMPDEST PUSH1 0x40 MLOAD PUSH3 0x461BCD PUSH1 0xE5 SHL DUP2 MSTORE PUSH1 0x20 PUSH1 0x4 DUP3 ADD MSTORE PUSH1 0x1B PUSH1 0x24 DUP3 ADD MSTORE PUSH32 0x496E73756666696369656E74207374616B6520666F722072616E6B0000000000 PUSH1 0x44 DUP3 ADD MSTORE PUSH1 0x64 SWAP1 REVERT JUMPDEST POP CALLVALUE PUSH2 0x24D JUMPI DUP1 PUSH1 0x3 NOT CALLDATASIZE ADD SLT PUSH2 0x24D JUMPI PUSH1 0x20 PUSH1 0xA SLOAD PUSH1 0x40 MLOAD SWAP1 DUP2 MSTORE RETURN JUMPDEST POP CALLVALUE PUSH2 0x24D JUMPI DUP1 PUSH1 0x3 NOT CALLDATASIZE ADD SLT PUSH2 0x24D JUMPI PUSH2 0x10E8 PUSH2 0x2271 JUMP JUMPDEST PUSH1 0x0 DUP1 MLOAD PUSH1 0x20 PUSH2 0x25BA DUP4 CODECOPY DUP2 MLOAD SWAP2 MSTORE DUP1 SLOAD PUSH1 0x1 PUSH1 0x1 PUSH1 0xA0 SHL SUB NOT DUP2 AND SWAP1 SWAP2 SSTORE DUP2 SWAP1 PUSH1 0x1 PUSH1 0x1 PUSH1 0xA0 SHL SUB AND PUSH32 0x8BE0079C531659141344CD1FD0A4F28419497F9722A3DAAFE3B4186F6B6457E0 DUP3 DUP1 LOG3 DUP1 RETURN JUMPDEST POP CALLVALUE PUSH2 0x24D JUMPI PUSH1 0x40 CALLDATASIZE PUSH1 0x3 NOT ADD SLT PUSH2 0x24D JUMPI PUSH2 0x1153 PUSH2 0x200C JUMP JUMPDEST PUSH1 0x24 CALLDATALOAD SWAP1 DUP2 ISZERO ISZERO SWAP1 DUP2 DUP4 SUB PUSH2 0xA4B JUMPI PUSH2 0x116A PUSH2 0x2271 JUMP JUMPDEST PUSH1 0x1 PUSH1 0x1 PUSH1 0xA0 SHL SUB AND SWAP2 DUP3 ISZERO PUSH2 0x11C8 JUMPI PUSH32 0x68A5F73B4AD49573FDCBD5E548404A298DEA33F94C1475D4F7825A23232637F3 SWAP2 PUSH2 0x11BE PUSH1 0x20 SWAP3 DUP6 DUP8 MSTORE PUSH1 0x7 DUP5 MSTORE PUSH1 0x40 DUP8 KECCAK256 SWAP1 PUSH1 0xFF DUP1 NOT DUP4 SLOAD AND SWAP2 ISZERO ISZERO AND OR SWAP1 SSTORE JUMP JUMPDEST PUSH1 0x40 MLOAD SWAP1 DUP2 MSTORE LOG2 DUP1 RETURN JUMPDEST PUSH1 0x40 MLOAD PUSH3 0x461BCD PUSH1 0xE5 SHL DUP2 MSTORE PUSH1 0x20 PUSH1 0x4 DUP3 ADD MSTORE PUSH1 0xC PUSH1 0x24 DUP3 ADD MSTORE PUSH12 0x5A65726F2061646472657373 PUSH1 0xA0 SHL PUSH1 0x44 DUP3 ADD MSTORE PUSH1 0x64 SWAP1 REVERT JUMPDEST POP CALLVALUE PUSH2 0x24D JUMPI PUSH1 0x20 CALLDATASIZE PUSH1 0x3 NOT ADD SLT PUSH2 0x24D JUMPI PUSH1 0x20 SWAP1 PUSH1 0xFF SWAP1 PUSH1 0x40 SWAP1 PUSH1 0x1 PUSH1 0x1 PUSH1 0xA0 SHL SUB PUSH2 0x1227 PUSH2 0x200C JUMP JUMPDEST AND DUP2 MSTORE PUSH1 0x7 DUP5 MSTORE KECCAK256 SLOAD AND PUSH1 0x40 MLOAD SWAP1 ISZERO ISZERO DUP2 MSTORE RETURN JUMPDEST POP CALLVALUE PUSH2 0x24D JUMPI DUP1 PUSH1 0x3 NOT CALLDATASIZE ADD SLT PUSH2 0x24D JUMPI PUSH1 0x3 SLOAD PUSH1 0x40 MLOAD PUSH1 0x1 PUSH1 0x1 PUSH1 0xA0 SHL SUB SWAP1 SWAP2 AND DUP2 MSTORE PUSH1 0x20 SWAP1 RETURN JUMPDEST POP CALLVALUE PUSH2 0x24D JUMPI DUP1 PUSH1 0x3 NOT CALLDATASIZE ADD SLT PUSH2 0x24D JUMPI PUSH32 0x0 PUSH1 0x1 PUSH1 0x1 PUSH1 0xA0 SHL SUB AND ADDRESS SUB PUSH2 0x12BD JUMPI PUSH1 0x20 PUSH1 0x40 MLOAD PUSH1 0x0 DUP1 MLOAD PUSH1 0x20 PUSH2 0x25DA DUP4 CODECOPY DUP2 MLOAD SWAP2 MSTORE DUP2 MSTORE RETURN JUMPDEST PUSH4 0x703E46DD PUSH1 0xE1 SHL DUP2 MSTORE PUSH1 0x4 SWAP1 REVERT JUMPDEST POP PUSH1 0x40 CALLDATASIZE PUSH1 0x3 NOT ADD SLT PUSH2 0x24D JUMPI PUSH2 0x12E1 PUSH2 0x200C JUMP JUMPDEST SWAP1 PUSH1 0x24 CALLDATALOAD PUSH8 0xFFFFFFFFFFFFFFFF DUP2 GT PUSH2 0xB4F JUMPI CALLDATASIZE PUSH1 0x23 DUP3 ADD SLT ISZERO PUSH2 0xB4F JUMPI PUSH2 0x1313 SWAP1 CALLDATASIZE SWAP1 PUSH1 0x24 DUP2 PUSH1 0x4 ADD CALLDATALOAD SWAP2 ADD PUSH2 0x20AF JUMP JUMPDEST PUSH1 0x1 PUSH1 0x1 PUSH1 0xA0 SHL SUB PUSH32 0x0 AND ADDRESS DUP2 EQ SWAP1 DUP2 ISZERO PUSH2 0x14D2 JUMPI JUMPDEST POP PUSH2 0x14C3 JUMPI PUSH2 0x1355 PUSH2 0x2271 JUMP JUMPDEST PUSH1 0x40 MLOAD PUSH4 0x52D1902D PUSH1 0xE0 SHL DUP2 MSTORE SWAP3 PUSH1 0x1 PUSH1 0x1 PUSH1 0xA0 SHL SUB DUP2 AND SWAP2 SWAP1 PUSH1 0x20 DUP6 PUSH1 0x4 DUP2 DUP7 GAS STATICCALL DUP1 SWAP6 DUP6 SWAP7 PUSH2 0x148B JUMPI JUMPDEST POP PUSH2 0x139A JUMPI PUSH4 0x4C9C8CE3 PUSH1 0xE0 SHL DUP5 MSTORE PUSH1 0x4 DUP4 SWAP1 MSTORE PUSH1 0x24 DUP5 REVERT JUMPDEST SWAP1 SWAP2 DUP5 PUSH1 0x0 DUP1 MLOAD PUSH1 0x20 PUSH2 0x25DA DUP4 CODECOPY DUP2 MLOAD SWAP2 MSTORE DUP2 SUB PUSH2 0x1479 JUMPI POP DUP2 EXTCODESIZE ISZERO PUSH2 0x1467 JUMPI PUSH1 0x0 DUP1 MLOAD PUSH1 0x20 PUSH2 0x25DA DUP4 CODECOPY DUP2 MLOAD SWAP2 MSTORE DUP1 SLOAD PUSH1 0x1 PUSH1 0x1 PUSH1 0xA0 SHL SUB NOT AND DUP3 OR SWAP1 SSTORE PUSH32 0xBC7CD75A20EE27FD9ADEBAB32041F755214DBC6BFFA90CC0225B39DA2E5C2D3B DUP5 DUP1 LOG2 DUP2 MLOAD DUP4 SWAP1 ISZERO PUSH2 0x144D JUMPI DUP1 DUP4 PUSH1 0x20 PUSH2 0x1441 SWAP6 MLOAD SWAP2 ADD DUP5 GAS DELEGATECALL RETURNDATASIZE ISZERO PUSH2 0x1445 JUMPI RETURNDATASIZE SWAP2 PUSH2 0x1425 DUP4 PUSH2 0x2093 JUMP JUMPDEST SWAP3 PUSH2 0x1433 PUSH1 0x40 MLOAD SWAP5 DUP6 PUSH2 0x205B JUMP JUMPDEST DUP4 MSTORE RETURNDATASIZE DUP6 PUSH1 0x20 DUP6 ADD RETURNDATACOPY PUSH2 0x2558 JUMP JUMPDEST POP DUP1 RETURN JUMPDEST PUSH1 0x60 SWAP2 PUSH2 0x2558 JUMP JUMPDEST POP POP POP CALLVALUE PUSH2 0x1458 JUMPI DUP1 RETURN JUMPDEST PUSH4 0xB398979F PUSH1 0xE0 SHL DUP2 MSTORE PUSH1 0x4 SWAP1 REVERT JUMPDEST PUSH4 0x4C9C8CE3 PUSH1 0xE0 SHL DUP5 MSTORE PUSH1 0x4 MSTORE PUSH1 0x24 DUP4 REVERT JUMPDEST PUSH4 0x2A875269 PUSH1 0xE2 SHL DUP6 MSTORE PUSH1 0x4 MSTORE PUSH1 0x24 DUP5 REVERT JUMPDEST SWAP1 SWAP6 POP PUSH1 0x20 DUP2 RETURNDATASIZE PUSH1 0x20 GT PUSH2 0x14BB JUMPI JUMPDEST DUP2 PUSH2 0x14A7 PUSH1 0x20 SWAP4 DUP4 PUSH2 0x205B JUMP JUMPDEST DUP2 ADD SUB SLT PUSH2 0x14B7 JUMPI MLOAD SWAP5 CODESIZE PUSH2 0x1381 JUMP JUMPDEST DUP5 DUP1 REVERT JUMPDEST RETURNDATASIZE SWAP2 POP PUSH2 0x149A JUMP JUMPDEST PUSH4 0x703E46DD PUSH1 0xE1 SHL DUP3 MSTORE PUSH1 0x4 DUP3 REVERT JUMPDEST PUSH1 0x0 DUP1 MLOAD PUSH1 0x20 PUSH2 0x25DA DUP4 CODECOPY DUP2 MLOAD SWAP2 MSTORE SLOAD PUSH1 0x1 PUSH1 0x1 PUSH1 0xA0 SHL SUB AND EQ ISZERO SWAP1 POP CODESIZE PUSH2 0x1348 JUMP JUMPDEST POP CALLVALUE PUSH2 0x24D JUMPI PUSH1 0x40 CALLDATASIZE PUSH1 0x3 NOT ADD SLT PUSH2 0x24D JUMPI PUSH1 0x24 CALLDATALOAD PUSH1 0x4 CALLDATALOAD PUSH2 0x1515 PUSH2 0x2271 JUMP JUMPDEST PUSH2 0x151D PUSH2 0x22A7 JUMP JUMPDEST DUP1 DUP4 MSTORE PUSH1 0x5 PUSH1 0x20 MSTORE PUSH1 0x40 DUP4 KECCAK256 SWAP1 PUSH1 0x3 DUP3 ADD SWAP2 PUSH1 0xFF DUP4 SLOAD AND PUSH2 0x17AF JUMPI PUSH1 0x1 DUP2 ADD SWAP3 DUP4 SLOAD ISZERO PUSH2 0x1774 JUMPI DUP1 SLOAD PUSH1 0xFF NOT AND PUSH1 0x1 SWAP1 DUP2 OR SWAP1 SWAP2 SSTORE PUSH1 0x2 SWAP1 SWAP2 ADD DUP5 SWAP1 SSTORE SLOAD PUSH1 0x40 MLOAD PUSH4 0xCE93F867 PUSH1 0xE0 SHL DUP2 MSTORE PUSH1 0x4 DUP2 ADD DUP4 SWAP1 MSTORE SWAP1 DUP6 SWAP1 PUSH1 0x1 PUSH1 0x1 PUSH1 0xA0 SHL SUB AND PUSH1 0x20 DUP4 PUSH1 0x24 DUP2 DUP5 GAS STATICCALL SWAP3 DUP4 ISZERO PUSH2 0x4CF JUMPI DUP3 SWAP4 PUSH2 0x1740 JUMPI JUMPDEST POP DUP1 EXTCODESIZE ISZERO PUSH2 0xB4F JUMPI DUP2 SWAP1 PUSH1 0x24 PUSH1 0x40 MLOAD DUP1 SWAP5 DUP2 SWAP4 PUSH4 0x12421763 PUSH1 0xE2 SHL DUP4 MSTORE DUP9 PUSH1 0x4 DUP5 ADD MSTORE GAS CALL DUP1 ISZERO PUSH2 0x1735 JUMPI PUSH2 0x1721 JUMPI JUMPDEST POP DUP4 PUSH2 0x166E JUMPI JUMPDEST DUP5 JUMPDEST DUP4 SLOAD DUP2 LT ISZERO PUSH2 0x1627 JUMPI DUP1 PUSH2 0x1621 PUSH2 0x15E4 PUSH1 0x1 SWAP4 DUP8 PUSH2 0x219F JUMP JUMPDEST SWAP1 SLOAD DUP5 DUP1 PUSH1 0xA0 SHL SUB SWAP2 PUSH1 0x3 SHL SHR AND PUSH1 0x40 SWAP1 PUSH2 0x1601 DUP3 MLOAD SWAP3 DUP4 PUSH2 0x205B JUMP JUMPDEST PUSH1 0xE DUP3 MSTORE PUSH14 0x1999595917D8DBDB5C1B195D1959 PUSH1 0x92 SHL PUSH1 0x20 DUP4 ADD MSTORE PUSH2 0x22E3 JUMP JUMPDEST ADD PUSH2 0x15CB JUMP JUMPDEST DUP6 DUP4 PUSH32 0x6F4014C94EFE6688744A22ACB21D0A62CD2A70B6BD4A75DA3B1A20512419D605 PUSH1 0x40 DUP6 DUP10 DUP3 MLOAD SWAP2 DUP3 MSTORE PUSH1 0x20 DUP3 ADD MSTORE LOG2 PUSH1 0x1 PUSH1 0x0 DUP1 MLOAD PUSH1 0x20 PUSH2 0x25FA DUP4 CODECOPY DUP2 MLOAD SWAP2 MSTORE SSTORE DUP1 RETURN JUMPDEST PUSH1 0x2 SLOAD PUSH1 0x1 PUSH1 0x1 PUSH1 0xA0 SHL SUB AND DUP1 EXTCODESIZE ISZERO PUSH2 0x171D JUMPI PUSH1 0x40 MLOAD PUSH4 0x2A637739 PUSH1 0xE2 SHL DUP2 MSTORE PUSH1 0x4 DUP2 ADD DUP5 SWAP1 MSTORE PUSH1 0x60 PUSH1 0x24 DUP3 ADD MSTORE DUP5 SLOAD PUSH1 0x64 DUP3 ADD DUP2 SWAP1 MSTORE DUP6 DUP9 MSTORE PUSH1 0x20 DUP9 KECCAK256 DUP9 SWAP4 SWAP2 PUSH1 0x84 DUP5 ADD SWAP2 SWAP1 DUP6 JUMPDEST DUP2 DUP2 LT PUSH2 0x16FB JUMPI POP POP POP DUP4 SWAP2 DUP4 DUP4 DUP2 DUP5 DUP2 SWAP6 POP DUP13 PUSH1 0x44 DUP4 ADD MSTORE SUB SWAP3 GAS CALL DUP1 ISZERO PUSH2 0x4CF JUMPI PUSH2 0x16E6 JUMPI JUMPDEST POP POP PUSH2 0x15C9 JUMP JUMPDEST DUP2 PUSH2 0x16F0 SWAP2 PUSH2 0x205B JUMP JUMPDEST PUSH2 0x14B7 JUMPI DUP5 CODESIZE PUSH2 0x16DF JUMP JUMPDEST DUP3 SLOAD PUSH1 0x1 PUSH1 0x1 PUSH1 0xA0 SHL SUB AND DUP5 MSTORE DUP12 SWAP7 POP PUSH1 0x20 SWAP1 SWAP4 ADD SWAP3 PUSH1 0x1 SWAP3 DUP4 ADD SWAP3 ADD PUSH2 0x16B7 JUMP JUMPDEST DUP6 DUP1 REVERT JUMPDEST DUP6 PUSH2 0x172E SWAP2 SWAP7 SWAP3 SWAP7 PUSH2 0x205B JUMP JUMPDEST SWAP4 CODESIZE PUSH2 0x15C2 JUMP JUMPDEST PUSH1 0x40 MLOAD RETURNDATASIZE DUP9 DUP3 RETURNDATACOPY RETURNDATASIZE SWAP1 REVERT JUMPDEST SWAP1 SWAP3 POP PUSH1 0x20 DUP2 RETURNDATASIZE PUSH1 0x20 GT PUSH2 0x176C JUMPI JUMPDEST DUP2 PUSH2 0x175C PUSH1 0x20 SWAP4 DUP4 PUSH2 0x205B JUMP JUMPDEST DUP2 ADD SUB SLT PUSH2 0xB4F JUMPI MLOAD SWAP2 CODESIZE PUSH2 0x1592 JUMP JUMPDEST RETURNDATASIZE SWAP2 POP PUSH2 0x174F JUMP JUMPDEST PUSH1 0x40 MLOAD PUSH3 0x461BCD PUSH1 0xE5 SHL DUP2 MSTORE PUSH1 0x20 PUSH1 0x4 DUP3 ADD MSTORE PUSH1 0x13 PUSH1 0x24 DUP3 ADD MSTORE PUSH19 0x139BC819995959195C9CC8185CDCDA59DB9959 PUSH1 0x6A SHL PUSH1 0x44 DUP3 ADD MSTORE PUSH1 0x64 SWAP1 REVERT JUMPDEST PUSH1 0x40 MLOAD PUSH3 0x461BCD PUSH1 0xE5 SHL DUP2 MSTORE PUSH1 0x20 PUSH1 0x4 DUP3 ADD MSTORE PUSH1 0xF PUSH1 0x24 DUP3 ADD MSTORE PUSH15 0x105B1C9958591E481CD95D1D1B1959 PUSH1 0x8A SHL PUSH1 0x44 DUP3 ADD MSTORE PUSH1 0x64 SWAP1 REVERT JUMPDEST POP CALLVALUE PUSH2 0x24D JUMPI PUSH1 0x20 CALLDATASIZE PUSH1 0x3 NOT ADD SLT PUSH2 0x24D JUMPI PUSH1 0x4 CALLDATALOAD SWAP1 PUSH1 0x7 DUP3 LT ISZERO PUSH2 0x24D JUMPI PUSH1 0x20 PUSH2 0x1810 DUP4 PUSH2 0x1FF3 JUMP JUMPDEST SLOAD PUSH1 0x40 MLOAD SWAP1 DUP2 MSTORE RETURN JUMPDEST POP CALLVALUE PUSH2 0x24D JUMPI PUSH1 0x20 CALLDATASIZE PUSH1 0x3 NOT ADD SLT PUSH2 0x24D JUMPI PUSH1 0x40 PUSH1 0xA0 SWAP2 PUSH1 0x4 CALLDATALOAD DUP2 MSTORE PUSH1 0x6 PUSH1 0x20 MSTORE KECCAK256 PUSH1 0x1 DUP1 DUP4 SHL SUB DUP2 SLOAD AND SWAP1 PUSH1 0x1 DUP2 ADD SLOAD SWAP1 PUSH1 0x2 DUP2 ADD SLOAD PUSH1 0xFF PUSH1 0x4 PUSH1 0x3 DUP5 ADD SLOAD SWAP4 ADD SLOAD AND SWAP3 PUSH1 0x40 MLOAD SWAP5 DUP6 MSTORE PUSH1 0x20 DUP6 ADD MSTORE PUSH1 0x40 DUP5 ADD MSTORE PUSH1 0x60 DUP4 ADD MSTORE ISZERO ISZERO PUSH1 0x80 DUP3 ADD MSTORE RETURN JUMPDEST POP CALLVALUE PUSH2 0x24D JUMPI DUP1 PUSH1 0x3 NOT CALLDATASIZE ADD SLT PUSH2 0x24D JUMPI PUSH2 0x1895 PUSH2 0x22A7 JUMP JUMPDEST CALLER DUP2 MSTORE PUSH1 0x4 PUSH1 0x20 MSTORE PUSH1 0x40 DUP2 KECCAK256 PUSH2 0x18AE PUSH1 0xFF DUP3 SLOAD AND PUSH2 0x2127 JUMP JUMPDEST PUSH1 0x4 DUP2 ADD SWAP1 DUP2 SLOAD DUP1 ISZERO PUSH2 0x19E2 JUMPI PUSH1 0xA SLOAD PUSH2 0x18C7 SWAP2 PUSH2 0x2164 JUMP JUMPDEST TIMESTAMP LT PUSH2 0x19AA JUMPI PUSH1 0x3 ADD DUP1 SLOAD SWAP2 DUP3 ISZERO PUSH2 0x1976 JUMPI DUP4 DUP1 SWAP3 SSTORE SSTORE DUP2 PUSH1 0x20 PUSH1 0x1 DUP1 PUSH1 0xA0 SHL SUB DUP3 SLOAD AND PUSH1 0x44 PUSH1 0x40 MLOAD DUP1 SWAP5 DUP2 SWAP4 PUSH4 0xA9059CBB PUSH1 0xE0 SHL DUP4 MSTORE CALLER PUSH1 0x4 DUP5 ADD MSTORE DUP8 PUSH1 0x24 DUP5 ADD MSTORE GAS CALL DUP1 ISZERO PUSH2 0xB0E JUMPI PUSH2 0x1959 JUMPI JUMPDEST POP PUSH1 0x40 MLOAD SWAP1 DUP2 MSTORE PUSH32 0x7084F5476618D8E60B11EF0D7D3F06914655ADB8793E28FF7F018D4C76D505D5 PUSH1 0x20 CALLER SWAP3 LOG2 PUSH1 0x1 PUSH1 0x0 DUP1 MLOAD PUSH1 0x20 PUSH2 0x25FA DUP4 CODECOPY DUP2 MLOAD SWAP2 MSTORE SSTORE DUP1 RETURN JUMPDEST PUSH2 0x1971 SWAP1 PUSH1 0x20 RETURNDATASIZE PUSH1 0x20 GT PUSH2 0x528 JUMPI PUSH2 0x51B DUP2 DUP4 PUSH2 0x205B JUMP JUMPDEST PUSH2 0x1917 JUMP JUMPDEST PUSH1 0x40 MLOAD PUSH3 0x461BCD PUSH1 0xE5 SHL DUP2 MSTORE PUSH1 0x20 PUSH1 0x4 DUP3 ADD MSTORE PUSH1 0xC PUSH1 0x24 DUP3 ADD MSTORE PUSH12 0x5A65726F2062616C616E6365 PUSH1 0xA0 SHL PUSH1 0x44 DUP3 ADD MSTORE PUSH1 0x64 SWAP1 REVERT JUMPDEST PUSH1 0x40 MLOAD PUSH3 0x461BCD PUSH1 0xE5 SHL DUP2 MSTORE PUSH1 0x20 PUSH1 0x4 DUP3 ADD MSTORE PUSH1 0x10 PUSH1 0x24 DUP3 ADD MSTORE PUSH16 0x10DBDBDB191BDDDB881B9BDD081B595D PUSH1 0x82 SHL PUSH1 0x44 DUP3 ADD MSTORE PUSH1 0x64 SWAP1 REVERT JUMPDEST PUSH1 0x40 MLOAD PUSH3 0x461BCD PUSH1 0xE5 SHL DUP2 MSTORE PUSH1 0x20 PUSH1 0x4 DUP3 ADD MSTORE PUSH1 0x12 PUSH1 0x24 DUP3 ADD MSTORE PUSH18 0x139BC81D5B9CDD185AD9481C995C5D595CDD PUSH1 0x72 SHL PUSH1 0x44 DUP3 ADD MSTORE PUSH1 0x64 SWAP1 REVERT JUMPDEST POP CALLVALUE PUSH2 0x24D JUMPI PUSH1 0x20 CALLDATASIZE PUSH1 0x3 NOT ADD SLT PUSH2 0x24D JUMPI PUSH1 0x4 CALLDATALOAD SWAP1 PUSH1 0x7 DUP3 LT ISZERO PUSH2 0x24D JUMPI PUSH1 0x20 PUSH2 0x1810 DUP4 PUSH2 0x1FDA JUMP JUMPDEST POP CALLVALUE PUSH2 0x24D JUMPI PUSH1 0x60 CALLDATASIZE PUSH1 0x3 NOT ADD SLT PUSH2 0x24D JUMPI PUSH2 0x1A60 PUSH2 0x200C JUMP JUMPDEST PUSH2 0x1A68 PUSH2 0x2022 JUMP JUMPDEST PUSH2 0x1A70 PUSH2 0x2038 JUMP JUMPDEST SWAP2 PUSH2 0x1A79 PUSH2 0x2271 JUMP JUMPDEST PUSH1 0x1 PUSH1 0x1 PUSH1 0xA0 SHL SUB AND DUP1 PUSH2 0x1ADA JUMPI JUMPDEST POP PUSH1 0x1 PUSH1 0x1 PUSH1 0xA0 SHL SUB AND DUP1 PUSH2 0x1AC1 JUMPI JUMPDEST POP PUSH1 0x1 PUSH1 0x1 PUSH1 0xA0 SHL SUB AND DUP1 PUSH2 0x1AAB JUMPI POP DUP1 RETURN JUMPDEST PUSH1 0x1 PUSH1 0x1 PUSH1 0x60 SHL SUB PUSH1 0xA0 SHL PUSH1 0x3 SLOAD AND OR PUSH1 0x3 SSTORE DUP1 RETURN JUMPDEST PUSH1 0x1 PUSH1 0x1 PUSH1 0x60 SHL SUB PUSH1 0xA0 SHL PUSH1 0x2 SLOAD AND OR PUSH1 0x2 SSTORE CODESIZE PUSH2 0x1A98 JUMP JUMPDEST PUSH1 0x1 PUSH1 0x1 PUSH1 0x60 SHL SUB PUSH1 0xA0 SHL PUSH1 0x1 SLOAD AND OR PUSH1 0x1 SSTORE CODESIZE PUSH2 0x1A88 JUMP JUMPDEST POP CALLVALUE PUSH2 0x24D JUMPI PUSH1 0xA0 CALLDATASIZE PUSH1 0x3 NOT ADD SLT PUSH2 0x24D JUMPI PUSH2 0x1B0D PUSH2 0x200C JUMP JUMPDEST PUSH2 0x1B15 PUSH2 0x2022 JUMP JUMPDEST PUSH2 0x1B1D PUSH2 0x2038 JUMP JUMPDEST PUSH1 0x64 CALLDATALOAD PUSH1 0x1 PUSH1 0x1 PUSH1 0xA0 SHL SUB DUP2 AND SWAP2 SWAP1 DUP3 SWAP1 SUB PUSH2 0x14B7 JUMPI PUSH1 0x84 CALLDATALOAD PUSH1 0x1 PUSH1 0x1 PUSH1 0xA0 SHL SUB DUP2 AND SWAP4 SWAP1 DUP5 SWAP1 SUB PUSH2 0x171D JUMPI PUSH1 0x0 DUP1 MLOAD PUSH1 0x20 PUSH2 0x261A DUP4 CODECOPY DUP2 MLOAD SWAP2 MSTORE SLOAD SWAP5 PUSH1 0xFF DUP7 PUSH1 0x40 SHR AND ISZERO SWAP6 PUSH8 0xFFFFFFFFFFFFFFFF DUP2 AND DUP1 ISZERO SWAP1 DUP2 PUSH2 0x1E93 JUMPI JUMPDEST PUSH1 0x1 EQ SWAP1 DUP2 PUSH2 0x1E89 JUMPI JUMPDEST ISZERO SWAP1 DUP2 PUSH2 0x1E80 JUMPI JUMPDEST POP PUSH2 0x1E71 JUMPI PUSH8 0xFFFFFFFFFFFFFFFF NOT DUP2 AND PUSH1 0x1 OR PUSH1 0x0 DUP1 MLOAD PUSH1 0x20 PUSH2 0x261A DUP4 CODECOPY DUP2 MLOAD SWAP2 MSTORE SSTORE PUSH2 0x1BC9 SWAP2 SWAP1 DUP8 PUSH2 0x1E44 JUMPI JUMPDEST POP PUSH2 0x1BC1 PUSH2 0x240B JUMP JUMPDEST PUSH2 0x275 PUSH2 0x240B JUMP JUMPDEST PUSH2 0x1BD1 PUSH2 0x240B JUMP JUMPDEST PUSH2 0x1BD9 PUSH2 0x240B JUMP JUMPDEST PUSH2 0x1BE1 PUSH2 0x240B JUMP JUMPDEST PUSH1 0x1 PUSH1 0x0 DUP1 MLOAD PUSH1 0x20 PUSH2 0x25FA DUP4 CODECOPY DUP2 MLOAD SWAP2 MSTORE SSTORE PUSH1 0x1 DUP1 PUSH1 0xA0 SHL SUB AND PUSH1 0x1 PUSH1 0x1 PUSH1 0x60 SHL SUB PUSH1 0xA0 SHL DUP7 SLOAD AND OR DUP6 SSTORE PUSH1 0x1 DUP1 PUSH1 0xA0 SHL SUB AND PUSH1 0x1 PUSH1 0x1 PUSH1 0x60 SHL SUB PUSH1 0xA0 SHL PUSH1 0x1 SLOAD AND OR PUSH1 0x1 SSTORE PUSH1 0x1 PUSH1 0x1 PUSH1 0x60 SHL SUB PUSH1 0xA0 SHL PUSH1 0x2 SLOAD AND OR PUSH1 0x2 SSTORE PUSH1 0x1 PUSH1 0x1 PUSH1 0x60 SHL SUB PUSH1 0xA0 SHL PUSH1 0x3 SLOAD AND OR PUSH1 0x3 SSTORE PUSH3 0x93A80 PUSH1 0xA SSTORE DUP2 DUP1 MSTORE PUSH1 0x8 PUSH1 0x20 MSTORE PUSH9 0x56BC75E2D63100000 PUSH1 0x40 DUP4 KECCAK256 SSTORE PUSH1 0x1 DUP3 MSTORE PUSH1 0x8 PUSH1 0x20 MSTORE PUSH9 0xAD78EBC5AC6200000 PUSH1 0x40 DUP4 KECCAK256 SSTORE PUSH1 0x2 DUP3 MSTORE PUSH1 0x8 PUSH1 0x20 MSTORE PUSH9 0x1B1AE4D6E2EF500000 PUSH1 0x40 DUP4 KECCAK256 SSTORE PUSH1 0x3 DUP3 MSTORE PUSH1 0x8 PUSH1 0x20 MSTORE PUSH9 0x3635C9ADC5DEA00000 PUSH1 0x40 DUP4 KECCAK256 SSTORE PUSH1 0x4 DUP3 MSTORE PUSH1 0x8 PUSH1 0x20 MSTORE PUSH9 0x878678326EAC900000 PUSH1 0x40 DUP4 KECCAK256 SSTORE PUSH1 0x5 DUP3 MSTORE PUSH1 0x8 PUSH1 0x20 MSTORE PUSH10 0x10F0CF064DD59200000 PUSH1 0x40 DUP4 KECCAK256 SSTORE PUSH1 0x6 DUP3 MSTORE PUSH1 0x8 PUSH1 0x20 MSTORE PUSH10 0x54B40B1F852BDA00000 PUSH1 0x40 DUP4 KECCAK256 SSTORE DUP2 DUP1 MSTORE PUSH1 0x9 PUSH1 0x20 MSTORE PUSH1 0xA PUSH1 0x40 DUP4 KECCAK256 SSTORE PUSH1 0x1 DUP3 MSTORE PUSH1 0x9 PUSH1 0x20 MSTORE PUSH1 0xF PUSH1 0x40 DUP4 KECCAK256 SSTORE PUSH1 0x2 DUP3 MSTORE PUSH1 0x9 PUSH1 0x20 MSTORE PUSH1 0x14 PUSH1 0x40 DUP4 KECCAK256 SSTORE PUSH1 0x3 DUP3 MSTORE PUSH1 0x9 PUSH1 0x20 MSTORE PUSH1 0x1E PUSH1 0x40 DUP4 KECCAK256 SSTORE PUSH1 0x4 DUP3 MSTORE PUSH1 0x9 PUSH1 0x20 MSTORE PUSH1 0x32 PUSH1 0x40 DUP4 KECCAK256 SSTORE PUSH1 0x5 DUP3 MSTORE PUSH1 0x9 PUSH1 0x20 MSTORE PUSH1 0x64 PUSH1 0x40 DUP4 KECCAK256 SSTORE PUSH1 0x6 DUP3 MSTORE PUSH1 0x9 PUSH1 0x20 MSTORE PUSH1 0x40 DUP3 KECCAK256 PUSH1 0x0 NOT SWAP1 SSTORE DUP2 DUP1 MSTORE PUSH1 0xB PUSH1 0x20 MSTORE DUP2 PUSH1 0x40 DUP2 KECCAK256 SSTORE PUSH1 0x1 DUP3 MSTORE PUSH1 0xB PUSH1 0x20 MSTORE PUSH2 0x3E8 PUSH1 0x40 DUP4 KECCAK256 SSTORE PUSH1 0x2 DUP3 MSTORE PUSH1 0xB PUSH1 0x20 MSTORE PUSH2 0xBB8 PUSH1 0x40 DUP4 KECCAK256 SSTORE PUSH1 0x3 DUP3 MSTORE PUSH1 0xB PUSH1 0x20 MSTORE PUSH2 0x1F40 PUSH1 0x40 DUP4 KECCAK256 SSTORE PUSH1 0x4 DUP3 MSTORE PUSH1 0xB PUSH1 0x20 MSTORE PUSH2 0x4E20 PUSH1 0x40 DUP4 KECCAK256 SSTORE PUSH1 0x5 DUP3 MSTORE PUSH1 0xB PUSH1 0x20 MSTORE PUSH2 0xC350 PUSH1 0x40 DUP4 KECCAK256 SSTORE PUSH1 0x6 DUP3 MSTORE PUSH1 0xB PUSH1 0x20 MSTORE PUSH3 0x186A0 PUSH1 0x40 DUP4 KECCAK256 SSTORE PUSH2 0x1DEA JUMPI DUP1 RETURN JUMPDEST PUSH9 0xFF0000000000000000 NOT PUSH1 0x0 DUP1 MLOAD PUSH1 0x20 PUSH2 0x261A DUP4 CODECOPY DUP2 MLOAD SWAP2 MSTORE SLOAD AND PUSH1 0x0 DUP1 MLOAD PUSH1 0x20 PUSH2 0x261A DUP4 CODECOPY DUP2 MLOAD SWAP2 MSTORE SSTORE PUSH32 0xC7F505B2F371AE2175EE4913F4499E1F2633A7B5936321EED1CDAEB6115181D2 PUSH1 0x20 PUSH1 0x40 MLOAD PUSH1 0x1 DUP2 MSTORE LOG1 DUP1 RETURN JUMPDEST PUSH9 0xFFFFFFFFFFFFFFFFFF NOT AND PUSH9 0x10000000000000001 OR PUSH1 0x0 DUP1 MLOAD PUSH1 0x20 PUSH2 0x261A DUP4 CODECOPY DUP2 MLOAD SWAP2 MSTORE SSTORE CODESIZE PUSH2 0x1BB8 JUMP JUMPDEST PUSH4 0xF92EE8A9 PUSH1 0xE0 SHL DUP9 MSTORE PUSH1 0x4 DUP9 REVERT JUMPDEST SWAP1 POP ISZERO CODESIZE PUSH2 0x1B89 JUMP JUMPDEST ADDRESS EXTCODESIZE ISZERO SWAP2 POP PUSH2 0x1B81 JUMP JUMPDEST DUP9 SWAP2 POP PUSH2 0x1B77 JUMP JUMPDEST POP CALLVALUE PUSH2 0x24D JUMPI PUSH1 0x20 CALLDATASIZE PUSH1 0x3 NOT ADD SLT PUSH2 0x24D JUMPI PUSH1 0x40 PUSH1 0x60 SWAP2 PUSH1 0x4 CALLDATALOAD DUP2 MSTORE PUSH1 0x5 PUSH1 0x20 MSTORE KECCAK256 DUP1 SLOAD SWAP1 PUSH1 0xFF PUSH1 0x3 PUSH1 0x2 DUP4 ADD SLOAD SWAP3 ADD SLOAD AND SWAP1 PUSH1 0x40 MLOAD SWAP3 DUP4 MSTORE PUSH1 0x20 DUP4 ADD MSTORE ISZERO ISZERO PUSH1 0x40 DUP3 ADD MSTORE RETURN JUMPDEST POP CALLVALUE PUSH2 0x24D JUMPI PUSH1 0x20 CALLDATASIZE PUSH1 0x3 NOT ADD SLT PUSH2 0x24D JUMPI PUSH2 0x100 SWAP1 PUSH1 0x40 SWAP1 PUSH1 0x1 PUSH1 0x1 PUSH1 0xA0 SHL SUB PUSH2 0x1F0B PUSH2 0x200C JUMP JUMPDEST AND DUP2 MSTORE PUSH1 0x4 PUSH1 0x20 MSTORE KECCAK256 DUP1 SLOAD SWAP1 PUSH1 0x1 DUP2 ADD SLOAD SWAP1 PUSH1 0x2 DUP2 ADD SLOAD PUSH1 0x3 DUP3 ADD SLOAD PUSH1 0x4 DUP4 ADD SLOAD SWAP2 PUSH1 0x6 PUSH1 0x5 DUP6 ADD SLOAD SWAP5 ADD SLOAD SWAP5 PUSH2 0x1F57 PUSH1 0x40 MLOAD SWAP8 PUSH1 0xFF DUP2 AND ISZERO ISZERO DUP10 MSTORE PUSH1 0xFF PUSH1 0x20 DUP11 ADD SWAP2 PUSH1 0x8 SHR AND PUSH2 0x204E JUMP JUMPDEST PUSH1 0x40 DUP8 ADD MSTORE PUSH1 0x60 DUP7 ADD MSTORE PUSH1 0x80 DUP6 ADD MSTORE PUSH1 0xA0 DUP5 ADD MSTORE PUSH1 0xC0 DUP4 ADD MSTORE PUSH1 0xE0 DUP3 ADD MSTORE RETURN JUMPDEST POP CALLVALUE PUSH2 0x24D JUMPI PUSH1 0x20 CALLDATASIZE PUSH1 0x3 NOT ADD SLT PUSH2 0x24D JUMPI PUSH1 0x4 CALLDATALOAD SWAP1 PUSH1 0x7 DUP3 LT ISZERO PUSH2 0x24D JUMPI PUSH1 0x20 PUSH2 0x1810 DUP4 PUSH2 0x1FC1 JUMP JUMPDEST PUSH1 0x7 GT ISZERO PUSH2 0x1FAB JUMPI JUMP JUMPDEST PUSH4 0x4E487B71 PUSH1 0xE0 SHL PUSH1 0x0 MSTORE PUSH1 0x21 PUSH1 0x4 MSTORE PUSH1 0x24 PUSH1 0x0 REVERT JUMPDEST PUSH1 0x7 DUP2 LT ISZERO PUSH2 0x1FAB JUMPI PUSH1 0x0 MSTORE PUSH1 0x8 PUSH1 0x20 MSTORE PUSH1 0x40 PUSH1 0x0 KECCAK256 SWAP1 JUMP JUMPDEST PUSH1 0x7 DUP2 LT ISZERO PUSH2 0x1FAB JUMPI PUSH1 0x0 MSTORE PUSH1 0xB PUSH1 0x20 MSTORE PUSH1 0x40 PUSH1 0x0 KECCAK256 SWAP1 JUMP JUMPDEST PUSH1 0x7 DUP2 LT ISZERO PUSH2 0x1FAB JUMPI PUSH1 0x0 MSTORE PUSH1 0x9 PUSH1 0x20 MSTORE PUSH1 0x40 PUSH1 0x0 KECCAK256 SWAP1 JUMP JUMPDEST PUSH1 0x4 CALLDATALOAD SWAP1 PUSH1 0x1 PUSH1 0x1 PUSH1 0xA0 SHL SUB DUP3 AND DUP3 SUB PUSH2 0x4C2 JUMPI JUMP JUMPDEST PUSH1 0x24 CALLDATALOAD SWAP1 PUSH1 0x1 PUSH1 0x1 PUSH1 0xA0 SHL SUB DUP3 AND DUP3 SUB PUSH2 0x4C2 JUMPI JUMP JUMPDEST PUSH1 0x44 CALLDATALOAD SWAP1 PUSH1 0x1 PUSH1 0x1 PUSH1 0xA0 SHL SUB DUP3 AND DUP3 SUB PUSH2 0x4C2 JUMPI JUMP JUMPDEST SWAP1 PUSH1 0x7 DUP3 LT ISZERO PUSH2 0x1FAB JUMPI MSTORE JUMP JUMPDEST SWAP1 PUSH1 0x1F DUP1 NOT SWAP2 ADD AND DUP2 ADD SWAP1 DUP2 LT PUSH8 0xFFFFFFFFFFFFFFFF DUP3 GT OR PUSH2 0x207D JUMPI PUSH1 0x40 MSTORE JUMP JUMPDEST PUSH4 0x4E487B71 PUSH1 0xE0 SHL PUSH1 0x0 MSTORE PUSH1 0x41 PUSH1 0x4 MSTORE PUSH1 0x24 PUSH1 0x0 REVERT JUMPDEST PUSH8 0xFFFFFFFFFFFFFFFF DUP2 GT PUSH2 0x207D JUMPI PUSH1 0x1F ADD PUSH1 0x1F NOT AND PUSH1 0x20 ADD SWAP1 JUMP JUMPDEST SWAP3 SWAP2 SWAP3 PUSH2 0x20BB DUP3 PUSH2 0x2093 JUMP JUMPDEST SWAP2 PUSH2 0x20C9 PUSH1 0x40 MLOAD SWAP4 DUP5 PUSH2 0x205B JUMP JUMPDEST DUP3 SWAP5 DUP2 DUP5 MSTORE DUP2 DUP4 ADD GT PUSH2 0x4C2 JUMPI DUP3 DUP2 PUSH1 0x20 SWAP4 DUP5 PUSH1 0x0 SWAP7 ADD CALLDATACOPY ADD ADD MSTORE JUMP JUMPDEST SWAP2 SWAP1 DUP3 MLOAD SWAP3 DUP4 DUP3 MSTORE PUSH1 0x0 JUMPDEST DUP5 DUP2 LT PUSH2 0x2112 JUMPI POP POP DUP3 PUSH1 0x0 PUSH1 0x20 DUP1 SWAP5 SWAP6 DUP5 ADD ADD MSTORE PUSH1 0x1F DUP1 NOT SWAP2 ADD AND ADD ADD SWAP1 JUMP JUMPDEST DUP1 PUSH1 0x20 DUP1 SWAP3 DUP5 ADD ADD MLOAD DUP3 DUP3 DUP7 ADD ADD MSTORE ADD PUSH2 0x20F1 JUMP JUMPDEST ISZERO PUSH2 0x212E JUMPI JUMP JUMPDEST PUSH1 0x40 MLOAD PUSH3 0x461BCD PUSH1 0xE5 SHL DUP2 MSTORE PUSH1 0x20 PUSH1 0x4 DUP3 ADD MSTORE PUSH1 0xE PUSH1 0x24 DUP3 ADD MSTORE PUSH14 0x139BDD081C9959DA5CDD195C9959 PUSH1 0x92 SHL PUSH1 0x44 DUP3 ADD MSTORE PUSH1 0x64 SWAP1 REVERT JUMPDEST SWAP2 SWAP1 DUP3 ADD DUP1 SWAP3 GT PUSH2 0x2171 JUMPI JUMP JUMPDEST PUSH4 0x4E487B71 PUSH1 0xE0 SHL PUSH1 0x0 MSTORE PUSH1 0x11 PUSH1 0x4 MSTORE PUSH1 0x24 PUSH1 0x0 REVERT JUMPDEST SWAP1 DUP2 PUSH1 0x20 SWAP2 SUB SLT PUSH2 0x4C2 JUMPI MLOAD DUP1 ISZERO ISZERO DUP2 SUB PUSH2 0x4C2 JUMPI SWAP1 JUMP JUMPDEST DUP1 SLOAD DUP3 LT ISZERO PUSH2 0x21B7 JUMPI PUSH1 0x0 MSTORE PUSH1 0x20 PUSH1 0x0 KECCAK256 ADD SWAP1 PUSH1 0x0 SWAP1 JUMP JUMPDEST PUSH4 0x4E487B71 PUSH1 0xE0 SHL PUSH1 0x0 MSTORE PUSH1 0x32 PUSH1 0x4 MSTORE PUSH1 0x24 PUSH1 0x0 REVERT JUMPDEST PUSH1 0x0 NOT DUP2 EQ PUSH2 0x2171 JUMPI PUSH1 0x1 ADD SWAP1 JUMP JUMPDEST SWAP1 PUSH1 0x7 DUP2 LT ISZERO PUSH2 0x1FAB JUMPI PUSH2 0xFF00 DUP3 SLOAD SWAP2 PUSH1 0x8 SHL AND SWAP1 PUSH2 0xFF00 NOT AND OR SWAP1 SSTORE JUMP JUMPDEST PUSH1 0x1 PUSH1 0x1 PUSH1 0xA0 SHL SUB AND DUP1 ISZERO PUSH2 0x225B JUMPI PUSH1 0x0 DUP1 MLOAD PUSH1 0x20 PUSH2 0x25BA DUP4 CODECOPY DUP2 MLOAD SWAP2 MSTORE DUP1 SLOAD PUSH1 0x1 PUSH1 0x1 PUSH1 0xA0 SHL SUB NOT DUP2 AND DUP4 OR SWAP1 SWAP2 SSTORE PUSH1 0x1 PUSH1 0x1 PUSH1 0xA0 SHL SUB AND PUSH32 0x8BE0079C531659141344CD1FD0A4F28419497F9722A3DAAFE3B4186F6B6457E0 PUSH1 0x0 DUP1 LOG3 JUMP JUMPDEST PUSH4 0x1E4FBDF7 PUSH1 0xE0 SHL PUSH1 0x0 MSTORE PUSH1 0x0 PUSH1 0x4 MSTORE PUSH1 0x24 PUSH1 0x0 REVERT JUMPDEST PUSH1 0x0 DUP1 MLOAD PUSH1 0x20 PUSH2 0x25BA DUP4 CODECOPY DUP2 MLOAD SWAP2 MSTORE SLOAD PUSH1 0x1 PUSH1 0x1 PUSH1 0xA0 SHL SUB AND CALLER SUB PUSH2 0x2292 JUMPI JUMP JUMPDEST PUSH4 0x118CDAA7 PUSH1 0xE0 SHL PUSH1 0x0 MSTORE CALLER PUSH1 0x4 MSTORE PUSH1 0x24 PUSH1 0x0 REVERT JUMPDEST PUSH1 0x2 PUSH1 0x0 DUP1 MLOAD PUSH1 0x20 PUSH2 0x25FA DUP4 CODECOPY DUP2 MLOAD SWAP2 MSTORE SLOAD EQ PUSH2 0x22D2 JUMPI PUSH1 0x2 PUSH1 0x0 DUP1 MLOAD PUSH1 0x20 PUSH2 0x25FA DUP4 CODECOPY DUP2 MLOAD SWAP2 MSTORE SSTORE JUMP JUMPDEST PUSH4 0x3EE5AEB5 PUSH1 0xE0 SHL PUSH1 0x0 MSTORE PUSH1 0x4 PUSH1 0x0 REVERT JUMPDEST PUSH1 0x1 PUSH1 0x1 PUSH1 0xA0 SHL SUB DUP2 AND PUSH1 0x0 DUP2 DUP2 MSTORE PUSH1 0x4 PUSH1 0x20 MSTORE PUSH1 0x40 SWAP1 KECCAK256 DUP1 SLOAD PUSH1 0xFF AND ISZERO PUSH2 0x2377 JUMPI PUSH1 0x1 DUP2 ADD SWAP4 DUP5 SLOAD SWAP1 PUSH1 0x32 DUP3 ADD DUP1 SWAP3 GT PUSH2 0x2171 JUMPI PUSH1 0x2 PUSH32 0xA13E62B23F693FFF23DADFB64A02B469698038185AEE33E381D571ECBAED843C SWAP4 PUSH2 0x236D SWAP4 PUSH2 0x2375 SWAP9 SSTORE ADD PUSH2 0x2350 DUP2 SLOAD PUSH2 0x21CD JUMP JUMPDEST SWAP1 SSTORE PUSH1 0x40 MLOAD SWAP2 DUP3 SWAP2 PUSH1 0x32 DUP4 MSTORE PUSH1 0x40 PUSH1 0x20 DUP5 ADD MSTORE PUSH1 0x40 DUP4 ADD SWAP1 PUSH2 0x20E6 JUMP JUMPDEST SUB SWAP1 LOG2 PUSH2 0x2478 JUMP JUMPDEST JUMP JUMPDEST POP POP POP POP JUMP JUMPDEST SWAP1 SWAP2 PUSH1 0x1 DUP1 PUSH1 0xA0 SHL SUB DUP3 AND SWAP1 DUP2 PUSH1 0x0 MSTORE PUSH1 0x4 PUSH1 0x20 MSTORE PUSH1 0x40 PUSH1 0x0 KECCAK256 SWAP1 PUSH1 0xFF DUP3 SLOAD AND ISZERO PUSH2 0x2404 JUMPI PUSH2 0x2375 SWAP5 PUSH1 0x2 DUP4 PUSH1 0x1 PUSH32 0xA13E62B23F693FFF23DADFB64A02B469698038185AEE33E381D571ECBAED843C SWAP6 ADD PUSH2 0x23D9 DUP5 DUP3 SLOAD PUSH2 0x2164 JUMP JUMPDEST SWAP1 SSTORE ADD PUSH2 0x23E6 DUP2 SLOAD PUSH2 0x21CD JUMP JUMPDEST SWAP1 SSTORE PUSH2 0x236D PUSH1 0x40 MLOAD SWAP3 DUP4 SWAP3 DUP4 MSTORE PUSH1 0x40 PUSH1 0x20 DUP5 ADD MSTORE PUSH1 0x40 DUP4 ADD SWAP1 PUSH2 0x20E6 JUMP JUMPDEST POP POP POP POP POP JUMP JUMPDEST PUSH1 0xFF PUSH1 0x0 DUP1 MLOAD PUSH1 0x20 PUSH2 0x261A DUP4 CODECOPY DUP2 MLOAD SWAP2 MSTORE SLOAD PUSH1 0x40 SHR AND ISZERO PUSH2 0x2428 JUMPI JUMP JUMPDEST PUSH4 0x1AFCD79F PUSH1 0xE3 SHL PUSH1 0x0 MSTORE PUSH1 0x4 PUSH1 0x0 REVERT JUMPDEST PUSH1 0xFF PUSH1 0x1 SWAP2 AND ADD SWAP1 PUSH1 0xFF DUP3 GT PUSH2 0x2171 JUMPI JUMP JUMPDEST PUSH1 0xFF AND PUSH1 0x7 DUP2 LT ISZERO PUSH2 0x1FAB JUMPI SWAP1 JUMP JUMPDEST SWAP2 PUSH1 0x20 PUSH2 0x2375 SWAP3 SWAP5 SWAP4 PUSH2 0x2471 DUP2 PUSH1 0x40 DUP2 ADD SWAP8 PUSH2 0x204E JUMP JUMPDEST ADD SWAP1 PUSH2 0x204E JUMP JUMPDEST PUSH1 0x1 PUSH1 0x1 PUSH1 0xA0 SHL SUB DUP2 AND PUSH1 0x0 SWAP1 DUP2 MSTORE PUSH1 0x4 PUSH1 0x20 MSTORE PUSH1 0x40 SWAP1 KECCAK256 DUP1 SLOAD SWAP1 SWAP2 SWAP1 PUSH1 0x8 SHR PUSH1 0xFF AND PUSH2 0x24A4 DUP2 PUSH2 0x1FA1 JUMP JUMPDEST PUSH1 0x6 DUP2 LT PUSH2 0x24B1 JUMPI POP POP POP JUMP JUMPDEST PUSH2 0x24BA DUP2 PUSH2 0x1FA1 JUMP JUMPDEST PUSH2 0x24CB PUSH2 0x24C6 DUP3 PUSH2 0x2439 JUMP JUMPDEST PUSH2 0x244B JUMP JUMPDEST PUSH1 0x1 DUP5 ADD SLOAD PUSH2 0x24D9 DUP3 PUSH2 0x1FDA JUMP JUMPDEST SLOAD GT ISZERO DUP1 PUSH2 0x2541 JUMPI JUMPDEST PUSH2 0x24EC JUMPI POP POP POP POP JUMP JUMPDEST PUSH2 0x236D DUP2 PUSH2 0x251E PUSH32 0xBAF1D8EFF6BFE4C2B1CC56E312BF32080BD1F619FB4798BEA7B55C74FB159DC8 SWAP4 PUSH2 0x2538 SWAP8 PUSH2 0x21DC JUMP JUMPDEST PUSH1 0x40 MLOAD PUSH1 0x1 PUSH1 0x1 PUSH1 0xA0 SHL SUB DUP7 AND SWAP5 SWAP1 SWAP3 DUP4 SWAP3 SWAP1 SWAP2 DUP4 PUSH2 0x245A JUMP JUMPDEST CODESIZE DUP1 DUP1 DUP1 PUSH2 0x2377 JUMP JUMPDEST POP PUSH1 0x3 DUP5 ADD SLOAD PUSH2 0x2550 DUP3 PUSH2 0x1FC1 JUMP JUMPDEST SLOAD GT ISZERO PUSH2 0x24E2 JUMP JUMPDEST SWAP1 PUSH2 0x257E JUMPI POP DUP1 MLOAD ISZERO PUSH2 0x256D JUMPI PUSH1 0x20 DUP2 MLOAD SWAP2 ADD REVERT JUMPDEST PUSH4 0xD6BDA275 PUSH1 0xE0 SHL PUSH1 0x0 MSTORE PUSH1 0x4 PUSH1 0x0 REVERT JUMPDEST DUP2 MLOAD ISZERO DUP1 PUSH2 0x25B0 JUMPI JUMPDEST PUSH2 0x258F JUMPI POP SWAP1 JUMP JUMPDEST PUSH4 0x9996B315 PUSH1 0xE0 SHL PUSH1 0x0 SWAP1 DUP2 MSTORE PUSH1 0x1 PUSH1 0x1 PUSH1 0xA0 SHL SUB SWAP2 SWAP1 SWAP2 AND PUSH1 0x4 MSTORE PUSH1 0x24 SWAP1 REVERT JUMPDEST POP DUP1 EXTCODESIZE ISZERO PUSH2 0x2587 JUMP INVALID SWAP1 AND 0xD0 SWAP14 PUSH19 0xD40FDAE2FD8CEAC6B6234C7706214FD39C1CD1 0xE6 MULMOD LOG0 MSTORE DUP13 NOT SWAP4 STOP CALLDATASIZE ADDMOD SWAP5 LOG1 EXTCODESIZE LOG1 LOG3 0x21 MOD PUSH8 0xC828492DB98DCA3E KECCAK256 PUSH23 0xCC3735A920A3CA505D382BBC9B779B17422D0DF9222301 DUP12 ORIGIN 0xB4 0xD1 STATICCALL CHAINID 0xE0 PUSH18 0x723D6817E2486D003BECC55F00F0C57E1684 0xD CREATE BLOCKHASH CALL POP DUP9 0xDC 0x2F DUP2 INVALID CODECOPY SHR CODECOPY 0x23 0xBE 0xC7 RETURNDATACOPY 0x23 0xA9 PUSH7 0x2EFC9C229C6A00 LOG2 PUSH5 0x6970667358 0x22 SLT KECCAK256 SGT 0xAB 0x1F EXP SWAP7 0xAB 0xC4 0xBE PUSH24 0xB957900A5D4B21332543D0095AADC293F3AE4664AFD37864 PUSH20 0x6F6C634300081C00330000000000000000000000 "},"methodIdentifiers":{"UPGRADE_INTERFACE_VERSION()":"ad3cb1cc","authorizedProtocols(address)":"40c340ec","awardXP(address,uint256,string)":"d21db9a5","consensus()":"8ef3f761","engineOrders(bytes32)":"13b99635","feedRequests(bytes32)":"40e19908","feedToken()":"c27308a8","feederLicense()":"569bb6e9","feeders(address)":"0aa31661","getConsensusPrice(bytes32)":"ce93f867","getFeederInfo(address)":"d5adc966","getOrderFeeders(bytes32)":"b334c28b","grabOrder(bytes32)":"88e5ee81","initialize(address,address,address,address,address)":"1459457a","isProtocolAuthorized(address)":"5f76a98d","maxDailyGrabByRank(uint8)":"436a0fab","minStakeByRank(uint8)":"04993e6a","owner()":"8da5cb5b","proxiableUUID()":"52d1902d","registerFeeder(uint256)":"eb7bb5a7","renounceOwnership()":"715018a6","requestFeed(bytes32,uint256,uint256)":"de000f4b","requestUnstake()":"fc63958e","rewardPenalty()":"e0f8b2ef","setAuthorizedProtocol(address,bool)":"65334ac0","settleOrder(bytes32,uint256)":"472ac4b7","stake(uint256)":"a694fc3a","totalFeeders()":"d3686dcf","transferOwnership(address)":"f2fde38b","unstakeCooldown()":"7eefd5ae","updateMinStake(uint8,uint256)":"c639af3e","updateSubContracts(address,address,address)":"2d230d2a","updateUnstakeCooldown(uint256)":"9f648f55","upgradeToAndCall(address,bytes)":"4f1ef286","withdraw()":"3ccfd60b","xpThresholds(uint8)":"2e822dbf"}},"storageLayout":{"storage":[{"astId":9859,"contract":"contracts/FeedEngine.sol:FeedEngine","label":"feedToken","offset":0,"slot":"0","type":"t_contract(IERC20)3177"},{"astId":9863,"contract":"contracts/FeedEngine.sol:FeedEngine","label":"consensus","offset":0,"slot":"1","type":"t_contract(FeedConsensus)9785"},{"astId":9867,"contract":"contracts/FeedEngine.sol:FeedEngine","label":"rewardPenalty","offset":0,"slot":"2","type":"t_contract(RewardPenalty)12305"},{"astId":9871,"contract":"contracts/FeedEngine.sol:FeedEngine","label":"feederLicense","offset":0,"slot":"3","type":"t_contract(FeederLicense)11506"},{"astId":9877,"contract":"contracts/FeedEngine.sol:FeedEngine","label":"feeders","offset":0,"slot":"4","type":"t_mapping(t_address,t_struct(FeederInfo)9832_storage)"},{"astId":9883,"contract":"contracts/FeedEngine.sol:FeedEngine","label":"engineOrders","offset":0,"slot":"5","type":"t_mapping(t_bytes32,t_struct(EngineOrder)9843_storage)"},{"astId":9889,"contract":"contracts/FeedEngine.sol:FeedEngine","label":"feedRequests","offset":0,"slot":"6","type":"t_mapping(t_bytes32,t_struct(FeedRequest)9855_storage)"},{"astId":9894,"contract":"contracts/FeedEngine.sol:FeedEngine","label":"authorizedProtocols","offset":0,"slot":"7","type":"t_mapping(t_address,t_bool)"},{"astId":9900,"contract":"contracts/FeedEngine.sol:FeedEngine","label":"minStakeByRank","offset":0,"slot":"8","type":"t_mapping(t_enum(FeederRank)9813,t_uint256)"},{"astId":9906,"contract":"contracts/FeedEngine.sol:FeedEngine","label":"maxDailyGrabByRank","offset":0,"slot":"9","type":"t_mapping(t_enum(FeederRank)9813,t_uint256)"},{"astId":9909,"contract":"contracts/FeedEngine.sol:FeedEngine","label":"unstakeCooldown","offset":0,"slot":"10","type":"t_uint256"},{"astId":9915,"contract":"contracts/FeedEngine.sol:FeedEngine","label":"xpThresholds","offset":0,"slot":"11","type":"t_mapping(t_enum(FeederRank)9813,t_uint256)"},{"astId":9918,"contract":"contracts/FeedEngine.sol:FeedEngine","label":"totalFeeders","offset":0,"slot":"12","type":"t_uint256"}],"types":{"t_address":{"encoding":"inplace","label":"address","numberOfBytes":"20"},"t_array(t_address)dyn_storage":{"base":"t_address","encoding":"dynamic_array","label":"address[]","numberOfBytes":"32"},"t_bool":{"encoding":"inplace","label":"bool","numberOfBytes":"1"},"t_bytes32":{"encoding":"inplace","label":"bytes32","numberOfBytes":"32"},"t_contract(FeedConsensus)9785":{"encoding":"inplace","label":"contract FeedConsensus","numberOfBytes":"20"},"t_contract(FeederLicense)11506":{"encoding":"inplace","label":"contract FeederLicense","numberOfBytes":"20"},"t_contract(IERC20)3177":{"encoding":"inplace","label":"contract IERC20","numberOfBytes":"20"},"t_contract(RewardPenalty)12305":{"encoding":"inplace","label":"contract RewardPenalty","numberOfBytes":"20"},"t_enum(FeederRank)9813":{"encoding":"inplace","label":"enum FeedEngine.FeederRank","numberOfBytes":"1"},"t_mapping(t_address,t_bool)":{"encoding":"mapping","key":"t_address","label":"mapping(address => bool)","numberOfBytes":"32","value":"t_bool"},"t_mapping(t_address,t_struct(FeederInfo)9832_storage)":{"encoding":"mapping","key":"t_address","label":"mapping(address => struct FeedEngine.FeederInfo)","numberOfBytes":"32","value":"t_struct(FeederInfo)9832_storage"},"t_mapping(t_bytes32,t_struct(EngineOrder)9843_storage)":{"encoding":"mapping","key":"t_bytes32","label":"mapping(bytes32 => struct FeedEngine.EngineOrder)","numberOfBytes":"32","value":"t_struct(EngineOrder)9843_storage"},"t_mapping(t_bytes32,t_struct(FeedRequest)9855_storage)":{"encoding":"mapping","key":"t_bytes32","label":"mapping(bytes32 => struct FeedEngine.FeedRequest)","numberOfBytes":"32","value":"t_struct(FeedRequest)9855_storage"},"t_mapping(t_enum(FeederRank)9813,t_uint256)":{"encoding":"mapping","key":"t_enum(FeederRank)9813","label":"mapping(enum FeedEngine.FeederRank => uint256)","numberOfBytes":"32","value":"t_uint256"},"t_struct(EngineOrder)9843_storage":{"encoding":"inplace","label":"struct FeedEngine.EngineOrder","members":[{"astId":9835,"contract":"contracts/FeedEngine.sol:FeedEngine","label":"orderId","offset":0,"slot":"0","type":"t_bytes32"},{"astId":9838,"contract":"contracts/FeedEngine.sol:FeedEngine","label":"assignedFeeders","offset":0,"slot":"1","type":"t_array(t_address)dyn_storage"},{"astId":9840,"contract":"contracts/FeedEngine.sol:FeedEngine","label":"rewardAmount","offset":0,"slot":"2","type":"t_uint256"},{"astId":9842,"contract":"contracts/FeedEngine.sol:FeedEngine","label":"settled","offset":0,"slot":"3","type":"t_bool"}],"numberOfBytes":"128"},"t_struct(FeedRequest)9855_storage":{"encoding":"inplace","label":"struct FeedEngine.FeedRequest","members":[{"astId":9846,"contract":"contracts/FeedEngine.sol:FeedEngine","label":"requester","offset":0,"slot":"0","type":"t_address"},{"astId":9848,"contract":"contracts/FeedEngine.sol:FeedEngine","label":"requiredFeeders","offset":0,"slot":"1","type":"t_uint256"},{"astId":9850,"contract":"contracts/FeedEngine.sol:FeedEngine","label":"rewardAmount","offset":0,"slot":"2","type":"t_uint256"},{"astId":9852,"contract":"contracts/FeedEngine.sol:FeedEngine","label":"timestamp","offset":0,"slot":"3","type":"t_uint256"},{"astId":9854,"contract":"contracts/FeedEngine.sol:FeedEngine","label":"exists","offset":0,"slot":"4","type":"t_bool"}],"numberOfBytes":"160"},"t_struct(FeederInfo)9832_storage":{"encoding":"inplace","label":"struct FeedEngine.FeederInfo","members":[{"astId":9816,"contract":"contracts/FeedEngine.sol:FeedEngine","label":"registered","offset":0,"slot":"0","type":"t_bool"},{"astId":9819,"contract":"contracts/FeedEngine.sol:FeedEngine","label":"rank","offset":1,"slot":"0","type":"t_enum(FeederRank)9813"},{"astId":9821,"contract":"contracts/FeedEngine.sol:FeedEngine","label":"xp","offset":0,"slot":"1","type":"t_uint256"},{"astId":9823,"contract":"contracts/FeedEngine.sol:FeedEngine","label":"totalFeeds","offset":0,"slot":"2","type":"t_uint256"},{"astId":9825,"contract":"contracts/FeedEngine.sol:FeedEngine","label":"stakedAmount","offset":0,"slot":"3","type":"t_uint256"},{"astId":9827,"contract":"contracts/FeedEngine.sol:FeedEngine","label":"unstakeRequestTime","offset":0,"slot":"4","type":"t_uint256"},{"astId":9829,"contract":"contracts/FeedEngine.sol:FeedEngine","label":"dailyGrabCount","offset":0,"slot":"5","type":"t_uint256"},{"astId":9831,"contract":"contracts/FeedEngine.sol:FeedEngine","label":"lastGrabDate","offset":0,"slot":"6","type":"t_uint256"}],"numberOfBytes":"224"},"t_uint256":{"encoding":"inplace","label":"uint256","numberOfBytes":"32"}}}}}}