{"contracts/FeedConsensus.sol":{"FeedConsensus":{"abi":[{"inputs":[],"stateMutability":"nonpayable","type":"constructor"},{"inputs":[{"internalType":"address","name":"target","type":"address"}],"name":"AddressEmptyCode","type":"error"},{"inputs":[{"internalType":"address","name":"implementation","type":"address"}],"name":"ERC1967InvalidImplementation","type":"error"},{"inputs":[],"name":"ERC1967NonPayable","type":"error"},{"inputs":[],"name":"FailedCall","type":"error"},{"inputs":[],"name":"InvalidInitialization","type":"error"},{"inputs":[],"name":"NotInitializing","type":"error"},{"inputs":[{"internalType":"address","name":"owner","type":"address"}],"name":"OwnableInvalidOwner","type":"error"},{"inputs":[{"internalType":"address","name":"account","type":"address"}],"name":"OwnableUnauthorizedAccount","type":"error"},{"inputs":[],"name":"ReentrancyGuardReentrantCall","type":"error"},{"inputs":[],"name":"UUPSUnauthorizedCallContext","type":"error"},{"inputs":[{"internalType":"bytes32","name":"slot","type":"bytes32"}],"name":"UUPSUnsupportedProxiableUUID","type":"error"},{"anonymous":false,"inputs":[{"indexed":true,"internalType":"bytes32","name":"orderId","type":"bytes32"},{"indexed":false,"internalType":"uint256","name":"consensusPrice","type":"uint256"},{"indexed":false,"internalType":"uint256","name":"participantCount","type":"uint256"}],"name":"ConsensusReached","type":"event"},{"anonymous":false,"inputs":[{"indexed":false,"internalType":"uint64","name":"version","type":"uint64"}],"name":"Initialized","type":"event"},{"anonymous":false,"inputs":[{"indexed":true,"internalType":"address","name":"operator","type":"address"},{"indexed":false,"internalType":"bool","name":"authorized","type":"bool"}],"name":"OperatorUpdated","type":"event"},{"anonymous":false,"inputs":[{"indexed":true,"internalType":"bytes32","name":"orderId","type":"bytes32"},{"indexed":false,"internalType":"string","name":"symbol","type":"string"},{"indexed":false,"internalType":"uint256","name":"notionalAmount","type":"uint256"},{"indexed":false,"internalType":"uint256","name":"quorum","type":"uint256"}],"name":"OrderCreated","type":"event"},{"anonymous":false,"inputs":[{"indexed":true,"internalType":"bytes32","name":"orderId","type":"bytes32"},{"indexed":false,"internalType":"string","name":"reason","type":"string"}],"name":"OrderDisputed","type":"event"},{"anonymous":false,"inputs":[{"indexed":true,"internalType":"address","name":"previousOwner","type":"address"},{"indexed":true,"internalType":"address","name":"newOwner","type":"address"}],"name":"OwnershipTransferred","type":"event"},{"anonymous":false,"inputs":[{"indexed":true,"internalType":"bytes32","name":"orderId","type":"bytes32"},{"indexed":true,"internalType":"address","name":"feeder","type":"address"},{"indexed":false,"internalType":"bytes32","name":"priceHash","type":"bytes32"}],"name":"PriceCommitted","type":"event"},{"anonymous":false,"inputs":[{"indexed":true,"internalType":"bytes32","name":"orderId","type":"bytes32"},{"indexed":true,"internalType":"address","name":"feeder","type":"address"},{"indexed":false,"internalType":"uint256","name":"price","type":"uint256"}],"name":"PriceRevealed","type":"event"},{"anonymous":false,"inputs":[{"indexed":true,"internalType":"address","name":"implementation","type":"address"}],"name":"Upgraded","type":"event"},{"inputs":[],"name":"UPGRADE_INTERFACE_VERSION","outputs":[{"internalType":"string","name":"","type":"string"}],"stateMutability":"view","type":"function"},{"inputs":[{"internalType":"address","name":"","type":"address"}],"name":"authorizedOperators","outputs":[{"internalType":"bool","name":"","type":"bool"}],"stateMutability":"view","type":"function"},{"inputs":[{"internalType":"bytes32[]","name":"orderIds","type":"bytes32[]"},{"internalType":"bytes32[]","name":"priceHashes","type":"bytes32[]"}],"name":"batchSubmitPriceHash","outputs":[],"stateMutability":"nonpayable","type":"function"},{"inputs":[],"name":"commitWindow","outputs":[{"internalType":"uint256","name":"","type":"uint256"}],"stateMutability":"view","type":"function"},{"inputs":[{"internalType":"bytes32","name":"","type":"bytes32"},{"internalType":"address","name":"","type":"address"}],"name":"commits","outputs":[{"internalType":"bytes32","name":"priceHash","type":"bytes32"},{"internalType":"uint256","name":"revealedPrice","type":"uint256"},{"internalType":"bool","name":"committed","type":"bool"},{"internalType":"bool","name":"revealed","type":"bool"},{"internalType":"uint256","name":"commitTime","type":"uint256"}],"stateMutability":"view","type":"function"},{"inputs":[{"internalType":"uint256","name":"price","type":"uint256"},{"internalType":"bytes32","name":"salt","type":"bytes32"}],"name":"computePriceHash","outputs":[{"internalType":"bytes32","name":"","type":"bytes32"}],"stateMutability":"pure","type":"function"},{"inputs":[{"internalType":"bytes32","name":"orderId","type":"bytes32"},{"internalType":"string","name":"symbol","type":"string"},{"internalType":"uint256","name":"notionalAmount","type":"uint256"},{"internalType":"uint256","name":"quorum","type":"uint256"}],"name":"createOrder","outputs":[],"stateMutability":"nonpayable","type":"function"},{"inputs":[{"internalType":"bytes32","name":"orderId","type":"bytes32"},{"internalType":"string","name":"reason","type":"string"}],"name":"disputeOrder","outputs":[],"stateMutability":"nonpayable","type":"function"},{"inputs":[{"internalType":"bytes32","name":"orderId","type":"bytes32"},{"internalType":"address","name":"feeder","type":"address"}],"name":"getCommit","outputs":[{"internalType":"bytes32","name":"priceHash","type":"bytes32"},{"internalType":"uint256","name":"revealedPrice","type":"uint256"},{"internalType":"bool","name":"committed","type":"bool"},{"internalType":"bool","name":"revealed","type":"bool"}],"stateMutability":"view","type":"function"},{"inputs":[{"internalType":"bytes32","name":"orderId","type":"bytes32"}],"name":"getConsensusPrice","outputs":[{"internalType":"uint256","name":"","type":"uint256"}],"stateMutability":"view","type":"function"},{"inputs":[{"internalType":"bytes32","name":"orderId","type":"bytes32"}],"name":"getOrderPhase","outputs":[{"internalType":"enum FeedConsensus.OrderPhase","name":"","type":"uint8"}],"stateMutability":"view","type":"function"},{"inputs":[{"internalType":"bytes32","name":"orderId","type":"bytes32"}],"name":"getRevealedFeeders","outputs":[{"internalType":"address[]","name":"","type":"address[]"}],"stateMutability":"view","type":"function"},{"inputs":[{"internalType":"address","name":"owner_","type":"address"},{"internalType":"uint256","name":"commitWindow_","type":"uint256"},{"internalType":"uint256","name":"revealWindow_","type":"uint256"}],"name":"initialize","outputs":[],"stateMutability":"nonpayable","type":"function"},{"inputs":[],"name":"maxDeviationBps","outputs":[{"internalType":"uint256","name":"","type":"uint256"}],"stateMutability":"view","type":"function"},{"inputs":[{"internalType":"bytes32","name":"","type":"bytes32"}],"name":"orders","outputs":[{"internalType":"bytes32","name":"orderId","type":"bytes32"},{"internalType":"string","name":"symbol","type":"string"},{"internalType":"uint256","name":"notionalAmount","type":"uint256"},{"internalType":"enum FeedConsensus.OrderPhase","name":"phase","type":"uint8"},{"internalType":"uint256","name":"commitDeadline","type":"uint256"},{"internalType":"uint256","name":"revealDeadline","type":"uint256"},{"internalType":"uint256","name":"consensusPrice","type":"uint256"},{"internalType":"uint256","name":"requiredQuorum","type":"uint256"},{"internalType":"uint256","name":"commitCount","type":"uint256"},{"internalType":"uint256","name":"revealCount","type":"uint256"},{"internalType":"address","name":"creator","type":"address"}],"stateMutability":"view","type":"function"},{"inputs":[],"name":"owner","outputs":[{"internalType":"address","name":"","type":"address"}],"stateMutability":"view","type":"function"},{"inputs":[],"name":"proxiableUUID","outputs":[{"internalType":"bytes32","name":"","type":"bytes32"}],"stateMutability":"view","type":"function"},{"inputs":[],"name":"renounceOwnership","outputs":[],"stateMutability":"nonpayable","type":"function"},{"inputs":[{"internalType":"bytes32","name":"orderId","type":"bytes32"},{"internalType":"uint256","name":"price","type":"uint256"},{"internalType":"bytes32","name":"salt","type":"bytes32"}],"name":"revealPrice","outputs":[],"stateMutability":"nonpayable","type":"function"},{"inputs":[],"name":"revealWindow","outputs":[{"internalType":"uint256","name":"","type":"uint256"}],"stateMutability":"view","type":"function"},{"inputs":[{"internalType":"bytes32","name":"","type":"bytes32"},{"internalType":"uint256","name":"","type":"uint256"}],"name":"revealedFeeders","outputs":[{"internalType":"address","name":"","type":"address"}],"stateMutability":"view","type":"function"},{"inputs":[{"internalType":"address","name":"operator","type":"address"},{"internalType":"bool","name":"authorized","type":"bool"}],"name":"setOperator","outputs":[],"stateMutability":"nonpayable","type":"function"},{"inputs":[{"internalType":"bytes32","name":"orderId","type":"bytes32"}],"name":"settleOrder","outputs":[],"stateMutability":"nonpayable","type":"function"},{"inputs":[{"internalType":"bytes32","name":"orderId","type":"bytes32"},{"internalType":"uint256","name":"consensusPrice","type":"uint256"}],"name":"submitConsensus","outputs":[],"stateMutability":"nonpayable","type":"function"},{"inputs":[{"internalType":"bytes32","name":"orderId","type":"bytes32"},{"internalType":"bytes32","name":"priceHash","type":"bytes32"}],"name":"submitPriceHash","outputs":[],"stateMutability":"nonpayable","type":"function"},{"inputs":[{"internalType":"address","name":"newOwner","type":"address"}],"name":"transferOwnership","outputs":[],"stateMutability":"nonpayable","type":"function"},{"inputs":[{"internalType":"uint256","name":"bps","type":"uint256"}],"name":"updateMaxDeviation","outputs":[],"stateMutability":"nonpayable","type":"function"},{"inputs":[{"internalType":"uint256","name":"commitWindow_","type":"uint256"},{"internalType":"uint256","name":"revealWindow_","type":"uint256"}],"name":"updateWindows","outputs":[],"stateMutability":"nonpayable","type":"function"},{"inputs":[{"internalType":"address","name":"newImplementation","type":"address"},{"internalType":"bytes","name":"data","type":"bytes"}],"name":"upgradeToAndCall","outputs":[],"stateMutability":"payable","type":"function"}],"evm":{"bytecode":{"linkReferences":{},"object":"60a080604052346100ea57306080527ff0c57e16840df040f15088dc2f81fe391c3923bec73e23a9662efc9c229c6a005460ff8160401c166100d9576002600160401b03196001600160401b03821601610073575b604051611f2190816100f0823960805181818161104601526110eb0152f35b6001600160401b0319166001600160401b039081177ff0c57e16840df040f15088dc2f81fe391c3923bec73e23a9662efc9c229c6a005581527fc7f505b2f371ae2175ee4913f4499e1f2633a7b5936321eed1cdaeb6115181d290602090a13880610054565b63f92ee8a960e01b60005260046000fd5b600080fdfe6080604052600436101561001257600080fd5b60003560e01c806302651a2914611a0657806305c28f7914611808578063181d989b146117c957806324b178ec1461153757806335e224d8146114f65780633ee7a701146114d857806340699005146114ba578063464470231461137857806349085d8c146112b15780634f1ef2861461109d57806352d1902d14611033578063558a729714610fab5780636e271ed814610f61578063715018a614610ef75780637a1ac61e14610d5b578063863d22c714610d3d5780638da5cb5b14610d0757806396cd54c614610c985780639a5260e814610b915780639c3f1e9014610a375780639ed67a77146107b4578063ad3cb1cc14610769578063afea2198146106ab578063b912442514610672578063be1f626b146105f8578063ce93f867146105c9578063cfc43c5414610204578063f2fde38b146101d95763f885f7ed1461015b57600080fd5b346101d45760403660031901126101d45760a06040610178611a92565b600435600052600160205281600020600091600180861b031682526020522080549060ff600182015491600360028201549101549260405194855260208501528181161515604085015260081c16151560608301526080820152f35b600080fd5b346101d45760203660031901126101d4576102026101f5611a7c565b6101fd611dc6565b611d50565b005b346101d45760803660031901126101d4576004356024356001600160401b0381116101d457610237903690600401611ad8565b90604435916064359233600052600360205260ff6040600020541680156105a8575b61026290611c94565b84600052600060205260ff60036040600020015416600681101561044f57610574576003841061053e57600454936102b06102a76102a08742611d43565b9642611d43565b60055490611d43565b94604051906101608201918083106001600160401b038411176105285788926040528281526102e0368789611b5c565b6020820190815260408201868152606083019960018b526080840194855260a0840190815260c084016000815260e08501918883526101008601936000855261012087019560008752610140880199338b5260005260006020526040600020975188556001880190518051906001600160401b0382116105285781906103668454611bd7565b601f81116104d5575b50602090601f831160011461047057600092610465575b50508160011b916000199060031b1c19161790555b516002870155600386019c5196600688101561044f577f021b9ac2d33d64e86b93dd6d7479f0fbb3efdd462a90b03a291dd407ff009d069d600a9860ff80198354169116179055516004870155516005860155516006850155516007840155516008830155516009820155019060018060a01b039051166bffffffffffffffffffffffff60a01b82541617905561043f604051948594606086526060860191611ce0565b91602084015260408301520390a2005b634e487b7160e01b600052602160045260246000fd5b015190503880610386565b60008581528281209350601f198516905b8181106104bd57509084600195949392106104a4575b505050811b01905561039b565b015160001960f88460031b161c19169055388080610497565b92936020600181928786015181550195019301610481565b909150836000526020600020601f840160051c8101916020851061051e575b90601f859493920160051c01905b81811061050f575061036f565b60008155849350600101610502565b90915081906104f4565b634e487b7160e01b600052604160045260246000fd5b60405162461bcd60e51b815260206004820152600e60248201526d51756f72756d20746f6f206c6f7760901b6044820152606490fd5b60405162461bcd60e51b815260206004820152600c60248201526b4f726465722065786973747360a01b6044820152606490fd5b50600080516020611e8c833981519152546001600160a01b03163314610259565b346101d45760203660031901126101d45760043560005260006020526020600660406000200154604051908152f35b346101d45760403660031901126101d457602435600435610617611dc6565b603c81101580610667575b1561062f57600455600555005b60405162461bcd60e51b815260206004820152601060248201526f15da5b991bddc81d1bdbc81cda1bdc9d60821b6044820152606490fd5b50603c821015610622565b346101d45760203660031901126101d4576004356000526000602052602060ff600360406000200154166106a96040518092611c52565bf35b346101d45760203660031901126101d457600435600052600260205260406000206040518060208354918281520190819360005260206000209060005b81811061074a57505050816106fe910382611b20565b6040519182916020830190602084525180915260408301919060005b818110610728575050500390f35b82516001600160a01b031684528594506020938401939092019160010161071a565b82546001600160a01b03168452602090930192600192830192016106e8565b346101d45760003660031901126101d4576107b0604080519061078c8183611b20565b60058252640352e302e360dc1b602083015251918291602083526020830190611c11565b0390f35b346101d45760603660031901126101d457600435602435908060005260006020526040600020600381019060ff825416600681101561044f5760028114908115610a12575b5061080390611d01565b600581015442116109d45760008381526001602090815260408083203384529091529020600281018054929160ff84161561099f5760ff8460081c16610967576040516020810190888252604435604082015260408152610865606082611b20565b5190208154036109325760099387600161010093015561ff0019161790550161088e8154611c5f565b90558160005260026020526040600020805468010000000000000000811015610528576108c091600182018155611ba9565b81546001600160a01b0360039290921b91821b19163390911b179055805460ff16600681101561044f57600114610921575b506040519182527f9537aae905308c8d3befcce1d02519f00273ca841b22d87684459656a6c94f4e60203393a3005b805460ff19166002179055826108f2565b60405162461bcd60e51b815260206004820152600d60248201526c090c2e6d040dad2e6dac2e8c6d609b1b6044820152606490fd5b60405162461bcd60e51b815260206004820152601060248201526f105b1c9958591e481c995d99585b195960821b6044820152606490fd5b60405162461bcd60e51b815260206004820152600d60248201526c139bdd0818dbdb5b5a5d1d1959609a1b6044820152606490fd5b60405162461bcd60e51b815260206004820152601660248201527514995d99585b08191958591b1a5b99481c185cdcd95960521b6044820152606490fd5b600191501480610a25575b6108036107f9565b50600881015460078201541115610a1d565b346101d45760203660031901126101d4576004356000526000602052602060406000208054906001810160405190816000825492610a7484611bd7565b8084529360018116908115610b715750600114610b31575b50610a9992500382611b20565b60028201549160ff60038201541660048201546005830154600684015490600785015492610b07600887015495610af7600989015498600a60018060a01b0391015416996101606040519e8f9e8f90815201526101608d0190611c11565b9960408c015260608b0190611c52565b608089015260a088015260c087015260e08601526101008501526101208401526101408301520390f35b905060009291925285600020906000915b818310610b5a5750509085610a999282010187610a8c565b805485840189015284935091870191600101610b42565b60ff1916848a015250610a9993151560051b830188019150889050610a8c565b346101d457610b9f36611b93565b33600052600360205260ff604060002054168015610c77575b610bc190611c94565b8160005260006020526040600020600381019160ff835416600681101561044f576002610bee9114611d01565b600982018054600784015411610c41577f71c41c8c26be69c8d84d44608d92a8a6c31398883af0ed1480592619d0214dcc938260066040950155600360ff198254161790555482519182526020820152a2005b60405162461bcd60e51b815260206004820152600e60248201526d145d5bdc9d5b481b9bdd081b595d60921b6044820152606490fd5b50600080516020611e8c833981519152546001600160a01b03163314610bb8565b346101d45760403660031901126101d45760806040610cb5611a92565b60043560005260016020528160002060009160018060a01b031682526020522060ff815491600260018201549101549060405193845260208401528181161515604084015260081c1615156060820152f35b346101d45760003660031901126101d457600080516020611e8c833981519152546040516001600160a01b039091168152602090f35b346101d45760003660031901126101d4576020600554604051908152f35b346101d45760603660031901126101d457610d74611a7c565b600080516020611ecc8339815191525460ff8160401c1615916001600160401b03821680159081610eef575b6001149081610ee5575b159081610edc575b50610ecb5767ffffffffffffffff198216600117600080516020611ecc83398151915255610df19183610e9e575b50610de9611dfc565b6101fd611dfc565b610df9611dfc565b610e01611dfc565b610e09611dfc565b60017f9b779b17422d0df92223018b32b4d1fa46e071723d6817e2486d003becc55f00556024356004556044356005556101f4600655610e4557005b68ff000000000000000019600080516020611ecc8339815191525416600080516020611ecc833981519152557fc7f505b2f371ae2175ee4913f4499e1f2633a7b5936321eed1cdaeb6115181d2602060405160018152a1005b68ffffffffffffffffff19166801000000000000000117600080516020611ecc8339815191525583610de0565b63f92ee8a960e01b60005260046000fd5b90501584610db2565b303b159150610daa565b849150610da0565b346101d45760003660031901126101d457610f10611dc6565b600080516020611e8c83398151915280546001600160a01b031981169091556000906001600160a01b03167f8be0079c531659141344cd1fd0a4f28419497f9722a3daafe3b4186f6b6457e08280a3005b346101d457610f6f36611b93565b906000526002602052604060002080548210156101d457602091610f9291611ba9565b905460405160039290921b1c6001600160a01b03168152f35b346101d45760403660031901126101d457610fc4611a7c565b60243590811515908183036101d4577f966c160e1c4dbc7df8d69af4ace01e9297c3cf016397b7914971f2fbfa32672d9161102a602092611003611dc6565b60018060a01b031694856000526003845260406000209060ff801983541691151516179055565b604051908152a2005b346101d45760003660031901126101d4577f00000000000000000000000000000000000000000000000000000000000000006001600160a01b0316300361108c576020604051600080516020611eac8339815191528152f35b63703e46dd60e11b60005260046000fd5b60403660031901126101d4576110b1611a7c565b6024356001600160401b0381116101d457366023820112156101d4576110e1903690602481600401359101611b5c565b6001600160a01b037f00000000000000000000000000000000000000000000000000000000000000001630811490811561128e575b5061108c57611123611dc6565b6040516352d1902d60e01b81526001600160a01b0383169290602081600481875afa6000918161125a575b506111685783634c9c8ce360e01b60005260045260246000fd5b80600080516020611eac8339815191528592036112465750813b1561123257600080516020611eac83398151915280546001600160a01b031916821790557fbc7cd75a20ee27fd9adebab32041f755214dbc6bffa90cc0225b39da2e5c2d3b600080a28151156112185760008083602061020295519101845af43d15611210573d916111f383611b41565b926112016040519485611b20565b83523d6000602085013e611e2a565b606091611e2a565b50503461122157005b63b398979f60e01b60005260046000fd5b634c9c8ce360e01b60005260045260246000fd5b632a87526960e21b60005260045260246000fd5b9091506020813d602011611286575b8161127660209383611b20565b810103126101d45751908561114e565b3d9150611269565b600080516020611eac833981519152546001600160a01b03161415905083611116565b346101d45760203660031901126101d45733600052600360205260ff604060002054168015611357575b6112e490611c94565b6004356000526000602052600360406000200160ff815416600681101561044f5760030361131957805460ff19166004179055005b60405162461bcd60e51b81526020600482015260166024820152754e6f7420696e20636f6e73656e73757320706861736560501b6044820152606490fd5b50600080516020611e8c833981519152546001600160a01b031633146112db565b346101d45760403660031901126101d4576004356024356001600160401b0381116101d4576113ab903690600401611ad8565b9033600052600360205260ff604060002054168015611499575b6113ce90611c94565b82600052600060205260036040600020019160ff835416600681101561044f576002811490811561148e575b5015611449577fee4b3ad9190f5248304daea47630eab4d57f027dba7a3664b5c0be831a40f3fb92600560ff19825416179055611444604051928392602084526020840191611ce0565b0390a2005b60405162461bcd60e51b815260206004820152601c60248201527f43616e6e6f74206469737075746520696e2074686973207068617365000000006044820152606490fd5b6003915014856113fa565b50600080516020611e8c833981519152546001600160a01b031633146113c5565b346101d45760003660031901126101d4576020600454604051908152f35b346101d45760003660031901126101d4576020600654604051908152f35b346101d45760403660031901126101d457602060405181810190600435825260243560408201526040815261152c606082611b20565b519020604051908152f35b346101d45760403660031901126101d4576004356001600160401b0381116101d457611567903690600401611aa8565b906024356001600160401b0381116101d457611587903690600401611aa8565b91828403611792576014841161175b5760005b8481106115a357005b6115ae818684611c84565b3560005260006020526040600020906003820160ff81541692600684101561044f5760018094148061174d575b80611715575b6115ee575b50500161159a565b6115f9838888611c84565b356040519061160782611b05565b815260038661169660208401600081528c60408601918a835261163a8a60608901936000855260808a0197428952611c84565b356000528a6020526040806000206000908d8060a01b03331682526020522096518755518a87015561167f6002870192511515839060ff801983541691151516179055565b51815461ff00191690151560081b61ff0016179055565b51910155600760088201916116ab8354611c5f565b80935501541115611704575b506116c3818785611c84565b356116cf828787611c84565b35906040519182527f35936d35316af64ccd48288d27d178ada4b059d9803f014d1dd056cacf14c14660203393a386806115e6565b805460ff19166002179055866116b7565b50611721838987611c84565b356000528360205260ff6002604080600020600090888060a01b033316825260205220015416156115e1565b5060048101544211156115db565b60405162461bcd60e51b815260206004820152600f60248201526e426174636820746f6f206c6172676560881b6044820152606490fd5b60405162461bcd60e51b815260206004820152600f60248201526e098cadccee8d040dad2e6dac2e8c6d608b1b6044820152606490fd5b346101d45760203660031901126101d4576001600160a01b036117ea611a7c565b166000526003602052602060ff604060002054166040519015158152f35b346101d45760403660031901126101d457600435602435908060005260006020526040600020600381019060ff825416600681101561044f576001036119cb576004810154421161198d57600083815260016020908152604080832033845290915290206002015460ff166119545760405161188381611b05565b848152600360208201600081526118f360408401600181526060850160008152608086019342855289600052600160205260408060002060009060018060a01b0333168252602052209651875551600187015561167f6002870192511515839060ff801983541691151516179055565b51910155600760088201916119088354611c5f565b80935501541115611943575b506040519182527f35936d35316af64ccd48288d27d178ada4b059d9803f014d1dd056cacf14c14660203393a3005b805460ff1916600217905582611914565b60405162461bcd60e51b8152602060048201526011602482015270105b1c9958591e4818dbdb5b5a5d1d1959607a1b6044820152606490fd5b60405162461bcd60e51b815260206004820152601660248201527510dbdb5b5a5d08191958591b1a5b99481c185cdcd95960521b6044820152606490fd5b60405162461bcd60e51b81526020600482015260136024820152724e6f7420696e20636f6d6d697420706861736560681b6044820152606490fd5b346101d45760203660031901126101d457600435611a22611dc6565b600a81101580611a70575b15611a3757600655005b60405162461bcd60e51b815260206004820152601160248201527024b73b30b634b2103232bb34b0ba34b7b760791b6044820152606490fd5b50611388811115611a2d565b600435906001600160a01b03821682036101d457565b602435906001600160a01b03821682036101d457565b9181601f840112156101d4578235916001600160401b0383116101d4576020808501948460051b0101116101d457565b9181601f840112156101d4578235916001600160401b0383116101d457602083818601950101116101d457565b60a081019081106001600160401b0382111761052857604052565b90601f801991011681019081106001600160401b0382111761052857604052565b6001600160401b03811161052857601f01601f191660200190565b929192611b6882611b41565b91611b766040519384611b20565b8294818452818301116101d4578281602093846000960137010152565b60409060031901126101d4576004359060243590565b8054821015611bc15760005260206000200190600090565b634e487b7160e01b600052603260045260246000fd5b90600182811c92168015611c07575b6020831014611bf157565b634e487b7160e01b600052602260045260246000fd5b91607f1691611be6565b919082519283825260005b848110611c3d575050826000602080949584010152601f8019910116010190565b80602080928401015182828601015201611c1c565b90600682101561044f5752565b6000198114611c6e5760010190565b634e487b7160e01b600052601160045260246000fd5b9190811015611bc15760051b0190565b15611c9b57565b60405162461bcd60e51b815260206004820152601b60248201527f46656564436f6e73656e7375733a206e6f74206f70657261746f7200000000006044820152606490fd5b908060209392818452848401376000828201840152601f01601f1916010190565b15611d0857565b60405162461bcd60e51b81526020600482015260136024820152724e6f7420696e2072657665616c20706861736560681b6044820152606490fd5b91908201809211611c6e57565b6001600160a01b03168015611db057600080516020611e8c83398151915280546001600160a01b0319811683179091556001600160a01b03167f8be0079c531659141344cd1fd0a4f28419497f9722a3daafe3b4186f6b6457e0600080a3565b631e4fbdf760e01b600052600060045260246000fd5b600080516020611e8c833981519152546001600160a01b03163303611de757565b63118cdaa760e01b6000523360045260246000fd5b60ff600080516020611ecc8339815191525460401c1615611e1957565b631afcd79f60e31b60005260046000fd5b90611e505750805115611e3f57602081519101fd5b63d6bda27560e01b60005260046000fd5b81511580611e82575b611e61575090565b639996b31560e01b60009081526001600160a01b0391909116600452602490fd5b50803b15611e5956fe9016d09d72d40fdae2fd8ceac6b6234c7706214fd39c1cd1e609a0528c199300360894a13ba1a3210667c828492db98dca3e2076cc3735a920a3ca505d382bbcf0c57e16840df040f15088dc2f81fe391c3923bec73e23a9662efc9c229c6a00a2646970667358221220d9b978a64f05c518bb70e327db882b0d018a354429d20dda4b8db54775d81a8a64736f6c634300081c0033","opcodes":"PUSH1 0xA0 DUP1 PUSH1 0x40 MSTORE CALLVALUE PUSH2 0xEA JUMPI ADDRESS PUSH1 0x80 MSTORE PUSH32 0xF0C57E16840DF040F15088DC2F81FE391C3923BEC73E23A9662EFC9C229C6A00 SLOAD PUSH1 0xFF DUP2 PUSH1 0x40 SHR AND PUSH2 0xD9 JUMPI PUSH1 0x2 PUSH1 0x1 PUSH1 0x40 SHL SUB NOT PUSH1 0x1 PUSH1 0x1 PUSH1 0x40 SHL SUB DUP3 AND ADD PUSH2 0x73 JUMPI JUMPDEST PUSH1 0x40 MLOAD PUSH2 0x1F21 SWAP1 DUP2 PUSH2 0xF0 DUP3 CODECOPY PUSH1 0x80 MLOAD DUP2 DUP2 DUP2 PUSH2 0x1046 ADD MSTORE PUSH2 0x10EB ADD MSTORE RETURN JUMPDEST PUSH1 0x1 PUSH1 0x1 PUSH1 0x40 SHL SUB NOT AND PUSH1 0x1 PUSH1 0x1 PUSH1 0x40 SHL SUB SWAP1 DUP2 OR PUSH32 0xF0C57E16840DF040F15088DC2F81FE391C3923BEC73E23A9662EFC9C229C6A00 SSTORE DUP2 MSTORE PUSH32 0xC7F505B2F371AE2175EE4913F4499E1F2633A7B5936321EED1CDAEB6115181D2 SWAP1 PUSH1 0x20 SWAP1 LOG1 CODESIZE DUP1 PUSH2 0x54 JUMP JUMPDEST PUSH4 0xF92EE8A9 PUSH1 0xE0 SHL PUSH1 0x0 MSTORE PUSH1 0x4 PUSH1 0x0 REVERT JUMPDEST PUSH1 0x0 DUP1 REVERT INVALID PUSH1 0x80 PUSH1 0x40 MSTORE PUSH1 0x4 CALLDATASIZE LT ISZERO PUSH2 0x12 JUMPI PUSH1 0x0 DUP1 REVERT JUMPDEST PUSH1 0x0 CALLDATALOAD PUSH1 0xE0 SHR DUP1 PUSH4 0x2651A29 EQ PUSH2 0x1A06 JUMPI DUP1 PUSH4 0x5C28F79 EQ PUSH2 0x1808 JUMPI DUP1 PUSH4 0x181D989B EQ PUSH2 0x17C9 JUMPI DUP1 PUSH4 0x24B178EC EQ PUSH2 0x1537 JUMPI DUP1 PUSH4 0x35E224D8 EQ PUSH2 0x14F6 JUMPI DUP1 PUSH4 0x3EE7A701 EQ PUSH2 0x14D8 JUMPI DUP1 PUSH4 0x40699005 EQ PUSH2 0x14BA JUMPI DUP1 PUSH4 0x46447023 EQ PUSH2 0x1378 JUMPI DUP1 PUSH4 0x49085D8C EQ PUSH2 0x12B1 JUMPI DUP1 PUSH4 0x4F1EF286 EQ PUSH2 0x109D JUMPI DUP1 PUSH4 0x52D1902D EQ PUSH2 0x1033 JUMPI DUP1 PUSH4 0x558A7297 EQ PUSH2 0xFAB JUMPI DUP1 PUSH4 0x6E271ED8 EQ PUSH2 0xF61 JUMPI DUP1 PUSH4 0x715018A6 EQ PUSH2 0xEF7 JUMPI DUP1 PUSH4 0x7A1AC61E EQ PUSH2 0xD5B JUMPI DUP1 PUSH4 0x863D22C7 EQ PUSH2 0xD3D JUMPI DUP1 PUSH4 0x8DA5CB5B EQ PUSH2 0xD07 JUMPI DUP1 PUSH4 0x96CD54C6 EQ PUSH2 0xC98 JUMPI DUP1 PUSH4 0x9A5260E8 EQ PUSH2 0xB91 JUMPI DUP1 PUSH4 0x9C3F1E90 EQ PUSH2 0xA37 JUMPI DUP1 PUSH4 0x9ED67A77 EQ PUSH2 0x7B4 JUMPI DUP1 PUSH4 0xAD3CB1CC EQ PUSH2 0x769 JUMPI DUP1 PUSH4 0xAFEA2198 EQ PUSH2 0x6AB JUMPI DUP1 PUSH4 0xB9124425 EQ PUSH2 0x672 JUMPI DUP1 PUSH4 0xBE1F626B EQ PUSH2 0x5F8 JUMPI DUP1 PUSH4 0xCE93F867 EQ PUSH2 0x5C9 JUMPI DUP1 PUSH4 0xCFC43C54 EQ PUSH2 0x204 JUMPI DUP1 PUSH4 0xF2FDE38B EQ PUSH2 0x1D9 JUMPI PUSH4 0xF885F7ED EQ PUSH2 0x15B JUMPI PUSH1 0x0 DUP1 REVERT JUMPDEST CALLVALUE PUSH2 0x1D4 JUMPI PUSH1 0x40 CALLDATASIZE PUSH1 0x3 NOT ADD SLT PUSH2 0x1D4 JUMPI PUSH1 0xA0 PUSH1 0x40 PUSH2 0x178 PUSH2 0x1A92 JUMP JUMPDEST PUSH1 0x4 CALLDATALOAD PUSH1 0x0 MSTORE PUSH1 0x1 PUSH1 0x20 MSTORE DUP2 PUSH1 0x0 KECCAK256 PUSH1 0x0 SWAP2 PUSH1 0x1 DUP1 DUP7 SHL SUB AND DUP3 MSTORE PUSH1 0x20 MSTORE KECCAK256 DUP1 SLOAD SWAP1 PUSH1 0xFF PUSH1 0x1 DUP3 ADD SLOAD SWAP2 PUSH1 0x3 PUSH1 0x2 DUP3 ADD SLOAD SWAP2 ADD SLOAD SWAP3 PUSH1 0x40 MLOAD SWAP5 DUP6 MSTORE PUSH1 0x20 DUP6 ADD MSTORE DUP2 DUP2 AND ISZERO ISZERO PUSH1 0x40 DUP6 ADD MSTORE PUSH1 0x8 SHR AND ISZERO ISZERO PUSH1 0x60 DUP4 ADD MSTORE PUSH1 0x80 DUP3 ADD MSTORE RETURN JUMPDEST PUSH1 0x0 DUP1 REVERT JUMPDEST CALLVALUE PUSH2 0x1D4 JUMPI PUSH1 0x20 CALLDATASIZE PUSH1 0x3 NOT ADD SLT PUSH2 0x1D4 JUMPI PUSH2 0x202 PUSH2 0x1F5 PUSH2 0x1A7C JUMP JUMPDEST PUSH2 0x1FD PUSH2 0x1DC6 JUMP JUMPDEST PUSH2 0x1D50 JUMP JUMPDEST STOP JUMPDEST CALLVALUE PUSH2 0x1D4 JUMPI PUSH1 0x80 CALLDATASIZE PUSH1 0x3 NOT ADD SLT PUSH2 0x1D4 JUMPI PUSH1 0x4 CALLDATALOAD PUSH1 0x24 CALLDATALOAD PUSH1 0x1 PUSH1 0x1 PUSH1 0x40 SHL SUB DUP2 GT PUSH2 0x1D4 JUMPI PUSH2 0x237 SWAP1 CALLDATASIZE SWAP1 PUSH1 0x4 ADD PUSH2 0x1AD8 JUMP JUMPDEST SWAP1 PUSH1 0x44 CALLDATALOAD SWAP2 PUSH1 0x64 CALLDATALOAD SWAP3 CALLER PUSH1 0x0 MSTORE PUSH1 0x3 PUSH1 0x20 MSTORE PUSH1 0xFF PUSH1 0x40 PUSH1 0x0 KECCAK256 SLOAD AND DUP1 ISZERO PUSH2 0x5A8 JUMPI JUMPDEST PUSH2 0x262 SWAP1 PUSH2 0x1C94 JUMP JUMPDEST DUP5 PUSH1 0x0 MSTORE PUSH1 0x0 PUSH1 0x20 MSTORE PUSH1 0xFF PUSH1 0x3 PUSH1 0x40 PUSH1 0x0 KECCAK256 ADD SLOAD AND PUSH1 0x6 DUP2 LT ISZERO PUSH2 0x44F JUMPI PUSH2 0x574 JUMPI PUSH1 0x3 DUP5 LT PUSH2 0x53E JUMPI PUSH1 0x4 SLOAD SWAP4 PUSH2 0x2B0 PUSH2 0x2A7 PUSH2 0x2A0 DUP8 TIMESTAMP PUSH2 0x1D43 JUMP JUMPDEST SWAP7 TIMESTAMP PUSH2 0x1D43 JUMP JUMPDEST PUSH1 0x5 SLOAD SWAP1 PUSH2 0x1D43 JUMP JUMPDEST SWAP5 PUSH1 0x40 MLOAD SWAP1 PUSH2 0x160 DUP3 ADD SWAP2 DUP1 DUP4 LT PUSH1 0x1 PUSH1 0x1 PUSH1 0x40 SHL SUB DUP5 GT OR PUSH2 0x528 JUMPI DUP9 SWAP3 PUSH1 0x40 MSTORE DUP3 DUP2 MSTORE PUSH2 0x2E0 CALLDATASIZE DUP8 DUP10 PUSH2 0x1B5C JUMP JUMPDEST PUSH1 0x20 DUP3 ADD SWAP1 DUP2 MSTORE PUSH1 0x40 DUP3 ADD DUP7 DUP2 MSTORE PUSH1 0x60 DUP4 ADD SWAP10 PUSH1 0x1 DUP12 MSTORE PUSH1 0x80 DUP5 ADD SWAP5 DUP6 MSTORE PUSH1 0xA0 DUP5 ADD SWAP1 DUP2 MSTORE PUSH1 0xC0 DUP5 ADD PUSH1 0x0 DUP2 MSTORE PUSH1 0xE0 DUP6 ADD SWAP2 DUP9 DUP4 MSTORE PUSH2 0x100 DUP7 ADD SWAP4 PUSH1 0x0 DUP6 MSTORE PUSH2 0x120 DUP8 ADD SWAP6 PUSH1 0x0 DUP8 MSTORE PUSH2 0x140 DUP9 ADD SWAP10 CALLER DUP12 MSTORE PUSH1 0x0 MSTORE PUSH1 0x0 PUSH1 0x20 MSTORE PUSH1 0x40 PUSH1 0x0 KECCAK256 SWAP8 MLOAD DUP9 SSTORE PUSH1 0x1 DUP9 ADD SWAP1 MLOAD DUP1 MLOAD SWAP1 PUSH1 0x1 PUSH1 0x1 PUSH1 0x40 SHL SUB DUP3 GT PUSH2 0x528 JUMPI DUP2 SWAP1 PUSH2 0x366 DUP5 SLOAD PUSH2 0x1BD7 JUMP JUMPDEST PUSH1 0x1F DUP2 GT PUSH2 0x4D5 JUMPI JUMPDEST POP PUSH1 0x20 SWAP1 PUSH1 0x1F DUP4 GT PUSH1 0x1 EQ PUSH2 0x470 JUMPI PUSH1 0x0 SWAP3 PUSH2 0x465 JUMPI JUMPDEST POP POP DUP2 PUSH1 0x1 SHL SWAP2 PUSH1 0x0 NOT SWAP1 PUSH1 0x3 SHL SHR NOT AND OR SWAP1 SSTORE JUMPDEST MLOAD PUSH1 0x2 DUP8 ADD SSTORE PUSH1 0x3 DUP7 ADD SWAP13 MLOAD SWAP7 PUSH1 0x6 DUP9 LT ISZERO PUSH2 0x44F JUMPI PUSH32 0x21B9AC2D33D64E86B93DD6D7479F0FBB3EFDD462A90B03A291DD407FF009D06 SWAP14 PUSH1 0xA SWAP9 PUSH1 0xFF DUP1 NOT DUP4 SLOAD AND SWAP2 AND OR SWAP1 SSTORE MLOAD PUSH1 0x4 DUP8 ADD SSTORE MLOAD PUSH1 0x5 DUP7 ADD SSTORE MLOAD PUSH1 0x6 DUP6 ADD SSTORE MLOAD PUSH1 0x7 DUP5 ADD SSTORE MLOAD PUSH1 0x8 DUP4 ADD SSTORE MLOAD PUSH1 0x9 DUP3 ADD SSTORE ADD SWAP1 PUSH1 0x1 DUP1 PUSH1 0xA0 SHL SUB SWAP1 MLOAD AND PUSH12 0xFFFFFFFFFFFFFFFFFFFFFFFF PUSH1 0xA0 SHL DUP3 SLOAD AND OR SWAP1 SSTORE PUSH2 0x43F PUSH1 0x40 MLOAD SWAP5 DUP6 SWAP5 PUSH1 0x60 DUP7 MSTORE PUSH1 0x60 DUP7 ADD SWAP2 PUSH2 0x1CE0 JUMP JUMPDEST SWAP2 PUSH1 0x20 DUP5 ADD MSTORE PUSH1 0x40 DUP4 ADD MSTORE SUB SWAP1 LOG2 STOP JUMPDEST PUSH4 0x4E487B71 PUSH1 0xE0 SHL PUSH1 0x0 MSTORE PUSH1 0x21 PUSH1 0x4 MSTORE PUSH1 0x24 PUSH1 0x0 REVERT JUMPDEST ADD MLOAD SWAP1 POP CODESIZE DUP1 PUSH2 0x386 JUMP JUMPDEST PUSH1 0x0 DUP6 DUP2 MSTORE DUP3 DUP2 KECCAK256 SWAP4 POP PUSH1 0x1F NOT DUP6 AND SWAP1 JUMPDEST DUP2 DUP2 LT PUSH2 0x4BD JUMPI POP SWAP1 DUP5 PUSH1 0x1 SWAP6 SWAP5 SWAP4 SWAP3 LT PUSH2 0x4A4 JUMPI JUMPDEST POP POP POP DUP2 SHL ADD SWAP1 SSTORE PUSH2 0x39B JUMP JUMPDEST ADD MLOAD PUSH1 0x0 NOT PUSH1 0xF8 DUP5 PUSH1 0x3 SHL AND SHR NOT AND SWAP1 SSTORE CODESIZE DUP1 DUP1 PUSH2 0x497 JUMP JUMPDEST SWAP3 SWAP4 PUSH1 0x20 PUSH1 0x1 DUP2 SWAP3 DUP8 DUP7 ADD MLOAD DUP2 SSTORE ADD SWAP6 ADD SWAP4 ADD PUSH2 0x481 JUMP JUMPDEST SWAP1 SWAP2 POP DUP4 PUSH1 0x0 MSTORE PUSH1 0x20 PUSH1 0x0 KECCAK256 PUSH1 0x1F DUP5 ADD PUSH1 0x5 SHR DUP2 ADD SWAP2 PUSH1 0x20 DUP6 LT PUSH2 0x51E JUMPI JUMPDEST SWAP1 PUSH1 0x1F DUP6 SWAP5 SWAP4 SWAP3 ADD PUSH1 0x5 SHR ADD SWAP1 JUMPDEST DUP2 DUP2 LT PUSH2 0x50F JUMPI POP PUSH2 0x36F JUMP JUMPDEST PUSH1 0x0 DUP2 SSTORE DUP5 SWAP4 POP PUSH1 0x1 ADD PUSH2 0x502 JUMP JUMPDEST SWAP1 SWAP2 POP DUP2 SWAP1 PUSH2 0x4F4 JUMP JUMPDEST PUSH4 0x4E487B71 PUSH1 0xE0 SHL PUSH1 0x0 MSTORE PUSH1 0x41 PUSH1 0x4 MSTORE PUSH1 0x24 PUSH1 0x0 REVERT JUMPDEST PUSH1 0x40 MLOAD PUSH3 0x461BCD PUSH1 0xE5 SHL DUP2 MSTORE PUSH1 0x20 PUSH1 0x4 DUP3 ADD MSTORE PUSH1 0xE PUSH1 0x24 DUP3 ADD MSTORE PUSH14 0x51756F72756D20746F6F206C6F77 PUSH1 0x90 SHL PUSH1 0x44 DUP3 ADD MSTORE PUSH1 0x64 SWAP1 REVERT JUMPDEST PUSH1 0x40 MLOAD PUSH3 0x461BCD PUSH1 0xE5 SHL DUP2 MSTORE PUSH1 0x20 PUSH1 0x4 DUP3 ADD MSTORE PUSH1 0xC PUSH1 0x24 DUP3 ADD MSTORE PUSH12 0x4F7264657220657869737473 PUSH1 0xA0 SHL PUSH1 0x44 DUP3 ADD MSTORE PUSH1 0x64 SWAP1 REVERT JUMPDEST POP PUSH1 0x0 DUP1 MLOAD PUSH1 0x20 PUSH2 0x1E8C DUP4 CODECOPY DUP2 MLOAD SWAP2 MSTORE SLOAD PUSH1 0x1 PUSH1 0x1 PUSH1 0xA0 SHL SUB AND CALLER EQ PUSH2 0x259 JUMP JUMPDEST CALLVALUE PUSH2 0x1D4 JUMPI PUSH1 0x20 CALLDATASIZE PUSH1 0x3 NOT ADD SLT PUSH2 0x1D4 JUMPI PUSH1 0x4 CALLDATALOAD PUSH1 0x0 MSTORE PUSH1 0x0 PUSH1 0x20 MSTORE PUSH1 0x20 PUSH1 0x6 PUSH1 0x40 PUSH1 0x0 KECCAK256 ADD SLOAD PUSH1 0x40 MLOAD SWAP1 DUP2 MSTORE RETURN JUMPDEST CALLVALUE PUSH2 0x1D4 JUMPI PUSH1 0x40 CALLDATASIZE PUSH1 0x3 NOT ADD SLT PUSH2 0x1D4 JUMPI PUSH1 0x24 CALLDATALOAD PUSH1 0x4 CALLDATALOAD PUSH2 0x617 PUSH2 0x1DC6 JUMP JUMPDEST PUSH1 0x3C DUP2 LT ISZERO DUP1 PUSH2 0x667 JUMPI JUMPDEST ISZERO PUSH2 0x62F JUMPI PUSH1 0x4 SSTORE PUSH1 0x5 SSTORE STOP JUMPDEST PUSH1 0x40 MLOAD PUSH3 0x461BCD PUSH1 0xE5 SHL DUP2 MSTORE PUSH1 0x20 PUSH1 0x4 DUP3 ADD MSTORE PUSH1 0x10 PUSH1 0x24 DUP3 ADD MSTORE PUSH16 0x15DA5B991BDDC81D1BDBC81CDA1BDC9D PUSH1 0x82 SHL PUSH1 0x44 DUP3 ADD MSTORE PUSH1 0x64 SWAP1 REVERT JUMPDEST POP PUSH1 0x3C DUP3 LT ISZERO PUSH2 0x622 JUMP JUMPDEST CALLVALUE PUSH2 0x1D4 JUMPI PUSH1 0x20 CALLDATASIZE PUSH1 0x3 NOT ADD SLT PUSH2 0x1D4 JUMPI PUSH1 0x4 CALLDATALOAD PUSH1 0x0 MSTORE PUSH1 0x0 PUSH1 0x20 MSTORE PUSH1 0x20 PUSH1 0xFF PUSH1 0x3 PUSH1 0x40 PUSH1 0x0 KECCAK256 ADD SLOAD AND PUSH2 0x6A9 PUSH1 0x40 MLOAD DUP1 SWAP3 PUSH2 0x1C52 JUMP JUMPDEST RETURN JUMPDEST CALLVALUE PUSH2 0x1D4 JUMPI PUSH1 0x20 CALLDATASIZE PUSH1 0x3 NOT ADD SLT PUSH2 0x1D4 JUMPI PUSH1 0x4 CALLDATALOAD PUSH1 0x0 MSTORE PUSH1 0x2 PUSH1 0x20 MSTORE PUSH1 0x40 PUSH1 0x0 KECCAK256 PUSH1 0x40 MLOAD DUP1 PUSH1 0x20 DUP4 SLOAD SWAP2 DUP3 DUP2 MSTORE ADD SWAP1 DUP2 SWAP4 PUSH1 0x0 MSTORE PUSH1 0x20 PUSH1 0x0 KECCAK256 SWAP1 PUSH1 0x0 JUMPDEST DUP2 DUP2 LT PUSH2 0x74A JUMPI POP POP POP DUP2 PUSH2 0x6FE SWAP2 SUB DUP3 PUSH2 0x1B20 JUMP JUMPDEST PUSH1 0x40 MLOAD SWAP2 DUP3 SWAP2 PUSH1 0x20 DUP4 ADD SWAP1 PUSH1 0x20 DUP5 MSTORE MLOAD DUP1 SWAP2 MSTORE PUSH1 0x40 DUP4 ADD SWAP2 SWAP1 PUSH1 0x0 JUMPDEST DUP2 DUP2 LT PUSH2 0x728 JUMPI POP POP POP SUB SWAP1 RETURN JUMPDEST DUP3 MLOAD PUSH1 0x1 PUSH1 0x1 PUSH1 0xA0 SHL SUB AND DUP5 MSTORE DUP6 SWAP5 POP PUSH1 0x20 SWAP4 DUP5 ADD SWAP4 SWAP1 SWAP3 ADD SWAP2 PUSH1 0x1 ADD PUSH2 0x71A JUMP JUMPDEST DUP3 SLOAD PUSH1 0x1 PUSH1 0x1 PUSH1 0xA0 SHL SUB AND DUP5 MSTORE PUSH1 0x20 SWAP1 SWAP4 ADD SWAP3 PUSH1 0x1 SWAP3 DUP4 ADD SWAP3 ADD PUSH2 0x6E8 JUMP JUMPDEST CALLVALUE PUSH2 0x1D4 JUMPI PUSH1 0x0 CALLDATASIZE PUSH1 0x3 NOT ADD SLT PUSH2 0x1D4 JUMPI PUSH2 0x7B0 PUSH1 0x40 DUP1 MLOAD SWAP1 PUSH2 0x78C DUP2 DUP4 PUSH2 0x1B20 JUMP JUMPDEST PUSH1 0x5 DUP3 MSTORE PUSH5 0x352E302E3 PUSH1 0xDC SHL PUSH1 0x20 DUP4 ADD MSTORE MLOAD SWAP2 DUP3 SWAP2 PUSH1 0x20 DUP4 MSTORE PUSH1 0x20 DUP4 ADD SWAP1 PUSH2 0x1C11 JUMP JUMPDEST SUB SWAP1 RETURN JUMPDEST CALLVALUE PUSH2 0x1D4 JUMPI PUSH1 0x60 CALLDATASIZE PUSH1 0x3 NOT ADD SLT PUSH2 0x1D4 JUMPI PUSH1 0x4 CALLDATALOAD PUSH1 0x24 CALLDATALOAD SWAP1 DUP1 PUSH1 0x0 MSTORE PUSH1 0x0 PUSH1 0x20 MSTORE PUSH1 0x40 PUSH1 0x0 KECCAK256 PUSH1 0x3 DUP2 ADD SWAP1 PUSH1 0xFF DUP3 SLOAD AND PUSH1 0x6 DUP2 LT ISZERO PUSH2 0x44F JUMPI PUSH1 0x2 DUP2 EQ SWAP1 DUP2 ISZERO PUSH2 0xA12 JUMPI JUMPDEST POP PUSH2 0x803 SWAP1 PUSH2 0x1D01 JUMP JUMPDEST PUSH1 0x5 DUP2 ADD SLOAD TIMESTAMP GT PUSH2 0x9D4 JUMPI PUSH1 0x0 DUP4 DUP2 MSTORE PUSH1 0x1 PUSH1 0x20 SWAP1 DUP2 MSTORE PUSH1 0x40 DUP1 DUP4 KECCAK256 CALLER DUP5 MSTORE SWAP1 SWAP2 MSTORE SWAP1 KECCAK256 PUSH1 0x2 DUP2 ADD DUP1 SLOAD SWAP3 SWAP2 PUSH1 0xFF DUP5 AND ISZERO PUSH2 0x99F JUMPI PUSH1 0xFF DUP5 PUSH1 0x8 SHR AND PUSH2 0x967 JUMPI PUSH1 0x40 MLOAD PUSH1 0x20 DUP2 ADD SWAP1 DUP9 DUP3 MSTORE PUSH1 0x44 CALLDATALOAD PUSH1 0x40 DUP3 ADD MSTORE PUSH1 0x40 DUP2 MSTORE PUSH2 0x865 PUSH1 0x60 DUP3 PUSH2 0x1B20 JUMP JUMPDEST MLOAD SWAP1 KECCAK256 DUP2 SLOAD SUB PUSH2 0x932 JUMPI PUSH1 0x9 SWAP4 DUP8 PUSH1 0x1 PUSH2 0x100 SWAP4 ADD SSTORE PUSH2 0xFF00 NOT AND OR SWAP1 SSTORE ADD PUSH2 0x88E DUP2 SLOAD PUSH2 0x1C5F JUMP JUMPDEST SWAP1 SSTORE DUP2 PUSH1 0x0 MSTORE PUSH1 0x2 PUSH1 0x20 MSTORE PUSH1 0x40 PUSH1 0x0 KECCAK256 DUP1 SLOAD PUSH9 0x10000000000000000 DUP2 LT ISZERO PUSH2 0x528 JUMPI PUSH2 0x8C0 SWAP2 PUSH1 0x1 DUP3 ADD DUP2 SSTORE PUSH2 0x1BA9 JUMP JUMPDEST DUP2 SLOAD PUSH1 0x1 PUSH1 0x1 PUSH1 0xA0 SHL SUB PUSH1 0x3 SWAP3 SWAP1 SWAP3 SHL SWAP2 DUP3 SHL NOT AND CALLER SWAP1 SWAP2 SHL OR SWAP1 SSTORE DUP1 SLOAD PUSH1 0xFF AND PUSH1 0x6 DUP2 LT ISZERO PUSH2 0x44F JUMPI PUSH1 0x1 EQ PUSH2 0x921 JUMPI JUMPDEST POP PUSH1 0x40 MLOAD SWAP2 DUP3 MSTORE PUSH32 0x9537AAE905308C8D3BEFCCE1D02519F00273CA841B22D87684459656A6C94F4E PUSH1 0x20 CALLER SWAP4 LOG3 STOP JUMPDEST DUP1 SLOAD PUSH1 0xFF NOT AND PUSH1 0x2 OR SWAP1 SSTORE DUP3 PUSH2 0x8F2 JUMP JUMPDEST PUSH1 0x40 MLOAD PUSH3 0x461BCD PUSH1 0xE5 SHL DUP2 MSTORE PUSH1 0x20 PUSH1 0x4 DUP3 ADD MSTORE PUSH1 0xD PUSH1 0x24 DUP3 ADD MSTORE PUSH13 0x90C2E6D040DAD2E6DAC2E8C6D PUSH1 0x9B SHL PUSH1 0x44 DUP3 ADD MSTORE PUSH1 0x64 SWAP1 REVERT JUMPDEST PUSH1 0x40 MLOAD PUSH3 0x461BCD PUSH1 0xE5 SHL DUP2 MSTORE PUSH1 0x20 PUSH1 0x4 DUP3 ADD MSTORE PUSH1 0x10 PUSH1 0x24 DUP3 ADD MSTORE PUSH16 0x105B1C9958591E481C995D99585B1959 PUSH1 0x82 SHL PUSH1 0x44 DUP3 ADD MSTORE PUSH1 0x64 SWAP1 REVERT JUMPDEST PUSH1 0x40 MLOAD PUSH3 0x461BCD PUSH1 0xE5 SHL DUP2 MSTORE PUSH1 0x20 PUSH1 0x4 DUP3 ADD MSTORE PUSH1 0xD PUSH1 0x24 DUP3 ADD MSTORE PUSH13 0x139BDD0818DBDB5B5A5D1D1959 PUSH1 0x9A SHL PUSH1 0x44 DUP3 ADD MSTORE PUSH1 0x64 SWAP1 REVERT JUMPDEST PUSH1 0x40 MLOAD PUSH3 0x461BCD PUSH1 0xE5 SHL DUP2 MSTORE PUSH1 0x20 PUSH1 0x4 DUP3 ADD MSTORE PUSH1 0x16 PUSH1 0x24 DUP3 ADD MSTORE PUSH22 0x14995D99585B08191958591B1A5B99481C185CDCD959 PUSH1 0x52 SHL PUSH1 0x44 DUP3 ADD MSTORE PUSH1 0x64 SWAP1 REVERT JUMPDEST PUSH1 0x1 SWAP2 POP EQ DUP1 PUSH2 0xA25 JUMPI JUMPDEST PUSH2 0x803 PUSH2 0x7F9 JUMP JUMPDEST POP PUSH1 0x8 DUP2 ADD SLOAD PUSH1 0x7 DUP3 ADD SLOAD GT ISZERO PUSH2 0xA1D JUMP JUMPDEST CALLVALUE PUSH2 0x1D4 JUMPI PUSH1 0x20 CALLDATASIZE PUSH1 0x3 NOT ADD SLT PUSH2 0x1D4 JUMPI PUSH1 0x4 CALLDATALOAD PUSH1 0x0 MSTORE PUSH1 0x0 PUSH1 0x20 MSTORE PUSH1 0x20 PUSH1 0x40 PUSH1 0x0 KECCAK256 DUP1 SLOAD SWAP1 PUSH1 0x1 DUP2 ADD PUSH1 0x40 MLOAD SWAP1 DUP2 PUSH1 0x0 DUP3 SLOAD SWAP3 PUSH2 0xA74 DUP5 PUSH2 0x1BD7 JUMP JUMPDEST DUP1 DUP5 MSTORE SWAP4 PUSH1 0x1 DUP2 AND SWAP1 DUP2 ISZERO PUSH2 0xB71 JUMPI POP PUSH1 0x1 EQ PUSH2 0xB31 JUMPI JUMPDEST POP PUSH2 0xA99 SWAP3 POP SUB DUP3 PUSH2 0x1B20 JUMP JUMPDEST PUSH1 0x2 DUP3 ADD SLOAD SWAP2 PUSH1 0xFF PUSH1 0x3 DUP3 ADD SLOAD AND PUSH1 0x4 DUP3 ADD SLOAD PUSH1 0x5 DUP4 ADD SLOAD PUSH1 0x6 DUP5 ADD SLOAD SWAP1 PUSH1 0x7 DUP6 ADD SLOAD SWAP3 PUSH2 0xB07 PUSH1 0x8 DUP8 ADD SLOAD SWAP6 PUSH2 0xAF7 PUSH1 0x9 DUP10 ADD SLOAD SWAP9 PUSH1 0xA PUSH1 0x1 DUP1 PUSH1 0xA0 SHL SUB SWAP2 ADD SLOAD AND SWAP10 PUSH2 0x160 PUSH1 0x40 MLOAD SWAP15 DUP16 SWAP15 DUP16 SWAP1 DUP2 MSTORE ADD MSTORE PUSH2 0x160 DUP14 ADD SWAP1 PUSH2 0x1C11 JUMP JUMPDEST SWAP10 PUSH1 0x40 DUP13 ADD MSTORE PUSH1 0x60 DUP12 ADD SWAP1 PUSH2 0x1C52 JUMP JUMPDEST PUSH1 0x80 DUP10 ADD MSTORE PUSH1 0xA0 DUP9 ADD MSTORE PUSH1 0xC0 DUP8 ADD MSTORE PUSH1 0xE0 DUP7 ADD MSTORE PUSH2 0x100 DUP6 ADD MSTORE PUSH2 0x120 DUP5 ADD MSTORE PUSH2 0x140 DUP4 ADD MSTORE SUB SWAP1 RETURN JUMPDEST SWAP1 POP PUSH1 0x0 SWAP3 SWAP2 SWAP3 MSTORE DUP6 PUSH1 0x0 KECCAK256 SWAP1 PUSH1 0x0 SWAP2 JUMPDEST DUP2 DUP4 LT PUSH2 0xB5A JUMPI POP POP SWAP1 DUP6 PUSH2 0xA99 SWAP3 DUP3 ADD ADD DUP8 PUSH2 0xA8C JUMP JUMPDEST DUP1 SLOAD DUP6 DUP5 ADD DUP10 ADD MSTORE DUP5 SWAP4 POP SWAP2 DUP8 ADD SWAP2 PUSH1 0x1 ADD PUSH2 0xB42 JUMP JUMPDEST PUSH1 0xFF NOT AND DUP5 DUP11 ADD MSTORE POP PUSH2 0xA99 SWAP4 ISZERO ISZERO PUSH1 0x5 SHL DUP4 ADD DUP9 ADD SWAP2 POP DUP9 SWAP1 POP PUSH2 0xA8C JUMP JUMPDEST CALLVALUE PUSH2 0x1D4 JUMPI PUSH2 0xB9F CALLDATASIZE PUSH2 0x1B93 JUMP JUMPDEST CALLER PUSH1 0x0 MSTORE PUSH1 0x3 PUSH1 0x20 MSTORE PUSH1 0xFF PUSH1 0x40 PUSH1 0x0 KECCAK256 SLOAD AND DUP1 ISZERO PUSH2 0xC77 JUMPI JUMPDEST PUSH2 0xBC1 SWAP1 PUSH2 0x1C94 JUMP JUMPDEST DUP2 PUSH1 0x0 MSTORE PUSH1 0x0 PUSH1 0x20 MSTORE PUSH1 0x40 PUSH1 0x0 KECCAK256 PUSH1 0x3 DUP2 ADD SWAP2 PUSH1 0xFF DUP4 SLOAD AND PUSH1 0x6 DUP2 LT ISZERO PUSH2 0x44F JUMPI PUSH1 0x2 PUSH2 0xBEE SWAP2 EQ PUSH2 0x1D01 JUMP JUMPDEST PUSH1 0x9 DUP3 ADD DUP1 SLOAD PUSH1 0x7 DUP5 ADD SLOAD GT PUSH2 0xC41 JUMPI PUSH32 0x71C41C8C26BE69C8D84D44608D92A8A6C31398883AF0ED1480592619D0214DCC SWAP4 DUP3 PUSH1 0x6 PUSH1 0x40 SWAP6 ADD SSTORE PUSH1 0x3 PUSH1 0xFF NOT DUP3 SLOAD AND OR SWAP1 SSTORE SLOAD DUP3 MLOAD SWAP2 DUP3 MSTORE PUSH1 0x20 DUP3 ADD MSTORE LOG2 STOP JUMPDEST PUSH1 0x40 MLOAD PUSH3 0x461BCD PUSH1 0xE5 SHL DUP2 MSTORE PUSH1 0x20 PUSH1 0x4 DUP3 ADD MSTORE PUSH1 0xE PUSH1 0x24 DUP3 ADD MSTORE PUSH14 0x145D5BDC9D5B481B9BDD081B595D PUSH1 0x92 SHL PUSH1 0x44 DUP3 ADD MSTORE PUSH1 0x64 SWAP1 REVERT JUMPDEST POP PUSH1 0x0 DUP1 MLOAD PUSH1 0x20 PUSH2 0x1E8C DUP4 CODECOPY DUP2 MLOAD SWAP2 MSTORE SLOAD PUSH1 0x1 PUSH1 0x1 PUSH1 0xA0 SHL SUB AND CALLER EQ PUSH2 0xBB8 JUMP JUMPDEST CALLVALUE PUSH2 0x1D4 JUMPI PUSH1 0x40 CALLDATASIZE PUSH1 0x3 NOT ADD SLT PUSH2 0x1D4 JUMPI PUSH1 0x80 PUSH1 0x40 PUSH2 0xCB5 PUSH2 0x1A92 JUMP JUMPDEST PUSH1 0x4 CALLDATALOAD PUSH1 0x0 MSTORE PUSH1 0x1 PUSH1 0x20 MSTORE DUP2 PUSH1 0x0 KECCAK256 PUSH1 0x0 SWAP2 PUSH1 0x1 DUP1 PUSH1 0xA0 SHL SUB AND DUP3 MSTORE PUSH1 0x20 MSTORE KECCAK256 PUSH1 0xFF DUP2 SLOAD SWAP2 PUSH1 0x2 PUSH1 0x1 DUP3 ADD SLOAD SWAP2 ADD SLOAD SWAP1 PUSH1 0x40 MLOAD SWAP4 DUP5 MSTORE PUSH1 0x20 DUP5 ADD MSTORE DUP2 DUP2 AND ISZERO ISZERO PUSH1 0x40 DUP5 ADD MSTORE PUSH1 0x8 SHR AND ISZERO ISZERO PUSH1 0x60 DUP3 ADD MSTORE RETURN JUMPDEST CALLVALUE PUSH2 0x1D4 JUMPI PUSH1 0x0 CALLDATASIZE PUSH1 0x3 NOT ADD SLT PUSH2 0x1D4 JUMPI PUSH1 0x0 DUP1 MLOAD PUSH1 0x20 PUSH2 0x1E8C DUP4 CODECOPY DUP2 MLOAD SWAP2 MSTORE SLOAD PUSH1 0x40 MLOAD PUSH1 0x1 PUSH1 0x1 PUSH1 0xA0 SHL SUB SWAP1 SWAP2 AND DUP2 MSTORE PUSH1 0x20 SWAP1 RETURN JUMPDEST CALLVALUE PUSH2 0x1D4 JUMPI PUSH1 0x0 CALLDATASIZE PUSH1 0x3 NOT ADD SLT PUSH2 0x1D4 JUMPI PUSH1 0x20 PUSH1 0x5 SLOAD PUSH1 0x40 MLOAD SWAP1 DUP2 MSTORE RETURN JUMPDEST CALLVALUE PUSH2 0x1D4 JUMPI PUSH1 0x60 CALLDATASIZE PUSH1 0x3 NOT ADD SLT PUSH2 0x1D4 JUMPI PUSH2 0xD74 PUSH2 0x1A7C JUMP JUMPDEST PUSH1 0x0 DUP1 MLOAD PUSH1 0x20 PUSH2 0x1ECC DUP4 CODECOPY DUP2 MLOAD SWAP2 MSTORE SLOAD PUSH1 0xFF DUP2 PUSH1 0x40 SHR AND ISZERO SWAP2 PUSH1 0x1 PUSH1 0x1 PUSH1 0x40 SHL SUB DUP3 AND DUP1 ISZERO SWAP1 DUP2 PUSH2 0xEEF JUMPI JUMPDEST PUSH1 0x1 EQ SWAP1 DUP2 PUSH2 0xEE5 JUMPI JUMPDEST ISZERO SWAP1 DUP2 PUSH2 0xEDC JUMPI JUMPDEST POP PUSH2 0xECB JUMPI PUSH8 0xFFFFFFFFFFFFFFFF NOT DUP3 AND PUSH1 0x1 OR PUSH1 0x0 DUP1 MLOAD PUSH1 0x20 PUSH2 0x1ECC DUP4 CODECOPY DUP2 MLOAD SWAP2 MSTORE SSTORE PUSH2 0xDF1 SWAP2 DUP4 PUSH2 0xE9E JUMPI JUMPDEST POP PUSH2 0xDE9 PUSH2 0x1DFC JUMP JUMPDEST PUSH2 0x1FD PUSH2 0x1DFC JUMP JUMPDEST PUSH2 0xDF9 PUSH2 0x1DFC JUMP JUMPDEST PUSH2 0xE01 PUSH2 0x1DFC JUMP JUMPDEST PUSH2 0xE09 PUSH2 0x1DFC JUMP JUMPDEST PUSH1 0x1 PUSH32 0x9B779B17422D0DF92223018B32B4D1FA46E071723D6817E2486D003BECC55F00 SSTORE PUSH1 0x24 CALLDATALOAD PUSH1 0x4 SSTORE PUSH1 0x44 CALLDATALOAD PUSH1 0x5 SSTORE PUSH2 0x1F4 PUSH1 0x6 SSTORE PUSH2 0xE45 JUMPI STOP JUMPDEST PUSH9 0xFF0000000000000000 NOT PUSH1 0x0 DUP1 MLOAD PUSH1 0x20 PUSH2 0x1ECC DUP4 CODECOPY DUP2 MLOAD SWAP2 MSTORE SLOAD AND PUSH1 0x0 DUP1 MLOAD PUSH1 0x20 PUSH2 0x1ECC DUP4 CODECOPY DUP2 MLOAD SWAP2 MSTORE SSTORE PUSH32 0xC7F505B2F371AE2175EE4913F4499E1F2633A7B5936321EED1CDAEB6115181D2 PUSH1 0x20 PUSH1 0x40 MLOAD PUSH1 0x1 DUP2 MSTORE LOG1 STOP JUMPDEST PUSH9 0xFFFFFFFFFFFFFFFFFF NOT AND PUSH9 0x10000000000000001 OR PUSH1 0x0 DUP1 MLOAD PUSH1 0x20 PUSH2 0x1ECC DUP4 CODECOPY DUP2 MLOAD SWAP2 MSTORE SSTORE DUP4 PUSH2 0xDE0 JUMP JUMPDEST PUSH4 0xF92EE8A9 PUSH1 0xE0 SHL PUSH1 0x0 MSTORE PUSH1 0x4 PUSH1 0x0 REVERT JUMPDEST SWAP1 POP ISZERO DUP5 PUSH2 0xDB2 JUMP JUMPDEST ADDRESS EXTCODESIZE ISZERO SWAP2 POP PUSH2 0xDAA JUMP JUMPDEST DUP5 SWAP2 POP PUSH2 0xDA0 JUMP JUMPDEST CALLVALUE PUSH2 0x1D4 JUMPI PUSH1 0x0 CALLDATASIZE PUSH1 0x3 NOT ADD SLT PUSH2 0x1D4 JUMPI PUSH2 0xF10 PUSH2 0x1DC6 JUMP JUMPDEST PUSH1 0x0 DUP1 MLOAD PUSH1 0x20 PUSH2 0x1E8C DUP4 CODECOPY DUP2 MLOAD SWAP2 MSTORE DUP1 SLOAD PUSH1 0x1 PUSH1 0x1 PUSH1 0xA0 SHL SUB NOT DUP2 AND SWAP1 SWAP2 SSTORE PUSH1 0x0 SWAP1 PUSH1 0x1 PUSH1 0x1 PUSH1 0xA0 SHL SUB AND PUSH32 0x8BE0079C531659141344CD1FD0A4F28419497F9722A3DAAFE3B4186F6B6457E0 DUP3 DUP1 LOG3 STOP JUMPDEST CALLVALUE PUSH2 0x1D4 JUMPI PUSH2 0xF6F CALLDATASIZE PUSH2 0x1B93 JUMP JUMPDEST SWAP1 PUSH1 0x0 MSTORE PUSH1 0x2 PUSH1 0x20 MSTORE PUSH1 0x40 PUSH1 0x0 KECCAK256 DUP1 SLOAD DUP3 LT ISZERO PUSH2 0x1D4 JUMPI PUSH1 0x20 SWAP2 PUSH2 0xF92 SWAP2 PUSH2 0x1BA9 JUMP JUMPDEST SWAP1 SLOAD PUSH1 0x40 MLOAD PUSH1 0x3 SWAP3 SWAP1 SWAP3 SHL SHR PUSH1 0x1 PUSH1 0x1 PUSH1 0xA0 SHL SUB AND DUP2 MSTORE RETURN JUMPDEST CALLVALUE PUSH2 0x1D4 JUMPI PUSH1 0x40 CALLDATASIZE PUSH1 0x3 NOT ADD SLT PUSH2 0x1D4 JUMPI PUSH2 0xFC4 PUSH2 0x1A7C JUMP JUMPDEST PUSH1 0x24 CALLDATALOAD SWAP1 DUP2 ISZERO ISZERO SWAP1 DUP2 DUP4 SUB PUSH2 0x1D4 JUMPI PUSH32 0x966C160E1C4DBC7DF8D69AF4ACE01E9297C3CF016397B7914971F2FBFA32672D SWAP2 PUSH2 0x102A PUSH1 0x20 SWAP3 PUSH2 0x1003 PUSH2 0x1DC6 JUMP JUMPDEST PUSH1 0x1 DUP1 PUSH1 0xA0 SHL SUB AND SWAP5 DUP6 PUSH1 0x0 MSTORE PUSH1 0x3 DUP5 MSTORE PUSH1 0x40 PUSH1 0x0 KECCAK256 SWAP1 PUSH1 0xFF DUP1 NOT DUP4 SLOAD AND SWAP2 ISZERO ISZERO AND OR SWAP1 SSTORE JUMP JUMPDEST PUSH1 0x40 MLOAD SWAP1 DUP2 MSTORE LOG2 STOP JUMPDEST CALLVALUE PUSH2 0x1D4 JUMPI PUSH1 0x0 CALLDATASIZE PUSH1 0x3 NOT ADD SLT PUSH2 0x1D4 JUMPI PUSH32 0x0 PUSH1 0x1 PUSH1 0x1 PUSH1 0xA0 SHL SUB AND ADDRESS SUB PUSH2 0x108C JUMPI PUSH1 0x20 PUSH1 0x40 MLOAD PUSH1 0x0 DUP1 MLOAD PUSH1 0x20 PUSH2 0x1EAC DUP4 CODECOPY DUP2 MLOAD SWAP2 MSTORE DUP2 MSTORE RETURN JUMPDEST PUSH4 0x703E46DD PUSH1 0xE1 SHL PUSH1 0x0 MSTORE PUSH1 0x4 PUSH1 0x0 REVERT JUMPDEST PUSH1 0x40 CALLDATASIZE PUSH1 0x3 NOT ADD SLT PUSH2 0x1D4 JUMPI PUSH2 0x10B1 PUSH2 0x1A7C JUMP JUMPDEST PUSH1 0x24 CALLDATALOAD PUSH1 0x1 PUSH1 0x1 PUSH1 0x40 SHL SUB DUP2 GT PUSH2 0x1D4 JUMPI CALLDATASIZE PUSH1 0x23 DUP3 ADD SLT ISZERO PUSH2 0x1D4 JUMPI PUSH2 0x10E1 SWAP1 CALLDATASIZE SWAP1 PUSH1 0x24 DUP2 PUSH1 0x4 ADD CALLDATALOAD SWAP2 ADD PUSH2 0x1B5C JUMP JUMPDEST PUSH1 0x1 PUSH1 0x1 PUSH1 0xA0 SHL SUB PUSH32 0x0 AND ADDRESS DUP2 EQ SWAP1 DUP2 ISZERO PUSH2 0x128E JUMPI JUMPDEST POP PUSH2 0x108C JUMPI PUSH2 0x1123 PUSH2 0x1DC6 JUMP JUMPDEST PUSH1 0x40 MLOAD PUSH4 0x52D1902D PUSH1 0xE0 SHL DUP2 MSTORE PUSH1 0x1 PUSH1 0x1 PUSH1 0xA0 SHL SUB DUP4 AND SWAP3 SWAP1 PUSH1 0x20 DUP2 PUSH1 0x4 DUP2 DUP8 GAS STATICCALL PUSH1 0x0 SWAP2 DUP2 PUSH2 0x125A JUMPI JUMPDEST POP PUSH2 0x1168 JUMPI DUP4 PUSH4 0x4C9C8CE3 PUSH1 0xE0 SHL PUSH1 0x0 MSTORE PUSH1 0x4 MSTORE PUSH1 0x24 PUSH1 0x0 REVERT JUMPDEST DUP1 PUSH1 0x0 DUP1 MLOAD PUSH1 0x20 PUSH2 0x1EAC DUP4 CODECOPY DUP2 MLOAD SWAP2 MSTORE DUP6 SWAP3 SUB PUSH2 0x1246 JUMPI POP DUP2 EXTCODESIZE ISZERO PUSH2 0x1232 JUMPI PUSH1 0x0 DUP1 MLOAD PUSH1 0x20 PUSH2 0x1EAC DUP4 CODECOPY DUP2 MLOAD SWAP2 MSTORE DUP1 SLOAD PUSH1 0x1 PUSH1 0x1 PUSH1 0xA0 SHL SUB NOT AND DUP3 OR SWAP1 SSTORE PUSH32 0xBC7CD75A20EE27FD9ADEBAB32041F755214DBC6BFFA90CC0225B39DA2E5C2D3B PUSH1 0x0 DUP1 LOG2 DUP2 MLOAD ISZERO PUSH2 0x1218 JUMPI PUSH1 0x0 DUP1 DUP4 PUSH1 0x20 PUSH2 0x202 SWAP6 MLOAD SWAP2 ADD DUP5 GAS DELEGATECALL RETURNDATASIZE ISZERO PUSH2 0x1210 JUMPI RETURNDATASIZE SWAP2 PUSH2 0x11F3 DUP4 PUSH2 0x1B41 JUMP JUMPDEST SWAP3 PUSH2 0x1201 PUSH1 0x40 MLOAD SWAP5 DUP6 PUSH2 0x1B20 JUMP JUMPDEST DUP4 MSTORE RETURNDATASIZE PUSH1 0x0 PUSH1 0x20 DUP6 ADD RETURNDATACOPY PUSH2 0x1E2A JUMP JUMPDEST PUSH1 0x60 SWAP2 PUSH2 0x1E2A JUMP JUMPDEST POP POP CALLVALUE PUSH2 0x1221 JUMPI STOP JUMPDEST PUSH4 0xB398979F PUSH1 0xE0 SHL PUSH1 0x0 MSTORE PUSH1 0x4 PUSH1 0x0 REVERT JUMPDEST PUSH4 0x4C9C8CE3 PUSH1 0xE0 SHL PUSH1 0x0 MSTORE PUSH1 0x4 MSTORE PUSH1 0x24 PUSH1 0x0 REVERT JUMPDEST PUSH4 0x2A875269 PUSH1 0xE2 SHL PUSH1 0x0 MSTORE PUSH1 0x4 MSTORE PUSH1 0x24 PUSH1 0x0 REVERT JUMPDEST SWAP1 SWAP2 POP PUSH1 0x20 DUP2 RETURNDATASIZE PUSH1 0x20 GT PUSH2 0x1286 JUMPI JUMPDEST DUP2 PUSH2 0x1276 PUSH1 0x20 SWAP4 DUP4 PUSH2 0x1B20 JUMP JUMPDEST DUP2 ADD SUB SLT PUSH2 0x1D4 JUMPI MLOAD SWAP1 DUP6 PUSH2 0x114E JUMP JUMPDEST RETURNDATASIZE SWAP2 POP PUSH2 0x1269 JUMP JUMPDEST PUSH1 0x0 DUP1 MLOAD PUSH1 0x20 PUSH2 0x1EAC DUP4 CODECOPY DUP2 MLOAD SWAP2 MSTORE SLOAD PUSH1 0x1 PUSH1 0x1 PUSH1 0xA0 SHL SUB AND EQ ISZERO SWAP1 POP DUP4 PUSH2 0x1116 JUMP JUMPDEST CALLVALUE PUSH2 0x1D4 JUMPI PUSH1 0x20 CALLDATASIZE PUSH1 0x3 NOT ADD SLT PUSH2 0x1D4 JUMPI CALLER PUSH1 0x0 MSTORE PUSH1 0x3 PUSH1 0x20 MSTORE PUSH1 0xFF PUSH1 0x40 PUSH1 0x0 KECCAK256 SLOAD AND DUP1 ISZERO PUSH2 0x1357 JUMPI JUMPDEST PUSH2 0x12E4 SWAP1 PUSH2 0x1C94 JUMP JUMPDEST PUSH1 0x4 CALLDATALOAD PUSH1 0x0 MSTORE PUSH1 0x0 PUSH1 0x20 MSTORE PUSH1 0x3 PUSH1 0x40 PUSH1 0x0 KECCAK256 ADD PUSH1 0xFF DUP2 SLOAD AND PUSH1 0x6 DUP2 LT ISZERO PUSH2 0x44F JUMPI PUSH1 0x3 SUB PUSH2 0x1319 JUMPI DUP1 SLOAD PUSH1 0xFF NOT AND PUSH1 0x4 OR SWAP1 SSTORE STOP JUMPDEST PUSH1 0x40 MLOAD PUSH3 0x461BCD PUSH1 0xE5 SHL DUP2 MSTORE PUSH1 0x20 PUSH1 0x4 DUP3 ADD MSTORE PUSH1 0x16 PUSH1 0x24 DUP3 ADD MSTORE PUSH22 0x4E6F7420696E20636F6E73656E737573207068617365 PUSH1 0x50 SHL PUSH1 0x44 DUP3 ADD MSTORE PUSH1 0x64 SWAP1 REVERT JUMPDEST POP PUSH1 0x0 DUP1 MLOAD PUSH1 0x20 PUSH2 0x1E8C DUP4 CODECOPY DUP2 MLOAD SWAP2 MSTORE SLOAD PUSH1 0x1 PUSH1 0x1 PUSH1 0xA0 SHL SUB AND CALLER EQ PUSH2 0x12DB JUMP JUMPDEST CALLVALUE PUSH2 0x1D4 JUMPI PUSH1 0x40 CALLDATASIZE PUSH1 0x3 NOT ADD SLT PUSH2 0x1D4 JUMPI PUSH1 0x4 CALLDATALOAD PUSH1 0x24 CALLDATALOAD PUSH1 0x1 PUSH1 0x1 PUSH1 0x40 SHL SUB DUP2 GT PUSH2 0x1D4 JUMPI PUSH2 0x13AB SWAP1 CALLDATASIZE SWAP1 PUSH1 0x4 ADD PUSH2 0x1AD8 JUMP JUMPDEST SWAP1 CALLER PUSH1 0x0 MSTORE PUSH1 0x3 PUSH1 0x20 MSTORE PUSH1 0xFF PUSH1 0x40 PUSH1 0x0 KECCAK256 SLOAD AND DUP1 ISZERO PUSH2 0x1499 JUMPI JUMPDEST PUSH2 0x13CE SWAP1 PUSH2 0x1C94 JUMP JUMPDEST DUP3 PUSH1 0x0 MSTORE PUSH1 0x0 PUSH1 0x20 MSTORE PUSH1 0x3 PUSH1 0x40 PUSH1 0x0 KECCAK256 ADD SWAP2 PUSH1 0xFF DUP4 SLOAD AND PUSH1 0x6 DUP2 LT ISZERO PUSH2 0x44F JUMPI PUSH1 0x2 DUP2 EQ SWAP1 DUP2 ISZERO PUSH2 0x148E JUMPI JUMPDEST POP ISZERO PUSH2 0x1449 JUMPI PUSH32 0xEE4B3AD9190F5248304DAEA47630EAB4D57F027DBA7A3664B5C0BE831A40F3FB SWAP3 PUSH1 0x5 PUSH1 0xFF NOT DUP3 SLOAD AND OR SWAP1 SSTORE PUSH2 0x1444 PUSH1 0x40 MLOAD SWAP3 DUP4 SWAP3 PUSH1 0x20 DUP5 MSTORE PUSH1 0x20 DUP5 ADD SWAP2 PUSH2 0x1CE0 JUMP JUMPDEST SUB SWAP1 LOG2 STOP JUMPDEST PUSH1 0x40 MLOAD PUSH3 0x461BCD PUSH1 0xE5 SHL DUP2 MSTORE PUSH1 0x20 PUSH1 0x4 DUP3 ADD MSTORE PUSH1 0x1C PUSH1 0x24 DUP3 ADD MSTORE PUSH32 0x43616E6E6F74206469737075746520696E207468697320706861736500000000 PUSH1 0x44 DUP3 ADD MSTORE PUSH1 0x64 SWAP1 REVERT JUMPDEST PUSH1 0x3 SWAP2 POP EQ DUP6 PUSH2 0x13FA JUMP JUMPDEST POP PUSH1 0x0 DUP1 MLOAD PUSH1 0x20 PUSH2 0x1E8C DUP4 CODECOPY DUP2 MLOAD SWAP2 MSTORE SLOAD PUSH1 0x1 PUSH1 0x1 PUSH1 0xA0 SHL SUB AND CALLER EQ PUSH2 0x13C5 JUMP JUMPDEST CALLVALUE PUSH2 0x1D4 JUMPI PUSH1 0x0 CALLDATASIZE PUSH1 0x3 NOT ADD SLT PUSH2 0x1D4 JUMPI PUSH1 0x20 PUSH1 0x4 SLOAD PUSH1 0x40 MLOAD SWAP1 DUP2 MSTORE RETURN JUMPDEST CALLVALUE PUSH2 0x1D4 JUMPI PUSH1 0x0 CALLDATASIZE PUSH1 0x3 NOT ADD SLT PUSH2 0x1D4 JUMPI PUSH1 0x20 PUSH1 0x6 SLOAD PUSH1 0x40 MLOAD SWAP1 DUP2 MSTORE RETURN JUMPDEST CALLVALUE PUSH2 0x1D4 JUMPI PUSH1 0x40 CALLDATASIZE PUSH1 0x3 NOT ADD SLT PUSH2 0x1D4 JUMPI PUSH1 0x20 PUSH1 0x40 MLOAD DUP2 DUP2 ADD SWAP1 PUSH1 0x4 CALLDATALOAD DUP3 MSTORE PUSH1 0x24 CALLDATALOAD PUSH1 0x40 DUP3 ADD MSTORE PUSH1 0x40 DUP2 MSTORE PUSH2 0x152C PUSH1 0x60 DUP3 PUSH2 0x1B20 JUMP JUMPDEST MLOAD SWAP1 KECCAK256 PUSH1 0x40 MLOAD SWAP1 DUP2 MSTORE RETURN JUMPDEST CALLVALUE PUSH2 0x1D4 JUMPI PUSH1 0x40 CALLDATASIZE PUSH1 0x3 NOT ADD SLT PUSH2 0x1D4 JUMPI PUSH1 0x4 CALLDATALOAD PUSH1 0x1 PUSH1 0x1 PUSH1 0x40 SHL SUB DUP2 GT PUSH2 0x1D4 JUMPI PUSH2 0x1567 SWAP1 CALLDATASIZE SWAP1 PUSH1 0x4 ADD PUSH2 0x1AA8 JUMP JUMPDEST SWAP1 PUSH1 0x24 CALLDATALOAD PUSH1 0x1 PUSH1 0x1 PUSH1 0x40 SHL SUB DUP2 GT PUSH2 0x1D4 JUMPI PUSH2 0x1587 SWAP1 CALLDATASIZE SWAP1 PUSH1 0x4 ADD PUSH2 0x1AA8 JUMP JUMPDEST SWAP2 DUP3 DUP5 SUB PUSH2 0x1792 JUMPI PUSH1 0x14 DUP5 GT PUSH2 0x175B JUMPI PUSH1 0x0 JUMPDEST DUP5 DUP2 LT PUSH2 0x15A3 JUMPI STOP JUMPDEST PUSH2 0x15AE DUP2 DUP7 DUP5 PUSH2 0x1C84 JUMP JUMPDEST CALLDATALOAD PUSH1 0x0 MSTORE PUSH1 0x0 PUSH1 0x20 MSTORE PUSH1 0x40 PUSH1 0x0 KECCAK256 SWAP1 PUSH1 0x3 DUP3 ADD PUSH1 0xFF DUP2 SLOAD AND SWAP3 PUSH1 0x6 DUP5 LT ISZERO PUSH2 0x44F JUMPI PUSH1 0x1 DUP1 SWAP5 EQ DUP1 PUSH2 0x174D JUMPI JUMPDEST DUP1 PUSH2 0x1715 JUMPI JUMPDEST PUSH2 0x15EE JUMPI JUMPDEST POP POP ADD PUSH2 0x159A JUMP JUMPDEST PUSH2 0x15F9 DUP4 DUP9 DUP9 PUSH2 0x1C84 JUMP JUMPDEST CALLDATALOAD PUSH1 0x40 MLOAD SWAP1 PUSH2 0x1607 DUP3 PUSH2 0x1B05 JUMP JUMPDEST DUP2 MSTORE PUSH1 0x3 DUP7 PUSH2 0x1696 PUSH1 0x20 DUP5 ADD PUSH1 0x0 DUP2 MSTORE DUP13 PUSH1 0x40 DUP7 ADD SWAP2 DUP11 DUP4 MSTORE PUSH2 0x163A DUP11 PUSH1 0x60 DUP10 ADD SWAP4 PUSH1 0x0 DUP6 MSTORE PUSH1 0x80 DUP11 ADD SWAP8 TIMESTAMP DUP10 MSTORE PUSH2 0x1C84 JUMP JUMPDEST CALLDATALOAD PUSH1 0x0 MSTORE DUP11 PUSH1 0x20 MSTORE PUSH1 0x40 DUP1 PUSH1 0x0 KECCAK256 PUSH1 0x0 SWAP1 DUP14 DUP1 PUSH1 0xA0 SHL SUB CALLER AND DUP3 MSTORE PUSH1 0x20 MSTORE KECCAK256 SWAP7 MLOAD DUP8 SSTORE MLOAD DUP11 DUP8 ADD SSTORE PUSH2 0x167F PUSH1 0x2 DUP8 ADD SWAP3 MLOAD ISZERO ISZERO DUP4 SWAP1 PUSH1 0xFF DUP1 NOT DUP4 SLOAD AND SWAP2 ISZERO ISZERO AND OR SWAP1 SSTORE JUMP JUMPDEST MLOAD DUP2 SLOAD PUSH2 0xFF00 NOT AND SWAP1 ISZERO ISZERO PUSH1 0x8 SHL PUSH2 0xFF00 AND OR SWAP1 SSTORE JUMP JUMPDEST MLOAD SWAP2 ADD SSTORE PUSH1 0x7 PUSH1 0x8 DUP3 ADD SWAP2 PUSH2 0x16AB DUP4 SLOAD PUSH2 0x1C5F JUMP JUMPDEST DUP1 SWAP4 SSTORE ADD SLOAD GT ISZERO PUSH2 0x1704 JUMPI JUMPDEST POP PUSH2 0x16C3 DUP2 DUP8 DUP6 PUSH2 0x1C84 JUMP JUMPDEST CALLDATALOAD PUSH2 0x16CF DUP3 DUP8 DUP8 PUSH2 0x1C84 JUMP JUMPDEST CALLDATALOAD SWAP1 PUSH1 0x40 MLOAD SWAP2 DUP3 MSTORE PUSH32 0x35936D35316AF64CCD48288D27D178ADA4B059D9803F014D1DD056CACF14C146 PUSH1 0x20 CALLER SWAP4 LOG3 DUP7 DUP1 PUSH2 0x15E6 JUMP JUMPDEST DUP1 SLOAD PUSH1 0xFF NOT AND PUSH1 0x2 OR SWAP1 SSTORE DUP7 PUSH2 0x16B7 JUMP JUMPDEST POP PUSH2 0x1721 DUP4 DUP10 DUP8 PUSH2 0x1C84 JUMP JUMPDEST CALLDATALOAD PUSH1 0x0 MSTORE DUP4 PUSH1 0x20 MSTORE PUSH1 0xFF PUSH1 0x2 PUSH1 0x40 DUP1 PUSH1 0x0 KECCAK256 PUSH1 0x0 SWAP1 DUP9 DUP1 PUSH1 0xA0 SHL SUB CALLER AND DUP3 MSTORE PUSH1 0x20 MSTORE KECCAK256 ADD SLOAD AND ISZERO PUSH2 0x15E1 JUMP JUMPDEST POP PUSH1 0x4 DUP2 ADD SLOAD TIMESTAMP GT ISZERO PUSH2 0x15DB JUMP JUMPDEST PUSH1 0x40 MLOAD PUSH3 0x461BCD PUSH1 0xE5 SHL DUP2 MSTORE PUSH1 0x20 PUSH1 0x4 DUP3 ADD MSTORE PUSH1 0xF PUSH1 0x24 DUP3 ADD MSTORE PUSH15 0x426174636820746F6F206C61726765 PUSH1 0x88 SHL PUSH1 0x44 DUP3 ADD MSTORE PUSH1 0x64 SWAP1 REVERT JUMPDEST PUSH1 0x40 MLOAD PUSH3 0x461BCD PUSH1 0xE5 SHL DUP2 MSTORE PUSH1 0x20 PUSH1 0x4 DUP3 ADD MSTORE PUSH1 0xF PUSH1 0x24 DUP3 ADD MSTORE PUSH15 0x98CADCCEE8D040DAD2E6DAC2E8C6D PUSH1 0x8B SHL PUSH1 0x44 DUP3 ADD MSTORE PUSH1 0x64 SWAP1 REVERT JUMPDEST CALLVALUE PUSH2 0x1D4 JUMPI PUSH1 0x20 CALLDATASIZE PUSH1 0x3 NOT ADD SLT PUSH2 0x1D4 JUMPI PUSH1 0x1 PUSH1 0x1 PUSH1 0xA0 SHL SUB PUSH2 0x17EA PUSH2 0x1A7C JUMP JUMPDEST AND PUSH1 0x0 MSTORE PUSH1 0x3 PUSH1 0x20 MSTORE PUSH1 0x20 PUSH1 0xFF PUSH1 0x40 PUSH1 0x0 KECCAK256 SLOAD AND PUSH1 0x40 MLOAD SWAP1 ISZERO ISZERO DUP2 MSTORE RETURN JUMPDEST CALLVALUE PUSH2 0x1D4 JUMPI PUSH1 0x40 CALLDATASIZE PUSH1 0x3 NOT ADD SLT PUSH2 0x1D4 JUMPI PUSH1 0x4 CALLDATALOAD PUSH1 0x24 CALLDATALOAD SWAP1 DUP1 PUSH1 0x0 MSTORE PUSH1 0x0 PUSH1 0x20 MSTORE PUSH1 0x40 PUSH1 0x0 KECCAK256 PUSH1 0x3 DUP2 ADD SWAP1 PUSH1 0xFF DUP3 SLOAD AND PUSH1 0x6 DUP2 LT ISZERO PUSH2 0x44F JUMPI PUSH1 0x1 SUB PUSH2 0x19CB JUMPI PUSH1 0x4 DUP2 ADD SLOAD TIMESTAMP GT PUSH2 0x198D JUMPI PUSH1 0x0 DUP4 DUP2 MSTORE PUSH1 0x1 PUSH1 0x20 SWAP1 DUP2 MSTORE PUSH1 0x40 DUP1 DUP4 KECCAK256 CALLER DUP5 MSTORE SWAP1 SWAP2 MSTORE SWAP1 KECCAK256 PUSH1 0x2 ADD SLOAD PUSH1 0xFF AND PUSH2 0x1954 JUMPI PUSH1 0x40 MLOAD PUSH2 0x1883 DUP2 PUSH2 0x1B05 JUMP JUMPDEST DUP5 DUP2 MSTORE PUSH1 0x3 PUSH1 0x20 DUP3 ADD PUSH1 0x0 DUP2 MSTORE PUSH2 0x18F3 PUSH1 0x40 DUP5 ADD PUSH1 0x1 DUP2 MSTORE PUSH1 0x60 DUP6 ADD PUSH1 0x0 DUP2 MSTORE PUSH1 0x80 DUP7 ADD SWAP4 TIMESTAMP DUP6 MSTORE DUP10 PUSH1 0x0 MSTORE PUSH1 0x1 PUSH1 0x20 MSTORE PUSH1 0x40 DUP1 PUSH1 0x0 KECCAK256 PUSH1 0x0 SWAP1 PUSH1 0x1 DUP1 PUSH1 0xA0 SHL SUB CALLER AND DUP3 MSTORE PUSH1 0x20 MSTORE KECCAK256 SWAP7 MLOAD DUP8 SSTORE MLOAD PUSH1 0x1 DUP8 ADD SSTORE PUSH2 0x167F PUSH1 0x2 DUP8 ADD SWAP3 MLOAD ISZERO ISZERO DUP4 SWAP1 PUSH1 0xFF DUP1 NOT DUP4 SLOAD AND SWAP2 ISZERO ISZERO AND OR SWAP1 SSTORE JUMP JUMPDEST MLOAD SWAP2 ADD SSTORE PUSH1 0x7 PUSH1 0x8 DUP3 ADD SWAP2 PUSH2 0x1908 DUP4 SLOAD PUSH2 0x1C5F JUMP JUMPDEST DUP1 SWAP4 SSTORE ADD SLOAD GT ISZERO PUSH2 0x1943 JUMPI JUMPDEST POP PUSH1 0x40 MLOAD SWAP2 DUP3 MSTORE PUSH32 0x35936D35316AF64CCD48288D27D178ADA4B059D9803F014D1DD056CACF14C146 PUSH1 0x20 CALLER SWAP4 LOG3 STOP JUMPDEST DUP1 SLOAD PUSH1 0xFF NOT AND PUSH1 0x2 OR SWAP1 SSTORE DUP3 PUSH2 0x1914 JUMP JUMPDEST PUSH1 0x40 MLOAD PUSH3 0x461BCD PUSH1 0xE5 SHL DUP2 MSTORE PUSH1 0x20 PUSH1 0x4 DUP3 ADD MSTORE PUSH1 0x11 PUSH1 0x24 DUP3 ADD MSTORE PUSH17 0x105B1C9958591E4818DBDB5B5A5D1D1959 PUSH1 0x7A SHL PUSH1 0x44 DUP3 ADD MSTORE PUSH1 0x64 SWAP1 REVERT JUMPDEST PUSH1 0x40 MLOAD PUSH3 0x461BCD PUSH1 0xE5 SHL DUP2 MSTORE PUSH1 0x20 PUSH1 0x4 DUP3 ADD MSTORE PUSH1 0x16 PUSH1 0x24 DUP3 ADD MSTORE PUSH22 0x10DBDB5B5A5D08191958591B1A5B99481C185CDCD959 PUSH1 0x52 SHL PUSH1 0x44 DUP3 ADD MSTORE PUSH1 0x64 SWAP1 REVERT JUMPDEST PUSH1 0x40 MLOAD PUSH3 0x461BCD PUSH1 0xE5 SHL DUP2 MSTORE PUSH1 0x20 PUSH1 0x4 DUP3 ADD MSTORE PUSH1 0x13 PUSH1 0x24 DUP3 ADD MSTORE PUSH19 0x4E6F7420696E20636F6D6D6974207068617365 PUSH1 0x68 SHL PUSH1 0x44 DUP3 ADD MSTORE PUSH1 0x64 SWAP1 REVERT JUMPDEST CALLVALUE PUSH2 0x1D4 JUMPI PUSH1 0x20 CALLDATASIZE PUSH1 0x3 NOT ADD SLT PUSH2 0x1D4 JUMPI PUSH1 0x4 CALLDATALOAD PUSH2 0x1A22 PUSH2 0x1DC6 JUMP JUMPDEST PUSH1 0xA DUP2 LT ISZERO DUP1 PUSH2 0x1A70 JUMPI JUMPDEST ISZERO PUSH2 0x1A37 JUMPI PUSH1 0x6 SSTORE STOP JUMPDEST PUSH1 0x40 MLOAD PUSH3 0x461BCD PUSH1 0xE5 SHL DUP2 MSTORE PUSH1 0x20 PUSH1 0x4 DUP3 ADD MSTORE PUSH1 0x11 PUSH1 0x24 DUP3 ADD MSTORE PUSH17 0x24B73B30B634B2103232BB34B0BA34B7B7 PUSH1 0x79 SHL PUSH1 0x44 DUP3 ADD MSTORE PUSH1 0x64 SWAP1 REVERT JUMPDEST POP PUSH2 0x1388 DUP2 GT ISZERO PUSH2 0x1A2D JUMP JUMPDEST PUSH1 0x4 CALLDATALOAD SWAP1 PUSH1 0x1 PUSH1 0x1 PUSH1 0xA0 SHL SUB DUP3 AND DUP3 SUB PUSH2 0x1D4 JUMPI JUMP JUMPDEST PUSH1 0x24 CALLDATALOAD SWAP1 PUSH1 0x1 PUSH1 0x1 PUSH1 0xA0 SHL SUB DUP3 AND DUP3 SUB PUSH2 0x1D4 JUMPI JUMP JUMPDEST SWAP2 DUP2 PUSH1 0x1F DUP5 ADD SLT ISZERO PUSH2 0x1D4 JUMPI DUP3 CALLDATALOAD SWAP2 PUSH1 0x1 PUSH1 0x1 PUSH1 0x40 SHL SUB DUP4 GT PUSH2 0x1D4 JUMPI PUSH1 0x20 DUP1 DUP6 ADD SWAP5 DUP5 PUSH1 0x5 SHL ADD ADD GT PUSH2 0x1D4 JUMPI JUMP JUMPDEST SWAP2 DUP2 PUSH1 0x1F DUP5 ADD SLT ISZERO PUSH2 0x1D4 JUMPI DUP3 CALLDATALOAD SWAP2 PUSH1 0x1 PUSH1 0x1 PUSH1 0x40 SHL SUB DUP4 GT PUSH2 0x1D4 JUMPI PUSH1 0x20 DUP4 DUP2 DUP7 ADD SWAP6 ADD ADD GT PUSH2 0x1D4 JUMPI JUMP JUMPDEST PUSH1 0xA0 DUP2 ADD SWAP1 DUP2 LT PUSH1 0x1 PUSH1 0x1 PUSH1 0x40 SHL SUB DUP3 GT OR PUSH2 0x528 JUMPI PUSH1 0x40 MSTORE JUMP JUMPDEST SWAP1 PUSH1 0x1F DUP1 NOT SWAP2 ADD AND DUP2 ADD SWAP1 DUP2 LT PUSH1 0x1 PUSH1 0x1 PUSH1 0x40 SHL SUB DUP3 GT OR PUSH2 0x528 JUMPI PUSH1 0x40 MSTORE JUMP JUMPDEST PUSH1 0x1 PUSH1 0x1 PUSH1 0x40 SHL SUB DUP2 GT PUSH2 0x528 JUMPI PUSH1 0x1F ADD PUSH1 0x1F NOT AND PUSH1 0x20 ADD SWAP1 JUMP JUMPDEST SWAP3 SWAP2 SWAP3 PUSH2 0x1B68 DUP3 PUSH2 0x1B41 JUMP JUMPDEST SWAP2 PUSH2 0x1B76 PUSH1 0x40 MLOAD SWAP4 DUP5 PUSH2 0x1B20 JUMP JUMPDEST DUP3 SWAP5 DUP2 DUP5 MSTORE DUP2 DUP4 ADD GT PUSH2 0x1D4 JUMPI DUP3 DUP2 PUSH1 0x20 SWAP4 DUP5 PUSH1 0x0 SWAP7 ADD CALLDATACOPY ADD ADD MSTORE JUMP JUMPDEST PUSH1 0x40 SWAP1 PUSH1 0x3 NOT ADD SLT PUSH2 0x1D4 JUMPI PUSH1 0x4 CALLDATALOAD SWAP1 PUSH1 0x24 CALLDATALOAD SWAP1 JUMP JUMPDEST DUP1 SLOAD DUP3 LT ISZERO PUSH2 0x1BC1 JUMPI PUSH1 0x0 MSTORE PUSH1 0x20 PUSH1 0x0 KECCAK256 ADD SWAP1 PUSH1 0x0 SWAP1 JUMP JUMPDEST PUSH4 0x4E487B71 PUSH1 0xE0 SHL PUSH1 0x0 MSTORE PUSH1 0x32 PUSH1 0x4 MSTORE PUSH1 0x24 PUSH1 0x0 REVERT JUMPDEST SWAP1 PUSH1 0x1 DUP3 DUP2 SHR SWAP3 AND DUP1 ISZERO PUSH2 0x1C07 JUMPI JUMPDEST PUSH1 0x20 DUP4 LT EQ PUSH2 0x1BF1 JUMPI JUMP JUMPDEST PUSH4 0x4E487B71 PUSH1 0xE0 SHL PUSH1 0x0 MSTORE PUSH1 0x22 PUSH1 0x4 MSTORE PUSH1 0x24 PUSH1 0x0 REVERT JUMPDEST SWAP2 PUSH1 0x7F AND SWAP2 PUSH2 0x1BE6 JUMP JUMPDEST SWAP2 SWAP1 DUP3 MLOAD SWAP3 DUP4 DUP3 MSTORE PUSH1 0x0 JUMPDEST DUP5 DUP2 LT PUSH2 0x1C3D JUMPI POP POP DUP3 PUSH1 0x0 PUSH1 0x20 DUP1 SWAP5 SWAP6 DUP5 ADD ADD MSTORE PUSH1 0x1F DUP1 NOT SWAP2 ADD AND ADD ADD SWAP1 JUMP JUMPDEST DUP1 PUSH1 0x20 DUP1 SWAP3 DUP5 ADD ADD MLOAD DUP3 DUP3 DUP7 ADD ADD MSTORE ADD PUSH2 0x1C1C JUMP JUMPDEST SWAP1 PUSH1 0x6 DUP3 LT ISZERO PUSH2 0x44F JUMPI MSTORE JUMP JUMPDEST PUSH1 0x0 NOT DUP2 EQ PUSH2 0x1C6E JUMPI PUSH1 0x1 ADD SWAP1 JUMP JUMPDEST PUSH4 0x4E487B71 PUSH1 0xE0 SHL PUSH1 0x0 MSTORE PUSH1 0x11 PUSH1 0x4 MSTORE PUSH1 0x24 PUSH1 0x0 REVERT JUMPDEST SWAP2 SWAP1 DUP2 LT ISZERO PUSH2 0x1BC1 JUMPI PUSH1 0x5 SHL ADD SWAP1 JUMP JUMPDEST ISZERO PUSH2 0x1C9B JUMPI JUMP JUMPDEST PUSH1 0x40 MLOAD PUSH3 0x461BCD PUSH1 0xE5 SHL DUP2 MSTORE PUSH1 0x20 PUSH1 0x4 DUP3 ADD MSTORE PUSH1 0x1B PUSH1 0x24 DUP3 ADD MSTORE PUSH32 0x46656564436F6E73656E7375733A206E6F74206F70657261746F720000000000 PUSH1 0x44 DUP3 ADD MSTORE PUSH1 0x64 SWAP1 REVERT JUMPDEST SWAP1 DUP1 PUSH1 0x20 SWAP4 SWAP3 DUP2 DUP5 MSTORE DUP5 DUP5 ADD CALLDATACOPY PUSH1 0x0 DUP3 DUP3 ADD DUP5 ADD MSTORE PUSH1 0x1F ADD PUSH1 0x1F NOT AND ADD ADD SWAP1 JUMP JUMPDEST ISZERO PUSH2 0x1D08 JUMPI JUMP JUMPDEST PUSH1 0x40 MLOAD PUSH3 0x461BCD PUSH1 0xE5 SHL DUP2 MSTORE PUSH1 0x20 PUSH1 0x4 DUP3 ADD MSTORE PUSH1 0x13 PUSH1 0x24 DUP3 ADD MSTORE PUSH19 0x4E6F7420696E2072657665616C207068617365 PUSH1 0x68 SHL PUSH1 0x44 DUP3 ADD MSTORE PUSH1 0x64 SWAP1 REVERT JUMPDEST SWAP2 SWAP1 DUP3 ADD DUP1 SWAP3 GT PUSH2 0x1C6E JUMPI JUMP JUMPDEST PUSH1 0x1 PUSH1 0x1 PUSH1 0xA0 SHL SUB AND DUP1 ISZERO PUSH2 0x1DB0 JUMPI PUSH1 0x0 DUP1 MLOAD PUSH1 0x20 PUSH2 0x1E8C DUP4 CODECOPY DUP2 MLOAD SWAP2 MSTORE DUP1 SLOAD PUSH1 0x1 PUSH1 0x1 PUSH1 0xA0 SHL SUB NOT DUP2 AND DUP4 OR SWAP1 SWAP2 SSTORE PUSH1 0x1 PUSH1 0x1 PUSH1 0xA0 SHL SUB AND PUSH32 0x8BE0079C531659141344CD1FD0A4F28419497F9722A3DAAFE3B4186F6B6457E0 PUSH1 0x0 DUP1 LOG3 JUMP JUMPDEST PUSH4 0x1E4FBDF7 PUSH1 0xE0 SHL PUSH1 0x0 MSTORE PUSH1 0x0 PUSH1 0x4 MSTORE PUSH1 0x24 PUSH1 0x0 REVERT JUMPDEST PUSH1 0x0 DUP1 MLOAD PUSH1 0x20 PUSH2 0x1E8C DUP4 CODECOPY DUP2 MLOAD SWAP2 MSTORE SLOAD PUSH1 0x1 PUSH1 0x1 PUSH1 0xA0 SHL SUB AND CALLER SUB PUSH2 0x1DE7 JUMPI JUMP JUMPDEST PUSH4 0x118CDAA7 PUSH1 0xE0 SHL PUSH1 0x0 MSTORE CALLER PUSH1 0x4 MSTORE PUSH1 0x24 PUSH1 0x0 REVERT JUMPDEST PUSH1 0xFF PUSH1 0x0 DUP1 MLOAD PUSH1 0x20 PUSH2 0x1ECC DUP4 CODECOPY DUP2 MLOAD SWAP2 MSTORE SLOAD PUSH1 0x40 SHR AND ISZERO PUSH2 0x1E19 JUMPI JUMP JUMPDEST PUSH4 0x1AFCD79F PUSH1 0xE3 SHL PUSH1 0x0 MSTORE PUSH1 0x4 PUSH1 0x0 REVERT JUMPDEST SWAP1 PUSH2 0x1E50 JUMPI POP DUP1 MLOAD ISZERO PUSH2 0x1E3F JUMPI PUSH1 0x20 DUP2 MLOAD SWAP2 ADD REVERT JUMPDEST PUSH4 0xD6BDA275 PUSH1 0xE0 SHL PUSH1 0x0 MSTORE PUSH1 0x4 PUSH1 0x0 REVERT JUMPDEST DUP2 MLOAD ISZERO DUP1 PUSH2 0x1E82 JUMPI JUMPDEST PUSH2 0x1E61 JUMPI POP SWAP1 JUMP JUMPDEST PUSH4 0x9996B315 PUSH1 0xE0 SHL PUSH1 0x0 SWAP1 DUP2 MSTORE PUSH1 0x1 PUSH1 0x1 PUSH1 0xA0 SHL SUB SWAP2 SWAP1 SWAP2 AND PUSH1 0x4 MSTORE PUSH1 0x24 SWAP1 REVERT JUMPDEST POP DUP1 EXTCODESIZE ISZERO PUSH2 0x1E59 JUMP INVALID SWAP1 AND 0xD0 SWAP14 PUSH19 0xD40FDAE2FD8CEAC6B6234C7706214FD39C1CD1 0xE6 MULMOD LOG0 MSTORE DUP13 NOT SWAP4 STOP CALLDATASIZE ADDMOD SWAP5 LOG1 EXTCODESIZE LOG1 LOG3 0x21 MOD PUSH8 0xC828492DB98DCA3E KECCAK256 PUSH23 0xCC3735A920A3CA505D382BBCF0C57E16840DF040F15088 0xDC 0x2F DUP2 INVALID CODECOPY SHR CODECOPY 0x23 0xBE 0xC7 RETURNDATACOPY 0x23 0xA9 PUSH7 0x2EFC9C229C6A00 LOG2 PUSH5 0x6970667358 0x22 SLT KECCAK256 0xD9 0xB9 PUSH25 0xA64F05C518BB70E327DB882B0D018A354429D20DDA4B8DB547 PUSH22 0xD81A8A64736F6C634300081C00330000000000000000 "},"methodIdentifiers":{"UPGRADE_INTERFACE_VERSION()":"ad3cb1cc","authorizedOperators(address)":"181d989b","batchSubmitPriceHash(bytes32[],bytes32[])":"24b178ec","commitWindow()":"40699005","commits(bytes32,address)":"f885f7ed","computePriceHash(uint256,bytes32)":"35e224d8","createOrder(bytes32,string,uint256,uint256)":"cfc43c54","disputeOrder(bytes32,string)":"46447023","getCommit(bytes32,address)":"96cd54c6","getConsensusPrice(bytes32)":"ce93f867","getOrderPhase(bytes32)":"b9124425","getRevealedFeeders(bytes32)":"afea2198","initialize(address,uint256,uint256)":"7a1ac61e","maxDeviationBps()":"3ee7a701","orders(bytes32)":"9c3f1e90","owner()":"8da5cb5b","proxiableUUID()":"52d1902d","renounceOwnership()":"715018a6","revealPrice(bytes32,uint256,bytes32)":"9ed67a77","revealWindow()":"863d22c7","revealedFeeders(bytes32,uint256)":"6e271ed8","setOperator(address,bool)":"558a7297","settleOrder(bytes32)":"49085d8c","submitConsensus(bytes32,uint256)":"9a5260e8","submitPriceHash(bytes32,bytes32)":"05c28f79","transferOwnership(address)":"f2fde38b","updateMaxDeviation(uint256)":"02651a29","updateWindows(uint256,uint256)":"be1f626b","upgradeToAndCall(address,bytes)":"4f1ef286"}},"storageLayout":{"storage":[{"astId":8917,"contract":"contracts/FeedConsensus.sol:FeedConsensus","label":"orders","offset":0,"slot":"0","type":"t_mapping(t_bytes32,t_struct(OrderInfo)8911_storage)"},{"astId":8925,"contract":"contracts/FeedConsensus.sol:FeedConsensus","label":"commits","offset":0,"slot":"1","type":"t_mapping(t_bytes32,t_mapping(t_address,t_struct(PriceCommit)8886_storage))"},{"astId":8931,"contract":"contracts/FeedConsensus.sol:FeedConsensus","label":"revealedFeeders","offset":0,"slot":"2","type":"t_mapping(t_bytes32,t_array(t_address)dyn_storage)"},{"astId":8936,"contract":"contracts/FeedConsensus.sol:FeedConsensus","label":"authorizedOperators","offset":0,"slot":"3","type":"t_mapping(t_address,t_bool)"},{"astId":8939,"contract":"contracts/FeedConsensus.sol:FeedConsensus","label":"commitWindow","offset":0,"slot":"4","type":"t_uint256"},{"astId":8942,"contract":"contracts/FeedConsensus.sol:FeedConsensus","label":"revealWindow","offset":0,"slot":"5","type":"t_uint256"},{"astId":8945,"contract":"contracts/FeedConsensus.sol:FeedConsensus","label":"maxDeviationBps","offset":0,"slot":"6","type":"t_uint256"}],"types":{"t_address":{"encoding":"inplace","label":"address","numberOfBytes":"20"},"t_array(t_address)dyn_storage":{"base":"t_address","encoding":"dynamic_array","label":"address[]","numberOfBytes":"32"},"t_bool":{"encoding":"inplace","label":"bool","numberOfBytes":"1"},"t_bytes32":{"encoding":"inplace","label":"bytes32","numberOfBytes":"32"},"t_enum(OrderPhase)8874":{"encoding":"inplace","label":"enum FeedConsensus.OrderPhase","numberOfBytes":"1"},"t_mapping(t_address,t_bool)":{"encoding":"mapping","key":"t_address","label":"mapping(address => bool)","numberOfBytes":"32","value":"t_bool"},"t_mapping(t_address,t_struct(PriceCommit)8886_storage)":{"encoding":"mapping","key":"t_address","label":"mapping(address => struct FeedConsensus.PriceCommit)","numberOfBytes":"32","value":"t_struct(PriceCommit)8886_storage"},"t_mapping(t_bytes32,t_array(t_address)dyn_storage)":{"encoding":"mapping","key":"t_bytes32","label":"mapping(bytes32 => address[])","numberOfBytes":"32","value":"t_array(t_address)dyn_storage"},"t_mapping(t_bytes32,t_mapping(t_address,t_struct(PriceCommit)8886_storage))":{"encoding":"mapping","key":"t_bytes32","label":"mapping(bytes32 => mapping(address => struct FeedConsensus.PriceCommit))","numberOfBytes":"32","value":"t_mapping(t_address,t_struct(PriceCommit)8886_storage)"},"t_mapping(t_bytes32,t_struct(OrderInfo)8911_storage)":{"encoding":"mapping","key":"t_bytes32","label":"mapping(bytes32 => struct FeedConsensus.OrderInfo)","numberOfBytes":"32","value":"t_struct(OrderInfo)8911_storage"},"t_string_storage":{"encoding":"bytes","label":"string","numberOfBytes":"32"},"t_struct(OrderInfo)8911_storage":{"encoding":"inplace","label":"struct FeedConsensus.OrderInfo","members":[{"astId":8889,"contract":"contracts/FeedConsensus.sol:FeedConsensus","label":"orderId","offset":0,"slot":"0","type":"t_bytes32"},{"astId":8891,"contract":"contracts/FeedConsensus.sol:FeedConsensus","label":"symbol","offset":0,"slot":"1","type":"t_string_storage"},{"astId":8893,"contract":"contracts/FeedConsensus.sol:FeedConsensus","label":"notionalAmount","offset":0,"slot":"2","type":"t_uint256"},{"astId":8896,"contract":"contracts/FeedConsensus.sol:FeedConsensus","label":"phase","offset":0,"slot":"3","type":"t_enum(OrderPhase)8874"},{"astId":8898,"contract":"contracts/FeedConsensus.sol:FeedConsensus","label":"commitDeadline","offset":0,"slot":"4","type":"t_uint256"},{"astId":8900,"contract":"contracts/FeedConsensus.sol:FeedConsensus","label":"revealDeadline","offset":0,"slot":"5","type":"t_uint256"},{"astId":8902,"contract":"contracts/FeedConsensus.sol:FeedConsensus","label":"consensusPrice","offset":0,"slot":"6","type":"t_uint256"},{"astId":8904,"contract":"contracts/FeedConsensus.sol:FeedConsensus","label":"requiredQuorum","offset":0,"slot":"7","type":"t_uint256"},{"astId":8906,"contract":"contracts/FeedConsensus.sol:FeedConsensus","label":"commitCount","offset":0,"slot":"8","type":"t_uint256"},{"astId":8908,"contract":"contracts/FeedConsensus.sol:FeedConsensus","label":"revealCount","offset":0,"slot":"9","type":"t_uint256"},{"astId":8910,"contract":"contracts/FeedConsensus.sol:FeedConsensus","label":"creator","offset":0,"slot":"10","type":"t_address"}],"numberOfBytes":"352"},"t_struct(PriceCommit)8886_storage":{"encoding":"inplace","label":"struct FeedConsensus.PriceCommit","members":[{"astId":8877,"contract":"contracts/FeedConsensus.sol:FeedConsensus","label":"priceHash","offset":0,"slot":"0","type":"t_bytes32"},{"astId":8879,"contract":"contracts/FeedConsensus.sol:FeedConsensus","label":"revealedPrice","offset":0,"slot":"1","type":"t_uint256"},{"astId":8881,"contract":"contracts/FeedConsensus.sol:FeedConsensus","label":"committed","offset":0,"slot":"2","type":"t_bool"},{"astId":8883,"contract":"contracts/FeedConsensus.sol:FeedConsensus","label":"revealed","offset":1,"slot":"2","type":"t_bool"},{"astId":8885,"contract":"contracts/FeedConsensus.sol:FeedConsensus","label":"commitTime","offset":0,"slot":"3","type":"t_uint256"}],"numberOfBytes":"128"},"t_uint256":{"encoding":"inplace","label":"uint256","numberOfBytes":"32"}}}}}}