{
  "_format": "hh-sol-artifact-1",
  "contractName": "FEEDToken",
  "sourceName": "contracts/FEEDToken.sol",
  "abi": [
    {
      "inputs": [],
      "stateMutability": "nonpayable",
      "type": "constructor"
    },
    {
      "inputs": [
        {
          "internalType": "address",
          "name": "target",
          "type": "address"
        }
      ],
      "name": "AddressEmptyCode",
      "type": "error"
    },
    {
      "inputs": [
        {
          "internalType": "address",
          "name": "implementation",
          "type": "address"
        }
      ],
      "name": "ERC1967InvalidImplementation",
      "type": "error"
    },
    {
      "inputs": [],
      "name": "ERC1967NonPayable",
      "type": "error"
    },
    {
      "inputs": [
        {
          "internalType": "address",
          "name": "spender",
          "type": "address"
        },
        {
          "internalType": "uint256",
          "name": "allowance",
          "type": "uint256"
        },
        {
          "internalType": "uint256",
          "name": "needed",
          "type": "uint256"
        }
      ],
      "name": "ERC20InsufficientAllowance",
      "type": "error"
    },
    {
      "inputs": [
        {
          "internalType": "address",
          "name": "sender",
          "type": "address"
        },
        {
          "internalType": "uint256",
          "name": "balance",
          "type": "uint256"
        },
        {
          "internalType": "uint256",
          "name": "needed",
          "type": "uint256"
        }
      ],
      "name": "ERC20InsufficientBalance",
      "type": "error"
    },
    {
      "inputs": [
        {
          "internalType": "address",
          "name": "approver",
          "type": "address"
        }
      ],
      "name": "ERC20InvalidApprover",
      "type": "error"
    },
    {
      "inputs": [
        {
          "internalType": "address",
          "name": "receiver",
          "type": "address"
        }
      ],
      "name": "ERC20InvalidReceiver",
      "type": "error"
    },
    {
      "inputs": [
        {
          "internalType": "address",
          "name": "sender",
          "type": "address"
        }
      ],
      "name": "ERC20InvalidSender",
      "type": "error"
    },
    {
      "inputs": [
        {
          "internalType": "address",
          "name": "spender",
          "type": "address"
        }
      ],
      "name": "ERC20InvalidSpender",
      "type": "error"
    },
    {
      "inputs": [],
      "name": "FailedCall",
      "type": "error"
    },
    {
      "inputs": [],
      "name": "InvalidInitialization",
      "type": "error"
    },
    {
      "inputs": [],
      "name": "NotInitializing",
      "type": "error"
    },
    {
      "inputs": [
        {
          "internalType": "address",
          "name": "owner",
          "type": "address"
        }
      ],
      "name": "OwnableInvalidOwner",
      "type": "error"
    },
    {
      "inputs": [
        {
          "internalType": "address",
          "name": "account",
          "type": "address"
        }
      ],
      "name": "OwnableUnauthorizedAccount",
      "type": "error"
    },
    {
      "inputs": [],
      "name": "UUPSUnauthorizedCallContext",
      "type": "error"
    },
    {
      "inputs": [
        {
          "internalType": "bytes32",
          "name": "slot",
          "type": "bytes32"
        }
      ],
      "name": "UUPSUnsupportedProxiableUUID",
      "type": "error"
    },
    {
      "anonymous": false,
      "inputs": [
        {
          "indexed": true,
          "internalType": "address",
          "name": "owner",
          "type": "address"
        },
        {
          "indexed": true,
          "internalType": "address",
          "name": "spender",
          "type": "address"
        },
        {
          "indexed": false,
          "internalType": "uint256",
          "name": "value",
          "type": "uint256"
        }
      ],
      "name": "Approval",
      "type": "event"
    },
    {
      "anonymous": false,
      "inputs": [
        {
          "indexed": false,
          "internalType": "uint64",
          "name": "version",
          "type": "uint64"
        }
      ],
      "name": "Initialized",
      "type": "event"
    },
    {
      "anonymous": false,
      "inputs": [
        {
          "indexed": true,
          "internalType": "address",
          "name": "previousOwner",
          "type": "address"
        },
        {
          "indexed": true,
          "internalType": "address",
          "name": "newOwner",
          "type": "address"
        }
      ],
      "name": "OwnershipTransferred",
      "type": "event"
    },
    {
      "anonymous": false,
      "inputs": [
        {
          "indexed": true,
          "internalType": "address",
          "name": "from",
          "type": "address"
        },
        {
          "indexed": true,
          "internalType": "address",
          "name": "to",
          "type": "address"
        },
        {
          "indexed": false,
          "internalType": "uint256",
          "name": "value",
          "type": "uint256"
        }
      ],
      "name": "Transfer",
      "type": "event"
    },
    {
      "anonymous": false,
      "inputs": [
        {
          "indexed": true,
          "internalType": "address",
          "name": "implementation",
          "type": "address"
        }
      ],
      "name": "Upgraded",
      "type": "event"
    },
    {
      "inputs": [],
      "name": "MAX_SUPPLY",
      "outputs": [
        {
          "internalType": "uint256",
          "name": "",
          "type": "uint256"
        }
      ],
      "stateMutability": "view",
      "type": "function"
    },
    {
      "inputs": [],
      "name": "UPGRADE_INTERFACE_VERSION",
      "outputs": [
        {
          "internalType": "string",
          "name": "",
          "type": "string"
        }
      ],
      "stateMutability": "view",
      "type": "function"
    },
    {
      "inputs": [
        {
          "internalType": "address",
          "name": "owner",
          "type": "address"
        },
        {
          "internalType": "address",
          "name": "spender",
          "type": "address"
        }
      ],
      "name": "allowance",
      "outputs": [
        {
          "internalType": "uint256",
          "name": "",
          "type": "uint256"
        }
      ],
      "stateMutability": "view",
      "type": "function"
    },
    {
      "inputs": [
        {
          "internalType": "address",
          "name": "spender",
          "type": "address"
        },
        {
          "internalType": "uint256",
          "name": "value",
          "type": "uint256"
        }
      ],
      "name": "approve",
      "outputs": [
        {
          "internalType": "bool",
          "name": "",
          "type": "bool"
        }
      ],
      "stateMutability": "nonpayable",
      "type": "function"
    },
    {
      "inputs": [
        {
          "internalType": "address",
          "name": "account",
          "type": "address"
        }
      ],
      "name": "balanceOf",
      "outputs": [
        {
          "internalType": "uint256",
          "name": "",
          "type": "uint256"
        }
      ],
      "stateMutability": "view",
      "type": "function"
    },
    {
      "inputs": [
        {
          "internalType": "uint256",
          "name": "amount",
          "type": "uint256"
        }
      ],
      "name": "burn",
      "outputs": [],
      "stateMutability": "nonpayable",
      "type": "function"
    },
    {
      "inputs": [
        {
          "internalType": "address",
          "name": "account",
          "type": "address"
        },
        {
          "internalType": "uint256",
          "name": "amount",
          "type": "uint256"
        }
      ],
      "name": "burnFrom",
      "outputs": [],
      "stateMutability": "nonpayable",
      "type": "function"
    },
    {
      "inputs": [],
      "name": "decimals",
      "outputs": [
        {
          "internalType": "uint8",
          "name": "",
          "type": "uint8"
        }
      ],
      "stateMutability": "view",
      "type": "function"
    },
    {
      "inputs": [],
      "name": "initialMintDone",
      "outputs": [
        {
          "internalType": "bool",
          "name": "",
          "type": "bool"
        }
      ],
      "stateMutability": "view",
      "type": "function"
    },
    {
      "inputs": [
        {
          "internalType": "address",
          "name": "owner_",
          "type": "address"
        }
      ],
      "name": "initialize",
      "outputs": [],
      "stateMutability": "nonpayable",
      "type": "function"
    },
    {
      "inputs": [],
      "name": "name",
      "outputs": [
        {
          "internalType": "string",
          "name": "",
          "type": "string"
        }
      ],
      "stateMutability": "view",
      "type": "function"
    },
    {
      "inputs": [],
      "name": "owner",
      "outputs": [
        {
          "internalType": "address",
          "name": "",
          "type": "address"
        }
      ],
      "stateMutability": "view",
      "type": "function"
    },
    {
      "inputs": [],
      "name": "proxiableUUID",
      "outputs": [
        {
          "internalType": "bytes32",
          "name": "",
          "type": "bytes32"
        }
      ],
      "stateMutability": "view",
      "type": "function"
    },
    {
      "inputs": [],
      "name": "renounceOwnership",
      "outputs": [],
      "stateMutability": "nonpayable",
      "type": "function"
    },
    {
      "inputs": [],
      "name": "symbol",
      "outputs": [
        {
          "internalType": "string",
          "name": "",
          "type": "string"
        }
      ],
      "stateMutability": "view",
      "type": "function"
    },
    {
      "inputs": [],
      "name": "totalSupply",
      "outputs": [
        {
          "internalType": "uint256",
          "name": "",
          "type": "uint256"
        }
      ],
      "stateMutability": "view",
      "type": "function"
    },
    {
      "inputs": [
        {
          "internalType": "address",
          "name": "to",
          "type": "address"
        },
        {
          "internalType": "uint256",
          "name": "value",
          "type": "uint256"
        }
      ],
      "name": "transfer",
      "outputs": [
        {
          "internalType": "bool",
          "name": "",
          "type": "bool"
        }
      ],
      "stateMutability": "nonpayable",
      "type": "function"
    },
    {
      "inputs": [
        {
          "internalType": "address",
          "name": "from",
          "type": "address"
        },
        {
          "internalType": "address",
          "name": "to",
          "type": "address"
        },
        {
          "internalType": "uint256",
          "name": "value",
          "type": "uint256"
        }
      ],
      "name": "transferFrom",
      "outputs": [
        {
          "internalType": "bool",
          "name": "",
          "type": "bool"
        }
      ],
      "stateMutability": "nonpayable",
      "type": "function"
    },
    {
      "inputs": [
        {
          "internalType": "address",
          "name": "newOwner",
          "type": "address"
        }
      ],
      "name": "transferOwnership",
      "outputs": [],
      "stateMutability": "nonpayable",
      "type": "function"
    },
    {
      "inputs": [
        {
          "internalType": "address",
          "name": "newImplementation",
          "type": "address"
        },
        {
          "internalType": "bytes",
          "name": "data",
          "type": "bytes"
        }
      ],
      "name": "upgradeToAndCall",
      "outputs": [],
      "stateMutability": "payable",
      "type": "function"
    }
  ],
  "bytecode": "0x60a06040523060805234801561001457600080fd5b5061001d610022565b6100d4565b7ff0c57e16840df040f15088dc2f81fe391c3923bec73e23a9662efc9c229c6a00805468010000000000000000900460ff16156100725760405163f92ee8a960e01b815260040160405180910390fd5b80546001600160401b03908116146100d15780546001600160401b0319166001600160401b0390811782556040519081527fc7f505b2f371ae2175ee4913f4499e1f2633a7b5936321eed1cdaeb6115181d29060200160405180910390a15b50565b6080516114916100fd600039600081816108d4015281816108fd0152610a3e01526114916000f3fe60806040526004361061011f5760003560e01c806370a08231116100a0578063a9059cbb11610064578063a9059cbb14610350578063ad3cb1cc14610370578063c4d66de8146103a1578063dd62ed3e146103c1578063f2fde38b146103e157600080fd5b806370a082311461027c578063715018a6146102bf57806379cc6790146102d45780638da5cb5b146102f457806395d89b411461033b57600080fd5b806332cb6b0c116100e757806332cb6b0c146101f957806336c545ca1461021857806342966c68146102325780634f1ef2861461025457806352d1902d1461026757600080fd5b806306fdde0314610124578063095ea7b31461014f57806318160ddd1461017f57806323b872dd146101bd578063313ce567146101dd575b600080fd5b34801561013057600080fd5b50610139610401565b6040516101469190611088565b60405180910390f35b34801561015b57600080fd5b5061016f61016a3660046110d7565b6104c4565b6040519015158152602001610146565b34801561018b57600080fd5b507f52c63247e1f47db19d5ce0460030c497f067ca4cebf71ba98eeadabe20bace02545b604051908152602001610146565b3480156101c957600080fd5b5061016f6101d8366004611101565b6104de565b3480156101e957600080fd5b5060405160128152602001610146565b34801561020557600080fd5b506101af6a084595161401484a00000081565b34801561022457600080fd5b5060005461016f9060ff1681565b34801561023e57600080fd5b5061025261024d36600461113e565b610504565b005b61025261026236600461116d565b610511565b34801561027357600080fd5b506101af610530565b34801561028857600080fd5b506101af610297366004611237565b6001600160a01b0316600090815260008051602061141c833981519152602052604090205490565b3480156102cb57600080fd5b5061025261054d565b3480156102e057600080fd5b506102526102ef3660046110d7565b610561565b34801561030057600080fd5b507f9016d09d72d40fdae2fd8ceac6b6234c7706214fd39c1cd1e609a0528c199300546040516001600160a01b039091168152602001610146565b34801561034757600080fd5b50610139610576565b34801561035c57600080fd5b5061016f61036b3660046110d7565b6105b5565b34801561037c57600080fd5b50610139604051806040016040528060058152602001640352e302e360dc1b81525081565b3480156103ad57600080fd5b506102526103bc366004611237565b6105c3565b3480156103cd57600080fd5b506101af6103dc366004611252565b610731565b3480156103ed57600080fd5b506102526103fc366004611237565b61077b565b7f52c63247e1f47db19d5ce0460030c497f067ca4cebf71ba98eeadabe20bace03805460609160008051602061141c8339815191529161044090611285565b80601f016020809104026020016040519081016040528092919081815260200182805461046c90611285565b80156104b95780601f1061048e576101008083540402835291602001916104b9565b820191906000526020600020905b81548152906001019060200180831161049c57829003601f168201915b505050505091505090565b6000336104d28185856107bb565b60019150505b92915050565b6000336104ec8582856107cd565b6104f7858585610834565b60019150505b9392505050565b61050e3382610893565b50565b6105196108c9565b6105228261096e565b61052c8282610976565b5050565b600061053a610a33565b5060008051602061143c83398151915290565b610555610a7c565b61055f6000610ad7565b565b61056c8233836107cd565b61052c8282610893565b7f52c63247e1f47db19d5ce0460030c497f067ca4cebf71ba98eeadabe20bace04805460609160008051602061141c8339815191529161044090611285565b6000336104d2818585610834565b60006105cd610b48565b805490915060ff600160401b820416159067ffffffffffffffff166000811580156105f55750825b905060008267ffffffffffffffff1660011480156106125750303b155b905081158015610620575080155b1561063e5760405163f92ee8a960e01b815260040160405180910390fd5b845467ffffffffffffffff19166001178555831561066857845460ff60401b1916600160401b1785555b6106b06040518060400160405280600a8152602001692322a2a2102a37b5b2b760b11b815250604051806040016040528060048152602001631191515160e21b815250610b71565b6106b986610b83565b6106c1610b94565b6106d6866a084595161401484a000000610b9c565b6000805460ff19166001179055831561072957845460ff60401b19168555604051600181527fc7f505b2f371ae2175ee4913f4499e1f2633a7b5936321eed1cdaeb6115181d29060200160405180910390a15b505050505050565b6001600160a01b0391821660009081527f52c63247e1f47db19d5ce0460030c497f067ca4cebf71ba98eeadabe20bace016020908152604080832093909416825291909152205490565b610783610a7c565b6001600160a01b0381166107b257604051631e4fbdf760e01b8152600060048201526024015b60405180910390fd5b61050e81610ad7565b6107c88383836001610bd2565b505050565b60006107d98484610731565b905060001981101561082e578181101561081f57604051637dc7a0d960e11b81526001600160a01b038416600482015260248101829052604481018390526064016107a9565b61082e84848484036000610bd2565b50505050565b6001600160a01b03831661085e57604051634b637e8f60e11b8152600060048201526024016107a9565b6001600160a01b0382166108885760405163ec442f0560e01b8152600060048201526024016107a9565b6107c8838383610cba565b6001600160a01b0382166108bd57604051634b637e8f60e11b8152600060048201526024016107a9565b61052c82600083610cba565b306001600160a01b037f000000000000000000000000000000000000000000000000000000000000000016148061095057507f00000000000000000000000000000000000000000000000000000000000000006001600160a01b031661094460008051602061143c833981519152546001600160a01b031690565b6001600160a01b031614155b1561055f5760405163703e46dd60e11b815260040160405180910390fd5b61050e610a7c565b816001600160a01b03166352d1902d6040518163ffffffff1660e01b8152600401602060405180830381865afa9250505080156109d0575060408051601f3d908101601f191682019092526109cd918101906112bf565b60015b6109f857604051634c9c8ce360e01b81526001600160a01b03831660048201526024016107a9565b60008051602061143c8339815191528114610a2957604051632a87526960e21b8152600481018290526024016107a9565b6107c88383610df8565b306001600160a01b037f0000000000000000000000000000000000000000000000000000000000000000161461055f5760405163703e46dd60e11b815260040160405180910390fd5b33610aae7f9016d09d72d40fdae2fd8ceac6b6234c7706214fd39c1cd1e609a0528c199300546001600160a01b031690565b6001600160a01b03161461055f5760405163118cdaa760e01b81523360048201526024016107a9565b7f9016d09d72d40fdae2fd8ceac6b6234c7706214fd39c1cd1e609a0528c19930080546001600160a01b031981166001600160a01b03848116918217845560405192169182907f8be0079c531659141344cd1fd0a4f28419497f9722a3daafe3b4186f6b6457e090600090a3505050565b6000807ff0c57e16840df040f15088dc2f81fe391c3923bec73e23a9662efc9c229c6a006104d8565b610b79610e4e565b61052c8282610e73565b610b8b610e4e565b61050e81610ec4565b61055f610e4e565b6001600160a01b038216610bc65760405163ec442f0560e01b8152600060048201526024016107a9565b61052c60008383610cba565b60008051602061141c8339815191526001600160a01b038516610c0b5760405163e602df0560e01b8152600060048201526024016107a9565b6001600160a01b038416610c3557604051634a1406b160e11b8152600060048201526024016107a9565b6001600160a01b03808616600090815260018301602090815260408083209388168352929052208390558115610cb357836001600160a01b0316856001600160a01b03167f8c5be1e5ebec7d5bd14f71427d1e84f3dd0314c0f7b2291e5b200ac8c7c3b92585604051610caa91815260200190565b60405180910390a35b5050505050565b60008051602061141c8339815191526001600160a01b038416610cf65781816002016000828254610ceb91906112d8565b90915550610d689050565b6001600160a01b03841660009081526020829052604090205482811015610d495760405163391434e360e21b81526001600160a01b038616600482015260248101829052604481018490526064016107a9565b6001600160a01b03851660009081526020839052604090209083900390555b6001600160a01b038316610d86576002810180548390039055610da5565b6001600160a01b03831660009081526020829052604090208054830190555b826001600160a01b0316846001600160a01b03167fddf252ad1be2c89b69c2b068fc378daa952ba7f163c4a11628f55a4df523b3ef84604051610dea91815260200190565b60405180910390a350505050565b610e0182610ecc565b6040516001600160a01b038316907fbc7cd75a20ee27fd9adebab32041f755214dbc6bffa90cc0225b39da2e5c2d3b90600090a2805115610e46576107c88282610f31565b61052c610fa7565b610e56610fc6565b61055f57604051631afcd79f60e31b815260040160405180910390fd5b610e7b610e4e565b60008051602061141c8339815191527f52c63247e1f47db19d5ce0460030c497f067ca4cebf71ba98eeadabe20bace03610eb58482611340565b506004810161082e8382611340565b610783610e4e565b806001600160a01b03163b600003610f0257604051634c9c8ce360e01b81526001600160a01b03821660048201526024016107a9565b60008051602061143c83398151915280546001600160a01b0319166001600160a01b0392909216919091179055565b6060600080846001600160a01b031684604051610f4e91906113ff565b600060405180830381855af49150503d8060008114610f89576040519150601f19603f3d011682016040523d82523d6000602084013e610f8e565b606091505b5091509150610f9e858383610fe0565b95945050505050565b341561055f5760405163b398979f60e01b815260040160405180910390fd5b6000610fd0610b48565b54600160401b900460ff16919050565b606082610ff557610ff08261103c565b6104fd565b815115801561100c57506001600160a01b0384163b155b1561103557604051639996b31560e01b81526001600160a01b03851660048201526024016107a9565b50806104fd565b80511561104b57805160208201fd5b60405163d6bda27560e01b815260040160405180910390fd5b60005b8381101561107f578181015183820152602001611067565b50506000910152565b60208152600082518060208401526110a7816040850160208701611064565b601f01601f19169190910160400192915050565b80356001600160a01b03811681146110d257600080fd5b919050565b600080604083850312156110ea57600080fd5b6110f3836110bb565b946020939093013593505050565b60008060006060848603121561111657600080fd5b61111f846110bb565b925061112d602085016110bb565b929592945050506040919091013590565b60006020828403121561115057600080fd5b5035919050565b634e487b7160e01b600052604160045260246000fd5b6000806040838503121561118057600080fd5b611189836110bb565b9150602083013567ffffffffffffffff8111156111a557600080fd5b8301601f810185136111b657600080fd5b803567ffffffffffffffff8111156111d0576111d0611157565b604051601f8201601f19908116603f0116810167ffffffffffffffff811182821017156111ff576111ff611157565b60405281815282820160200187101561121757600080fd5b816020840160208301376000602083830101528093505050509250929050565b60006020828403121561124957600080fd5b6104fd826110bb565b6000806040838503121561126557600080fd5b61126e836110bb565b915061127c602084016110bb565b90509250929050565b600181811c9082168061129957607f821691505b6020821081036112b957634e487b7160e01b600052602260045260246000fd5b50919050565b6000602082840312156112d157600080fd5b5051919050565b808201808211156104d857634e487b7160e01b600052601160045260246000fd5b601f8211156107c857806000526020600020601f840160051c810160208510156113205750805b601f840160051c820191505b81811015610cb3576000815560010161132c565b815167ffffffffffffffff81111561135a5761135a611157565b61136e816113688454611285565b846112f9565b6020601f8211600181146113a2576000831561138a5750848201515b600019600385901b1c1916600184901b178455610cb3565b600084815260208120601f198516915b828110156113d257878501518255602094850194600190920191016113b2565b50848210156113f05786840151600019600387901b60f8161c191681555b50505050600190811b01905550565b60008251611411818460208701611064565b919091019291505056fe52c63247e1f47db19d5ce0460030c497f067ca4cebf71ba98eeadabe20bace00360894a13ba1a3210667c828492db98dca3e2076cc3735a920a3ca505d382bbca264697066735822122079300aa7dba3fdb6eafacb87313b18bcbc1391821bf09e47527e4ddb677140c664736f6c634300081c0033",
  "linkReferences": {},
  "deployedLinkReferences": {}
}