{
  "_format": "hh-sol-artifact-1",
  "contractName": "FEEDToken",
  "sourceName": "contracts/FEEDToken.sol",
  "abi": [
    {
      "inputs": [],
      "stateMutability": "nonpayable",
      "type": "constructor"
    },
    {
      "inputs": [
        {
          "internalType": "address",
          "name": "target",
          "type": "address"
        }
      ],
      "name": "AddressEmptyCode",
      "type": "error"
    },
    {
      "inputs": [
        {
          "internalType": "address",
          "name": "implementation",
          "type": "address"
        }
      ],
      "name": "ERC1967InvalidImplementation",
      "type": "error"
    },
    {
      "inputs": [],
      "name": "ERC1967NonPayable",
      "type": "error"
    },
    {
      "inputs": [
        {
          "internalType": "address",
          "name": "spender",
          "type": "address"
        },
        {
          "internalType": "uint256",
          "name": "allowance",
          "type": "uint256"
        },
        {
          "internalType": "uint256",
          "name": "needed",
          "type": "uint256"
        }
      ],
      "name": "ERC20InsufficientAllowance",
      "type": "error"
    },
    {
      "inputs": [
        {
          "internalType": "address",
          "name": "sender",
          "type": "address"
        },
        {
          "internalType": "uint256",
          "name": "balance",
          "type": "uint256"
        },
        {
          "internalType": "uint256",
          "name": "needed",
          "type": "uint256"
        }
      ],
      "name": "ERC20InsufficientBalance",
      "type": "error"
    },
    {
      "inputs": [
        {
          "internalType": "address",
          "name": "approver",
          "type": "address"
        }
      ],
      "name": "ERC20InvalidApprover",
      "type": "error"
    },
    {
      "inputs": [
        {
          "internalType": "address",
          "name": "receiver",
          "type": "address"
        }
      ],
      "name": "ERC20InvalidReceiver",
      "type": "error"
    },
    {
      "inputs": [
        {
          "internalType": "address",
          "name": "sender",
          "type": "address"
        }
      ],
      "name": "ERC20InvalidSender",
      "type": "error"
    },
    {
      "inputs": [
        {
          "internalType": "address",
          "name": "spender",
          "type": "address"
        }
      ],
      "name": "ERC20InvalidSpender",
      "type": "error"
    },
    {
      "inputs": [],
      "name": "FailedCall",
      "type": "error"
    },
    {
      "inputs": [],
      "name": "InvalidInitialization",
      "type": "error"
    },
    {
      "inputs": [],
      "name": "NotInitializing",
      "type": "error"
    },
    {
      "inputs": [
        {
          "internalType": "address",
          "name": "owner",
          "type": "address"
        }
      ],
      "name": "OwnableInvalidOwner",
      "type": "error"
    },
    {
      "inputs": [
        {
          "internalType": "address",
          "name": "account",
          "type": "address"
        }
      ],
      "name": "OwnableUnauthorizedAccount",
      "type": "error"
    },
    {
      "inputs": [],
      "name": "UUPSUnauthorizedCallContext",
      "type": "error"
    },
    {
      "inputs": [
        {
          "internalType": "bytes32",
          "name": "slot",
          "type": "bytes32"
        }
      ],
      "name": "UUPSUnsupportedProxiableUUID",
      "type": "error"
    },
    {
      "anonymous": false,
      "inputs": [
        {
          "indexed": true,
          "internalType": "address",
          "name": "owner",
          "type": "address"
        },
        {
          "indexed": true,
          "internalType": "address",
          "name": "spender",
          "type": "address"
        },
        {
          "indexed": false,
          "internalType": "uint256",
          "name": "value",
          "type": "uint256"
        }
      ],
      "name": "Approval",
      "type": "event"
    },
    {
      "anonymous": false,
      "inputs": [
        {
          "indexed": false,
          "internalType": "uint64",
          "name": "version",
          "type": "uint64"
        }
      ],
      "name": "Initialized",
      "type": "event"
    },
    {
      "anonymous": false,
      "inputs": [
        {
          "indexed": true,
          "internalType": "address",
          "name": "previousOwner",
          "type": "address"
        },
        {
          "indexed": true,
          "internalType": "address",
          "name": "newOwner",
          "type": "address"
        }
      ],
      "name": "OwnershipTransferred",
      "type": "event"
    },
    {
      "anonymous": false,
      "inputs": [
        {
          "indexed": true,
          "internalType": "address",
          "name": "from",
          "type": "address"
        },
        {
          "indexed": true,
          "internalType": "address",
          "name": "to",
          "type": "address"
        },
        {
          "indexed": false,
          "internalType": "uint256",
          "name": "value",
          "type": "uint256"
        }
      ],
      "name": "Transfer",
      "type": "event"
    },
    {
      "anonymous": false,
      "inputs": [
        {
          "indexed": true,
          "internalType": "address",
          "name": "implementation",
          "type": "address"
        }
      ],
      "name": "Upgraded",
      "type": "event"
    },
    {
      "inputs": [],
      "name": "MAX_SUPPLY",
      "outputs": [
        {
          "internalType": "uint256",
          "name": "",
          "type": "uint256"
        }
      ],
      "stateMutability": "view",
      "type": "function"
    },
    {
      "inputs": [],
      "name": "UPGRADE_INTERFACE_VERSION",
      "outputs": [
        {
          "internalType": "string",
          "name": "",
          "type": "string"
        }
      ],
      "stateMutability": "view",
      "type": "function"
    },
    {
      "inputs": [
        {
          "internalType": "address",
          "name": "owner",
          "type": "address"
        },
        {
          "internalType": "address",
          "name": "spender",
          "type": "address"
        }
      ],
      "name": "allowance",
      "outputs": [
        {
          "internalType": "uint256",
          "name": "",
          "type": "uint256"
        }
      ],
      "stateMutability": "view",
      "type": "function"
    },
    {
      "inputs": [
        {
          "internalType": "address",
          "name": "spender",
          "type": "address"
        },
        {
          "internalType": "uint256",
          "name": "value",
          "type": "uint256"
        }
      ],
      "name": "approve",
      "outputs": [
        {
          "internalType": "bool",
          "name": "",
          "type": "bool"
        }
      ],
      "stateMutability": "nonpayable",
      "type": "function"
    },
    {
      "inputs": [
        {
          "internalType": "address",
          "name": "account",
          "type": "address"
        }
      ],
      "name": "balanceOf",
      "outputs": [
        {
          "internalType": "uint256",
          "name": "",
          "type": "uint256"
        }
      ],
      "stateMutability": "view",
      "type": "function"
    },
    {
      "inputs": [
        {
          "internalType": "uint256",
          "name": "amount",
          "type": "uint256"
        }
      ],
      "name": "burn",
      "outputs": [],
      "stateMutability": "nonpayable",
      "type": "function"
    },
    {
      "inputs": [
        {
          "internalType": "address",
          "name": "account",
          "type": "address"
        },
        {
          "internalType": "uint256",
          "name": "amount",
          "type": "uint256"
        }
      ],
      "name": "burnFrom",
      "outputs": [],
      "stateMutability": "nonpayable",
      "type": "function"
    },
    {
      "inputs": [],
      "name": "decimals",
      "outputs": [
        {
          "internalType": "uint8",
          "name": "",
          "type": "uint8"
        }
      ],
      "stateMutability": "view",
      "type": "function"
    },
    {
      "inputs": [],
      "name": "initialMintDone",
      "outputs": [
        {
          "internalType": "bool",
          "name": "",
          "type": "bool"
        }
      ],
      "stateMutability": "view",
      "type": "function"
    },
    {
      "inputs": [
        {
          "internalType": "address",
          "name": "owner_",
          "type": "address"
        }
      ],
      "name": "initialize",
      "outputs": [],
      "stateMutability": "nonpayable",
      "type": "function"
    },
    {
      "inputs": [],
      "name": "name",
      "outputs": [
        {
          "internalType": "string",
          "name": "",
          "type": "string"
        }
      ],
      "stateMutability": "view",
      "type": "function"
    },
    {
      "inputs": [],
      "name": "owner",
      "outputs": [
        {
          "internalType": "address",
          "name": "",
          "type": "address"
        }
      ],
      "stateMutability": "view",
      "type": "function"
    },
    {
      "inputs": [],
      "name": "proxiableUUID",
      "outputs": [
        {
          "internalType": "bytes32",
          "name": "",
          "type": "bytes32"
        }
      ],
      "stateMutability": "view",
      "type": "function"
    },
    {
      "inputs": [],
      "name": "renounceOwnership",
      "outputs": [],
      "stateMutability": "nonpayable",
      "type": "function"
    },
    {
      "inputs": [],
      "name": "symbol",
      "outputs": [
        {
          "internalType": "string",
          "name": "",
          "type": "string"
        }
      ],
      "stateMutability": "view",
      "type": "function"
    },
    {
      "inputs": [],
      "name": "totalSupply",
      "outputs": [
        {
          "internalType": "uint256",
          "name": "",
          "type": "uint256"
        }
      ],
      "stateMutability": "view",
      "type": "function"
    },
    {
      "inputs": [
        {
          "internalType": "address",
          "name": "to",
          "type": "address"
        },
        {
          "internalType": "uint256",
          "name": "value",
          "type": "uint256"
        }
      ],
      "name": "transfer",
      "outputs": [
        {
          "internalType": "bool",
          "name": "",
          "type": "bool"
        }
      ],
      "stateMutability": "nonpayable",
      "type": "function"
    },
    {
      "inputs": [
        {
          "internalType": "address",
          "name": "from",
          "type": "address"
        },
        {
          "internalType": "address",
          "name": "to",
          "type": "address"
        },
        {
          "internalType": "uint256",
          "name": "value",
          "type": "uint256"
        }
      ],
      "name": "transferFrom",
      "outputs": [
        {
          "internalType": "bool",
          "name": "",
          "type": "bool"
        }
      ],
      "stateMutability": "nonpayable",
      "type": "function"
    },
    {
      "inputs": [
        {
          "internalType": "address",
          "name": "newOwner",
          "type": "address"
        }
      ],
      "name": "transferOwnership",
      "outputs": [],
      "stateMutability": "nonpayable",
      "type": "function"
    },
    {
      "inputs": [
        {
          "internalType": "address",
          "name": "newImplementation",
          "type": "address"
        },
        {
          "internalType": "bytes",
          "name": "data",
          "type": "bytes"
        }
      ],
      "name": "upgradeToAndCall",
      "outputs": [],
      "stateMutability": "payable",
      "type": "function"
    }
  ],
  "bytecode": "0x60a080604052346100ea57306080527ff0c57e16840df040f15088dc2f81fe391c3923bec73e23a9662efc9c229c6a005460ff8160401c166100d9576002600160401b03196001600160401b03821601610073575b60405161142890816100f082396080518181816109900152610a640152f35b6001600160401b0319166001600160401b039081177ff0c57e16840df040f15088dc2f81fe391c3923bec73e23a9662efc9c229c6a005581527fc7f505b2f371ae2175ee4913f4499e1f2633a7b5936321eed1cdaeb6115181d290602090a13880610054565b63f92ee8a960e01b60005260046000fd5b600080fdfe6080604052600436101561001257600080fd5b60003560e01c806306fdde0314610dba578063095ea7b314610d0d57806318160ddd14610ce257806323b872dd14610caa578063313ce56714610c8e57806332cb6b0c14610c6857806336c545ca14610c4557806342966c6814610c285780634f1ef286146109e757806352d1902d1461097d57806370a0823114610936578063715018a6146108cc57806379cc67901461089c5780638da5cb5b1461086657806395d89b4114610773578063a9059cbb14610742578063ad3cb1cc146106ff578063c4d66de814610171578063dd62ed3e146101285763f2fde38b146100f857600080fd5b3461012357602036600319011261012357610121610114610ec5565b61011c61124d565b610fa2565b005b600080fd5b3461012357604036600319011261012357610141610ec5565b61015261014c610edb565b91610f69565b9060018060a01b03166000526020526020604060002054604051908152f35b346101235760203660031901126101235761018a610ec5565b6000805160206113d38339815191525460ff8160401c16159067ffffffffffffffff8116801590816106f7575b60011490816106ed575b1590816106e4575b506106d35767ffffffffffffffff1981166001176000805160206113d383398151915255816106a6575b5060408051926102038285610ef1565b600a8452692322a2a2102a37b5b2b760b11b60208501528151936102278386610ef1565b60048552631191515160e21b6020860152610240611283565b610248611283565b80519067ffffffffffffffff821161058657819061027460008051602061131383398151915254610f2f565b601f8111610629575b50602090601f83116001146105a75760009261059c575b50508160011b916000199060031b1c191617600080516020611313833981519152555b835167ffffffffffffffff8111610586576102e060008051602061135383398151915254610f2f565b601f8111610514575b50602094601f821160011461049357948192939495600092610488575b50508160011b916000199060031b1c191617600080516020611353833981519152555b610331611283565b610339611283565b61034281610fa2565b61034a611283565b6001600160a01b031691821561047257600080516020611393833981519152546a084595161401484a000000810180911161045c57600080516020611393833981519152556000928084526000805160206113338339815191526020528284206a084595161401484a0000008154019055837fddf252ad1be2c89b69c2b068fc378daa952ba7f163c4a11628f55a4df523b3ef602085516a084595161401484a0000008152a3825460ff19166001178355610403575080f35b60207fc7f505b2f371ae2175ee4913f4499e1f2633a7b5936321eed1cdaeb6115181d29168ff0000000000000000196000805160206113d383398151915254166000805160206113d3833981519152555160018152a180f35b634e487b7160e01b600052601160045260246000fd5b63ec442f0560e01b600052600060045260246000fd5b015190508580610306565b601f19821695600080516020611353833981519152600052806000209160005b8881106104fc575083600195969798106104e3575b505050811b0160008051602061135383398151915255610329565b015160001960f88460031b161c191690558580806104c8565b919260206001819286850151815501940192016104b3565b6000805160206113538339815191526000527f46a2803e59a4de4e7a4c574b1243f25977ac4c77d5a1a4a609b5394cebb4a2aa601f830160051c8101916020841061057c575b601f0160051c01905b81811061057057506102e9565b60008155600101610563565b909150819061055a565b634e487b7160e01b600052604160045260246000fd5b015190508680610294565b60008051602061131383398151915260009081528281209350601f198516905b81811061061157509084600195949392106105f8575b505050811b01600080516020611313833981519152556102b7565b015160001960f88460031b161c191690558680806105dd565b929360206001819287860151815501950193016105c7565b6000805160206113138339815191526000529091507f2ae08a8e29253f69ac5d979a101956ab8f8d9d7ded63fa7a83b16fc47648eab0601f840160051c8101916020851061069c575b90601f859493920160051c01905b81811061068d575061027d565b60008155849350600101610680565b9091508190610672565b68ffffffffffffffffff191668010000000000000001176000805160206113d383398151915255826101f3565b63f92ee8a960e01b60005260046000fd5b905015846101c9565b303b1591506101c1565b8391506101b7565b346101235760003660031901126101235761073e60408051906107228183610ef1565b60058252640352e302e360dc1b60208301525191829182610e7c565b0390f35b346101235760403660031901126101235761076861075e610ec5565b60243590336110bd565b602060405160018152f35b34610123576000366003190112610123576040516000600080516020611353833981519152546107a281610f2f565b808452906001811690811561084257506001146107d6575b61073e836107ca81850382610ef1565b60405191829182610e7c565b60008051602061135383398151915260009081527f46a2803e59a4de4e7a4c574b1243f25977ac4c77d5a1a4a609b5394cebb4a2aa939250905b808210610828575090915081016020016107ca6107ba565b919260018160209254838588010152019101909291610810565b60ff191660208086019190915291151560051b840190910191506107ca90506107ba565b3461012357600036600319011261012357600080516020611373833981519152546040516001600160a01b039091168152602090f35b34610123576040366003190112610123576101216108b8610ec5565b602435906108c7823383611018565b611196565b34610123576000366003190112610123576108e561124d565b60008051602061137383398151915280546001600160a01b031981169091556000906001600160a01b03167f8be0079c531659141344cd1fd0a4f28419497f9722a3daafe3b4186f6b6457e08280a3005b34610123576020366003190112610123576001600160a01b03610957610ec5565b166000526000805160206113338339815191526020526020604060002054604051908152f35b34610123576000366003190112610123577f00000000000000000000000000000000000000000000000000000000000000006001600160a01b031630036109d65760206040516000805160206113b38339815191528152f35b63703e46dd60e11b60005260046000fd5b6040366003190112610123576109fb610ec5565b6024359067ffffffffffffffff8211610123573660238301121561012357816004013590610a2882610f13565b91610a366040519384610ef1565b8083526020830193366024838301011161012357816000926024602093018737840101526001600160a01b037f000000000000000000000000000000000000000000000000000000000000000016308114908115610c05575b506109d657610a9c61124d565b6040516352d1902d60e01b81526001600160a01b0382169390602081600481885afa60009181610bd1575b50610ae15784634c9c8ce360e01b60005260045260246000fd5b806000805160206113b3833981519152869203610bbd5750823b15610ba9576000805160206113b383398151915280546001600160a01b031916821790557fbc7cd75a20ee27fd9adebab32041f755214dbc6bffa90cc0225b39da2e5c2d3b600080a2825115610b8e5760008091610121945190845af43d15610b86573d91610b6983610f13565b92610b776040519485610ef1565b83523d6000602085013e6112b1565b6060916112b1565b50505034610b9857005b63b398979f60e01b60005260046000fd5b634c9c8ce360e01b60005260045260246000fd5b632a87526960e21b60005260045260246000fd5b9091506020813d602011610bfd575b81610bed60209383610ef1565b8101031261012357519086610ac7565b3d9150610be0565b6000805160206113b3833981519152546001600160a01b03161415905084610a8f565b346101235760203660031901126101235761012160043533611196565b3461012357600036600319011261012357602060ff600054166040519015158152f35b346101235760003660031901126101235760206040516a084595161401484a0000008152f35b3461012357600036600319011261012357602060405160128152f35b3461012357606036600319011261012357610768610cc6610ec5565b610cce610edb565b60443591610cdd833383611018565b6110bd565b3461012357600036600319011261012357602060008051602061139383398151915254604051908152f35b3461012357604036600319011261012357610d26610ec5565b602435903315610da4576001600160a01b0316908115610d8e57610d4933610f69565b82600052602052806040600020556040519081527f8c5be1e5ebec7d5bd14f71427d1e84f3dd0314c0f7b2291e5b200ac8c7c3b92560203392a3602060405160018152f35b634a1406b160e11b600052600060045260246000fd5b63e602df0560e01b600052600060045260246000fd5b3461012357600036600319011261012357604051600060008051602061131383398151915254610de981610f2f565b80845290600181169081156108425750600114610e105761073e836107ca81850382610ef1565b60008051602061131383398151915260009081527f2ae08a8e29253f69ac5d979a101956ab8f8d9d7ded63fa7a83b16fc47648eab0939250905b808210610e62575090915081016020016107ca6107ba565b919260018160209254838588010152019101909291610e4a565b91909160208152825180602083015260005b818110610eaf575060409293506000838284010152601f8019910116010190565b8060208092870101516040828601015201610e8e565b600435906001600160a01b038216820361012357565b602435906001600160a01b038216820361012357565b90601f8019910116810190811067ffffffffffffffff82111761058657604052565b67ffffffffffffffff811161058657601f01601f191660200190565b90600182811c92168015610f5f575b6020831014610f4957565b634e487b7160e01b600052602260045260246000fd5b91607f1691610f3e565b6001600160a01b031660009081527f52c63247e1f47db19d5ce0460030c497f067ca4cebf71ba98eeadabe20bace016020526040902090565b6001600160a01b031680156110025760008051602061137383398151915280546001600160a01b0319811683179091556001600160a01b03167f8be0079c531659141344cd1fd0a4f28419497f9722a3daafe3b4186f6b6457e0600080a3565b631e4fbdf760e01b600052600060045260246000fd5b919061102383610f69565b60018060a01b038216600052602052604060002054926000198410611049575b50505050565b828410611098576001600160a01b03811615610da4576001600160a01b03821615610d8e5761107790610f69565b9060018060a01b031660005260205260406000209103905538808080611043565b508290637dc7a0d960e11b60005260018060a01b031660045260245260445260646000fd5b6001600160a01b0316908115611180576001600160a01b031691821561047257600082815260008051602061133383398151915260205260408120548281106111665791604082827fddf252ad1be2c89b69c2b068fc378daa952ba7f163c4a11628f55a4df523b3ef95876020965260008051602061133383398151915286520382822055868152600080516020611333833981519152845220818154019055604051908152a3565b916064928463391434e360e21b8452600452602452604452fd5b634b637e8f60e11b600052600060045260246000fd5b6001600160a01b0316801561118057600091818352600080516020611333833981519152602052604083205481811061123457817fddf252ad1be2c89b69c2b068fc378daa952ba7f163c4a11628f55a4df523b3ef92602092858752600080516020611333833981519152845203604086205580600080516020611393833981519152540360008051602061139383398151915255604051908152a3565b6064939263391434e360e21b8452600452602452604452fd5b600080516020611373833981519152546001600160a01b0316330361126e57565b63118cdaa760e01b6000523360045260246000fd5b60ff6000805160206113d38339815191525460401c16156112a057565b631afcd79f60e31b60005260046000fd5b906112d757508051156112c657602081519101fd5b63d6bda27560e01b60005260046000fd5b81511580611309575b6112e8575090565b639996b31560e01b60009081526001600160a01b0391909116600452602490fd5b50803b156112e056fe52c63247e1f47db19d5ce0460030c497f067ca4cebf71ba98eeadabe20bace0352c63247e1f47db19d5ce0460030c497f067ca4cebf71ba98eeadabe20bace0052c63247e1f47db19d5ce0460030c497f067ca4cebf71ba98eeadabe20bace049016d09d72d40fdae2fd8ceac6b6234c7706214fd39c1cd1e609a0528c19930052c63247e1f47db19d5ce0460030c497f067ca4cebf71ba98eeadabe20bace02360894a13ba1a3210667c828492db98dca3e2076cc3735a920a3ca505d382bbcf0c57e16840df040f15088dc2f81fe391c3923bec73e23a9662efc9c229c6a00a2646970667358221220cc76451e9443dee4110acbb616615b5d9a2a3048cf93dcb4b7eee68cbb56a31664736f6c634300081c0033",
  "linkReferences": {},
  "deployedLinkReferences": {}
}